:020000040800F2
:10000000B03A0120450300088D2B00086923000841
:10001000D1280008311A00086D42000800000000D5
:100020000000000000000000000000008D02000839
:10003000531C000800000000E102000841350008E0
:100040005F0300085F0300085F0300085F03000808
:100050005F0300085F030008611D0008A51E00087B
:10006000C51F00085F030008DD1F00085F030008CC
:100070005F0300085F0300085F0300085F030008D8
:100080005F0300085F0300085F0300085F030008C8
:100090005F0300085F0300085F030008F51F000806
:1000A0005F030008D93600085F0300085F030008FB
:1000B000013700085F0300085F0300085F030008C2
:1000C0005F0300085F0300085F0300085F03000888
:1000D0005F0300086D3D00085F030008553F0008FE
:1000E000891E00085F0300085F0300085F03000823
:1000F0005F0300085F0300085F0300085F03000858
:100100005F0300085F0300085F0300085F03000847
:10011000093A0008393B00085F030008F53700087A
:10012000D51A00085F0300085F0300085F0300089A
:100130005F0300085F0300085F0300085F03000817
:100140005F0300085F0300085F0300085F03000807
:100150005F0300085F0300085F0300085F030008F7
:100160005F0300085F0300085F0300085F030008E7
:100170005F0300085F0300085F0300085F030008D7
:100180005F0300085F03000800F002F800F06FF85A
:100190000AA090E8000C82448344AAF10107DA45E2
:1001A00001D100F064F8AFF2090EBAE80F0013F0C5
:1001B000010F18BFFB1A43F0010318478C800000A1
:1001C000AC8000000A444FF0000C10F8013B13F023
:1001D000070408BF10F8014B1D1108BF10F8015BA0
:1001E000641E05D010F8016B641E01F8016BF9D193
:1001F00013F0080F1EBF10F8014BAD1C0C1B09D1EA
:100200006D1E58BF01F801CBFAD505E014F8016B5B
:1002100001F8016B6D1EF9D59142D6D370470000ED
:100220000023002400250026103A28BF78C1FBD8FF
:10023000520728BF30C148BF0B607047662906F0DF
:100240009D80642900F01081732900F0B88400209B
:1002500070471FB506F08DF800F01CFD040000206B
:10026000002105F0F9FFE0601FBD10B510BD00F0E2
:100270003DFE1146FFF7EDFF04F098F800F05BFE3D
:1002800003B4FFF7F2FF03BC04F011F82A4B19681E
:100290000868B0E8F04F80F30988BFF36F8F4FF024
:1002A000000080F3118870470000000006480068D5
:1002B000006880F3088862B661B6BFF34F8FBFF362
:1002C0006F8F00DF00BF00BF08ED00E0DFF80C001B
:1002D000016841F470010160704700BF88ED00E0E3
:1002E000EFF30980BFF36F8F134B1A681EF0100FE6
:1002F00008BF20ED108A20E9F04F106008B44FF0DD
:10030000500080F31188BFF34F8FBFF36F8F05F05C
:1003100073F94FF0000080F3118808BC1968086871
:10032000B0E8F04F1EF0100F08BFB0EC108A80F359
:100330000988BFF36F8F704794040020EFF30580A6
:10034000704700000948804709480047FEE7FEE77C
:10035000FEE7FEE7FEE7FEE7FEE7FEE7FEE7FEE775
:1003600004480549054A064B70470000553500080A
:1003700089010008B0340120B03A0120B0360120D4
:10038000B0360120704700000FB4044910B503AA2D
:10039000029800F019FC10BC5DF814FB5C0400200E
:1003A0000FB41CB5074B06AA7B446946009005981C
:1003B00000F0DBFB0020694600F0EAFB1CBC5DF8A6
:1003C00014FB0000E507000070B50446856900686D
:1003D000C10601D5302600E02026C00707D070BD39
:1003E000D4E9012130469047206A401C20626D1EEE
:1003F000F6D570BD70B5044685690078C00707D191
:1004000070BDD4E9012120209047206A401C206261
:100410006D1EF6D570BD70B50C460546012A05D097
:100420002878800600D5EA69002302E0012305E070
:100430005B1C934202D2E05C0028F9D1A869E6185F
:10044000C01AA861286A184428622846FFF7BCFF32
:1004500004E0D5E9012114F8010B9047B442F8D328
:100460002846FFF7C7FF70BD2DE9F041064600247E
:1004700010687529314616A510D0AFF3008000280A
:1004800002DA404213A507E031688A0701D512A5B8
:1004900002E0490704D511A5012401E0AFF3008073
:1004A00000210A2206F1240709E0B0FBF2FCB0FBB0
:1004B000F2F302FB1C00303078541846491C002827
:1004C000F3D123462A463046BDE8F04100F0E0B8BB
:1004D000000000002D0000002B00000020000000A4
:1004E0002DE9F0474FF0000A89460446C0F820A0E5
:1004F0002046E1688847002876D0252806D0D4E930
:1005000001219047206A401C2062F1E7E168204603
:1005100000258847C4F81CA006460027C4F818A088
:100520002A2E09D0304603F0BBFE38B304EB87080F
:10053000303EC8F8186019E059F8041B204604EB57
:1005400087029161E1688847012F064618D1E0696A
:10055000002820DA25F020051DE0D8F8180000EB6F
:10056000800006EB40003038C8F818002046E168EB
:100570008847064603F094FE0028EED1012F0AD0EA
:100580002E2E08D12046E16888477F1C0646022FA0
:1005900045F02005C4DBA069002803DA404245F09D
:1005A0000105A061E80701D025F01005B6B1A6F15C
:1005B0004100192802D8203645F400654A463146E4
:1005C000204625604D46FFF739FE58B1012806D078
:1005D000ED1D25F0070000F1080989E704E005F1A9
:1005E000040985E730468AE7206ABDE8F087032AD8
:1005F00040F2308010F0030C00F0158011F8013B40
:10060000BCF1020F624498BF11F801CB00F8013B26
:1006100038BF11F8013BA2F1040298BF00F801CBEA
:1006200038BF00F8013B11F0030300F0DF82083A05
:10063000C0F0088051F8043B083A51F804CBA0E818
:100640000810F5E7121D5CBF51F8043B40F8043B6D
:10065000AFF30080D20724BF11F8013B11F801CBA2
:1006600048BF11F8012B24BF00F8013B00F801CB73
:1006700048BF00F8012B704702F0FF0343EA032252
:1006800042EA024200F0E6BA70477047704770478E
:100690002DE9F0470D4699469246044600F124089C
:1006A0000168880604D5E06921F01001216000E0AE
:1006B0000120A84201DD471B00E00027A1697A194B
:1006C00002EB0900081AA0612078C00602D4204677
:1006D000FFF77AFE002608E0D4E901211AF80600A7
:1006E0009047206A401C761C20624E45F4DB20783F
:1006F000C0060AD52046FFF767FE06E0D4E90121CF
:1007000030209047206A401C2062381EA7F1010764
:10071000F4DC07E0D4E9012118F805009047206ACD
:10072000401C2062281EA5F10105F3DC2046FFF7DE
:1007300061FE2078000602D50220BDE8F087012086
:10074000FBE770472DE9FF4F0C461E464FF0FF3781
:100750008BB0D2E90001DDF860800A908A46C1F3CF
:100760000A5505B93D46002108464FF00000BAF190
:10077000000F00F4400005DA00EB80004FF4400168
:1007800001EA50004FEA9059B9F1010F00DDB94676
:100790000A9850EA4A000ED044F61050A5F2FF35F0
:1007A00045432F14B8F1000F1ED07542291E1EDDDF
:1007B000C9F100021CE0B8F1010F4FF0000001D0B8
:1007C000302103E0F24305E02154401CB042FBDB42
:1007D00030460022002121540B99C1F80880C1E95C
:1007E00000200FB0BDE8F08FBD1B6D1CDEE74A4650
:1007F00000DA694206A800F0D7FA06AB93E80700D2
:1008000003AB83E8070050460A9900F0DDFB8DE852
:100810000700A0F500501F3800900398002D0ADD56
:1008200042F21F014A460844002303A90390684688
:1008300000F046FE09E0A0F500504A461F380023AC
:1008400003A90390684600F050FE8DE807000004FD
:10085000000C03D04FF0FF30410800E01046B8F123
:10086000000F03D00022009215461EE0751E05D42D
:1008700000F014FA303262556D1EF9D5B3460122EC
:10088000084302D000227F1C04E02078302801D1E8
:1008900000227F1E002A099784D01DE0112D07DA5F
:1008A00000F0FCF9303262556D1C50EA0102F5D1BE
:1008B000084302D00098C8B10EE00021681E05E090
:1008C000235C625C63542254401E491C8142F7DB66
:1008D000AB46A81B401E0990002004F80B000B98A3
:1008E000099AC0F80880C0E9002B7AE711264FF07A
:1008F000000857E72DE9F04F88460446D21D22F044
:10090000070191B0D1E90001CDE90A0103F0B0FC83
:1009100002460B98C00F01D02D2007E02068810708
:1009200001D52B2002E0202101EAC000032A099012
:1009300001D0072A05DB03464146204600F0F4F9C2
:100940000BE12078800601D5E06900E00620B8F1CF
:10095000650F814606D0B8F1660F18D0B8F1670F61
:1009600070D131E00020B9F1110F009001DB1123AB
:1009700001E009F101030AAA01A90CA8FFF7E2FEB0
:10098000DDE90C70002609F10105834647E00120EE
:100990004B4600904FF000470AAA01A90CA8FFF7A8
:1009A000D1FEDDE90DB00C995D46002610B909F1C4
:1009B00001000D18B9EB050003D4C0F1FF3609F1B1
:1009C0000105A5EB09002BE0B9F1010F01DA4FF0A9
:1009D00001090020B9F1110F0090484601DD1123F3
:1009E00000E003460AAA01A90CA8FFF7ABFEDDE967
:1009F0000C704D4600268346207800070AD4AB458C
:100A000000DA5D4601A8012D04DD411911F8011C31
:100A1000302907D04F4502DA17F1040F04DA01201C
:100A200082460FE06D1EEEE7002F02DCED1B3E4418
:100A300003E0781CA84200DD7D1CB81B00F1010A10
:100A40004FF000472078000703D4AA4501DB4FF0A0
:100A5000FF3A0021B7F1004F0DF143088DF8431024
:100A600024D002202B23002F01DA7F422D230A21DC
:100A7000021EA0F1010000DC5FB197FBF1FC97FBC7
:100A8000F1F201FB1C7C17460CF1300C08F801CD8B
:100A9000EEE7A8F1010003702188090501D5452181
:100AA00000E06521A0F1010800F8011C09980FA9D8
:100AB000A1EB0807FF1D00B10120411901EBEA700D
:100AC000A1693844081A401EA0612078C00602D4EB
:100AD0002046FFF779FC099828B1D4E90121904715
:100AE000206A401C20622078C00622D52046FFF7ED
:100AF0006BFC1EE0002E04DBB34502DD01A8805D27
:100B000000E03020D4E901219047206A401C206297
:100B1000761CAAF101005FEA000A0AD100F0BAF8D7
:100B2000C0680168405CD4E901219047206A401CFC
:100B30002062281EA5F10105DCDC07E0D4E90121D3
:100B400018F8010B9047206A401C2062381EA7F15C
:100B50000107F3DC2046FFF74DFC032011B041E60E
:100B600001694A1C02610878704700B58FB0CDE971
:100B700001310021059105497944CDE90310114661
:100B80006846FFF7ADFC0FB000BD0000E5FFFFFFBA
:100B90000A6802F8010B0A60704710B5436913B187
:100BA000AFF3008001E0FFF736FC012010BD1278A2
:100BB00000F124010A7000224A700122EDE7116859
:100BC0004FF0FF32E9E70000074B70B50D467B445C
:100BD000FFF7CBFF0446284600F058F910B14FF05C
:100BE000FF3070BD204670BDC737000010B5203AF9
:100BF000C0F00B80B1E81850203AA0E81850B1E8D6
:100C00001850A0E81850BFF4F5AF5FEA027C24BF8B
:100C1000B1E81850A0E8185044BF18C918C0BDE882
:100C200010405FEA827C24BF51F8043B40F8043B4B
:100C300008BF7047D20728BF31F8023B48BF11F800
:100C4000012B28BF20F8023B48BF00F8012B70475A
:100C50004FF000020429C0F0128010F0030C00F0E5
:100C60001B81CCF1040CBCF1020F18BF00F8012B62
:100C7000A8BF20F8022BA1EB0C0100F00DB95FEA30
:100C8000C17C24BF00F8012B00F8012B48BF00F8FD
:100C9000012B7047004870476C34012030B5B0F12B
:100CA0000A024FEA900E71F100034EEA817EB0EB2A
:100CB0000E0061EB91014FEA101E4EEA017E10EB2F
:100CC0000E0041EB11114FEA102E4EEA016E10EBAF
:100CD0000E0041EB11214FEA104E4EEA014E10EB8F
:100CE0000E0041EB1141401841F100014FEAD000E4
:100CF00040EA41704FEAD10110EB80054FEA8104D0
:100D000044EA907444EB01046D1944EB0404521B53
:100D1000A3414FF0000348BF0A3200D530BD401C4C
:100D200041F1000130BD00002DE9F0411F460446AD
:100D300003260168072A01F4006004DB08B116A548
:100D400005E016A503E008B115A500E015A521F002
:100D500010002060A069C01EA0610FB1401EA061FC
:100D60002046FFF731FB4FB1D4E9012138469047C7
:100D7000206A401C2062C01C206206E0206AFAE75C
:100D8000D4E9012115F8010B9047761EF8D22046D0
:100D9000FFF730FBBDE8F0814E414E006E616E0002
:100DA000494E4600696E66002DE9F04781461646B9
:100DB0008AB0354878440DC88DE80D003248784433
:100DC000801C03AC0DC884E80D0041F69B3008443C
:100DD000372190FBF1F290FBF1F5A5F1800501FBC5
:100DE00012041B3C02D56442012000E00020DFF821
:100DF00098A080460027FA44AAF1BE0A0EE0E00758
:100E00000AD03246684607EB470101230AEB81010D
:100E100000F06BFB8DE8070064107F1C002CEED106
:100E2000194F7F44AE3F19E0E80715D007EB0410D7
:100E30000DF1180A90E80E008AE80E00C068F04232
:100E400001D1981908903246012306A903A800F0A1
:100E50004CFB03AB83E807006D10641C002DE3D14D
:100E60004FF0010332466946B8F1000F03A802D0E3
:100E700000F026FB01E000F038FBC9E90001C9F8E9
:100E800008200AB0BDE8F08778740000007B00F00D
:100E9000800070474FF0000200B513469446964616
:100EA000203922BFA0E80C50A0E80C50B1F120017D
:100EB000BFF4F7AF090728BFA0E80C5048BF0CC02B
:100EC0005DF804EB890028BF40F8042B08BF704789
:100ED00048BF20F8022B11F0804F18BF00F8012BFB
:100EE00070470000004870474C3401207546FFF7FA
:100EF000F9FFAE4605006946534620F007008546D7
:100F000018B020B5FFF72CFABDE820404FF00006DE
:100F10004FF000074FF000084FF0000B21F00701E1
:100F2000AC46ACE8C009ACE8C009ACE8C009ACE824
:100F3000C0098D46704710B50446AFF300802046C7
:100F4000BDE81040FFF79CB94FF0013C50F8042B6E
:100F500051F8043B9A4221D1A2EB0C03934313EACC
:100F6000CC1317D150F8042B51F8043B9A4215D1F9
:100F7000A2EB0C03934313EACC130BD150F8042BD0
:100F800051F8043B9A4209D1A2EB0C03934313EAB4
:100F9000CC13DBD04FF00000704700BFD01A01BA6D
:100FA000B1FA81F101F0180122FA01F0CB40C1F150
:100FB0002001DBB2C0B2C01A2CFA01F3D11A91435E
:100FC00011EAC311E6D170475FEA400C08BF91F007
:100FD000000F4FEA8C234FEAC12243EA51514FEAF6
:100FE0001C5018BF00F5F0404FEA300018BF41F028
:100FF00000415FEA6C5C00F02980BCF1FF3F08BF54
:1010000040F080407047130C06BF12044FF0100CE4
:101010004FF0000C130E04BF12020CF1080C130F5A
:1010200004BF12010CF1040C930F04BF92000CF1E9
:10103000020CD30F04BF52000CF1010C11464FF00B
:101040000002A0F11F00A0EB0C00704711F0004F50
:1010500008BF704731F000413FF4D5AF0B0C06BF1D
:1010600009044FF0100C4FF0000C0B0E04BF0902E6
:101070000CF1080C0B0F04BF09010CF1040C8B0FD1
:1010800004BF89000CF1020CCB0F04BF49000CF126
:10109000010CCCF12003A0EB0C0022FA03F302FABE
:1010A0000CF241EA030100F10100704720F07F4C8F
:1010B00080EA030023F07F47ACEB070303F57C5382
:1010C00000F0004003F1FF032DE980494FEA154B82
:1010D00009B44FEA144325EA0B4E24EA03480FF201
:1010E000042606EB132749083E785FEA320203FB29
:1010F0000667C7F5000707FB06F64FEA54374FEAC5
:10110000D64606F1020607FB066CCCF1005C4FEAFE
:101110001C472CEA074C07FB06F40CFB06F504EB16
:1011200015464FEA961634BF00204FF000404FEAB4
:10113000D13706FB07FC4FEA1C4C0CFB0BF7D21B0C
:1011400003FB0CF761EB07010CFB0EF7B0EB07405C
:1011500072EB17420CFB08F734BFA2EB0742B2EB6D
:10116000074261EB17414FEA0C444FEA910706FB37
:1011700007FC4FEA1C4C0CFB0BF7B0EBC74072EBC3
:10118000573203FB0CF734BFA2EBC742B2EBC742A6
:1011900061EB57310CFB0EF7B0EBC70072EB5772E7
:1011A0000CFB08F734BFA2EBC702B2EBC70261EB3E
:1011B0005771039F4FEA816141EA921104EBCC041D
:1011C0004FEAD1374FEA826206FB07FC42EA9012EF
:1011D0004FEA80604FEA1C4C0CFB0BF7D21B03FB61
:1011E0000CF761EB07010CFB0EF7B0EB074072EB5D
:1011F00017420CFB08F734BFA2EB0742B2EB0742E1
:1012000061EB17414FEA8C554FEA910704EB9C24A0
:1012100006FB07FC4FEA1C4C0CFB0BF7B0EBC7407E
:1012200072EB573203FB0CF734BFA2EBC742B2EBB1
:10123000C74261EB57310CFB0EF7B0EBC70072EB06
:1012400057720CFB08F734BFA2EBC702B2EBC70220
:1012500061EB577115EB4C254FEA816141EA921120
:101260004FEA82624FEAD13742EA901206FB07FC4E
:1012700044F100044FEA80604FEA1C4C0CFB0BF772
:10128000D21B03FB0CF761EB07010CFB0EF7B0EB75
:10129000074072EB17420CFB08F734BFA2EB074282
:1012A000B2EB074261EB174115EB1C154FEA813198
:1012B00041EA92414FEA823242EA90424FEA80305C
:1012C0004FEA0C7644F1000448EA03434EEA0B4827
:1012D0004FF0000EB2EB080C71EB030724BF62461F
:1012E00039464EEB0E0E4FF0000B001852414941AB
:1012F0004BEB0B0BB2EB080C71EB03077BF1000B14
:1013000024BF624639464EEB0E0E4FF0000B00181C
:10131000524149414BEB0B0BB2EB080C71EB03074D
:101320007BF1000B24BF624639464EEB0E0E51EAAC
:10133000020718BF46F0010616EB0E7655F10002C3
:1013400054F1000103D5BDE88901BDE80088BDE87E
:101350008901BDE80048B619524141EB0101A3F1F2
:101360000103704780807F7E7D7C7B7A79787776F9
:1013700076757473727171706F6E6E6D6C6C6B6A72
:101380006A69686867666665646463636261616010
:10139000605F5F5E5E5D5D5C5C5B5B5A5A5959588D
:1013A00058575756565555555454535352525251F7
:1013B000515050504F4F4F4E4E4D4D4D4C4C4C4B4D
:1013C0004B4B4A4A4A494949484848474747474694
:1013D00046464545454444444443434343424242D0
:1013E00042414141002B9C4630D477002BD01CB5A4
:1013F0004FEA370703B44FF010004FF01001BAF175
:10140000000F06D0BCF1000FDCBF40F0080040F038
:1014100008014FF000000FBCBDE810400BF1010BBC
:10142000BBF1010F08BF5FEA170722BF12F10102EB
:1014300011F101014FF0004143F1000300F00040C1
:1014400043EA00007047F9D35708D0E746EA06465A
:1014500013F1400F4FEA16461FDD13F1200FDFBFD7
:1014600016430A46002120335B42BED0C3F1200759
:1014700046EA064602FA07F74FEA164646EA070624
:10148000C3F1200722FA03F201FA07F721FA03F168
:101490004FF0000342EA0702A7E746EA020646EADF
:1014A00006464FEA164646EA0106BCBF46EA06462D
:1014B000360C4FF000034FF000024FF0000194E7AC
:1014C0002DE9804C9A46934670B491E8380007C8DD
:1014D00031EA400C48BF34EA430C03D5FFF7E6FD80
:1014E000FFF780FFF0BCBDE8008C2DE9804C9A46E8
:1014F000934670B491E8380007C810F0804F08BFD9
:1015000013F0804F03D100F005F8FFF76BFFF0BC3C
:10151000BDE8008C20F07F4780EA030023F07F4C79
:1015200007EB0C03A3F57C5300F00040A3F1FE038E
:1015300092F0000F00F0B38095F0000F00F077807C
:101540002DE901494FEA11404FEA144621EA0048CB
:1015500000FB06FC24EA064708FB06F607FB08F832
:1015600000FB07F718EB06484CEB164C4FEA124B02
:1015700018EB07484FEA15464CEB174022EA0B4E92
:101580000BFB06FC25EA06470EFB06F607FB0EFEE4
:101590000BFB07F71EEB064E4CEB164C4FF000060C
:1015A0001EEB074E4CEB174B18EB0B0840F10000FD
:1015B00018EB0E0B58EB000840F100008F1A4FF0AB
:1015C00000013CBFC943661B14BFB5EB040C0021EE
:1015D0003CBFC943F61B4FEA17444EEA8E0E27EA7A
:1015E00004454FEA1C4704FB07622CEA074C05FB45
:1015F00007F70CFB05F604FB0CFC16EB074642EB69
:10160000174216EB0C4642EB1C421BEB060658EB4E
:101610000202414146EA9E0601D5BDE80189B6199C
:10162000524141EB0101A3F10103BDE801894FEAF9
:1016300014454FEA114724EA054621EA074C05FB09
:1016400007F406FB07F70CFB06F105FB0CFC11EB9E
:10165000074144EB17444FEA124711EB0C4144EBAE
:101660001C4422EA074C05FB07F206FB07F70CFBBC
:1016700006F605FB0CFC16EB074642EB174216EB91
:101680000C4642EB1C456A1854F1000148BF7047F4
:10169000B619524141EB0101A3F10103704795F0E6
:1016A000000F37D04FEA11424FEA144721EA0246B1
:1016B00024EA074C02FB07F106FB07F70CFB06F4D4
:1016C00002FB0CFC14EB074441EB17414FEA1547B2
:1016D00014EB0C4441EB1C4125EA074C02FB07F5D7
:1016E00006FB07F70CFB06F602FB0CFC16EB0746A5
:1016F00045EB174516EB0C4645EB1C42121951F110
:10170000000148BF7047B619524141EB0101A3F1F6
:10171000010370474FEA14454FEA114724EA054692
:1017200021EA074C05FB07F106FB07F70CFB06F265
:101730004FF0000605FB0CFC12EB074241EB174192
:1017400012EB0C4251EB1C4148BF7047921841EB21
:101750000101A3F10103704730B501210D028DB0E5
:10176000284601F0A7FC0121042001F08BFC032096
:101770000F218DF82C000A9100248DF82F400AA922
:101780002C4800F09BFC00F08DF80121284601F068
:101790009DFC0021284601F099FC2802CDE9064075
:1017A000089406A8099400F053F801208DF804006D
:1017B00000948DF805000294049406201E4C8DF8C8
:1017C00014006946204600F0ABF80121204600F0E5
:1017D00035F8062301220B21204600F0C7F8062326
:1017E00002220A21204600F0C1F8062303220C2120
:1017F000204600F0BBF8062304220121204600F019
:10180000B5F8062305220021204600F0AFF8062394
:101810001A460D21204600F0A9F8204600F0E0F815
:101820000121204600F034F80121204600F026F87E
:101830000DB030BD00080240002001400029816841
:1018400002D041F0010101E021F001018160704707
:10185000084B10B5D3F8042307490A40D0E9001417
:101860002143D0E90240044321431143C3F8041348
:1018700010BD000000200140E030FCFF002981681D
:1018800002D041F4807101E021F4807181607047E1
:101890000029816802D041F4007101E021F4007157
:1018A0008160704710B5012190B0880501F0EAFB16
:1018B000184C204600F05AF90028FAD11649CDE913
:1018C00000011649CDE902106021CDE904104FF462
:1018D00080610691490007910891C9100991490258
:1018E000CDE90A100121CDE90C100E906946204681
:1018F00000F084F90121204600F02EF91021204645
:1019000000F0FEF801221021204600F061F910B02D
:1019100010BD0000106402404C200140140500205E
:1019200030B542680F4B0C791A400B6842EA04222A
:101930001343436082680C4B4D791A40D1E903434D
:1019400023438C6844EA4504234313438360C26AFB
:10195000097D22F47002491EC9B242EA0151C162F6
:1019600030BD0000FFFEFFFCFDF7FFC070B507268D
:1019700009290AD9C568A1F10A0404EB4404A64068
:10198000B543A3401D43C56007E0056901EB410471
:10199000A640B543A3401D4305611F23072A09D272
:1019A000446B521E02EB820293409C4391400C43D5
:1019B000446370BD0D2A09D2046BD21F02EB820270
:1019C00093409C4391400C43046370BDC46A0D3A3C
:1019D00002EB820293409C4391400C43C46270BD71
:1019E000816841F0804181607047642003F052FCBF
:1019F000FBE700001CB50121082001F043FB01209A
:101A00008DF8040000208DF806008DF807000320F3
:101A10004FF400748DF8050000946946034800F007
:101A20004DFB02481A3004801CBD0000000C02402F
:101A3000FEE70A2003F02EFCFBE700000A48016ADB
:101A4000491C0162818B491C81830849897F0129D6
:101A500003D10749097DC90702D00021818470475D
:101A6000818C491CFAE70000CC0A0020400C0020C1
:101A7000080B0020C82003F00DFCFBE72DE9FC411A
:101A80000121084601F0FEFA00268DF804600127C6
:101A90004FF480558DF80770022400958DF80540AD
:101AA00069460A4800F00AFB0121102001F0EAFA19
:101AB0008DF804608DF8077000958DF80540694633
:101AC000034800F0FBFABDE8FC8100000000024082
:101AD0000010024070B5084C084D2146284600F021
:101AE0004DF8002807D02146284600F01FF8BDE831
:101AF000704002F02FBC70BD2080001010640240C6
:101B0000074A904201D2074801E005481038064ACA
:101B10008B0001EA020101D5C16070478160704706
:101B200010640240006002407D0F7D0F074A904222
:101B300001D2074801E005481038064A8B0001EA47
:101B4000020101D5C1607047816070471064024096
:101B5000006002407D0F7D0F0029016802D041F036
:101B6000010101E021F00101016070470146002000
:101B70000968C90700D001207047000030B5104A3D
:101B80000024904201D20F4A01E00D4A103A0E4B58
:101B9000194205D01E2303EAD12503682B4002E039
:101BA000406900F08003880001D5506800E01068AB
:101BB000064A1040084201D003B10124204630BD3E
:101BC00010640240006002403C0F3C0F7D0F7D0F0F
:101BD0000B0607D5436912B143F0800301E023F0FF
:101BE00080034361802908D0002A026801F01E01A9
:101BF00001D00A4300E08A430260704730B50368B1
:101C0000124ACC6813400A682243D1E905452C43A7
:101C10002243CC6922430C6A22434C6A22438C6AD9
:101C200022434C6B22438C6B22431A43026042696D
:101C300022F00703D1E90B2422431A4342610A69C7
:101C400042604A6882608968C16030BD3F801CF094
:101C5000704770472DE9F84305461F480024174692
:101C60000E46A0F11409854204D101F085F800F078
:101C700005FE2BE04FF00108CDF8008099F8050033
:101C800010230007010E15A2002001F0B7F930075C
:101C9000010E102312A20020CDF8008001F0AEF951
:101CA0000EE0E01900EBC00005EB80022007010EFA
:101CB00010230A20121DCDF8008001F09FF9641C4A
:101CC000286801784078081AA042EADC01F0F6F8AA
:101CD00089F80560BDE8F883780000202000000046
:101CE0003E000000F8B500241646054601270DE029
:101CF000A01900EBC00005EB80022007010E1023A5
:101D00000A20121D009701F079F9641C28680178F7
:101D10004078081AA042EBDCBDE8F84001F0CEB8EC
:101D20000B4C0C4D0C4E0D4F2088401C20802888F9
:101D3000401C28803088401C30803888401C388007
:101D400000F0C8FD00F068FA0A2003F0A3FAEBE700
:101D50006A0000206C0000206E000020700000204F
:101D600070B5012000F062F900286ED0434C444861
:101D70004FF6FF7621784FF000054A064FEA816161
:101D80001CD400291CDA012100F0E4F900286ED1EE
:101D9000A089E080217801F0DF022270A1888842CA
:101DA000A0EB010000D2304480B2A0F5B970B42895
:101DB0005DD242F040002070657058E000290BDBD6
:101DC000012100F0C7F9012851D1A089A080207815
:101DD00040F0200020704AE0012100F0BBF998BBE0
:101DE000A089E080217801F0DF012170A18888427C
:101DF000A0EB010000D2304480B2A0F114014629CA
:101E000001D2607806E0A0F164016E2904D2607806
:101E100040F00100607007E0A0F1DC01322903D33B
:101E2000B0F5967F00D32570207800F01F010629B9
:101E300018D3257060781349502807D00C2808D093
:101E4000022809D00A280AD011E015E050200870B5
:101E50000DE00C2048700AE00220887007E00A209C
:101E6000C87004E0401C2070607840006070BDE8DD
:101E70007040012000F0D4B870BD00003E0000208A
:101E800000040240CC0A002010B54FF40064204644
:101E900000F0CCF8002804D02046BDE8104000F047
:101EA000BFB810BD70B5022000F0C0F8002870D097
:101EB000414C42484FF6FF76A1784FF000054A06A4
:101EC0004FEA81611CD400291CDA022100F042F99A
:101ED00000286AD1A0896081A17801F0DF02A27098
:101EE00021898842A0EB010000D2304480B2A0F5E5
:101EF000B970B42859D242F04000A070E57054E0A7
:101F000000290BDB022100F025F901284DD1A08921
:101F10002081A07840F02000A07046E0022100F06F
:101F200019F978BBA0896081A17801F0DF01A17067
:101F300021898842A0EB010000D2304480B2A0F198
:101F40001401502901D2E07806E0A0F1640178295B
:101F500004D2E07840F00100E07003E0B0F5967F35
:101F600000D3A570A07800F01F01062918D3A57032
:101F7000E0781349502806D00C2807D0022809D051
:101F80000A280AD011E0502008720EE00C20487296
:101F90000BE00FE00220887207E00A20C87204E01C
:101FA000401CA070E0784000E070BDE87040022066
:101FB00000F036B870BD00003E0000200004024072
:101FC000CC0A002010B5042000F030F8002804D01E
:101FD000BDE81040042000F023B810BD10B510205B
:101FE00000F024F8002804D0BDE81040102000F0D4
:101FF00017B810BD10B5202000F018F810B18020DF
:1020000000F00EF84FF40074204600F00FF800289E
:1020100004D02046BDE8104000F002B810BD00001A
:102020000149086070470000143C0140034A014622
:10203000002012680A4200D001207047143C014081
:1020400030B51A4A8379016853B313688B43136020
:10205000111D0B680468A3430B60017911440B68E0
:10206000046823430B60114B083319680468A143CB
:1020700019601C1D21680568A94321604179102958
:1020800005D011440A68006802430A6030BD19682F
:10209000026811431960216800680143216030BD66
:1020A0000079104402688A43026030BD003C014060
:1020B00000F06EFA642003F0EDF8F9E7F0B50022C5
:1020C00001274FF0030C0B6807FA02F52B40AB42D7
:1020D0002CD1066853000CFA03F4A64306600E796F
:1020E000D0F800E09E4046EA0E0606600E79012E0A
:1020F00001D0022E12D18668A64386604E79D0F8B0
:1021000008E09E4046EA0E0686604668AE4346609A
:1021100045688E799640B6B235434560C568A5439B
:10212000C560CC799C40C3681C43C460521C102A13
:10213000C9D3F0BD4B07DB0E9A40C90810B500EBC0
:102140008100016A0F249C40A1430162016A11438E
:10215000016210BD0246002012690A4200D001202F
:102160007047418370470183704700002DE9F043B9
:10217000DFF89CC041F268074FF4AF59BCF9044046
:10218000C9F100084FF4AF66B84203DDB44201DA8A
:102190004D4606E0B04203DABC4201DD454600E0B0
:1021A00000252C44241A24B2E51704EB9574A510DD
:1021B000174CACF80C50B942B4F9064001DDB442FA
:1021C00007DBB14203DABC4201DDC84601E04FF053
:1021D000000808EB0106341B24B2E61704EB9674E2
:1021E0000C4FA410ACF80E403E7A012E0BD0158097
:1021F0001C80ACF80850ACF80A40ACF80400ACF80D
:102200000610BDE8F083002616801E803E72F0E7BF
:1022100050000020740C002010B52D4C04F1C801B2
:10222000206988421CD1E2882AA104F1F000FEF75F
:10223000B7F822892BA104F58A70FEF7B1F86289FC
:102240002CA104F59C70FEF7ABF8A2892DA104F532
:10225000AE70FEF7A5F8E2892EA104F5C0701BE070
:10226000304988421ED12F4894F902202EA12830EF
:10227000FEF796F82B4894F903202FA14C30FEF777
:102280008FF8284894F904202FA17030FEF788F8C1
:102290002448002230A19430FEF782F86278217839
:1022A000206905E01F49B431884205D16278217860
:1022B000BDE81040FFF716BD05491431884205D12D
:1022C00000F0DCFABDE8104000F0F8BD10BD0000E1
:1022D0006400002062756C6C20202533642020206F
:1022E00020200000626972642020253364202020B1
:1022F00020200000646F67202020253364202020E8
:1023000020200000626F77202020253364202020C9
:102310002020000066697368202025336420202077
:1023200020200000040200204B5020202025336490
:1023300020202020202000004B492020202533642D
:1023400020202020202000004B4420202025336422
:10235000202020202020000050574D2020253364CD
:102360002020202020200000FEE770471CB501211E
:10237000022000F087FE4FF44060012400908DF8A9
:10238000044000208DF8060003208DF805008DF82C
:10239000074069460448FFF791FE0448C0F8A84288
:1023A000C0F8AC421CBD0000000402400080404266
:1023B0002DE9F04105461448016821F4400101600F
:1023C000016841F4800101600024104EA0460127FD
:1023D000E809C6F8AC026806050E022001F0A0FF6D
:1023E000C6F8A872022001F09BFFC6F8A88202205E
:1023F00001F096FF072C01D1C6F8AC72641CE4B260
:10240000082CE5D3BDE8F081000402400080404282
:1024100070B50D48016821F440010160016841F484
:1024200080010160094C0120C4F8AC02C4F8A80284
:10243000042004F52A7401F073FF00256560042070
:1024400001F06EFF256070BD000402400080404234
:1024500070B50D48016821F440010160016841F444
:1024600080010160094C0125C4F8A8520020C4F87D
:10247000AC02042004F52A7401F052FF6560BDE847
:102480007040042001F04CBF000402400080404234
:1024900070B513480024016821F44001016001680F
:1024A0000160104D0126C5F8AC62304601F038FFDE
:1024B000C5F8A862012001F033FF0AE0641CE4B211
:1024C000FA2C06D908A0FDF75FFFFFF7C1FF012036
:1024D00070BDD5F82C020028F0D1C5F8A80270BD57
:1024E0000004024000804042696963322074696DD3
:1024F000656F75740D0A000005494FF6FF728889F3
:10250000401C80B28881904201D3002088817047AE
:102510003E0000207FB50121022000F0B3FD012123
:10252000880300F0C7FD0320002502908DF80C50B1
:1025300001248DF80F4002A91048FFF7BFFD0121CB
:10254000084600F053FE02208DF80450102600903B
:102550008DF805608DF806406846FFF771FD002193
:10256000012000F043FE8DF804508DF805600094C2
:102570008DF806406846FFF763FD7FBD000402400A
:1025800002494CF6CC400860704700000030004023
:1025900000F014B870B504460D4645F2555000F0F1
:1025A00021F8204600F012F8284600F015F800F057
:1025B00005F8BDE87040FFF7E3BF000002494AF6A6
:1025C000AA200860704700000030004001494860C0
:1025D00070470000003000400149886070470000EB
:1025E00000300040014908607047000000300040A2
:1025F0002DE9F041254C264F264D012608B12670C5
:1026000001E0207878B108212846FFF7A3FD88B1C2
:1026100010212846FFF79EFD60B101213846FFF7E3
:1026200099FD012806D008212846FFF793FD0128CF
:102630001DD028E00A2001F057FE0020207008215C
:102640002846FFF787FD58B110212846FFF782FD85
:1026500048B101213846FFF77DFD012805D012E081
:102660000120BDE8F0810220FBE70320F9E71021FB
:102670002846FFF76FFD012805D101213846FFF7F5
:1026800069FD00B926700020EBE700006000002023
:10269000000002400010024002480179491C01710B
:1026A00070470000640000201CB50121112000F0DB
:1026B000E9FC1820009000208DF8040003208DF81C
:1026C000050001248DF8074069460648FFF7F6FC2F
:1026D00002208DF80700009469460348FFF7EEFCDE
:1026E0001CBD00000010024000000240DFF85080D6
:1026F000144F4FF48064012508F102060020FFF713
:1027000077FFA8F80040012804D0022808D0032849
:1027100011D10BE00CA0FDF737FE34803D700AE0CC
:102720000DA0FDF731FE34807D7004E00FA0FDF7B1
:102730002BFE3480BD70642002F0ACFDDEE70000AB
:1027400018140240040000204B45595F55505F505B
:1027500052455321210D0A004B45595F444F574EB6
:102760005F5052455321210D0A0000004B45595F2F
:10277000454E5445525F5052455321210D0A0000E9
:102780000248C178491CC1707047000064000020F5
:1027900002488178491C8170704700006400002065
:1027A00002488178491E8170704700006400002053
:1027B0002DE9FC470121242000F064FC01248DF860
:1027C000044000258DF80650234F4FF020098DF866
:1027D0000740CDF800908DF8055069463846FFF760
:1027E0006DFC8DF804408DF8065010268DF80740DA
:1027F00000968DF8055069463846FFF75FFC8DF866
:1028000004408DF80650DFF854A04FF400788DF89E
:102810000740CDF800808DF8055069465046FFF717
:102820004DFC8DF804408DF80650A7028DF8074046
:1028300000978DF8055069465046FFF73FFC064863
:102840001A300680A0F8009004481830A0F80080E4
:102850000780BDE8FC870000000802400014024029
:10286000054C4FF4FA75206880F400712160284609
:1028700002F010FDF7E7000014140240F8B501243F
:102880002646E500E8B208230BA20121009600F0DD
:10289000B5FBE8B2082308A2BC21009600F0AEFB0D
:1028A000641C0F2CEDDB102304A25A212820009673
:1028B00000F0A4FBF8BD00002D000000595A424F63
:1028C0005400000000F0B4F8052002F0E3FCF9E742
:1028D000FEE700002DE9F041384D374B002495F913
:1028E00000201E7895F901102869012E08D0344B7C
:1028F0001E78012E19D0334E3378012B2CD056E0A0
:10290000521E52B21C702A70002A0BDA11B12C70C0
:10291000491E06E001680A784B78D21A521E2A70C6
:10292000497869706A7829783FE0521C1C7052B26D
:102930002A7003681F785E78BB1B5B1E934204DA23
:102940008E4202D02B70491CEBE79342EADA8E42AA
:10295000E8D12C706C70E5E752EA010307D102EB75
:10296000C20300EB8303DB690BB12B6119E0114457
:1029700001EBC10100EB8100016A806979B100B10E
:10298000804795F9000095F901100844296900EB8A
:10299000C00001EB8000006A28612C7001E000B1EA
:1029A000804734706A7829782869FFF753F9BDE8C1
:1029B000F041FFF731BC000004000020640000205B
:1029C00005000020060000200849A1F1240000F1C4
:1029D000B40201624A64D8328A66B432C1F88C20EB
:1029E000383908614A780978FFF734B99C0000202B
:1029F0007047F0B54FF6FF7200254AF201060FE06E
:102A0000445D002384EA0207FF0702D086EA5202EF
:102A100000E052085B1C6408DBB2082BF2D36D1C8B
:102A20008D42EDDB100240EA122080B2F0BD70470B
:102A300070B5534C607901287DD10A2001F070FCFB
:102A40000025657165802571A07901281ED1617806
:102A5000C80701D0491E6170C9B2A01D891EFFF7C9
:102A6000C8FFE179474E4848432912D00123442941
:102A700041D0452962D0EA2908D1218909B2818152
:102A8000628912B2C28101B90AB1457776E0437713
:102A900074E02189628949BA52BAB1F5A04F20D0B9
:102AA000A1F5A043023B03D1A2F5A243023B65D0AE
:102AB000A1F5A043043B61D1A2F5A24104395DD147
:102AC000A189B31C49BAC182E1892E4A49BA8182DF
:102AD000B0F91610B0F91400FFF748FB3580758087
:102AE0004CE0B2F5A24F49D1A18949BA0182E189EE
:102AF00049BA418242E02189628949BAA1F50C565E
:102B000052BA183E03D1A2F54C56183E36D0B1F554
:102B1000045F33D1B2F5445F30D1627BE17B012A9F
:102B20000AD0012908D00577B0F90210B0F90000E9
:102B300000F07AFB22E022E00377F5E7218949BA29
:102B4000A1F51852103A03D0A1F51852203A15D128
:102B5000A18949BA8181E18949BAC181218A338831
:102B60004ABA618A1A443280728849BA1144718023
:102B7000A18A49BA0183E18A49BA4183657070BD6F
:102B8000900A0020740C0020200B002070472DE9D3
:102B9000F8434FF4407000F0E5F825208DF8000070
:102BA00001248DF8014007268DF802608DF803405E
:102BB000684600F0A5F826208DF800008DF8014049
:102BC00006278DF802708DF80340684600F098F8EB
:102BD00027208DF8000000258DF801504FF00408E3
:102BE0008DF802808DF80340684600F089F83420A3
:102BF0008DF800008DF801504FF005098DF8029016
:102C00008DF80340684600F07BF835208DF8000011
:102C10008DF801508DF802808DF80340684600F071
:102C20006FF819208DF800008DF801508DF80270B2
:102C30008DF80340684600F063F82E208DF8000000
:102C40008DF801508DF802608DF80340684600F061
:102C500057F81C208DF800008DF801408DF80260B7
:102C60008DF80340684600F04BF837208DF80000DF
:102C70008DF801408DF802708DF80340684600F031
:102C80003FF838208DF800008DF801408DF8029053
:102C90008DF80340684600F033F88DF800708DF829
:102CA000015002208DF802008DF80340684600F0C4
:102CB00027F88DF800608DF8015003258DF802503B
:102CC0008DF80340684600F01BF817208DF80000CF
:102CD0008DF801408DF802508DF80340684600F0F1
:102CE0000FF828208DF800008DF801408DF8028043
:102CF0008DF80340684600F003F8BDE8F883000053
:102D000030B50F23C27801780125FAB1144A126850
:102D100001F1E02102F4E062C2F5E062C2F30722B1
:102D2000C2F10404D3404278A24084781C4014438A
:102D3000220181F80024007800F01F018D40400935
:102D4000800000F1E020C0F8005130BD01F01F000C
:102D500085404809800000F1E020C0F8805130BD76
:102D60000CED00E00249084302490860704700008A
:102D70000000FA050CED00E030B40021084B0A46D3
:102D8000002003EBC004401CC0B262548028F8D37A
:102D9000491CC9B20829F3D330BC00F08FB8000039
:102DA000D405002030B5CC0801F0070301259D4073
:102DB000EBB2064D05EBC005C808285C0AB1184304
:102DC00002E063EA0000C043285530BDD40500206E
:102DD00010B50021AE2000F02FF90021084600F0C8
:102DE0002BF90021102000F027F90021402000F0ED
:102DF00023F90021812000F01FF90021CF2000F0ED
:102E00001BF90021A12000F017F90021C82000F0D3
:102E100013F90021A62000F00FF90021A82000F0EE
:102E20000BF900213F2000F007F90021D32000F02A
:102E300003F90021084600F0FFF80021D52000F03A
:102E4000FBF80021802000F0F7F80021D92000F0E5
:102E5000F3F80021F12000F0EFF80021DA2000F073
:102E6000EBF80021122000F0E7F80021DB2000F051
:102E7000E3F80021402000F0DFF80021202000F0DE
:102E8000DBF80021022000F0D7F800218D2000F0AF
:102E9000D3F80021142000F0CFF80021A42000F086
:102EA000CBF80021A62000F0C7F8FFF765FF00214E
:102EB000BDE81040AF2000F0BFB8000070B5174E5D
:102EC000002505F1B000C0B2002100F0B5F80021E6
:102ED000084600F0B1F80021102000F0ADF8FFF72F
:102EE00097FA7820FFF764FAFFF7D2FA4020FFF74D
:102EF0005FFAFFF7CDFA002406EBC400405DFFF750
:102F000057FAFFF7C5FA641CE4B2802CF4D3FFF73C
:102F10009FFA6D1CEDB2082DD3D370BDD4050020EF
:102F20002DE9FC4F1D46884681468B460090082BB4
:102F30000ED0680700D0012000EBD500690810FB17
:102F400001F0C0B2203A02F0FF0A0026019046E0EC
:102F50000620F7E7082D10D00C2D14D0102D16D018
:102F6000182D3FD121490AEBCA0001EB8000002750
:102F7000845DE0070FD00B9A10E01D490AEB4A0070
:102F800001EB4000F3E70AEB4A001A49EDE71A4962
:102F900001EB0A10EBE70B9830B30022414648469C
:102FA000FFF700FF7F1C640808F10100FFB200F08A
:102FB000FF08082FDDD309F1010000F0FF09082DFB
:102FC0000AD00099A9EB0100B0EB550F04D10BF129
:102FD0000800894600F0FF0B761CD846F6B201982F
:102FE0008642B7D3BDE8FC8F0122D7E70C700008FA
:102FF00080630008A86500081C6A00082DE9F841F4
:103000001E46154688460446079F0BE03346414658
:1030100020460097FFF784FF082E0AD004EB5600E5
:10302000C4B26D1C2A78A2F120005E28EED9BDE85A
:10303000F881A41DE4B2F4E770B50C460546FFF72D
:10304000E7F97820FFF7B4F9FFF722FA0CB1402036
:1030500000E00020FFF7ACF9FFF71AFA2846FFF767
:10306000A7F9FFF715FABDE87040FFF7F1B94FF483
:103070007A74204602F00EF9FBE7C82002F00AF944
:10308000FBE70000044A0029116801D0014300E079
:10309000814311607047000030380240044A002923
:1030A000116801D0014300E08143116070470000C6
:1030B00040380240044A0029116801D0014300E071
:1030C000814311607047000044380240044A0029DF
:1030D000116801D0014300E0814311607047000096
:1030E0002438024070B5204B1968204C11F00C01B7
:1030F00004D06610042903D0082903D004601BE023
:10310000066019E0184A121F1168C1F38055116852
:1031100001F03F0115B1B6FBF1F101E0B4FBF1F1B3
:1031200014681268C4F388146143C2F30142521C4C
:103130005200B1FBF2F1016019680F2202EA11118D
:103140000B4A545C0168E14041601C68072505EAB0
:103150009424145D21FA04F484601B6805EA533357
:10316000D25CD140C16070BD083802400024F40038
:10317000840400202DE9F041124F0E46804615468A
:1031800008213846FEF7EDFF012001F0ADF840219F
:10319000404600F089FF002405E0315D404600F024
:1031A00013F8641CA4B2AC42F7D34021404600F0AF
:1031B0008EFF0028F9D03846BDE8F0410821FEF71F
:1031C000D2BF0000000C024070B50C4605464021FD
:1031D00000F07DFF2146284601F012F880212846A4
:1031E00000F075FF0028F9D070BD000010B58A0707
:1031F00021F003040849120F21440F23D1F8084895
:1032000093409C43C1F80848D1F8083890400343E4
:10321000C1F8083810BD0000003001407047192087
:1032200002F038F8FBE700002DE9F0410D460746B3
:1032300000260A21304601F0AFF904460120207033
:10324000EA206070A770380AE0702571280A607162
:1032500006212046FFF7CDFB010AA171E07108228B
:1032600021460448FFF786FF21463046BDE8F0417D
:1032700001F086B9004C00400CB5002227490092AD
:103280000192086840F4803008604FF4A043086859
:1032900000F4003001900098401C0090019810B993
:1032A00000989842F3D10868800334D5012001903A
:1032B0001A484030026842F08052026018480268A2
:1032C00042F4404202601548083002680260026819
:1032D00042F400420260026842F4A0520260031FFE
:1032E000104A1A600A6842F080720A600A68920105
:1032F000FCD50D4940F205720A60016821F0030116
:103300000160016841F0020101600168C1F38101BF
:103310000229FAD10CBD01920CBD00000038024018
:103320000070004008544007003C02401CB501F00A
:103330006BFE46490320CDE900010023802244A111
:10334000464802F001FD41490420091DCDE9000174
:103350000023802242A1464802F0F6FC3B490520AA
:103360000831CDE900010023802242A1454802F046
:10337000EBFC364906200C31CDE900010023802208
:1033800041A1454802F0E0FC304907201031CDE969
:1033900000010023802241A1434802F0D5FC2B49C3
:1033A00008201431CDE90001002380223FA14248CA
:1033B00002F0CAFC254902202C31CDE9000100238E
:1033C00080223EA1414802F0BFFC2049092018316B
:1033D000CDE90001002380223DA1414802F0B4FC68
:1033E0001A490A201C31CDE90001002380223DA1A9
:1033F000404802F0A9FC15490B202031CDE900011D
:10340000002380223CA13F4802F09EFC0F490D2082
:103410002431CDE90001002380223BA13D4802F088
:1034200093FC0A490E202831CDE9000100238022B7
:1034300039A13C4802F088FC04480838406801F093
:103440005FFFBDE81C4001F01BBE00000C00002027
:10345000506D755F5461736B000000006F300008A1
:1034600043616D6D616E645F5461736B00000000B9
:10347000331A00084572725F48616E646C655F5470
:1034800061736B00B1200008506F7765726F6666DC
:103490005F5461736B0000007B3000084368675F16
:1034A0005461736B00000000751A00085465737452
:1034B0005F5461736B0000005D39000844697370EC
:1034C0006C61795F5461736B00000000211D00087E
:1034D0004175746F4368617267655F5461736B0017
:1034E000EB19000853656E645F4D6472765F54613A
:1034F000736B00001F3200084D6472765F54617375
:103500006B000000C52800084C45445F5461736B94
:1035100000000000612800084B65795F5461736BFF
:1035200000000000ED2600084FF0E02104280869A3
:1035300003D020F004000861704740F00400FAE76F
:1035400010B502F02DFC012803D0BDE8104002F0B8
:103550001BB910BD124810B5016841F4700101603B
:103560001048016841F0010101600E4A0021083253
:10357000116002680C4B1A400260031D0B4A1A606E
:10358000026822F48022026006480C300160FFF7D6
:1035900073FE03494FF000608039086010BD0000E1
:1035A00088ED00E000380240FFFFF6FE10300024F6
:1035B00010B5A82000F07CFEFFF7FAF8FEF71AFA23
:1035C000FEF7A8FFFEF75AFAFEF7C6F8FFF76CF809
:1035D000FEF7CCFEFFF7FCFBA8230A2213490120CB
:1035E00000F08AF94FF47A725423D106012000F0DA
:1035F00083F94FF4527364220D49202000F07CF9C6
:103600004FF4E1310B4800F0FFFD4FF416510A482A
:1036100000F0FAFD002000F033FF022000F030FF40
:10362000BDE8104005A0FCF7AFBE0000000001405F
:103630000014004000100140005000404273702010
:10364000696E6974204F4B210D0A00002DE9F05F6F
:103650001E4E202535801E4F2C013C80DFF87480E3
:10366000A8F80040642000F03FFE06F10209A9F826
:103670000050A7F1020AAAF8004008F1020BABF8CB
:103680000040C82000F030FE35803C80A8F80040A3
:10369000642000F029FEA9F80050AAF80040ABF819
:1036A0000040C82000F020FE35803C80A8F8004093
:1036B000642000F019FEA9F80050AAF80040ABF809
:1036C0000040BDE8F05FC82000F00EBE18080240C0
:1036D0001A140240180C024010B5084C0121204673
:1036E00000F0B6F8012807D10121204600F0A3F828
:1036F000BDE81040FEF700BF10BD00000000014013
:103700002DE9F04101218C07204600F0A1F80128A5
:1037100039D10121204600F08EF8FEF78FF93049AB
:10372000314D324A48884FF47A73401C48802D4905
:103730004888401C4880688B0021401C6883A88B07
:10374000401CA8835088401C80B25080984200D909
:1037500051801088401C80B21080984200D31180A4
:1037600095F83000D0B1224CA61E631501280CD06C
:10377000022815D0032806D13380688E421C6A8641
:10378000B0F5C87F07D8BDE8F0813380688E421C51
:103790006A866428F7D9238085F830106986F2E7B5
:1037A00033806A8E501C80B26886642A05D9421C18
:1037B0006A86C82801D22380E5E76A8E4FF496779F
:1037C000501C80B26886C82A05D9421C6A86B84255
:1037D00001D23380D7E7688EB842DCD8D3E7000047
:1037E000540A0020900A0020400C00204C000020C9
:1037F0001A0C024010B50B4C0121204600F028F8AD
:1038000000280ED008490120487108494871014636
:10381000204600F010F82046BDE81040002100F0DE
:103820000DB810BD00140040900A0020AE0A002020
:10383000C94301827047C94301827047002901884A
:1038400002D041F0010101E021F001010180704747
:1038500002460020138A92890B4202EA010202D03A
:10386000002A00D001207047002A828901D00A4333
:1038700000E08A43828170474162704730B5028818
:10388000164C174DA0420DD0A8420BD0B0F1804F7E
:1038900008D0144B984205D0134B984202D0134BDA
:1038A000984203D122F070034A881A43104B984281
:1038B00006D0104B984203D022F440730A891A4371
:1038C00002804A68C2620A880285A04201D0A842EA
:1038D00001D1897A01860121818230BD0000014039
:1038E000000401400004004000080040000C0040BB
:1038F0000010004000140040FEB50C4615491E465D
:1039000015468C4202D014498C4203D10121FFF7A5
:10391000D1FB02E00121FFF7C1FB761E0020ADF8CC
:1039200000606D1EADF80200ADF808000195694613
:103930002046FFF7A3FF01212046FFF779FF012270
:1039400011462046FFF790FF01212046FFF776FF42
:10395000FEBD000000000140000401404FF47A74F5
:10396000204601F097FCFBE77047704770B50646AC
:1039700086B001210420FFF785FB0121C804FFF771
:103980008DFB1F4D08220A212846FEF7D3FB082293
:103990000B212846FEF7CEFB02218DF814104FF4C0
:1039A00040608DF81510049000248DF81640012019
:1039B0008DF8170004A92846FEF780FBADF80440F7
:1039C000ADF80640ADF80840ADF80C400C200D4CA9
:1039D000ADF80A0000966946204600F0B7FB0122C8
:1039E00040F22551204600F098FB0121204600F0CE
:1039F00064FB4021204600F057FB06B070BD00007C
:103A000000080240004C004070B5144C40F22555AF
:103A10002946204600F062FB00281ED02946204699
:103A200000F045FB204600F0E7FB0D49C0B24870AE
:103A30000C494A79002A10D14B788A1D0A4C9854B7
:103A40004878401C487000212046FFF715FF2046AB
:103A5000BDE870400121FFF7F1BE70BD004C004091
:103A60003C000020900A0020001400402DE9F043A3
:103A7000814687B001210420FFF704FB01210820C3
:103A8000FFF700FB01210805FFF708FB274F08227D
:103A90000C213846FEF74EFBDFF894800822022105
:103AA0004046FEF747FB02258DF80450B8148DF808
:103AB0000550002400908DF8064001268DF807601F
:103AC00069463846FEF7FAFA8DF8045004208DF85E
:103AD000055000908DF806408DF807606946404615
:103AE000FEF7ECFAADF80C40ADF80E40ADF8104022
:103AF000ADF814400C200F4CADF81200CDF8089032
:103B000002A9204600F022FB012240F22551204666
:103B100000F003FB0121204600F0CFFA40212046AF
:103B200000F0C2FA07B0BDE8F083000000080240D0
:103B3000000C0240005000402DE9F043594C40F287
:103B400025552DED028B85B02946204600F0C6FA9A
:103B5000002875D02946204600F0A9FA204600F03A
:103B60004BFB524C50494FF0000922788854521CAC
:103B7000D0B220700A78552A11D10B2860D348782A
:103B800050380A280BD2DFE800F0050B11176268E5
:103B90006E747A8051F8020F20614868606179E0A4
:103BA00051F8020FA0614868E06173E051F8020F1C
:103BB0002062486860626DE051F8020FA0624868B8
:103BC000E0623A482830B0F9001000EE101AF8EE22
:103BD000C00A9FED370A20EE801ADFED360A21EE8B
:103BE000208A84ED018AB0F9021001EE101AB8EEB5
:103BF000C11A21EE001A61EE208AC4ED028AB0F9E2
:103C0000040001EE100AB8EEC11A21EE000A20EEFF
:103C1000200A84ED030A10EE100A02F039FB074671
:103C2000884618EE900A02F033FB05460E4618EE61
:103C3000100A02F02DFB41EC100B53EC102B00E0AE
:103C40002AE08DE8E0011CA0FCF79EFB22E051F881
:103C5000020F2063486860631CE051F8020FA06304
:103C60004868E06316E051F8020F20644868606419
:103C700010E051F8020FA0644868E0640AE051F8CF
:103C8000020F20654868606504E051F8020FA065E6
:103C90004868E06584F8009005B0BDEC028BBDE893
:103CA000F083000000500040460B0020E403002099
:103CB0000000003800003443416E676C653A252EE1
:103CC000336620252E336620252E33660D0A00002C
:103CD00070B50646012186B00846FFF7D3F90121E9
:103CE0001020FFF7E7F91F4D072209212846FEF7AC
:103CF00021FA07220A212846FEF71CFA02218DF834
:103D000014104FF4C0608DF81510049000248DF845
:103D1000164001208DF8170004A92846FEF7CEF9B9
:103D2000ADF80440ADF80640ADF80840ADF80C40E1
:103D30000C200D4CADF80A0000966946204600F0B4
:103D400005FA012240F22551204600F0E6F9012152
:103D5000204600F0B2F94021204600F0A5F906B057
:103D600070BD000000000240001001402DE9F0414C
:103D7000294C40F225552946204600F0AFF900288D
:103D80002BD02946204600F092F9204600F034FA64
:103D9000224BC0B2597900291FD11C780A46A507C9
:103DA0004FF0010603F106011DD4E40704D0AA2850
:103DB0000AD0552802D012E055280ED150545E701A
:103DC000187840F0010007E05A7850545878401CA9
:103DD0005870187840F002001870BDE8F0815A70F1
:103DE0001A705A71F9E75C7860545C78641CE4B22C
:103DF0005C701D786F0708D4597A491E8C42ECD14B
:103E00000D28ECD145F00400E6E70A28E7D160541C
:103E10005A701A705E71E0E700100140720A0020CB
:103E2000F0B50746012187B00846FFF72BF90121BD
:103E30004804FFF733F91E4E072202213046FEF7F1
:103E400079F9072203213046FEF774F902208DF834
:103E500014008DF8150000248DF8164001200C2563
:103E60008DF81700049504A93046FEF727F9ADF840
:103E70000440ADF80640ADF80840ADF80C400D4CDC
:103E80000097ADF80A506946204600F05FF901221C
:103E900040F22551204600F040F90121204600F073
:103EA0000CF94021204600F0FFF807B0F0BD0000FB
:103EB000000002400044004070B5064686B0012173
:103EC0000220FFF7DFF801218804FFF7E7F81F4D14
:103ED00007220A212846FEF72DF907220B21284642
:103EE000FEF728F902218DF814104FF440608DF888
:103EF0001510049000248DF8164001208DF817004D
:103F000004A92846FEF7DAF8ADF80440ADF80640FB
:103F1000ADF80840ADF80C400C200D4CADF80A008F
:103F200000966946204600F011F9012240F2255121
:103F3000204600F0F2F80121204600F0BEF84021B2
:103F4000204600F0B1F806B070BD00000004024049
:103F5000004800402DE9F0412A4C40F22555294601
:103F6000204600F0BBF800282DD02946204600F05E
:103F70009EF8204600F040F92349244BC0B2087057
:103F8000597900291FD11C780A46A5074FF0010670
:103F900003F106011DD4E40704D0AA280AD055284D
:103FA00002D012E055280ED150545E70187840F0BF
:103FB000010007E05A7850545878401C587018781F
:103FC00040F002001870BDE8F0815A701A705A7102
:103FD000F9E75C7860545C78641CE4B25C701D782E
:103FE0006F0708D4597A491E8C42ECD10D28ECD1C8
:103FF00045F00400E6E70A28E7D160545A701A70C9
:104000005E71E0E7004800403C000020540A0020B8
:1040100070B5064686B001211020FFF733F8012164
:10402000C807FFF73BF81E4D082200212846FEF77F
:1040300081F8082201212846FEF77CF802218DF83C
:10404000141003208DF81510049000248DF81640EC
:1040500001208DF8170004A92846FEF72FF8ADF8C7
:104060000440ADF80640ADF80840ADF80C400C2017
:104070000C4CADF80A0000966946204600F066F840
:10408000012240F22551204600F047F80121204648
:1040900000F013F84021204600F006F806B070BD8D
:1040A00000100240007C0040C943018070470A0AAA
:1040B00001219140C943018070470029818902D0C4
:1040C00041F4005101E021F4005181817047024622
:1040D000002012880A4200D00120704770B501F01C
:1040E0001F0501260024C1F3421306FA05F2012B35
:1040F0000FD0022B0FD0838A4FEA11210088134280
:1041000006FA01F600EA060001D000B101242046BB
:1041100070BD8389F0E7038AEEE710B5C1F342135F
:1041200001F01F040121A140012B07D0022B07D071
:104130001430002A026805D00A4304E00C30F8E786
:104140001030F6E78A43026010BD00007FB50446D8
:10415000008A0D46C98820F4405001432182A0897D
:1041600041F20C618843A9882A8911436A89024374
:104170001143A181A08A20F44071A8890843A0823C
:104180006846FEF7AFFF1A48844202D019488442BD
:1041900001D1039800E00298A189090400EBC00155
:1041A00001EB0010296801D5490000E08900B0FB4F
:1041B000F1F06422B0FBF2F109010B096FF0180570
:1041C0006B4300EB8300A3891D044FF0320306D537
:1041D00003EBC000B0FBF2F000F0070005E003EBDA
:1041E0000010B0FBF2F000F00F00084320817FBD0B
:1041F00000100140001401408088C0F3080070479F
:10420000C1F3080181807047124A904202D10846EA
:10421000FFF75EBD104A904202D10846FFF700BE8C
:104220000E4A904202D10846FFF746BE0C4A904221
:1042300002D10846FFF79ABB0A4A904202D10846CB
:10424000FFF714BC084A904202D10846FFF7E0BECF
:10425000704700000010014000440040004800404A
:10426000004C004000500040007C0040FEE77047DA
:1042700003B401984100009850EAC12018BF0420FF
:104280004A0D18BF40F0010040F2FF72B2EB515FDF
:1042900008BF40F00200012808BF052002B07047A7
:1042A00030380A2801D2012070470020704770473B
:1042B00010B504460420FFF737F90A484FF47A7125
:1042C000047014FB01F1012242804FF0E0200269EA
:1042D00042F0020202614161016941F001010161A4
:1042E00010BD00005804002070B5044601F058FDD0
:1042F00001280CD0094D6888844203D3B4FBF0F048
:1043000000F0C8FF6888B4FBF0F100FB11444FF4E3
:104310007A706043BDE8704000F002B85804002095
:1043200070B54FF0E02500216C69094AAB6912783D
:104330005043AA699A42FCD002D2A3EB020302E0E6
:10434000A4EB02063344194413468142F1D370BDF5
:1043500058040020F0B50E4D00210E4A0E46A5F17E
:104360000C07002000EB400305EB8303146833F8CF
:104370001130401C2344C0B213601028F2D3180936
:1043800027F81100491CC9B216600629E9D3F0BD0F
:10439000140500200000002003490A885206FCD5BD
:1043A000C2B28A8070470000001001401CB500F0C6
:1043B0002BFEFFF7FDF8FEF7EAFB40F27121042027
:1043C000FEF7E8F8C820FFF78FFFFFF73FF9FEF789
:1043D000FBFA09A0FBF7D8FF0E490120CDE9000147
:1043E000002340220CA10F4801F0AEFC00F048FE73
:1043F00001F0B0F800201CBD524F424F54205379B9
:104400007374656D207374617274696E6721210D18
:104410000A0000000800002053746172745F546148
:10442000736B00002D33000870B5134A131893F80E
:10443000203093B1114B53F820308B421AD90F4BD7
:1044400002EB80020C3B53F820305069B1FBF3F1D2
:1044500030F811400020034608E011688847012029
:1044600070BD55690E18401C25F81630A042F8DBC7
:10447000002070BD022070BD60040020A8810008EB
:1044800070B504460B480C4E002150F8240006EB92
:1044900084054200686900F08FF806480021183052
:1044A00050F82420A86800F087F80120311981F81D
:1044B000200070BD90810008600400202DE9F041CB
:1044C0001F4E0546002470190F4690F8200010B9C1
:1044D0003168284688474FF0FF327FB3194B53F8B5
:1044E0002510B7FBF1F0B7FBF1FC01FB1C7101B12A
:1044F000401C14490C3951F82510491E1ED406EBF6
:104500008506776937F811C0BCF1000F05D000248B
:10451000844211D1002284B207E0641CF8E7776975
:1045200001EB020C521C27F81C408242F7D353F8CF
:1045300025004843BDE8F081491EE3D51046F9E760
:10454000600400209C81000810B50B4B0B4C00222E
:1045500053F82030114604EB800005E0446934F83C
:10456000114004B1521C491C8B42F7D864204243CD
:10457000B2FBF3F0C0B210BD9081000860040020CF
:10458000002906D0034A02EB80029268891AFFF7DD
:104590004BBF70476004002010B50446FFF78EFF44
:1045A000411C05D0034901EB84018968084410BD12
:1045B000002010BD6004002001E000F8011B521E25
:1045C000FBD270472DE9F041184E0F460446F568BE
:1045D0003068001D00F0D4FC38B9306890F82C1019
:1045E00001208840316981433161601C07D137B1B6
:1045F0003168BDE8F0410E48091D00F0F9BC306893
:104600002C44AC424460316805D2B06BBDE8F04147
:10461000091D00F0D5BC706B091D00F0D1FCB06A1B
:10462000844200D2B462BDE8F0810000940400200E
:1046300010E400202DE9F041054600F0E5FC2D4E88
:10464000B068401CB06030682B4F10B1706930B357
:104650002BE03560B068012827D1002404EB8400EA
:1046600007EB800000F09EFC641C202CF6D323484E
:1046700000F098FC2148143000F094FC1F482830CA
:1046800000F090FC1D483C3000F08CFC1B48503082
:1046900000F088FC194870631430B06305E030689E
:1046A000E96AC06A884200D83560706A0121401CFE
:1046B00070626864E86A326981401143316100EBDD
:1046C000800007EB8000291D00F092FC00F0D8FC70
:1046D000706900280CD03068E96AC06A884207D245
:1046E00007494FF080500860BFF34F8FBFF36F8FC3
:1046F000BDE8F0819404002040E10020C0E30020E8
:1047000004ED00E010B500F07FFC0E4C2068A0B96D
:104710000D4800F047FC0C48143000F043FC0A48F8
:10472000E0601430206100221021052001F042F8E1
:10473000206010B105A100F079FDBDE8104000F047
:104740009FBC0000D004002024E40020546D72516E
:104750000000000070B5124E124D1CE000F044FF46
:10476000306820B1002401F049FCA4B901E0012423
:10477000F9E700F049FCF068C468201D00F000FC77
:10478000A868401EA8606868401E686000F078FC59
:10479000204600F052F868680028DFD170BD0000A4
:1047A000FCE300209404002030B4026C0B46002A85
:1047B0000BD0C1681144C1604468A14201D30168B3
:1047C000C16030BC1846FBF712BF30BC70472DE902
:1047D000F041856B174604460026026C82B1C7B1D2
:1047E000E068FBF704FFE168206C091AE1602268C9
:1047F000914202D26168081AE060022F16D017E0D9
:104800002068A8B9606801F053FB0646002060608C
:104810000EE0A068FBF7EBFE216CA0680844A060E6
:104820006168884204D32068A06001E005B16D1E74
:104830006D1CA5633046BDE8F08110B50446006BE1
:1048400000F050FC2046BDE8104000F04BBC0000DA
:1048500010484FF4A041420706D0C01D0D4920F07A
:104860000700411AC1F5A0410B4A00230144C2E9E7
:1048700000030839103A21F0070111604B600B600A
:104880000B1AC0E9001393604FF000405360D060F2
:10489000704700004CE4002000050020074E4FF058
:1048A0008054074DFFF756FF30680128FAD92C6075
:1048B000BFF34F8FBFF36F8FF4E7000040E100209C
:1048C00004ED00E02DE9F047DDE909840E461746C6
:1048D000824691009946089DA522206BFBF7CCFEED
:1048E0006FF00301206B01EB8701084420F00707FC
:1048F000780705D040F22B3219A11EA0FBF744FD2A
:1049000000202218315C82F83410315C11B1401C57
:104910001028F6D3002684F84360202D00D31F25ED
:10492000E562C4E91356201D00F047FB04F11800AE
:1049300000F043FB2461C5F120006462A06166655C
:1049400084F858604A465146384600F003FB206020
:10495000B8F1000F01D0C8F80040BDE8F0870000B2
:104960002E2E5C4672656552544F535C7461736BB6
:10497000732E63004572726F723A25732C25640D95
:104980000A00000030B5114900E011460A68824271
:10499000FBD34B685C18844203D1406818444860DC
:1049A000084643681C18944209D1084C103C2468FE
:1049B000A24209D052681A4442600A681268026032
:1049C000814200D0086030BD0460F9E70005002096
:1049D00070B5002441600B4D0061914206D8D11A98
:1049E0008269914206D2011D286907E09A4203D2EA
:1049F000994201D3012403E0011DE86800F0E0FAC8
:104A0000204670BDD004002010B5044600F0FCFA2A
:104A1000A06B20B1002400F033FB204610BD012420
:104A2000F9E700002DE9F34100980F460026846C59
:104A30002CB940F6CE1216A11AA0FBF7A5FCA06B6C
:104A4000E16B884205D340F6CF1211A115A0FBF708
:104A50009BFCA06BE16B88420CD294F945503A461E
:104A600069462046FFF7B3FE0646681C05D06D1C5C
:104A700084F845503046BDE8FC81606A0028F9D0D2
:104A800004F1240001F06EFA0028F3D00126F1E7CA
:104A90002E2E5C4672656552544F535C7175657578
:104AA000652E63004572726F723A25732C25640D72
:104AB0000A000000F8B5054614480E46C068C068F4
:104AC000C468201D00F05CFAE069012817D1A069D4
:104AD0002B46411932462046FFF77AFF78B1002075
:104AE0000346014600902A46204601F06DFB30B98E
:104AF00007494FF4027201F11800FBF745FC616AA7
:104B000001B02046BDE8F04008470000D004002076
:104B10002C61000870B586B02F4E53E00198002834
:104B200006DADDE90301029A90470198002849DB83
:104B3000039C606910B1201D00F022FA05A800F066
:104B4000A7F8054601980A283CD2DFE800F00505E1
:104B5000053B273805053B270298A1690346014418
:104B60002A462046FFF734FF00282BD0616A2046F2
:104B70008847E069012825D1002000900298A169AA
:104B8000002342181946204601F01EFBD0B940F21E
:104B9000213212A117A0FBF7F7FB13E00298A061E6
:104BA00028B94FF44E720DA112A0FBF7EDFBA069DE
:104BB0002B4641191A462046FFF70AFF02E020461D
:104BC00000F090FA00231A4601A9306800F02EFE8A
:104BD0000028A3D106B070BDD00400202E2E5C4664
:104BE00072656552544F535C74696D6572732E63C0
:104BF000000000004572726F723A25732C25640D17
:104C00000A000000F8B50D46064600F0EDFC6846C7
:104C100000F03EF80446009810B101F0EFF9F8BD3D
:104C20001148ADB101690968D9B10025311B2A4687
:104C3000006800F00DFB01F0E1F90028EFD10B490D
:104C40004FF080500860BFF34F8FBFF36F8FF8BDF8
:104C5000A642EBD801F0D2F921463046FFF72AFFF1
:104C6000F8BD0125E2E70000D004002004ED00E0DB
:104C70000648416B096829B1416BC968C968496830
:104C8000816270474FF0FF31FAE700009404002082
:104C900070B5054601F092F8064E0446B0688442AD
:104CA00003D200F009F8012000E00020286020462F
:104CB000B46070BDD0040020F8B5184E26E0C0687E
:104CC000C4680568201D00F05BF9616A20468847CA
:104CD000E06901281AD1A0692844A84206D92461B4
:104CE0006060211DF06800F06BF90FE000200346C2
:104CF000014600902A46204601F066FA30B908497C
:104D000040F2923201F11800FBF73EFBF0680168B7
:104D10000029D4D13169C6E90310F8BDD0040020C0
:104D20002C61000808484068401C05D040F20F1272
:104D300006A111A0FBF728FB502080F31188BFF3D8
:104D40004F8FBFF36F8FFEE7E40400202E2E5C46EA
:104D500072656552544F535C706F727461626C651A
:104D60005C525644535C41524D5F434D34465C7037
:104D70006F72742E630000004572726F723A257371
:104D80002C25640D0A000000084CE068016839B168
:104D9000002139B10020FFF735FFFFF7BBFEF4E734
:104DA0000121F6E7C0680068F5E70000D0040020A4
:104DB0002DE9F041044600F027F994F9455004F13B
:104DC000240610E0A06C20B100212046FFF72AFE47
:104DD00004E0606A48B1304601F0C4F808B100F060
:104DE000F5FA6D1E6DB2002DECDC4FF0FF3684F845
:104DF000456000F045F900F007F994F9445004F1DA
:104E0000100709E0206948B1384601F0ABF808B155
:104E100000F0DCFA6D1E6DB2002DF3DC84F8446006
:104E2000BDE8F04100F02CB92DE9F041054600261F
:104E300000F0DAFB324F386808B9FFF709FDF8686F
:104E400005424FD1002D4DD0083568070BD005F035
:104E50000700C0F108000544680704D0BF2229A15B
:104E600032A0FBF791FA002D3CD07868854239D802
:104E7000234910310846046801E021460446606871
:104E8000A84202D220680028F7D13868B846844288
:104E900028D00E682068086060680836401B10281B
:104EA0000ED96719780704D0EC2216A11FA0FBF7D2
:104EB0006BFA6068401B786038466560FFF762FDFA
:104EC0006168D8F804004246401AC8F80400D8F8CF
:104ED0000830984200D29060D8F80C0001430020BE
:104EE000C4E9000101F08AF8700705D04FF496720A
:104EF00004A10EA0FBF748FA3046BDE8F08100009F
:104F0000F00400202E2E5C4672656552544F535CAF
:104F1000706F727461626C655C4D656D4D616E673A
:104F20005C686561705F342E630000004572726FCB
:104F3000723A25732C25640D0A00000004490868A4
:104F400018B10868026D521C0265086870470000BD
:104F50009404002010B5031F4FF080741C601B1FC9
:104F600021F001011960191F044B0B6014390A600C
:104F7000091F6FF0020244380A6010BD254D000879
:104F8000D0E9013201699A60D0E901235A604A6888
:104F9000824201D182684A60002202610868401E94
:104FA0000860704700F108014FF0FF32C0E90112BC
:104FB000C1600161002101607047002101617047FB
:104FC00030B50C68621C02D000F1080202E00269F0
:104FD00004E01A4653681D68A542FAD953684B602D
:104FE00099608A60516008610168491C016030BDA8
:104FF00042684A6093688B60936859609160086169
:105000000168491C01607047502080F31188BFF38C
:105010004F8FBFF36F8F09494868401C48600128D3
:105020000AD10748006810F0FF0F05D040F2B9120E
:1050300004A10FA0FBF7A8B970470000E40400200A
:1050400004ED00E02E2E5C4672656552544F535CB1
:10505000706F727461626C655C525644535C41526D
:105060004D5F434D34465C706F72742E63000000D8
:105070004572726F723A25732C25640D0A00000088
:1050800010B5084C606828B94FF4E07206A111A071
:10509000FBF77AF96068401E606001D180F31188E7
:1050A00010BD0000E40400202E2E5C46726565529F
:1050B000544F535C706F727461626C655C525644FD
:1050C000535C41524D5F434D34465C706F72742E99
:1050D000630000004572726F723A25732C25640DCF
:1050E0000A00000070B500282AD0164DA0F108046F
:1050F0006068E968084205D14FF4A07212A11CA0B3
:10510000FBF742F9206828B140F241120EA118A025
:10511000FBF73AF96068E968084211D02268002A72
:105120000ED18843606000F05FFA606869680844E7
:1051300068602046FFF726FCBDE8704000F05EBFC7
:1051400070BD0000F00400202E2E5C467265655292
:10515000544F535C706F727461626C655C4D656D29
:105160004D616E675C686561705F342E630000009E
:105170004572726F723A25732C25640D0A00000087
:1051800006484FF47A710068B0FBF1F14FF0E0206F
:10519000491E41610721016170470000440400205D
:1051A00010B5FBF7CBF8104C10280CD300F1E02021
:1051B00090F8F0032178884205D24FF440720BA199
:1051C00015A0FBF7E1F818480068A16800F4E0605A
:1051D000884207D9BDE810404FF4447203A10EA0E5
:1051E000FBF7D2B810BD0000E40400202E2E5C4670
:1051F00072656552544F535C706F727461626C6576
:105200005C525644535C41524D5F434D34465C7092
:105210006F72742E630000004572726F723A2573CC
:105220002C25640D0A0000000CED00E010B5074BC2
:10523000002253F832401CB1521C082AF9D310BD89
:1052400043F8321003EBC201486010BD00E10020BA
:1052500070B515460E460446FFF7D6FE94F9441085
:105260000020491C01D184F8440094F94510491CE0
:1052700001D184F84500FFF703FFA06B28B92A4647
:10528000314604F1240000F0D1F82046BDE870401A
:10529000FFF78EBD10B5040012D00E49096B29B17D
:1052A00040F2CF420CA111A0FBF76EF800F09CF980
:1052B00000212046FFF786F900F0A0FE002807D164
:1052C0000E494FF080500860BFF34F8FBFF36F8FD0
:1052D00010BD0000940400202E2E5C4672656552BD
:1052E000544F535C7461736B732E63004572726F1D
:1052F000723A25732C25640D0A00000004ED00E0CD
:1053000070B50446FFF780FE234D04B92C68201DBC
:10531000FFF736FE58B9E06A204A00EB800152F8E8
:10532000211021B901218140286988432861A06AA0
:1053300018B104F11800FFF723FE686A401C686288
:105340002868844207D1211D1548FFF751FE68687F
:10535000401C686007E0A868401EA8602046FFF770
:105360006CFAFFF785FCFFF78BFE6869002812D006
:10537000286884420FD1286B28B140F2654209A108
:105380000DA0FBF701F810494FF080500860BFF303
:105390004F8FBFF36F8F70BD9404002040E1002059
:1053A000FCE300202E2E5C4672656552544F535C20
:1053B0007461736B732E63004572726F723A25735A
:1053C0002C25640D0A00000004ED00E001490120D5
:1053D000C86170479404002070B50D46040005D1E3
:1053E00040F6063207A10CA0FAF7CEFF0E4801687E
:1053F00020461831FFF7E4FD2846BDE87040012142
:10540000FFF7E0B82E2E5C4672656552544F535C30
:105410007461736B732E63004572726F723A2573F9
:105420002C25640D0A0000009404002070B5144679
:105430000E46050005D140F6313209A10DA0FAF75C
:10544000A3FF1048016828461831FFF7D1FD0CB1C1
:105450004FF0FF3621463046BDE87040FFF7B2B846
:105460002E2E5C4672656552544F535C7461736BAB
:10547000732E63004572726F723A25732C25640D8A
:105480000A0000009404002070B5040039D01D4DBE
:10549000E06A2968C96A884233D2A069002804DB1F
:1054A0002868C06AC0F12000A061E06A164E00EBD7
:1054B0008000616906EB800081421FD1201DFFF74B
:1054C0005FFD012150B9E06A00EB800256F822200E
:1054D00022B92A6901FA00F082432A612868C06A69
:1054E000E0622A6981401143296100EB800006EBEC
:1054F0008000211DBDE87040FFF77ABD2868C06AB2
:10550000E06270BD9404002040E1002010B504006A
:1055100005D140F6C13205A109A0FAF735FF0C48C4
:10552000016A2160C068606010BD00002E2E5C46DC
:1055300072656552544F535C7461736B732E6300D4
:105540004572726F723A25732C25640D0A000000B3
:10555000940400201CB517480024CDE900402346E0
:10556000822215A1164800F0EFFB012803D100F0BC
:10557000F1FD01280AD0401C1BD102B040F2847218
:10558000BDE810400FA114A0FAF7FEBE502080F332
:105590001188BFF34F8FBFF36F8F06484FF0FF3175
:1055A0002C38816201214161C460BDE81C4000F0DB
:1055B00061B81CBDC004002049444C4500000000F7
:1055C0009D4800082E2E5C4672656552544F535C10
:1055D0007461736B732E63004572726F723A257338
:1055E0002C25640D0A0000000248016B491C016370
:1055F000704700009404002070B5134D286B10B163
:105600000120E86170BD0020E86128690F4EB0FA02
:1056100080F0C0F11F0000EB800456F8240028B988
:1056200040F6F6220AA10FA0FAF7AEFE06EB8400C0
:1056300000F10802416849684160914201D149681E
:105640004160C868286070BD9404002040E10020DB
:105650002E2E5C4672656552544F535C7461736BB9
:10566000732E63004572726F723A25732C25640D98
:105670000A0000001CB5304C20683049884205D132
:1056800040F259122EA139A0FAF77EFE20682B496C
:10569000491E884205D14FF4AD7229A133A0FAF713
:1056A00073FE364C20780190FF20207020788DF812
:1056B00000009DF800009DF8001000F0F000884206
:1056C00005D040F273121EA128A0FAF75DFE9DF8E6
:1056D00000002B4A00F0500010700720906007E097
:1056E0009068401E90609DF8000040008DF800001A
:1056F0009DF800000006F3D4107A000200F4E06088
:105700009060019820700C482030016841F47001CD
:105710000160016841F070410160FFF731FD002038
:105720005060FAF7D3FD1748016841F0404101602D
:10573000FAF7BCFD00201CBD00ED00E071C20F4176
:105740002E2E5C4672656552544F535C706F7274B6
:1057500061626C655C525644535C41524D5F434DEF
:1057600034465C706F72742E630000004572726F75
:10577000723A25732C25640D0A00000000E400E055
:10578000E404002034EF00E010B5502080F31188CD
:10579000BFF34F8FBFF36F8F00F016FB18B10449B2
:1057A0004FF080500860002080F3118810BD000089
:1057B00004ED00E02DE9F04117460E46050005D145
:1057C0004FF4C47210A115A0FAF7DEFDBEB105FBBF
:1057D00006F05430FFF728FB04000ED004F154000B
:1057E0007EB12060C4E90F562046012100F0E0F8A8
:1057F00084F8507000212046A164BDE8F0810020AB
:10580000E7E72460EEE700002E2E5C4672656552E5
:10581000544F535C71756575652E63004572726FE8
:10582000723A25732C25640D0A0000002DE9FF4F04
:1058300083B09B468A4604004FF0000605D140F233
:10584000DC4251A155A0FAF79FFDBAF1000F07D134
:10585000206C28B140F2DD424BA150A0FAF794FD34
:1058600000F09EFA38B9059828B14FF49C6246A121
:105870004AA0FAF789FD4FF000094FF08057DFF892
:105880002C81FFF7C1FBA56B45B351462046E66866
:10589000FEF78AFFBBF1000F13D0E660606A50B1DB
:1058A00004F1240000F05EFB28B1C8F80070BFF3DB
:1058B0004F8FBFF36F8FFFF7E3FB012007B0BDE809
:1058C000F08F6D1EA563206810B9FFF737FB60608D
:1058D00020690028EFD004F11000E3E7059808B133
:1058E0001EB106E0FFF7CCFB27E06846FFF70EFE8F
:1058F0000126FFF7C5FBFFF777FEFFF785FB94F95D
:105900004400401C01D184F8449094F94500401CA7
:1059100001D184F84590FFF7B3FB05A9684600F074
:10592000CFF9002820460AD0FFF742FA00F066FBC4
:105930002046FFF769F80028A3D00020BEE7FFF754
:1059400063F8D8B1206830B9FFF75EFB6068FFF7F5
:105950009BFDFFF795FB04F124000599FFF73CFD43
:105960002046FFF725FA00F049FB002889D1C8F846
:105970000070BFF34F8FBFF36F8F82E72046FFF7B2
:1059800017FA00F03BFB7CE72E2E5C4672656552F1
:10599000544F535C71756575652E63004572726F67
:1059A000723A25732C25640D0A00000004ED00E016
:1059B00070B50D46040005D140F21B121CA121A0B8
:1059C000FAF7E2FCFFF720FBD4E90F20216802FB85
:1059D000001161600021A1632168A1600A46D4E939
:1059E0000F01401E00FB0121E16021464FF0FF3016
:1059F00001F8440F487004F110004DB1FFF7D2FADE
:105A000004F12400FFF7CEFAFFF73AFB012070BD46
:105A100021690029F8D000F0A5FA0028F4D00D493A
:105A20004FF080500860BFF34F8FBFF36F8FEBE7ED
:105A30002E2E5C4672656552544F535C71756575C8
:105A4000652E63004572726F723A25732C25640DC2
:105A50000A00000004ED00E02DE9FF4F83B09946F5
:105A60008B4604004FF0000605D140F2D92252A126
:105A700056A0FAF789FCBBF1000F07D1206C28B1C2
:105A800040F2DA224CA151A0FAF77EFCB9F1020FE4
:105A900008D1E06B012805D040F2DB2246A14BA0E3
:105AA000FAF772FC00F07CF938B9059828B140F299
:105AB000DE2241A145A0FAF767FC4FF0000A4FF043
:105AC0008057DFF81881FFF79FFAA06BE16B8842DF
:105AD00006D3B9F1020F03D0059800B316B325E041
