:020000040800F2
:1000000050310120F1020008ED130008BD0D000879
:10001000511200087D080008A92200080000000015
:10002000000000000000000000000000390200088D
:1000300075090008000000008D020008E91800089A
:100040000B0300080B0300080B0300080B03000858
:100050000B0300080B03000879090008BD0A00081B
:10006000DD0B00080B030008F50B00080B0300086C
:100070000B0300080B0300080B0300080B03000828
:100080000B0300080B0300080B0300080B03000818
:100090000B0300080B0300080B0300080D0C0008FD
:1000A0000B0300089D1900080B0300080B03000850
:1000B000C51900080B0300080B0300080B03000818
:1000C0000B0300080B0300080B0300080B030008D8
:1000D0000B030008A91D00080B030008911F00086E
:1000E000A10A00080B0300080B0300080B0300081B
:1000F0000B0300080B0300080B0300080B030008A8
:100100000B0300080B0300080B0300080B03000897
:10011000DD1B00080B0300080B030008CD1A0008C4
:10012000C90800080B0300080B0300080B030008B4
:100130000B0300080B0300080B0300080B03000867
:100140000B0300080B0300080B0300080B03000857
:100150000B0300080B0300080B0300080B03000847
:100160000B0300080B0300080B0300080B03000837
:100170000B0300080B0300080B0300080B03000827
:100180000B0300080B03000800F002F800F044F82D
:100190000AA090E8000C82448344AAF10107DA45E2
:1001A00001D100F039F8AFF2090EBAE80F0013F0F0
:1001B000010F18BFFB1A43F001031847B0400000BD
:1001C000D0400000103A24BF78C878C1FAD852074E
:1001D00024BF30C830C144BF04680C6070470000C1
:1001E0000023002400250026103A28BF78C1FBD840
:1001F000520728BF30C148BF0B607047642900F028
:100200000381732900F01082002070471FB504F0AD
:1002100015F81FBD10B510BD00F09BFA1146FFF791
:10022000F5FF02F0C1F800F0B9FA03B4FFF7F2FFEE
:1002300003BC02F03AF800002A4B19680868B0E8DD
:10024000F04F80F30988BFF36F8F4FF0000080F309
:10025000118870470000000006480068006880F3BD
:10026000088862B661B6BFF34F8FBFF36F8F00DFB0
:1002700000BF00BF08ED00E0DFF80C00016841F4AA
:1002800070010160704700BF88ED00E0EFF3098066
:10029000BFF36F8F134B1A681EF0100F08BF20EDCD
:1002A000108A20E9F04F106008B44FF0500080F33E
:1002B0001188BFF34F8FBFF36F8F03F08FF94FF0AB
:1002C000000080F3118808BC19680868B0E8F04F96
:1002D0001EF0100F08BFB0EC108A80F30988BFF33E
:1002E0006F8F7047B0000020EFF30580704700006B
:1002F0000948804709480047FEE7FEE7FEE7FEE7BA
:10030000FEE7FEE7FEE7FEE7FEE7FEE704480549F5
:10031000054A064B70470000FD18000889010008D7
:10032000502B012050310120502D0120502D012053
:10033000704700000FB4044910B503AA029800F0FA
:1003400077F910BC5DF814FB780000202DE9F0412E
:100350000E460446002020622046E168884730B3FC
:10036000252805D0D4E901219047206A401CF2E7F6
:10037000E168204600278847050018D0A5F1410014
:10038000192802D820354FF4006732462946204606
:100390002760FFF733FF40B1012804D0F61D26F097
:1003A00007060836D8E7361DD6E72846DAE7206A7A
:1003B000BDE8F08170B50C460546012A05D02878C5
:1003C000800600D5EA69002302E0012305E05B1CFA
:1003D000934202D2E05C0028F9D1A869E618C01A5D
:1003E000A861286A184428622846AFF3008004E018
:1003F000D5E9012114F8010B9047B442F8D32846FF
:10040000AFF3008070BD00002DE9F04106460024E6
:1004100010687529314616A510D0AFF3008000286A
:1004200002DA404213A507E031688A0701D512A518
:1004300002E0490704D511A5012401E0AFF30080D3
:1004400000210A2206F1240709E0B0FBF2FCB0FB10
:10045000F2F302FB1C00303078541846491C002887
:10046000F3D123462A463046BDE8F04100F059B8A2
:10047000000000002D0000002B0000002000000004
:10048000032A40F2308010F0030C00F0158011F8C0
:10049000013BBCF1020F624498BF11F801CB00F898
:1004A000013B38BF11F8013BA2F1040298BF00F8EC
:1004B00001CB38BF00F8013B11F0030300F0CA8004
:1004C000083AC0F0088051F8043B083A51F804CBD0
:1004D000A0E80810F5E7121D5CBF51F8043B40F896
:1004E000043BAFF30080D20724BF11F8013B11F8A1
:1004F00001CB48BF11F8012B24BF00F8013B00F8E5
:1005000001CB48BF00F8012B704702F0FF0343EA1C
:10051000032242EA024200F0D1B8704770477047A8
:1005200070472DE9F0470D4699469246044600F182
:1005300024080168880604D5E06921F010012160D3
:1005400000E00120A84201DD471B00E00027A1696F
:100550007A1902EB0900081AA0612078C00602D4BB
:100560002046AFF30080002608E0D4E901211AF804
:1005700006009047206A401C761C20624E45F4DB42
:100580002078C0060AD52046AFF3008006E0D4E903
:10059000012130209047206A401C2062381EA7F1BC
:1005A0000107F4DC07E0D4E9012118F805009047C1
:1005B000206A401C2062281EA5F10105F3DC2046BC
:1005C000AFF300802078000602D50220BDE8F08756
:1005D0000120FBE701694A1C02610878704700B5F9
:1005E0008FB0CDE901310021059105497944CDE96C
:1005F000031011466846FFF7A9FE0FB000BD0000CA
:10060000E5FFFFFF10B5436913B1AFF3008001E0D0
:10061000FFF7D0FE012010BD127800F124010A700E
:1006200000224A700122EDE711684FF0FF32E9E73E
:10063000074B70B50D467B44FFF7D1FF04462846B3
:1006400000F05CF810B14FF0FF3070BD204670BD77
:100650005B1D000010B5203AC0F00B80B1E81850C7
:10066000203AA0E81850B1E81850A0E81850BFF49C
:10067000F5AF5FEA027C24BFB1E81850A0E818503B
:1006800044BF18C918C0BDE810405FEA827C24BF8F
:1006900051F8043B40F8043B08BF7047D20728BF1D
:1006A00031F8023B48BF11F8012B28BF20F8023B6C
:1006B00048BF00F8012B70474FF000020429C0F03A
:1006C000128010F0030C00F01F80CCF1040CBCF180
:1006D000020F18BF00F8012BA8BF20F8022BA1EBD6
:1006E0000C0100F011B85FEAC17C24BF00F8012BB7
:1006F00000F8012B48BF00F8012B7047007B00F089
:10070000800070474FF0000200B5134694469646AD
:10071000203922BFA0E80C50A0E80C50B1F1200114
:10072000BFF4F7AF090728BFA0E80C5048BF0CC0C2
:100730005DF804EB890028BF40F8042B08BF704720
:1007400048BF20F8022B11F0804F18BF00F8012B92
:100750007047754600F02CF8AE46050069465346D2
:1007600020F00700854618B020B5FFF7CFFDBDE8A3
:1007700020404FF000064FF000074FF000084FF008
:10078000000B21F00701AC46ACE8C009ACE8C00999
:10079000ACE8C009ACE8C0098D46704710B5044606
:1007A000AFF300802046BDE81040FFF73EBD0000DB
:1007B00000487047EC2A012010B5044600F0A8FB61
:1007C000200AA02101EB4000C0B200F071FB00F054
:1007D000DFFBE0B200F06CFB00F0DAFB00F098FB0E
:1007E000A12000F065FB00F0D3FB002000F02CFB03
:1007F000044600F0ADFB204610BD70B50D46044622
:1008000000F086FB200AA02101EB4000C0B200F0FE
:100810004FFB00F0BDFBE0B200F04AFB00F0B8FB7C
:10082000284600F045FB00F0B3FB00F091FBBDE86B
:100830007040322001F056BD642002F01DFDFBE740
:100840001CB50121082000F02DFE01208DF80400C8
:1008500000208DF806008DF8070003204FF4007487
:100860008DF8050000946946034800F0F9F9024844
:100870001A3004801CBD0000000C0240FEE703207B
:1008800002F0FAFCFBE700000A48016A491C016219
:10089000818B491C81830849897F012903D107493C
:1008A000097DC90702D0002181847047818C491CD1
:1008B000FAE700004C020020C80200208802002055
:1008C000C82002F0D9FCFBE770B5084C084D214662
:1008D000284600F025F8002807D02146284600F0D9
:1008E00009F8BDE8704001F033BD70BD20800010F4
:1008F00010640240074A904201D2074801E00548CF
:100900001038064A8B0001EA020101D5C160704728
:100910008160704710640240006002407D0F7D0FCF
:1009200030B5104A0024904201D20F4A01E00D4A2E
:10093000103A0E4B194205D01E2303EAD125036855
:100940002B4002E0406900F08003880001D5506828
:1009500000E01068064A1040084201D003B10124AB
:10096000204630BD10640240006002403C0F3C0F46
:100970007D0F7D0F7047000070B5012000F062F917
:1009800000286ED0434C44484FF6FF7621784FF054
:1009900000054A064FEA81611CD400291CDA0121B6
:1009A00000F0AAF900286ED1A089E080217801F03A
:1009B000DF022270A1888842A0EB010000D23044FF
:1009C00080B2A0F5B970B4285DD242F0400020702A
:1009D000657058E000290BDB012100F08DF901283A
:1009E00051D1A089A080207840F0200020704AE0FA
:1009F000012100F081F998BBA089E080217801F005
:100A0000DF012170A1888842A0EB010000D23044B0
:100A100080B2A0F11401462901D2607806E0A0F16D
:100A200064016E2904D2607840F00100607007E034
:100A3000A0F1DC01322903D3B0F5967F00D32570F5
:100A4000207800F01F01062918D32570607813491B
:100A5000502807D00C2808D0022809D00A280AD02C
:100A600011E015E0502008700DE00C2048700AE0FD
:100A70000220887007E00A20C87004E0401C207043
:100A8000607840006070BDE87040012000F0D4B88C
:100A900070BD00003A000020000402404C0200201B
:100AA00010B54FF40064204600F0CCF8002804D0C4
:100AB0002046BDE8104000F0BFB810BD70B5022060
:100AC00000F0C0F8002870D0414C42484FF6FF7645
:100AD000A1784FF000054A064FEA81611CD4002935
:100AE0001CDA022100F008F900286AD1A08960818F
:100AF000A17801F0DF02A27021898842A0EB0100F9
:100B000000D2304480B2A0F5B970B42859D242F076
:100B10004000A070E57054E000290BDB022100F0DA
:100B2000EBF801284DD1A0892081A07840F0200069
:100B3000A07046E0022100F0DFF878BBA089608158
:100B4000A17801F0DF01A17021898842A0EB0100AA
:100B500000D2304480B2A0F11401502901D2E078D3
:100B600006E0A0F16401782904D2E07840F00100A9
:100B7000E07003E0B0F5967F00D3A570A07800F098
:100B80001F01062918D3A570E0781349502806D014
:100B90000C2807D0022809D00A280AD011E05020DA
:100BA00008720EE00C2048720BE00FE00220887201
:100BB00007E00A20C87204E0401CA070E078400002
:100BC000E070BDE87040022000F036B870BD000053
:100BD0003A000020000402404C02002010B504201E
:100BE00000F030F8002804D0BDE81040042000F0E8
:100BF00023B810BD10B5102000F024F8002804D050
:100C0000BDE81040102000F017B810BD10B520202E
:100C100000F018F810B1802000F00EF84FF40074C6
:100C2000204600F00FF8002804D02046BDE8104010
:100C300000F002B810BD00000149086070470000D4
:100C4000143C0140034A0146002012680A4200D0C9
:100C500001207047143C0140642002F00DFBFBE7CB
:100C6000F0B5002201274FF0030C0B6807FA02F5DC
:100C70002B40AB422CD1066853000CFA03F4A64378
:100C800006600E79D0F800E09E4046EA0E06066047
:100C90000E79012E01D0022E12D18668A6438660FD
:100CA0004E79D0F808E09E4046EA0E068660466817
:100CB000AE43466045688E799640B6B2354345608E
:100CC000C568A543C560CC799C40C3681C43C4601B
:100CD000521C102AC9D3F0BD4B07DB0E9A40C9083D
:100CE00010B500EB8100016A0F249C40A143016212
:100CF000016A1143016210BD0246002012690A42D6
:100D000000D0012070474183704701837047000085
:100D10002DE9F043DFF89CC041F268074FF4AF596A
:100D2000BCF90440C9F100084FF4AF66B84203DDD6
:100D3000B44201DA4D4606E0B04203DABC4201DDBE
:100D4000454600E000252C44241A24B2E51704EBA4
:100D50009574A510174CACF80C50B942B4F9064084
:100D600001DDB44207DBB14203DABC4201DDC84613
:100D700001E04FF0000808EB0106341B24B2E6172F
:100D800004EB96740C4FA410ACF80E403E7A012E82
:100D90000BD015801C80ACF80850ACF80A40ACF8B9
:100DA0000400ACF80610BDE8F083002616801E8013
:100DB0003E72F0E74E000020FC020020FEE700003B
:100DC00070B50E48016821F440410160016841F4AA
:100DD000804101600A4C0026C4F89C62022004F5A0
:100DE000267401F09BFA01252560022001F096FA95
:100DF0002660022001F092FA656070BD0004024096
:100E00000080404270B50E48016821F44041016005
:100E1000016841F4804101600A4C0125C4F89C52EC
:100E2000022004F5267401F079FA2560022001F011
:100E300075FA00202060BDE87040022001F06EBA13
:100E400000040240008040422DE9F04781461648E8
:100E50000024016821F44041016001680160134EE3
:100E600025460127A0466006040EC6F898720220A7
:100E700001F054FAD6F81C0208B1641CE4B2C6F8BA
:100E80009882012001F04AFA6D1CEDB2082DEAD3D8
:100E9000B9F1000F04D0FFF793FF2046BDE8F087BB
:100EA000FFF7B0FFF9E70000000402400080404275
:100EB0002DE9F04105461448016821F440410160E4
:100EC000016841F4804101600024104EA0460127D2
:100ED000E809C6F89C026806050E022001F01EFA19
:100EE000C6F89872022001F019FAC6F8988202201A
:100EF00001F014FA072C01D1C6F89C72641CE4B20C
:100F0000082CE5D3BDE8F081000402400080404297
:100F100070B50D48016821F440410160016841F459
:100F200080410160094C0120C4F89C02C4F8980279
:100F3000042004F5267401F0F1F900256560042011
:100F400001F0ECF9256070BD0004024000804042D1
:100F500070B50D48016821F440410160016841F419
:100F600080410160094C0125C4F898520020C4F862
:100F70009C02042004F5267401F0D0F96560BDE8F8
:100F80007040042001F0CAB90004024000804042D1
:100F900070B513480024016821F4404101600168E4
:100FA0000160104D0126C5F89C62304601F0B6F98B
:100FB000C5F89862012001F0B1F90AE0641CE4B2BE
:100FC000FA2C06D908A0FFF7B5F9FFF7C1FF0120F9
:100FD00070BDD5F81C020028F0D1C5F8980270BD8C
:100FE00000040240008040426969632074696D65B5
:100FF0006F75740D0A00000005494FF6FF7288896D
:10100000401C80B28881904201D3002088817047C3
:101010003A0000202DE9F041254C264F264D0126AF
:1010200008B1267001E0207878B108212846FFF742
:1010300063FE88B110212846FFF75EFE60B10121F2
:101040003846FFF759FE012806D008212846FFF749
:1010500053FE01281DD028E00A2001F043F90020AA
:10106000207008212846FFF747FE58B11021284676
:10107000FFF742FE48B101213846FFF73DFE012847
:1010800005D012E00120BDE8F0810220FBE703203B
:10109000F9E710212846FFF72FFE012805D101218D
:1010A0003846FFF729FE00B926700020EBE7000064
:1010B0005E00002000000240001002401CB501212B
:1010C000112000F0EFF91820009000208DF80400A6
:1010D00003208DF8050001248DF807406946064875
:1010E000FFF7BEFD02208DF8070000946946034813
:1010F000FFF7B6FD1CBD00000010024000000240DA
:101100000E4D01240020FFF785FF012804D002289E
:1011100007D003280ED109E009A0FFF70BF92C70C6
:1011200008E00BA0FFF706F96C7003E00DA0FFF7D5
:1011300001F9AC700A2002F09FF8E3E704000020F8
:101140004B45595F55505F5052455321210D0A00C0
:101150004B45595F444F574E5F5052455321210D27
:101160000A0000004B45595F454E5445525F5052AE
:10117000455321210D0A00002DE9FC4701212420BF
:1011800000F090F901248DF8044000258DF80650F8
:10119000234F4FF020098DF80740CDF800908DF8CF
:1011A000055069463846FFF75BFD8DF804408DF821
:1011B000065010268DF8074000968DF805506946B8
:1011C0003846FFF74DFD8DF804408DF80650DFF8E6
:1011D00054A04FF400788DF80740CDF800808DF8CA
:1011E000055069465046FFF73BFD8DF804408DF8E9
:1011F0000650A7028DF8074000978DF80550694604
:101200005046FFF72DFD06481A300680A0F80090E2
:1012100004481830A0F800800780BDE8FC87000073
:101220000008024000140240054C4FF4FA75206893
:1012300080F400712160284602F01EF8F7E70000F4
:101240001414024000F024F8052002F015F8F9E724
:10125000FEE7F0B54FF6FF7200254AF201060FE0F7
:10126000445D002384EA0207FF0702D086EA5202A7
:1012700000E052085B1C6408DBB2082BF2D36D1C43
:101280008D42EDDB100240EA122080B2F0BD00007A
:1012900070B5534C607901287DD10A2001F03EF8E9
:1012A0000025657165802571A07901281ED16178BE
:1012B000C80701D0491E6170C9B2A01D891EFFF781
:1012C000C8FFE179474E4848432912D001234429F9
:1012D00041D0452962D0EA2908D1218909B281810A
:1012E000628912B2C28101B90AB1457776E04377CB
:1012F00074E02189628949BA52BAB1F5A04F20D071
:10130000A1F5A043023B03D1A2F5A243023B65D065
:10131000A1F5A043043B61D1A2F5A24104395DD1FE
:10132000A189B31C49BAC182E1892E4A49BA818296
:10133000B0F91610B0F91400FFF7EAFC358075809B
:101340004CE0B2F5A24F49D1A18949BA0182E189A5
:1013500049BA418242E02189628949BAA1F50C5615
:1013600052BA183E03D1A2F54C56183E36D0B1F50C
:10137000045F33D1B2F5445F30D1627BE17B012A57
:101380000AD0012908D00577B0F90210B0F90000A1
:1013900000F034F922E022E00377F5E7218949BA29
:1013A000A1F51852103A03D0A1F51852203A15D1E0
:1013B000A18949BA8181E18949BAC181218A3388E9
:1013C0004ABA618A1A443280728849BA11447180DB
:1013D000A18A49BA0183E18A49BA4183657070BD27
:1013E0002C020020FC020020A0020020704708B55B
:1013F0004FF4407000F042F825208DF800000120E5
:101400008DF8010007218DF802108DF80300684661
:1014100000F002F808BD000030B50F23C278017853
:101420000125FAB1144A126801F1E02102F4E062E8
:10143000C2F5E062C2F30722C2F10404D34042784D
:10144000A24084781C401443220181F800240078D3
:1014500000F01F018D404009800000F1E020C0F83D
:10146000005130BD01F01F0085404809800000F1A7
:10147000E020C0F8805130BD0CED00E00249084387
:1014800002490860704700000000FA050CED00E01A
:101490004FF47A74204601F0EFFEFBE7C82001F01C
:1014A000EBFEFBE7044A0029116801D0014300E08C
:1014B000814311607047000030380240044A00291F
:1014C000116801D0014300E08143116070470000C2
:1014D00040380240044A0029116801D0014300E06D
:1014E00081431160704700004438024070B5204BC2
:1014F0001968204C11F00C0104D06610042903D0A7
:10150000082903D004601BE0066019E0184A121F86
:101510001168C1F38055116801F03F0115B1B6FBA8
:10152000F1F101E0B4FBF1F114681268C4F388141E
:101530006143C2F30142521C5200B1FBF2F101605F
:1015400019680F2202EA11110B4A545C0168E1404C
:1015500041601C68072505EA9424145D21FA04F40F
:1015600084601B6805EA5333D25CD140C16070BD12
:10157000083802400024F400A00000202DE9F041CA
:10158000124F0E468046154608213846FFF7BBFB32
:10159000012000F0A7FE4021404600F0A3FD0024FA
:1015A00005E0315D404600F013F8641CA4B2AC4283
:1015B000F7D34021404600F0A8FD0028F9D0384676
:1015C000BDE8F0410821FFF7A0BB0000000C02407D
:1015D00070B50C460546402100F097FD214628468F
:1015E00000F02CFE8021284600F08FFD0028F9D065
:1015F00070BD192001F040FEFBE700002DE9F0412D
:101600000D46074600260A21304600F0B7FF044683
:1016100001202070EA206070A770380AE070257100
:10162000280A607106212046FFF713FE010AA17106
:10163000E071082221460448FFF7A0FF214630460A
:10164000BDE8F04100F08EBF004C00400CB5002218
:10165000274900920192086840F4803008604FF4F6
:10166000A043086800F4003001900098401C0090EE
:10167000019810B900989842F3D10868800334D5D6
:10168000012001901A484030026842F08052026006
:101690001848026842F44042026015480830026867
:1016A0000260026842F400420260026842F4A05202
:1016B0000260031F104A1A600A6842F080720A60D2
:1016C0000A689201FCD50D4940F205720A60016872
:1016D00021F003010160016841F00201016001682D
:1016E000C1F381010229FAD10CBD01920CBD0000A9
:1016F000003802400070004008544007003C02409F
:101700001CB501F073FC40490220CDE90001002323
:1017100080223EA1404802F009FB3B490320091DFD
:10172000CDE90001002380223CA1404802F0FEFAEE
:10173000354904200831CDE90001002380223CA175
:101740003F4802F0F3FA304905200C31CDE90001A1
:10175000002380223BA13F4802F0E8FA2A490620F4
:101760001031CDE90001002380223BA13D4802F069
:10177000DDFA254907201431CDE90001002380223C
:1017800039A13C4802F0D2FA1F4909201831CDE9AD
:1017900000010023802238A13B4802F0C7FA1A4911
:1017A0000A201C31CDE900010023802237A13B48EB
:1017B00002F0BCFA14490B202031CDE900010023CE
:1017C000802237A1394802F0B1FA0F490D202431A7
:1017D000CDE900010023802235A1384802F0A6FAA5
:1017E00009490E202831CDE900010023802234A1CF
:1017F000364802F09BFA04480838406801F072FD50
:10180000BDE81C4001F02EBC0C000020506D755F3F
:101810005461736B000000009114000843616D6D0A
:10182000616E645F5461736B000000007F08000804
:101830004572725F48616E646C655F5461736B00E2
:10184000590C0008506F7765726F66665F5461735C
:101850006B0000009D1400084368675F5461736B60
:1018600000000000C1080008546573745F54617380
:101870006B000000371B00084175746F436861728C
:1018800067655F5461736B003908000853656E64C7
:101890005F4D6472765F5461736B0000F31500084E
:1018A0004D6472765F5461736B000000451200084E
:1018B0004C45445F5461736B00000000291200081E
:1018C0004B65795F5461736B0000000001110008E3
:1018D0004FF0E0210428086903D020F004000861DB
:1018E000704740F00400FAE710B502F04BFA012807
:1018F00003D0BDE8104001F039BF10BD124810B54B
:10190000016841F4700101601048016841F0010173
:1019100001600E4A00210832116002680C4B1A4027
:101920000260031D0B4A1A60026822F480220260E2
:1019300006480C300160FFF789FE03494FF0006054
:101940008039086010BD000088ED00E000380240DA
:10195000FFFFF6FE1030002410B501F047FBA82071
:1019600000F0A4FCFFF708FCFEF76AFFFFF7A6FBF8
:101970004FF4E131044800F065FC01F073FBBDE871
:10198000104002A0FEF7D6BC001001404273702048
:10199000696E6974204F4B210D0A000010B5084C88
:1019A0000121204600F0B9F8012807D10121204685
:1019B00000F0A6F8BDE81040FFF71EBB10BD000008
:1019C000000001402DE9F04101218C07204600F084
:1019D000A4F8012844D10121204600F091F8FEF737
:1019E00053FF3548364D374E41884FF47A77491CBE
:1019F0004180324900244888401C4880688B401C44
:101A00006883A88B401CA883B088401C80B2B0803B
:101A1000B8420BD9B480297A3078814206D00820A8
:101A2000FEF7EBFE0820FEF7C7FE30707088401C02
:101A300080B27080B84200D3748095F83000D0B185
:101A4000214B9E1E5A1501280CD0022815D00328C0
:101A500006D13280688E411C6986B0F5C87F07D8F0
:101A6000BDE8F0813280688E411C69866428F7D910
:101A70001A8085F830406C86F2E73280698E481C07
:101A800080B26886642905D9411C6986C82801D2BC
:101A90001A80E5E7698E4FF49677481C80B2688615
:101AA000C82905D9411C6986B84201D23280D7E7DE
:101AB000688EB842DCD8D3E7F00100202C02002069
:101AC000C8020020480000201A0C024010B50A4C41
:101AD0000121204600F021F800280CD00749012000
:101AE00048710146204600F00BF82046BDE8104042
:101AF000002100F008B810BD001400402C020020A6
:101B0000C943018270470029018802D041F00101D8
:101B100001E021F001010180704702460020138A94
:101B200092890B4202EA010202D0002A00D0012071
:101B3000704741627047642001F09EFBFBE70000A4
:101B400070B5064686B001210420FFF7ABFC0121E9
:101B5000C804FFF7B3FC1F4D08220A212846FFF7EF
:101B6000BBF808220B212846FFF7B6F802218DF8B2
:101B700014104FF440608DF81510049000248DF877
:101B8000164001208DF8170004A92846FFF768F8D1
:101B9000ADF80440ADF80640ADF80840ADF80C4093
:101BA0000C200D4CADF80A0000966946204600F066
:101BB000EBFA012240F22551204600F0CCFA012137
:101BC000204600F098FA4021204600F08BFA06B03B
:101BD00070BD000000080240004C004070B5144C7D
:101BE00040F225552946204600F096FA00281ED0DE
:101BF0002946204600F079FA204600F01BFB0D49EB
:101C0000C0B248700C494A79002A10D14B788A1D1D
:101C10000A4C98544878401C487000212046FFF731
:101C200088FF2046BDE870400121FFF76CBF70BD02
:101C3000004C0040380000202C020020001400401E
:101C40002DE9F043814687B001210420FFF72AFCEB
:101C500001210820FFF726FC01210805FFF72EFCD3
:101C6000274F08220C213846FFF736F8DFF894801A
:101C7000082202214046FFF72FF802258DF8045074
:101C8000B8148DF80550002400908DF80640012608
:101C90008DF8076069463846FEF7E2FF8DF804507C
:101CA00004208DF8055000908DF806408DF80760EF
:101CB00069464046FEF7D4FFADF80C40ADF80E4043
:101CC000ADF81040ADF814400C200F4CADF81200E8
:101CD000CDF8089002A9204600F056FA012240F201
:101CE0002551204600F037FA0121204600F003FA82
:101CF0004021204600F0F6F907B0BDE8F08300006F
:101D000000080240000C02400050004070B506463A
:101D1000012186B00846FFF7C5FB01211020FFF71F
:101D2000D9FB1F4D072209212846FEF7D5FF0722C0
:101D30000A212846FEF7D0FF02218DF814104FF437
:101D4000C0608DF81510049000248DF81640012015
:101D50008DF8170004A92846FEF782FFADF804406D
:101D6000ADF80640ADF80840ADF80C400C200D4C25
:101D7000ADF80A0000966946204600F005FA0122F7
:101D800040F22551204600F0E6F90121204600F0FE
:101D9000B2F94021204600F0A5F906B070BD000060
:101DA00000000240001001402DE9F041294C40F2B2
:101DB00025552946204600F0AFF900282BD02946AA
:101DC000204600F092F9204600F034FA224BC0B2CF
:101DD000597900291FD11C780A46A5074FF0010642
:101DE00003F106011DD4E40704D0AA280AD055281F
:101DF00002D012E055280ED150545E70187840F091
:101E0000010007E05A7850545878401C58701878F0
:101E100040F002001870BDE8F0815A701A705A71D3
:101E2000F9E75C7860545C78641CE4B25C701D78FF
:101E30006F0708D4597A491E8C42ECD10D28ECD199
:101E400045F00400E6E70A28E7D160545A701A709A
:101E50005E71E0E7001001400E020020F0B5074679
:101E6000012187B00846FFF71DFB01214804FFF759
:101E700025FB1E4E072202213046FEF72DFF0722CA
:101E800003213046FEF728FF02208DF814008DF85C
:101E9000150000248DF8164001200C258DF8170040
:101EA000049504A93046FEF7DBFEADF80440ADF81A
:101EB0000640ADF80840ADF80C400D4C0097ADF869
:101EC0000A506946204600F05FF9012240F2255190
:101ED000204600F040F90121204600F00CF9402195
:101EE000204600F0FFF807B0F0BD000000000240FF
:101EF0000044004070B5064686B001210220FFF77D
:101F0000D1FA01218804FFF7D9FA1F4D07220A21CF
:101F10002846FEF7E1FE07220B212846FEF7DCFEED
:101F200002218DF814104FF440608DF815100490C4
:101F300000248DF8164001208DF8170004A92846CA
:101F4000FEF78EFEADF80440ADF80640ADF808404F
:101F5000ADF80C400C200D4CADF80A000096694617
:101F6000204600F011F9012240F22551204600F0F0
:101F7000F2F80121204600F0BEF84021204600F092
:101F8000B1F806B070BD00000004024000480040F7
:101F90002DE9F0412A4C40F225552946204600F013
:101FA000BBF800282DD02946204600F09EF8204698
:101FB00000F040F92349244BC0B208705979002938
:101FC0001FD11C780A46A5074FF0010603F1060150
:101FD0001DD4E40704D0AA280AD0552802D012E064
:101FE00055280ED150545E70187840F0010007E07B
:101FF0005A7850545878401C5870187840F00200B5
:102000001870BDE8F0815A701A705A71F9E75C785F
:1020100060545C78641CE4B25C701D786F0708D46F
:10202000597A491E8C42ECD10D28ECD145F00400C0
:10203000E6E70A28E7D160545A701A705E71E0E74B
:102040000048004038000020F001002070B506462E
:1020500086B001211020FFF725FA0121C807FFF7FC
:102060002DFA1E4D082200212846FEF735FE0822D3
:1020700001212846FEF730FE02218DF814100320BE
:102080008DF81510049000248DF8164001208DF86D
:10209000170004A92846FEF7E3FDADF80440ADF8AB
:1020A0000640ADF80840ADF80C400C200C4CADF8E3
:1020B0000A0000966946204600F066F8012240F2C8
:1020C0002551204600F047F80121204600F013F882
:1020D0004021204600F006F806B070BD0010024016
:1020E000007C0040C943018070470A0A01219140E9
:1020F000C943018070470029818902D041F4005111
:1021000001E021F4005181817047024600201288CD
:102110000A4200D00120704770B501F01F0501266A
:102120000024C1F3421306FA05F2012B0FD0022B53
:102130000FD0838A4FEA11210088134206FA01F674
:1021400000EA060001D000B10124204670BD838959
:10215000F0E7038AEEE710B5C1F3421301F01F0464
:102160000121A140012B07D0022B07D01430002AF7
:10217000026805D00A4304E00C30F8E71030F6E7B7
:102180008A43026010BD00007FB50446008A0D46F8
:10219000C98820F4405001432182A08941F20C619A
:1021A0008843A9882A8911436A8902431143A1817E
:1021B000A08A20F44071A8890843A0826846FFF7EE
:1021C00095F91A48844202D01948844201D10398F3
:1021D00000E00298A189090400EBC00101EB0010A6
:1021E000296801D5490000E08900B0FBF1F06422C4
:1021F000B0FBF2F109010B096FF018056B4300EB1E
:102200008300A3891D044FF0320306D503EBC00001
:10221000B0FBF2F000F0070005E003EB0010B0FBAC
:10222000F2F000F00F00084320817FBD0010014054
:10223000001401408088C0F308007047C1F3080112
:1022400081807047124A904202D10846FFF75EBD76
:10225000104A904202D10846FFF700BE0E4A904253
:1022600002D10846FFF746BE0C4A904202D108460A
:10227000FFF766BC0A4A904202D10846FFF7E0BC6D
:10228000084A904202D10846FFF7E0BE70470000BE
:10229000001001400044004000480040004C004055
:1022A00000500040007C0040FEE7704710B5044637
:1022B0000420FFF70DFB0A484FF47A71047014FBF9
:1022C00001F1012242804FF0E020026942F0020257
:1022D00002614161016941F00101016110BD00002D
:1022E0007400002070B5044601F04CFD01280CD0AC
:1022F000094D6888844203D3B4FBF0F000F0BCFFC2
:102300006888B4FBF0F100FB11444FF47A7060432D
:10231000BDE8704000F002B87400002070B54FF0C6
:10232000E02500216C69094AAB6912785043AA691B
:102330009A42FCD002D2A3EB020302E0A4EB020615
:102340003344194413468142F1D370BD7400002018
:10235000F0B50E4D00210E4A0E46A5F10C070020E7
:1023600000EB400305EB8303146833F81130401C85
:102370002344C0B213601028F2D3180927F81100C3
:10238000491CC9B216600629E9D3F0BD300100200E
:102390000000002003490A885206FCD5C2B28A8098
:1023A00070470000001001401CB5FFF7D5FAFFF799
:1023B0001EF800F01BFE09A0FDF7BCFF0E4901202E
:1023C000CDE90001002340220CA10F4801F0AEFC32
:1023D00000F048FE01F0B0F800201CBD524F424F03
:1023E000542053797374656D207374617274696ECF
:1023F0006721210D0A00000008000020537461725B
:10240000745F5461736B00000117000870B5134AC4
:10241000131893F8203093B1114B53F820308B42AE
:102420001AD90F4B02EB80020C3B53F82030506955
:10243000B1FBF3F130F811400020034608E01168C9
:102440008847012070BD55690E18401C25F81630CC
:10245000A042F8DB002070BD022070BD7C0000208F
:102460006042000870B504460B480C4E002150F83D
:10247000240006EB84054200686900F08FF80648E6
:102480000021183050F82420A86800F087F80120B7
:10249000311981F8200070BD484200087C000020FE
:1024A0002DE9F0411F4E0546002470190F4690F8A3
:1024B000200010B93168284688474FF0FF327FB3BB
:1024C000194B53F82510B7FBF1F0B7FBF1FC01FBFA
:1024D0001C7101B1401C14490C3951F82510491EDA
:1024E0001ED406EB8506776937F811C0BCF1000FE2
:1024F00005D00024844211D1002284B207E0641C7C
:10250000F8E7776901EB020C521C27F81C40824265
:10251000F7D353F825004843BDE8F081491EE3D5C1
:102520001046F9E77C0000205442000810B50B4B20
:102530000B4C002253F82030114604EB800005E0DC
:10254000446934F8114004B1521C491C8B42F7D83D
:1025500064204243B2FBF3F0C0B210BD4842000811
:102560007C000020002906D0034A02EB800292681A
:10257000891AFFF74BBF70477C00002010B5044656
:10258000FFF78EFF411C05D0034901EB84018968E8
:10259000084410BD002010BD7C00002001E000F8C0
:1025A000011B521EFBD270472DE9F041184E0F4619
:1025B0000446F5683068001D00F0D4FC38B9306876
:1025C00090F82C1001208840316981433161601CF2
:1025D00007D137B13168BDE8F0410E48091D00F060
:1025E000F9BC30682C44AC424460316805D2B06B11
:1025F000BDE8F041091D00F0D5BC706B091D00F06D
:10260000D1FCB06A844200D2B462BDE8F08100001F
:10261000B0000020B0DA00202DE9F041054600F0BE
:10262000E5FC2D4EB068401CB06030682B4F10B1F7
:10263000706930B32BE03560B068012827D10024E1
:1026400004EB840007EB800000F09EFC641C202C4F
:10265000F6D3234800F098FC2148143000F094FC95
:102660001F48283000F090FC1D483C3000F08CFCE6
:102670001B48503000F088FC194870631430B06378
:1026800005E03068E96AC06A884200D83560706A3F
:102690000121401C70626864E86A3269814011431C
:1026A000316100EB800007EB8000291D00F092FCF7
:1026B00000F0D8FC706900280CD03068E96AC06A64
:1026C000884207D207494FF080500860BFF34F8F10
:1026D000BFF36F8FBDE8F081B0000020E0D700208D
:1026E00060DA002004ED00E010B500F07FFC0E4C35
:1026F0002068A0B90D4800F047FC0C48143000F0E9
:1027000043FC0A48E06014302061002210210520BB
:1027100001F042F8206010B105A100F079FDBDE89C
:10272000104000F09FBC0000EC000020C4DA002044
:10273000546D72510000000070B5124E124D1CE035
:1027400000F044FF306820B1002401F049FCA4B936
:1027500001E00124F9E700F049FCF068C468201D9D
:1027600000F000FCA868401EA8606868401E686011
:1027700000F078FC204600F052F868680028DFD1AD
:1027800070BD00009CDA0020B000002030B4026C64
:102790000B46002A0BD0C1681144C1604468A142B5
:1027A00001D30168C16030BC1846FDF769BE30BC7A
:1027B00070472DE9F041856B174604460026026CF0
:1027C00082B1C7B1E068FDF75BFEE168206C091AD1
:1027D000E1602268914202D26168081AE060022F2B
:1027E00016D017E02068A8B9606801F053FB0646D0
:1027F000002060600EE0A068FDF742FE216CA0683A
:102800000844A0606168884204D32068A06001E0A9
:1028100005B16D1E6D1CA5633046BDE8F08110B595
:102820000446006B00F050FC2046BDE8104000F06C
:102830004BBC000010484FF4A041420706D0C01D19
:102840000D4920F00700411AC1F5A0410B4A0023B1
:102850000144C2E900030839103A21F00701116070
:102860004B600B600B1AC0E9001393604FF00040FF
:102870005360D06070470000ECDA00201C0100209B
:10288000074E4FF08054074DFFF756FF3068012880
:10289000FAD92C60BFF34F8FBFF36F8FF4E70000BE
:1028A000E0D7002004ED00E02DE9F047DDE90984E0
:1028B0000E461746824691009946089DA522206B38
:1028C000FDF723FE6FF00301206B01EB8701084445
:1028D00020F00707780705D040F22B3219A11EA07F
:1028E000FDF728FD00202218315C82F83410315C9D
:1028F00011B1401C1028F6D3002684F84360202D27
:1029000000D31F25E562C4E91356201D00F047FBE4
:1029100004F1180000F043FB2461C5F1200064625B
:10292000A061666584F858604A465146384600F012
:1029300003FB2060B8F1000F01D0C8F80040BDE8EB
:10294000F08700002E2E5C4672656552544F535C32
:102950007461736B732E63004572726F723A2573E4
:102960002C25640D0A00000030B5114900E0114625
:102970000A688242FBD34B685C18844203D14068EA
:1029800018444860084643681C18944209D1084C12
:10299000103C2468A24209D052681A4442600A6876
:1029A00012680260814200D0086030BD0460F9E71F
:1029B0001C01002070B5002441600B4D0061914264
:1029C00006D8D11A8269914206D2011D286907E012
:1029D0009A4203D2994201D3012403E0011DE86821
:1029E00000F0E0FA204670BDEC00002010B504466F
:1029F00000F0FCFAA06B20B1002400F033FB20466D
:102A000010BD0124F9E700002DE9F34100980F46BD
:102A10000026846C2CB940F6CE1216A11AA0FDF740
:102A200089FCA06BE16B884205D340F6CF1211A15F
:102A300015A0FDF77FFCA06BE16B88420CD294F9E6
:102A400045503A4669462046FFF7B3FE0646681CE5
:102A500005D06D1C84F845503046BDE8FC81606AA5
:102A60000028F9D004F1240001F06EFA0028F3D018
:102A70000126F1E72E2E5C4672656552544F535C79
:102A800071756575652E63004572726F723A2573B4
:102A90002C25640D0A000000F8B5054614480E46C2
:102AA000C068C068C468201D00F05CFAE0690128B5
:102AB00017D1A0692B46411932462046FFF77AFF0D
:102AC00078B100200346014600902A46204601F0D6
:102AD0006DFB30B907494FF4027201F11800FDF7A0
:102AE00029FC616A01B02046BDE8F04008470000BB
:102AF000EC0000201041000870B586B02F4E53E066
:102B00000198002806DADDE90301029A904701984E
:102B1000002849DB039C606910B1201D00F022FAF7
:102B200005A800F0A7F8054601980A283CD2DFE87E
:102B300000F00505053B273805053B270298A169EC
:102B4000034601442A462046FFF734FF00282BD0D5
:102B5000616A20468847E069012825D1002000905D
:102B60000298A169002342181946204601F01EFB75
:102B7000D0B940F2213212A117A0FDF7DBFB13E020
:102B80000298A06128B94FF44E720DA112A0FDF772
:102B9000D1FBA0692B4641191A462046FFF70AFFD0
:102BA00002E0204600F090FA00231A4601A930689E
:102BB00000F02EFE0028A3D106B070BDEC0000206E
:102BC0002E2E5C4672656552544F535C74696D6578
:102BD00072732E63000000004572726F723A2573A3
:102BE0002C25640D0A000000F8B50D46064600F0DD
:102BF000EDFC684600F03EF80446009810B101F084
:102C0000EFF9F8BD1148ADB101690968D9B10025E6
:102C1000311B2A46006800F00DFB01F0E1F90028A5
:102C2000EFD10B494FF080500860BFF34F8FBFF3D7
:102C30006F8FF8BDA642EBD801F0D2F9214630469D
:102C4000FFF72AFFF8BD0125E2E70000EC000020B5
:102C500004ED00E00648416B096829B1416BC96881
:102C6000C9684968816270474FF0FF31FAE7000098
:102C7000B000002070B5054601F092F8064E0446FB
:102C8000B068844203D200F009F8012000E000207F
:102C900028602046B46070BDEC000020F8B5184EE6
:102CA00026E0C068C4680568201D00F05BF9616A11
:102CB00020468847E06901281AD1A0692844A84223
:102CC00006D924616060211DF06800F06BF90FE007
:102CD00000200346014600902A46204601F066FA8D
:102CE00030B9084940F2923201F11800FDF722FB99
:102CF000F06801680029D4D13169C6E90310F8BD34
:102D0000EC0000201041000808484068401C05D035
:102D100040F20F1206A111A0FDF70CFB502080F32A
:102D20001188BFF34F8FBFF36F8FFEE700010020C4
:102D30002E2E5C4672656552544F535C706F7274F0
:102D400061626C655C525644535C41524D5F434D29
:102D500034465C706F72742E630000004572726FAF
:102D6000723A25732C25640D0A000000084CE068B7
:102D7000016839B1002139B10020FFF735FFFFF7B5
:102D8000BBFEF4E70121F6E7C0680068F5E7000044
:102D9000EC0000202DE9F041044600F027F994F9F9
:102DA000455004F1240610E0A06C20B1002120461B
:102DB000FFF72AFE04E0606A48B1304601F0C4F82B
:102DC00008B100F0F5FA6D1E6DB2002DECDC4FF08D
:102DD000FF3684F8456000F045F900F007F994F9F2
:102DE000445004F1100709E0206948B1384601F069
:102DF000ABF808B100F0DCFA6D1E6DB2002DF3DC0B
:102E000084F84460BDE8F04100F02CB92DE9F041B0
:102E10000546002600F0DAFB324F386808B9FFF7A4
:102E200009FDF86805424FD1002D4DD008356807DF
:102E30000BD005F00700C0F108000544680704D076
:102E4000BF2229A132A0FDF775FA002D3CD0786889
:102E5000854239D8234910310846046801E02146EB
:102E600004466068A84202D220680028F7D138687A
:102E7000B846844228D00E6820680860606808362A
:102E8000401B10280ED96719780704D0EC2216A130
:102E90001FA0FDF74FFA6068401B786038466560F8
:102EA000FFF762FD6168D8F804004246401AC8F88E
:102EB0000400D8F80830984200D29060D8F80C008E
:102EC00001430020C4E9000101F08AF8700705D031
:102ED0004FF4967204A10EA0FDF72CFA3046BDE81F
:102EE000F08100000C0100202E2E5C4672656552B8
:102EF000544F535C706F727461626C655C4D656DAC
:102F00004D616E675C686561705F342E6300000020
:102F10004572726F723A25732C25640D0A00000009
:102F20000449086818B10868026D521C02650868F7
:102F300070470000B000002010B5031F4FF08074F0
:102F40001C601B1F21F001011960191F044B0B604D
:102F500014390A60091F6FF0020244380A6010BD7C
:102F6000092D0008D0E9013201699A60D0E90123F6
:102F70005A604A68824201D182684A600022026136
:102F80000868401E0860704700F108014FF0FF32EA
:102F9000C0E90112C1600161002101607047002198
:102FA0000161704730B50C68621C02D000F1080264
:102FB00002E0026904E01A4653681D68A542FAD986
:102FC00053684B6099608A60516008610168491CD0
:102FD000016030BD42684A6093688B6093685960B5
:102FE000916008610168491C01607047502080F3BE
:102FF0001188BFF34F8FBFF36F8F09494868401C9A
:10300000486001280AD10748006810F0FF0F05D07A
:1030100040F2B91204A10FA0FDF78CB9704700006F
:103020000001002004ED00E02E2E5C467265655222
:10303000544F535C706F727461626C655C5256449D
:10304000535C41524D5F434D34465C706F72742E39
:10305000630000004572726F723A25732C25640D6F
:103060000A00000010B5084C606828B94FF4E072FF
:1030700006A111A0FDF75EF96068401E606001D1F5
:1030800080F3118810BD0000000100202E2E5C4648
:1030900072656552544F535C706F727461626C65F7
:1030A0005C525644535C41524D5F434D34465C7014
:1030B0006F72742E630000004572726F723A25734E
:1030C0002C25640D0A00000070B500282AD0164D8A
:1030D000A0F108046068E968084205D14FF4A072C5
:1030E00012A11CA0FDF726F9206828B140F2411278
:1030F0000EA118A0FDF71EF96068E968084211D01A
:103100002268002A0ED18843606000F05FFA606890
:103110006968084468602046FFF726FCBDE87040F7
:1031200000F05EBF70BD00000C0100202E2E5C463A
:1031300072656552544F535C706F727461626C6556
:103140005C4D656D4D616E675C686561705F342EC6
:10315000630000004572726F723A25732C25640D6E
:103160000A00000006484FF47A710068B0FBF1F1E4
:103170004FF0E020491E41610721016170470000C6
:103180006000002010B5FDF7AFF8104C10280CD3EC
:1031900000F1E02090F8F0032178884205D24FF446
:1031A00040720BA115A0FDF7C5F818480068A1688A
:1031B00000F4E060884207D9BDE810404FF4447243
:1031C00003A10EA0FDF7B6B810BD0000000100205D
:1031D0002E2E5C4672656552544F535C706F72744C
:1031E00061626C655C525644535C41524D5F434D85
:1031F00034465C706F72742E630000004572726F0B
:10320000723A25732C25640D0A0000000CED00E0D5
:1032100010B5074B002253F832401CB1521C082A4B
:10322000F9D310BD43F8321003EBC201486010BD62
:10323000A0D7002070B515460E460446FFF7D6FE0F
:1032400094F944100020491C01D184F8440094F9F9
:103250004510491C01D184F84500FFF703FFA06B1E
:1032600028B92A46314604F1240000F0D1F820465E
:10327000BDE87040FFF78EBD10B5040012D00E49B6
:10328000096B29B140F2CF420CA111A0FDF752F811
:1032900000F09CF900212046FFF786F900F0A0FE1F
:1032A000002807D10E494FF080500860BFF34F8FC0
:1032B000BFF36F8F10BD0000B00000202E2E5C46C3
:1032C00072656552544F535C7461736B732E630067
:1032D0004572726F723A25732C25640D0A00000046
:1032E00004ED00E070B50446FFF780FE234D04B9FD
:1032F0002C68201DFFF736FE58B9E06A204A00EB23
:10330000800152F8211021B90121814028698843A8
:103310002861A06A18B104F11800FFF723FE686A5B
:10332000401C68622868844207D1211D1548FFF7B8
:1033300051FE6868401C686007E0A868401EA860ED
:103340002046FFF76CFAFFF785FCFFF78BFE6869F4
:10335000002812D0286884420FD1286B28B140F28F
:10336000654209A10DA0FCF7E5FF10494FF0805020
:103370000860BFF34F8FBFF36F8F70BDB0000020A8
:10338000E0D700209CDA00202E2E5C467265655244
:10339000544F535C7461736B732E63004572726F8C
:1033A000723A25732C25640D0A00000004ED00E03C
:1033B00001490120C8617047B000002070B50D467A
:1033C000040005D140F6063207A10CA0FCF7B2FFBD
:1033D0000E48016820461831FFF7E4FD2846BDE895
:1033E00070400121FFF7E0B82E2E5C4672656552F1
:1033F000544F535C7461736B732E63004572726F2C
:10340000723A25732C25640D0A000000B0000020DC
:1034100070B514460E46050005D140F6313209A1BB
:103420000DA0FCF787FF1048016828461831FFF708
:10343000D1FD0CB14FF0FF3621463046BDE870405B
:10344000FFF7B2B82E2E5C4672656552544F535C3E
:103450007461736B732E63004572726F723A2573D9
:103460002C25640D0A000000B000002070B5040097
:1034700039D01D4DE06A2968C96A884233D2A069F3
:10348000002804DB2868C06AC0F12000A061E06A5F
:10349000164E00EB8000616906EB800081421FD16F
:1034A000201DFFF75FFD012150B9E06A00EB8002AB
:1034B00056F8222022B92A6901FA00F082432A61D3
:1034C0002868C06AE0622A6981401143296100EBE3
:1034D000800006EB8000211DBDE87040FFF77ABD3B
:1034E0002868C06AE06270BDB0000020E0D700200C
:1034F00010B5040005D140F6C13205A109A0FCF7C2
:1035000019FF0C48016A2160C068606010BD0000AE
:103510002E2E5C4672656552544F535C7461736B1A
:10352000732E63004572726F723A25732C25640DF9
:103530000A000000B00000201CB517480024CDE9A7
:1035400000402346822215A1164800F0EFFB012817
:1035500003D100F0F1FD01280AD0401C1BD102B0BC
:1035600040F28472BDE810400FA114A0FCF7E2BE47
:10357000502080F31188BFF34F8FBFF36F8F064841
:103580004FF0FF312C38816201214161C460BDE8F8
:103590001C4000F061B81CBDDC00002049444C45D3
:1035A00000000000812800082E2E5C4672656552DE
:1035B000544F535C7461736B732E63004572726F6A
:1035C000723A25732C25640D0A0000000248016B35
:1035D000491C016370470000B000002070B5134D16
:1035E000286B10B10120E86170BD0020E8612869F6
:1035F0000F4EB0FA80F0C0F11F0000EB800456F8C7
:10360000240028B940F6F6220AA10FA0FCF792FE8A
:1036100006EB840000F1080241684968416091426C
:1036200001D149684160C868286070BDB0000020C1
:10363000E0D700202E2E5C4672656552544F535CD5
:103640007461736B732E63004572726F723A2573E7
:103650002C25640D0A0000001CB5304C2068304950
:10366000884205D140F259122EA139A0FCF762FE22
:1036700020682B49491E884205D14FF4AD7229A11B
:1036800033A0FCF757FE364C20780190FF202070C5
:1036900020788DF800009DF800009DF8001000F0E3
:1036A000F000884205D040F273121EA128A0FCF75A
:1036B00041FE9DF800002B4A00F0500010700720DA
:1036C000906007E09068401E90609DF80000400008
:1036D0008DF800009DF800000006F3D4107A000277
:1036E00000F4E0609060019820700C482030016880
:1036F00041F470010160016841F070410160FFF721
:1037000031FD00205060FCF7B7FD1748016841F01B
:1037100040410160FCF7A0FD00201CBD00ED00E071
:1037200071C20F412E2E5C4672656552544F535C38
:10373000706F727461626C655C525644535C4152A6
:103740004D5F434D34465C706F72742E6300000011
:103750004572726F723A25732C25640D0A000000C1
:1037600000E400E00001002034EF00E010B550203C
:1037700080F31188BFF34F8FBFF36F8F00F016FBFC
:1037800018B104494FF080500860002080F3118880
:1037900010BD000004ED00E02DE9F04117460E4693
:1037A000050005D14FF4C47210A115A0FCF7C2FDAD
:1037B000BEB105FB06F05430FFF728FB04000ED025
:1037C00004F154007EB12060C4E90F562046012167
:1037D00000F0E0F884F8507000212046A164BDE8B4
:1037E000F0810020E7E72460EEE700002E2E5C4623
:1037F00072656552544F535C71756575652E630033
:103800004572726F723A25732C25640D0A00000010
:103810002DE9FF4F83B09B468A4604004FF0000617
:1038200005D140F2DC4251A155A0FCF783FDBAF16D
:10383000000F07D1206C28B140F2DD424BA150A00F
:10384000FCF778FD00F09EFA38B9059828B14FF4DE
:103850009C6246A14AA0FCF76DFD4FF000094FF0B5
:103860008057DFF82C81FFF7C1FBA56B45B35146AC
:103870002046E668FEF78AFFBBF1000F13D0E66032
:10388000606A50B104F1240000F05EFB28B1C8F872
:103890000070BFF34F8FBFF36F8FFFF7E3FB012083
:1038A00007B0BDE8F08F6D1EA563206810B9FFF763
:1038B00037FB606020690028EFD004F11000E3E7D7
:1038C000059808B11EB106E0FFF7CCFB27E068467B
:1038D000FFF70EFE0126FFF7C5FBFFF777FEFFF7A8
:1038E00085FB94F94400401C01D184F8449094F97C
:1038F0004500401C01D184F84590FFF7B3FB05A9B2
:10390000684600F0CFF9002820460AD0FFF742FAB7
:1039100000F066FB2046FFF769F80028A3D00020DE
:10392000BEE7FFF763F8D8B1206830B9FFF75EFB58
:103930006068FFF79BFDFFF795FB04F124000599F4
:10394000FFF73CFD2046FFF725FA00F049FB002871
:1039500089D1C8F80070BFF34F8FBFF36F8F82E734
:103960002046FFF717FA00F03BFB7CE72E2E5C4663
:1039700072656552544F535C71756575652E6300B1
:103980004572726F723A25732C25640D0A0000008F
:1039900004ED00E070B50D46040005D140F21B12A5
:1039A0001CA121A0FCF7C6FCFFF720FBD4E90F20E7
:1039B000216802FB001161600021A1632168A16000
:1039C0000A46D4E90F01401E00FB0121E1602146B7
:1039D0004FF0FF3001F8440F487004F110004DB172
:1039E000FFF7D2FA04F12400FFF7CEFAFFF73AFB13
:1039F000012070BD21690029F8D000F0A5FA002847
:103A0000F4D00D494FF080500860BFF34F8FBFF3E3
:103A10006F8FEBE72E2E5C4672656552544F535CF8
:103A200071756575652E63004572726F723A257304
:103A30002C25640D0A00000004ED00E02DE9FF4F85
:103A400083B099468B4604004FF0000605D140F242
:103A5000D92252A156A0FCF76DFCBBF1000F07D193
:103A6000206C28B140F2DA224CA151A0FCF762FC94
:103A7000B9F1020F08D1E06B012805D040F2DB223A
:103A800046A14BA0FCF756FC00F07CF938B905982C
:103A900028B140F2DE2241A145A0FCF74BFC4FF0DB
:103AA000000A4FF08057DFF81881FFF79FFAA06BEC
:103AB000E16B884206D3B9F1020F03D0059800B339
:103AC00016B325E04A4659462046FEF772FEA16C21
:103AD00021B149462046FEF797FF05E0616A19B11A
:103AE00004F1240000F030FA28B1C8F80070BFF3E8
:103AF0004F8FBFF36F8FFFF7B5FA012007B0BDE816
:103B0000F08FFFF7AFFA21E06846FFF7F1FC0126DE
:103B1000FFF7A8FAFFF75AFDFFF768FA94F9440097
:103B2000401C01D184F844A094F94500401C01D107
:103B300084F845A0FFF796FA05A9684600F0B2F8A8
:103B400030B12046FFF726F900F04AFA0020D5E709
:103B5000FFF74CFAA06BE16B884201D1012500E030
:103B60000025FFF77FFA95B104F110000599FFF7E2
:103B700025FC2046FFF70EF900F032FA002894D118
:103B8000C8F80070BFF34F8FBFF36F8F8DE72046EB
:103B9000FFF700F900F024FA87E700002E2E5C46BC
:103BA00072656552544F535C71756575652E63007F
:103BB0004572726F723A25732C25640D0A0000005D
:103BC00004ED00E02DE9F0479846154689460400CB
:103BD00005D140F29F322AA12EA0FCF7ABFBB9F130
:103BE000000F07D1206C28B14FF4687224A129A0DE
:103BF000FCF7A0FBB8F1020F08D1E06B012805D05B
:103C000040F2A1321EA123A0FCF794FBFFF7BAFA01
:103C10005020EFF3118780F31188BFF34F8FBFF36C
:103C20006F8FA06BE16B884207D3B8F1020F04D00D
:103C3000002087F31188BDE8F08794F9456042467B
:103C400049462046FEF7B5FD701C04D0761C84F86A
:103C500045600120EDE7A06C012620B141462046D9
:103C6000FEF7D2FE06E0606A0028F2D004F12400DC
:103C700000F06AF90028ECD0002DEAD02E60E8E7C9
:103C80002E2E5C4672656552544F535C7175657596
:103C9000652E63004572726F723A25732C25640D90
:103CA0000A00000070B50D46040005D140F6CB3285
:103CB00014A119A0FCF73EFB2DB940F6CC3211A19E
:103CC00015A0FCF737FBFFF791F9174AD068296870
:103CD0004B1C0FD02368126A934202D06268824262
:103CE0000AD96268801A884206D2081A28602046DB
:103CF000FFF7FEFB002400E00124FFF7B3F92046A4
:103D000070BD00002E2E5C4672656552544F535CA8
:103D10007461736B732E63004572726F723A257310
:103D20002C25640D0A000000B00000202DE9FF5F83
:103D30008346DDE90E87994616468A469000FFF7CE
:103D400065F805001AD05C20FFF760F8040012D077
:103D500025630021CDE90241CDE900874B4632467B
:103D600051465846FEF7A0FD2046FEF755FC0120BF
:103D700004B0BDE8F09F2846FFF7A6F94FF0FF30EA
:103D8000F6E700000548416919B1006B18B1002041
:103D9000704701207047022070470000B0000020EB
:103DA0000148C06870470000B00000202DE9F041D4
:103DB0002D4F0026386B40B1B869401CB861F869D6
:103DC00000B101263046BDE8F081FD686D1CFD6044
:103DD00011D1786B006828B140F6D91223A128A030
:103DE000FCF7A8FA786BB96B7963B863386A401C42
:103DF0003862FEF72FFFB86ADFF89480854209D356
:103E0000786B006880B1786BC068C4686068854270
:103E10000DD2B8623868C06A00EB800158F8210002
:103E20000128CCD90126CAE74FF0FF30F1E7201D69
:103E3000FFF798F8A06A18B104F11800FFF792F89C
:103E4000E06A01213A6981401143396100EB800148
:103E500008EB8100211DFFF7BDF8E06A3968C96AE7
:103E60008842CDD30126CBE7B00000202E2E5C4641
:103E700072656552544F535C7461736B732E6300AB
:103E80004572726F723A25732C25640D0A0000008A
:103E9000E0D7002070B504004FF000063CD01F4D65
:103EA0002868844205D040F6C7621DA121A0FCF716
:103EB00041FA206D28B940F6C96219A11DA0FCF78E
:103EC00039FA206D401E2065E26CE16A914223D0F0
:103ED00010BB201DFFF746F81A49012250B9E06ACD
:103EE00000EB800351F8233023B92B6902FA00F06C
:103EF00083432B61E06CE062C0F12000A061E06AC6
:103F00002B6982401A432A6100EB800001EB80009C
:103F1000211DFFF75FF80126304670BDB00000207C
:103F20002E2E5C4672656552544F535C7461736B00
:103F3000732E63004572726F723A25732C25640DDF
:103F40000A000000E0D700202DE9F041C068C468F5
:103F50002CB940F6613216A11AA0FCF7EBF904F176
:103F600018000746FEF7FEFF1A4D286B012660B1C8
:103F700039461948FFF72EF8E06A2968C96A88426D
:103F800013D90120EE61BDE8F081201DFEF7EAFFA4
:103F9000E06A2A6906FA00F1114329610F4900EB32
:103FA000800001EB8000211DE4E70020EBE700002A
:103FB0002E2E5C4672656552544F535C7461736B70
:103FC000732E63004572726F723A25732C25640D4F
:103FD0000A000000B000002088DA0020E0D70020AE
:103FE0002DE9F0472B4D00242746286B28B94FF4C4
:103FF000FD6229A12DA0FCF79DF9FEF7F7FF286BC4
:10400000401E2863286BE8BBA8682C490126C8B36A
:10401000A1F52A798846D8F80010E9B1D8F80C0043
:10402000C46804F11800FEF79DFF201DFEF79AFFFB
:10403000E06A2A6906FA00F11143296100EB800168
:1040400009EB8100211DFEF7C5FFE06A2968C96AF6
:104050008842E0D3EE61DEE70CB1FEF7FBFDAC6910
:104060003CB1FFF7A3FE00B1EE61641EF9D1002060
:10407000A861E86930B11249012738070860BFF329
:104080004F8F00E001E0BFF36F8FFEF7EBFF384684
:10409000BDE8F087B00000202E2E5C4672656552A8
:1040A000544F535C7461736B732E63004572726F6F
:1040B000723A25732C25640D0A00000088DA00206E
:1040C00004ED00E02DE9F0470746994616460D46F7
:1040D0002C20DDF820A0FEF799FE040014D0B8468D
:1040E0004F46D1462DB94FF4C67209A10EA0FCF778
:1040F00021F9FEF7F9FA04F11801C4F8008081E80B
:10410000E002201DFEF74BFF2046BDE8F0870000CF
:104110002E2E5C4672656552544F535C74696D6512
:1041200072732E63000000004572726F723A25733D
:104130002C25640D0A0000001CB50024FEF7D4FAFB
:104140000C48006868B10B491F20091DCDE900012A
:1041500000234FF4827208A10948FFF7E7FD04002D
:1041600005D140F2331207A10CA0FCF7E3F820467A
:104170001CBD0000EC000020546D722053766300DB
:104180006D2D00082E2E5C4672656552544F535CAF
:1041900074696D6572732E63000000004572726F62
:1041A000723A25732C25640D0A0000002DE9FF47A3
:1041B000DDF830A0994690460D4606004FF0000706
:1041C00005D14FF4D37212A117A0FCF7B3F81A4C23
:1041D000206880B1CDE900580296062D11DAFFF76C
:1041E000D1FD02284FF0000309D000226946206863
:1041F000FFF724FC074604B03846BDE8F087524676
:10420000F4E700234A466946FFF7DCFCF2E70000CA
:104210002E2E5C4672656552544F535C74696D6511
:1042200072732E63000000004572726F723A25733C
:104230002C25640D0A000000EC0000204FF04070B7
:10424000E1EE100A70470000400600000078000010
:104250008007000020000000200000002000000077
:1042600000C8000000000F0000F000008C420008B1
:104270000000002024010000C4010008B043000831
:10428000240100202C300100E001000800000000A3
:10429000000000000000000000000000000000001E
:1042A000000000000000000000000000000000000E
:1042B00000000000000000000000000000000000FE
:1042C00000000000000000000000000000000000EE
:1042D00000000000000000000000000000000000DE
:1042E000000000000000000000000100007A030A46
:1042F0000000000000000000010203040607080996
:104300000000000000000000652400082D250008C2
:1043100020030020000000680000001020CB0020D7
:1043200000000F6800F00010000000000000000016
:10433000010203040102030406070809000000004B
:10434000000000000000000000000000000000006D
:10435000000000000000000000000000000000005D
:10436000000000000000000000000000000000004D
:10437000000000000000000000000000000000003D
:10438000000000000000000000000000000000002D
:10439000AAAAAAAA00000000000000000000000075
:1043A000000000000000000000000000000000000D
:040000050800018965
:00000001FF
