:020000040800F2
:1000000070310120F102000835190008551200086E
:100010002D170008350B00085731000800000000BC
:10002000000000000000000000000000390200088D
:10003000750D0008000000008D0200086124000812
:100040000B0300080B0300080B0300080B03000858
:100050000B0300080B030008790D0008BD0E000813
:10006000DD0F00080B030008F50F00080B03000864
:100070000B0300080B0300080B0300080B03000828
:100080000B0300080B0300080B0300080B03000818
:100090000B0300080B0300080B0300080D100008F9
:1000A0000B030008A92500080B0300080B03000838
:1000B000D12500080B0300080B0300080B03000800
:1000C0000B0300080B0300080B0300080B030008D8
:1000D0000B030008112C00080B030008F92D000881
:1000E000A10E00080B0300080B0300080B03000817
:1000F0000B0300080B0300080B0300080B030008A8
:100100000B0300080B0300080B0300080B03000897
:10011000452A00080B0300080B03000819270008F4
:10012000F90B00080B0300080B0300080B03000881
:100130000B0300080B0300080B0300080B03000867
:100140000B0300080B0300080B0300080B03000857
:100150000B0300080B0300080B0300080B03000847
:100160000B0300080B0300080B0300080B03000837
:100170000B0300080B0300080B0300080B03000827
:100180000B0300080B03000800F002F800F044F82D
:100190000AA090E8000C82448344AAF10107DA45E2
:1001A00001D100F039F8AFF2090EBAE80F0013F0F0
:1001B000010F18BFFB1A43F0010318477C500000E1
:1001C0009C500000103A24BF78C878C1FAD8520772
:1001D00024BF30C830C144BF04680C6070470000C1
:1001E0000023002400250026103A28BF78C1FBD840
:1001F000520728BF30C148BF0B607047642900F028
:100200000381732900F01082002070471FB504F0AD
:100210007BFF1FBD10B510BD00F09BFA1146FFF724
:10022000F5FF03F019F800F0B9FA03B4FFF7F2FF95
:1002300003BC02F091FF00002A4B19680868B0E87F
:10024000F04F80F30988BFF36F8F4FF0000080F309
:10025000118870470000000006480068006880F3BD
:10026000088862B661B6BFF34F8FBFF36F8F00DFB0
:1002700000BF00BF08ED00E0DFF80C00016841F4AA
:1002800070010160704700BF88ED00E0EFF3098066
:10029000BFF36F8F134B1A681EF0100F08BF20EDCD
:1002A000108A20E9F04F106008B44FF0500080F33E
:1002B0001188BFF34F8FBFF36F8F04F0F5F84FF045
:1002C000000080F3118808BC19680868B0E8F04F96
:1002D0001EF0100F08BFB0EC108A80F30988BFF33E
:1002E0006F8F7047B0000020EFF30580704700006B
:1002F0000948804709480047FEE7FEE7FEE7FEE7BA
:10030000FEE7FEE7FEE7FEE7FEE7FEE704480549F5
:10031000054A064B70470000752400088901000853
:10032000702B012070310120702D0120702D0120D3
:10033000704700000FB4044910B503AA029800F0FA
:1003400077F910BC5DF814FB780000202DE9F0412E
:100350000E460446002020622046E168884730B3FC
:10036000252805D0D4E901219047206A401CF2E7F6
:10037000E168204600278847050018D0A5F1410014
:10038000192802D820354FF4006732462946204606
:100390002760FFF733FF40B1012804D0F61D26F097
:1003A00007060836D8E7361DD6E72846DAE7206A7A
:1003B000BDE8F08170B50C460546012A05D02878C5
:1003C000800600D5EA69002302E0012305E05B1CFA
:1003D000934202D2E05C0028F9D1A869E618C01A5D
:1003E000A861286A184428622846AFF3008004E018
:1003F000D5E9012114F8010B9047B442F8D32846FF
:10040000AFF3008070BD00002DE9F04106460024E6
:1004100010687529314616A510D0AFF3008000286A
:1004200002DA404213A507E031688A0701D512A518
:1004300002E0490704D511A5012401E0AFF30080D3
:1004400000210A2206F1240709E0B0FBF2FCB0FB10
:10045000F2F302FB1C00303078541846491C002887
:10046000F3D123462A463046BDE8F04100F059B8A2
:10047000000000002D0000002B0000002000000004
:10048000032A40F2308010F0030C00F0158011F8C0
:10049000013BBCF1020F624498BF11F801CB00F898
:1004A000013B38BF11F8013BA2F1040298BF00F8EC
:1004B00001CB38BF00F8013B11F0030300F0CA8004
:1004C000083AC0F0088051F8043B083A51F804CBD0
:1004D000A0E80810F5E7121D5CBF51F8043B40F896
:1004E000043BAFF30080D20724BF11F8013B11F8A1
:1004F00001CB48BF11F8012B24BF00F8013B00F8E5
:1005000001CB48BF00F8012B704702F0FF0343EA1C
:10051000032242EA024200F0D1B8704770477047A8
:1005200070472DE9F0470D4699469246044600F182
:1005300024080168880604D5E06921F010012160D3
:1005400000E00120A84201DD471B00E00027A1696F
:100550007A1902EB0900081AA0612078C00602D4BB
:100560002046AFF30080002608E0D4E901211AF804
:1005700006009047206A401C761C20624E45F4DB42
:100580002078C0060AD52046AFF3008006E0D4E903
:10059000012130209047206A401C2062381EA7F1BC
:1005A0000107F4DC07E0D4E9012118F805009047C1
:1005B000206A401C2062281EA5F10105F3DC2046BC
:1005C000AFF300802078000602D50220BDE8F08756
:1005D0000120FBE701694A1C02610878704700B5F9
:1005E0008FB0CDE901310021059105497944CDE96C
:1005F000031011466846FFF7A9FE0FB000BD0000CA
:10060000E5FFFFFF10B5436913B1AFF3008001E0D0
:10061000FFF7D0FE012010BD127800F124010A700E
:1006200000224A700122EDE711684FF0FF32E9E73E
:10063000074B70B50D467B44FFF7D1FF04462846B3
:1006400000F05CF810B14FF0FF3070BD204670BD77
:100650000B2C000010B5203AC0F00B80B1E8185008
:10066000203AA0E81850B1E81850A0E81850BFF49C
:10067000F5AF5FEA027C24BFB1E81850A0E818503B
:1006800044BF18C918C0BDE810405FEA827C24BF8F
:1006900051F8043B40F8043B08BF7047D20728BF1D
:1006A00031F8023B48BF11F8012B28BF20F8023B6C
:1006B00048BF00F8012B70474FF000020429C0F03A
:1006C000128010F0030C00F01F80CCF1040CBCF180
:1006D000020F18BF00F8012BA8BF20F8022BA1EBD6
:1006E0000C0100F011B85FEAC17C24BF00F8012BB7
:1006F00000F8012B48BF00F8012B7047007B00F089
:10070000800070474FF0000200B5134694469646AD
:10071000203922BFA0E80C50A0E80C50B1F1200114
:10072000BFF4F7AF090728BFA0E80C5048BF0CC0C2
:100730005DF804EB890028BF40F8042B08BF704720
:1007400048BF20F8022B11F0804F18BF00F8012B92
:100750007047754600F02CF8AE46050069465346D2
:1007600020F00700854618B020B5FFF7CFFDBDE8A3
:1007700020404FF000064FF000074FF000084FF008
:10078000000B21F00701AC46ACE8C009ACE8C00999
:10079000ACE8C009ACE8C0098D46704710B5044606
:1007A000AFF300802046BDE81040FFF73EBD0000DB
:1007B000004870470C2B012070B501210E028CB04F
:1007C000304601F025FB0121042001F009FB0F2038
:1007D000032506908DF81C5000248DF81F4006A9B3
:1007E000334800F089FC0121084601F0F9FA8DF840
:1007F0001C5006958DF81F4006A92E4800F07CFC81
:1008000000F090F80121304601F00EFB0021304647
:1008100001F00AFB3002CDE908400A9408A80B94C5
:1008200000F056F801208DF8040000948DF80500C2
:10083000029404940620204C8DF81400694620464A
:1008400000F0AEF80121204600F038F8062301221E
:100850000B21204600F0CAF8062302220A21204676
:1008600000F0C4F8062303220C21204600F0BEF855
:10087000062304220121204600F0B8F806230522B1
:100880000021204600F0B2F806231A460D2120462A
:1008900000F0ACF8204600F0E3F80121204600F01B
:1008A00037F80121204600F029F80CB070BD000097
:1008B0000008024000000240002001400029816839
:1008C00002D041F0010101E021F001018160704797
:1008D000084B10B5D3F8042307490A40D0E90014A7
:1008E0002143D0E90240044321431143C3F80413D8
:1008F00010BD000000200140E030FCFF00298168AD
:1009000002D041F4807101E021F480718160704770
:100910000029816802D041F4007101E021F40071E6
:100920008160704710B5012190B0880501F058FA38
:10093000184C204600F0ACF90028FAD11649CDE950
:1009400000011649CDE902106021CDE904104FF4F1
:1009500080610691490007910891C91009914902E7
:10096000CDE90A100121CDE90C100E906946204610
:1009700000F0D6F90121204600F080F91021204630
:1009800000F050F901221021204600F0B3F910B018
:1009900010BD0000106402404C20014030010020D6
:1009A00030B542680F4B0C791A400B6842EA0422BA
:1009B0001343436082680C4B4D791A40D1E90343DD
:1009C00023438C6844EA4504234313438360C26A8B
:1009D000097D22F47002491EC9B242EA0151C16286
:1009E00030BD0000FFFEFFFCFDF7FFC070B507261D
:1009F00009290AD9C568A1F10A0404EB4404A640F8
:100A0000B543A3401D43C56007E0056901EB410400
:100A1000A640B543A3401D4305611F23072A09D201
:100A2000446B521E02EB820293409C4391400C4364
:100A3000446370BD0D2A09D2046BD21F02EB8202FF
:100A400093409C4391400C43046370BDC46A0D3ACB
:100A500002EB820293409C4391400C43C46270BD00
:100A6000816841F080418160704700F01BBC10B587
:100A7000044600F0BDFC200AA02101EB4000C0B2FA
:100A800000F086FC00F0F4FCE0B200F081FC00F025
:100A9000EFFC00F0ADFCA12000F07AFC00F0E8FCD7
:100AA000002000F041FC044600F0C2FC204610BDCE
:100AB00070B50D46044600F09BFC200AA02101EB16
:100AC0004000C0B200F064FC00F0D2FCE0B200F0E4
:100AD0005FFC00F0CDFC284600F05AFC00F0C8FC9A
:100AE00000F0A6FCBDE87040322002F053BB642049
:100AF00003F028FBFBE700001CB50121082001F0F2
:100B00006FF901208DF8040000208DF806008DF8A3
:100B1000070003204FF400748DF805000094694627
:100B2000034800F0E9FA02481A3004801CBD0000B6
:100B3000000C0240FEE7000010B502460020054C04
:100B400005E012F8013B4340491EE05CC9B20029B0
:100B5000F7D110BD12510008032003F0F3FAFBE7B0
:100B60000A48016A491C0162818B491C818308493A
:100B7000897F012903D10749097DC90702D00021D6
:100B800081847047818C491CFAE700008C020020A8
:100B90004C020020FC020020C82003F0D3FAFBE73F
:100BA0002DE9FC410121084601F01AF900268DF8D3
:100BB000046001274FF480558DF8077002240095DA
:100BC0008DF8054069460A4800F096FA0121102088
:100BD00001F006F98DF804608DF8077000958DF826
:100BE00005406946034800F087FABDE8FC81000033
:100BF000000002400010024070B5084C084D21462C
:100C0000284600F04DF8002807D02146284600F07D
:100C10001FF8BDE8704002F0F3BA70BD20800010EC
:100C200010640240074A904201D2074801E005489B
:100C30001038064A8B0001EA020101D5C1607047F5
:100C40008160704710640240006002407D0F7D0F9C
:100C5000074A904201D2074801E005481038064A89
:100C60008B0001EA020101D5C160704781607047C5
:100C700010640240006002407D0F7D0F0029016872
:100C800002D041F0010101E021F001010160704753
:100C9000014600200968C90700D001207047000004
:100CA00030B5104A0024904201D20F4A01E00D4AAB
:100CB000103A0E4B194205D01E2303EAD1250368D2
:100CC0002B4002E0406900F08003880001D55068A5
:100CD00000E01068064A1040084201D003B1012428
:100CE000204630BD10640240006002403C0F3C0FC3
:100CF0007D0F7D0F0B0607D5436912B143F08003CA
:100D000001E023F080034361802908D0002A0268B3
:100D100001F01E0101D00A4300E08A4302607047DF
:100D200030B50368124ACC6813400A682243D1E9FF
:100D300005452C432243CC6922430C6A22434C6A6A
:100D400022438C6A22434C6B22438C6B22431A430E
:100D50000260426922F00703D1E90B2422431A43BF
:100D600042610A6942604A6882608968C16030BD38
:100D70003F801CF07047000070B5012000F062F960
:100D800000286ED0434C44484FF6FF7621784FF050
:100D900000054A064FEA81611CD400291CDA0121B2
:100DA00000F0F6F900286ED1A089E080217801F0EA
:100DB000DF022270A1888842A0EB010000D23044FB
:100DC00080B2A0F5B970B4285DD242F04000207026
:100DD000657058E000290BDB012100F0D9F90128EA
:100DE00051D1A089A080207840F0200020704AE0F6
:100DF000012100F0CDF998BBA089E080217801F0B5
:100E0000DF012170A1888842A0EB010000D23044AC
:100E100080B2A0F11401462901D2607806E0A0F169
:100E200064016E2904D2607840F00100607007E030
:100E3000A0F1DC01322903D3B0F5967F00D32570F1
:100E4000207800F01F01062918D325706078134917
:100E5000502807D00C2808D0022809D00A280AD028
:100E600011E015E0502008700DE00C2048700AE0F9
:100E70000220887007E00A20C87004E0401C20703F
:100E8000607840006070BDE87040012000F0D4B888
:100E900070BD00003A000020000402408C020020D7
:100EA00010B54FF40064204600F0CCF8002804D0C0
:100EB0002046BDE8104000F0BFB810BD70B502205C
:100EC00000F0C0F8002870D0414C42484FF6FF7641
:100ED000A1784FF000054A064FEA81611CD4002931
:100EE0001CDA022100F054F900286AD1A08960813F
:100EF000A17801F0DF02A27021898842A0EB0100F5
:100F000000D2304480B2A0F5B970B42859D242F072
:100F10004000A070E57054E000290BDB022100F0D6
:100F200037F901284DD1A0892081A07840F0200018
:100F3000A07046E0022100F02BF978BBA089608107
:100F4000A17801F0DF01A17021898842A0EB0100A6
:100F500000D2304480B2A0F11401502901D2E078CF
:100F600006E0A0F16401782904D2E07840F00100A5
:100F7000E07003E0B0F5967F00D3A570A07800F094
:100F80001F01062918D3A570E0781349502806D010
:100F90000C2807D0022809D00A280AD011E05020D6
:100FA00008720EE00C2048720BE00FE002208872FD
:100FB00007E00A20C87204E0401CA070E0784000FE
:100FC000E070BDE87040022000F036B870BD00004F
:100FD0003A000020000402408C02002010B50420DA
:100FE00000F030F8002804D0BDE81040042000F0E4
:100FF00023B810BD10B5102000F024F8002804D04C
:10100000BDE81040102000F017B810BD10B520202A
:1010100000F018F810B1802000F00EF84FF40074C2
:10102000204600F00FF8002804D02046BDE810400C
:1010300000F002B810BD00000149086070470000D0
:10104000143C0140034A0146002012680A4200D0C5
:1010500001207047143C014030B51A4A8379016879
:1010600053B313688B431360111D0B680468A343CB
:101070000B60017911440B68046823430B60114B2A
:10108000083319680468A14319601C1D21680568AC
:10109000A94321604179102905D011440A680068EC
:1010A00002430A6030BD1968026811431960216863
:1010B00000680143216030BD0079104402688A4312
:1010C000026030BD003C014000F04AFA03A0FFF787
:1010D00031F9642003F036F8F6E70000202A2A2AC6
:1010E0002A2A2A2A2A2A2A2A2A2A2A2A2A2A2A2A60
:1010F0002A21210D0A000000F0B5002201274FF03F
:10110000030C0B6807FA02F52B40AB422CD10668A2
:1011100053000CFA03F4A64306600E79D0F800E001
:101120009E4046EA0E0606600E79012E01D0022E80
:1011300012D18668A64386604E79D0F808E09E40BA
:1011400046EA0E0686604668AE43466045688E797C
:101150009640B6B235434560C568A543C560CC79B5
:101160009C40C3681C43C460521C102AC9D3F0BD04
:101170004B07DB0E9A40C90810B500EB8100016AED
:101180000F249C40A1430162016A1143016210BD1A
:101190000246002012690A4200D0012070474183B4
:1011A00070470183704700002DE9F043DFF89CC0D1
:1011B00041F268074FF4AF59BCF90440C9F1000887
:1011C0004FF4AF66B84203DDB44201DA4D4606E0A3
:1011D000B04203DABC4201DD454600E000252C4464
:1011E000241A24B2E51704EB9574A510174CACF83B
:1011F0000C50B942B4F9064001DDB44207DBB142FC
:1012000003DABC4201DDC84601E04FF0000808EBFC
:101210000106341B24B2E61704EB96740C4FA4109D
:10122000ACF80E403E7A012E0BD015801C80ACF835
:101230000850ACF80A40ACF80400ACF80610BDE861
:10124000F083002616801E803E72F0E750000020DA
:1012500080020020FEE7142002F074FFFBE700008C
:1012600070B50E48016821F440410160016841F405
:10127000804101600A4C0026C4F89C62022004F5FB
:10128000267401F0A3FF01252560022001F09EFFD6
:101290002660022001F09AFF656070BD00040240E4
:1012A000008040421CB50121022000F099FDC020C1
:1012B000012400908DF8044000208DF806000320E2
:1012C0008DF805008DF8074069460448FFF714FFC4
:1012D0000348C0F89842C0F89C421CBD000402407C
:1012E0000080404270B50E48016821F44041016021
:1012F000016841F4804101600A4C0125C4F89C5208
:10130000022004F5267401F061FF2560022001F03F
:101310005DFF00202060BDE87040022001F056BF54
:1013200000040240008040422DE9F0478146164803
:101330000024016821F44041016001680160134EFE
:1013400025460127A0466006040EC6F898720220C2
:1013500001F03CFFD6F81C0208B1641CE4B2C6F8E8
:101360009882012001F032FF6D1CEDB2082DEAD306
:10137000B9F1000F04D0FFF773FF2046BDE8F087F6
:10138000FFF7B0FFF9E70000000402400080404290
:101390002DE9F04105461448016821F440410160FF
:1013A000016841F4804101600024104EA0460127ED
:1013B000E809C6F89C026806050E022001F006FF47
:1013C000C6F89872022001F001FFC6F89882022048
:1013D00001F0FCFE072C01D1C6F89C72641CE4B23B
:1013E000082CE5D3BDE8F0810004024000804042B3
:1013F00070B50D48016821F440410160016841F475
:1014000080410160094C0120C4F89C02C4F8980294
:10141000042004F5267401F0D9FE0025656004203F
:1014200001F0D4FE256070BD0004024000804042FF
:1014300070B50D48016821F440410160016841F434
:1014400080410160094C0125C4F898520020C4F87D
:101450009C02042004F5267401F0B8FE6560BDE826
:101460007040042001F0B2BE0004024000804042FF
:1014700070B513480024016821F4404101600168FF
:101480000160104D0126C5F89C62304601F09EFEB9
:10149000C5F89862012001F099FE0AE0641CE4B2EC
:1014A000FA2C06D908A0FEF745FFFFF7C1FF01207F
:1014B00070BDD5F81C020028F0D1C5F8980270BDA7
:1014C00000040240008040426969632074696D65D0
:1014D0006F75740D0A00000005494FF6FF72888988
:1014E000401C80B28881904201D3002088817047DF
:1014F0003A0000207FB50121022000F071FC01219B
:10150000880300F085FC0320002502908DF80C5024
:1015100001248DF80F4002A91048FFF7EDFD0121CD
:10152000084600F079FD02208DF804501026009046
:101530008DF805608DF806406846FFF78DFD0021A7
:10154000012000F069FD8DF804508DF805600094CD
:101550008DF806406846FFF77FFD7FBD000402401E
:10156000AFF3008002494AF6AA20086070470000E5
:10157000003000402DE9FC470121242000F030FC20
:1015800001248DF8044000258DF80650234F4FF0BC
:1015900020098DF80740CDF800908DF80550694678
:1015A0003846FFF7A9FD8DF804408DF80650102647
:1015B0008DF8074000968DF8055069463846FFF7CC
:1015C0009BFD8DF804408DF80650DFF854A04FF4D1
:1015D00000788DF80740CDF800808DF805506946F9
:1015E0005046FFF789FD8DF804408DF80650A7029C
:1015F0008DF8074000978DF8055069465046FFF773
:101600007BFD06481A300680A0F800900448183088
:10161000A0F800800780BDE8FC87000000080240B9
:1016200000140240054C4FF4FA75206880F40071F4
:101630002160284602F086FDF7E7000014140240FE
:101640002DE9FC410121042000F0CAFB01268DF8A0
:10165000046000244FF440708DF80640DFF8588095
:1016600000908DF8074002278DF8057069464046C6
:10167000FFF742FD0121084600F0B2FB8DF804603F
:101680008DF806408DF807400C4C350200958DF81A
:10169000057069462046FFF72FFD29464046FFF7B3
:1016A0007EFD61154046FFF77CFD29462046FFF789
:1016B00076FDBDE8FC810000000802400000024009
:1016C0000A2002F03FFDFBE72DE9FC41012110203B
:1016D00000F086FB00244FF400508DF804400125F3
:1016E0000E4F00908DF8075003268DF8056069466F
:1016F0003846FFF701FD0121102000F071FBA8031F
:101700008DF8044000908DF807508DF8056069460B
:101710003846FFF7F1FCBDE8FC81000000100240F4
:1017200000F024F8052002F00DFDF9E7FEE7F0B522
:101730004FF6FF7200254AF201060FE0445D0023D8
:1017400084EA0207FF0702D086EA520200E052084C
:101750005B1C6408DBB2082BF2D36D1C8D42EDDB01
:10176000100240EA122080B2F0BD00002DE9FF47D0
:101770006B4C607901287DD10A2001F027FD0025FE
:10178000657165802571A079012825D16178C80728
:1017900001D0491E6170C9B2A01D891EFFF7C7FFA5
:1017A000E179604FDFF88081604E614841F288390D
:1017B00043291BD00123442960D045297ED0EA2942
:1017C0000AD1218909B28181628912B2C28101B92B
:1017D0001AB14577397911B19FE04377FAE7B8F844
:1017E0001A10B1F5FA6F32D293B291E02189628971
:1017F00049BA52BAB1F5A04F20D0A1F5A043023B9F
:1018000003D1A2F5A243023B21D0A1F5A043043BA2
:101810001DD1A2F5A24104397FD1A189B31C49BAD7
:10182000C182E189414A49BA8182B0F91610B0F902
:101830001400FFF7B9FC387950B11AE0B2F5A24FA5
:101840006BD1A18949BA0182E18949BA418264E038
:10185000B8F81C1049450CD23089ADF80000326848
:1018600001927368ADF80C000293FF21012000F093
:10187000EFFB00E052E0358075804EE021896289FF
:1018800049BAA1F50C5652BA183E03D1A2F54C56EE
:10189000183E42D0B1F5045F3FD1B2F5445F3CD170
:1018A000617BE27B01290AD0012A08D00577B0F9D3
:1018B0000210B0F9000000F045FC2EE001E00377D3
:1018C000F5E7218949BAA1F51852103A03D0A1F5DC
:1018D0001852203A21D1A18949BA8181E18949BAB6
:1018E000C181218A33884ABA618A1A443280728857
:1018F00049BA11447180A18A49BA0183E18A49BA7F
:101900004183397949B9B8F81A204A4505D2C389C3
:101910008289FF21012000F0D5FB6570BDE8FF87BB
:101920002C020020F00100204C0200208002002048
:1019300014030020704738B525208DF800000124DD
:101940008DF8014000258DF802508DF8034068465F
:1019500000F09EF826208DF800008DF801408DF8EB
:1019600002508DF80340684600F092F827208DF869
:1019700000008DF801508DF802508DF80340684644
:1019800000F086F834208DF800008DF801508DF8B5
:1019900002508DF80340684600F07AF835208DF843
:1019A00000008DF801408DF802508DF80340684624
:1019B00000F06EF819208DF800008DF801508DF8B8
:1019C00002508DF80340684600F062F82E208DF832
:1019D00000008DF801508DF802508DF803406846E4
:1019E00000F056F81C208DF800008DF801408DF8AD
:1019F00002508DF80340684600F04AF837208DF811
:101A000000008DF801408DF802508DF803406846C3
:101A100000F03EF838208DF800008DF801408DF878
:101A200002508DF80340684600F032F806208DF829
:101A300000008DF801508DF802508DF80340684683
:101A400000F026F807208DF800008DF801508DF881
:101A500002508DF80340684600F01AF817208DF800
:101A600000008DF801408DF802508DF80340684663
:101A700000F00EF828208DF800008DF801408DF858
:101A800002508DF80340684600F002F838BD0000AF
:101A900030B50F23C27801780125FAB1144A1268D3
:101AA00001F1E02102F4E062C2F5E062C2F3072234
:101AB000C2F10404D3404278A24084781C4014430D
:101AC000220181F80024007800F01F018D404009B8
:101AD000800000F1E020C0F8005130BD01F01F008F
:101AE00085404809800000F1E020C0F8805130BDF9
:101AF0000CED00E00249084302490860704700000D
:101B00000000FA050CED00E01CB504460121102090
:101B100000F066F900200121124B042274B1012C5F
:101B20000BD18DF804008DF8071003208DF8050007
:101B3000009269461846FFF7DFFA1CBD8DF80410C5
:101B40008DF806008DF807108DF8050000926946A3
:101B50001C461846FFF7D0FA04212046FFF71FFB6A
:101B60001CBD0000001002402DE9F04188460546EA
:101B70008AB00121022000F033F94FF44070059043
:101B800002208DF8180000248DF81A4001268DF8E7
:101B90001B600320294F8DF8190005A93846FFF76F
:101BA000ABFA022208213846FFF7E2FA02220921A5
:101BB0003846FFF7DDFA0121042000F01DF96D1E03
:101BC000A8F101000895ADF81C001D4DADF81E40B0
:101BD000ADF8244007A9284600F072FE6020ADF859
:101BE0000000ADF80260ADF80440ADF80C40694665
:101BF0002846029400F0E4FD0821284600F01EFE6D
:101C000069462846029400F01FFE0821284600F08D
:101C10004BFE0121284600F099FD0122114628467D
:101C200000F0C5FD0121284600F0A0FD0121284655
:101C300000F0A6FD0AB0BDE8F081000000040240FB
:101C4000000800404FF47A74204602F07BFAFBE76C
:101C50002DE9FC470121084600F0C2F801258DF866
:101C6000045000248DF80640DFF864A140268DF86A
:101C7000075000968DF8054069465046FFF73CFA3C
:101C80000121102000F0ACF800968DF804508DF87A
:101C900006400226DFF83C918DF807608DF805407C
:101CA00069464846FFF728FA0121102000F098F80D
:101CB0008DF804508DF8064020278DF807600097B6
:101CC0008DF8054069464846FFF716FA0121084697
:101CD00000F086F88DF804508DF806408DF8076006
:101CE00000978DF8054069465046FFF705FA012137
:101CF000084600F075F88DF804404FF010088DF894
:101D000007600327CDF800808DF8057069465046BE
:101D1000FFF7F2F90121102000F062F88DF804506D
:101D20008DF806408DF80760CDF800808DF80540ED
:101D300069464846FFF7E0F90121102000F050F80D
:101D40008DF8045008208DF8064000908DF807604B
:101D50008DF8054069464846FFF7CEF9012110206D
:101D600000F03EF88DF804408DF8075000968DF88D
:101D7000057069464846FFF7BFF90121084600F0A3
:101D80002FF880208DF8044000908DF807508DF8D2
:101D9000057069465046FFF7AFF940215046FFF7FE
:101DA00000FA40214846FFF7FAF920215046FFF794
:101DB000F6F920214846FFF7F2F910214846FFF7CF
:101DC000F0F908214846FFF7ECF9BDE8FC87000070
:101DD0000000024000100240C82002F0B3F9FBE707
:101DE000044A0029116801D0014300E081431160D9
:101DF0007047000030380240044A0029116801D0C1
:101E0000014300E081431160704700004038024008
:101E1000044A0029116801D0014300E081431160A8
:101E20007047000044380240044A0029116801D07C
:101E3000014300E0814311607047000024380240F4
:101E400070B5204B1968204C11F00C0104D06610BD
:101E5000042903D0082903D004601BE0066019E0C0
:101E6000184A121F1168C1F38055116801F03F0133
:101E700015B1B6FBF1F101E0B4FBF1F114681268A1
:101E8000C4F388146143C2F30142521C5200B1FBF7
:101E9000F2F1016019680F2202EA11110B4A545C39
:101EA0000168E14041601C68072505EA9424145D3F
:101EB00021FA04F484601B6805EA5333D25CD140F4
:101EC000C16070BD083802400024F400A00000206A
:101ED000F0B5064687B001210820FFF781FF0125F4
:101EE00008208DF80450002400908DF806408DF8ED
:101EF00007400320274F8DF8050069463846FFF755
:101F0000FBF808213846FFF74CF901210420FFF7C0
:101F100067FF0121C804FFF76FFF02218DF804104D
:101F20008DF805108DF806408DF807504FF440608D
:101F3000194D009069462846FFF7DEF808220A216D
:101F40002846FFF715F908220B212846FFF710F95C
:101F5000ADF80C40ADF80E40ADF81040ADF81440AF
:101F60000C200E4CADF81200029602A9204601F09A
:101F70003FF8012240F22551204601F020F80121CE
:101F8000204600F0ECFF4021204600F0DFFF07B0C4
:101F9000F0BD0000000C024000080240004C004070
:101FA0002DE9F041124F0E4680461546082138466D
:101FB000FFF7F5F8012001F0EDF84021404600F070
:101FC000C5FF002405E0315D404600F013F8641CB5
:101FD000A4B2AC42F7D34021404600F0CAFF00282B
:101FE000F9D03846BDE8F0410821FFF7DAB8000023
:101FF000000C024070B50C460546402100F0B9FFC8
:102000002146284601F04EF88021284600F0B1FF15
:102010000028F9D070BD000010B58A0721F0030434
:102020000849120F21440F23D1F8084893409C43DC
:10203000C1F80848D1F8083890400343C1F808387F
:1020400010BD000000300140192002F07BF8FBE7D2
:102050002DE9F0410E46074615460020142101F0F7
:10206000F3F9044655202070AA206070A770132051
:10207000E070012020716671A0710820E071280ACB
:10208000207228146572010AA172E072002525737E
:102090006573A573E57310212046FEF74DFD20748E
:1020A0000D2060740A20A07413222146044801F018
:1020B0002FF821462846BDE8F04101F0B9B90000EB
:1020C000004800402DE9F041884607461D46164667
:1020D0000020142101F0B8F9044655202070AA20F0
:1020E0006070A7701320E0700120207184F80580D3
:1020F0001520A0710820E071300A20726672280A4B
:10210000A0720E48E5720025407D20736573A573AB
:10211000E57310212046FEF70FFD20740D2060743A
:102120000A20A07413222146054800F0F1FF214641
:102130002846BDE8F04101F07BB900008C02002088
:10214000004800402DE9F0410D46074600260A21CF
:10215000304601F079F9044601202070EA206070D1
:10216000A770380AE0702571280A607106212046A0
:10217000FFF7DDFA010AA171E07108222146044847
:10218000FFF70EFF21463046BDE8F04101F050B99F
:10219000004C00400CB500222749009201920868CB
:1021A00040F4803008604FF4A043086800F4003029
:1021B00001900098401C0090019810B90098984236
:1021C000F3D10868800334D5012001901A484030CB
:1021D000026842F0805202601848026842F44042AD
:1021E00002601548083002680260026842F400424A
:1021F0000260026842F4A0520260031F104A1A6093
:102200000A6842F080720A600A689201FCD50D49A2
:1022100040F205720A60016821F003010160016863
:1022200041F0020101600168C1F381010229FAD184
:102230000CBD01920CBD000000380240007000404F
:1022400008544007003C02401CB501F035FE4649E9
:102250000220CDE900010023802244A1464802F07B
:10226000CBFC41490320091DCDE900010023802258
:1022700042A1464802F0C0FC3B4904200831CDE9A8
:1022800000010023802242A1454802F0B5FC3649F6
:1022900005200C31CDE900010023802241A14548F1
:1022A00002F0AAFC304906201031CDE900010023DC
:1022B000802241A1434802F09FFC2B4907201431A2
:1022C000CDE90001002380223FA1424802F094FCA6
:1022D000254908201831CDE90001002380223EA1C4
:1022E000414802F089FC20490C202831CDE9000149
:1022F000002380223DA1414802F07EFC1A490920BA
:102300001C31CDE90001002380223DA1404802F0AC
:1023100073FC15490A202031CDE9000100238022F9
:102320003CA1404802F068FC0F490B202431CDE964
:102330000001002380223CA13E4802F05DFC0A49D6
:102340000D202C31CDE90001002380223AA13D4827
:1023500002F052FC0448001F006801F029FFBDE8AC
:102360001C4001F0E5BD000008000020506D755FC5
:102370005461736B00000000451C000843616D6DE3
:10238000616E645F5461736B00000000590B0008BC
:102390004572725F48616E646C655F5461736B0077
:1023A000C9100008506F7765726F66665F5461737D
:1023B0006B000000D91D00084368675F5461736BB0
:1023C00000000000990B0008546573745F5461733A
:1023D0006B000000A1290008486561645F437472C6
:1023E0006C5F5461736B0000571200084C6966748F
:1023F0004D6F746F5F5461736B000000C11600086D
:102400004175746F4368617267655F5461736B00F7
:10241000EF0A000853656E645F4D6472765F546125
:10242000736B0000492000084D6472765F5461733D
:102430006B000000211700084C45445F5461736B2A
:1024400000000000251600084FF0E021042808696C
:1024500003D020F004000861704740F00400FAE760
:1024600010B502F0F5FB012803D0BDE8104002F0E2
:10247000E3B810BD124810B5016841F47001016065
:102480001048016841F0010101600E4A0021083244
:10249000116002680C4B1A400260031D0B4A1A605F
:1024A000026822F48022026006480C300160FFF7C7
:1024B00071FE03494FF000608039086010BD0000D4
:1024C00088ED00E000380240FFFFF6FE10300024E7
:1024D00070B501F0F1FCA82000F040FEFFF74AF8CB
:1024E000FEF70AFBFFF7B4FB0120FFF70DFBFFF738
:1024F00001F8FEF755FBFFF7A3F8FFF7E5F8FEF745
:102500005BF9FEF7B2FAA8230A221D49012000F068
:1025100015FA4FF47A725423D106012000F00EFA16
:102520004FF4527364221749202000F007FA542117
:1025300044F62060FFF718FB4FF4E13421461248BF
:1025400000F0B4FD4FF416552946104800F0AEFDDA
:1025500029460F4800F0AAFD29460E4800F0A6FDC6
:102560002046FFF7B5FC002000F0E2FE022000F05C
:10257000DFFE01F0DDFCBDE8704007A0FDF7DABE2C
:1025800000000140001400400010014000440040E1
:10259000004800400050004042737020696E69742A
:1025A000204F4B210D0A000010B5084C0121204698
:1025B00000F0F1F8012807D10121204600F0D3F8FE
:1025C000BDE81040FEF788BF10BD000000000140CC
:1025D0002DE9F04101218C07204600F0DCF80128AC
:1025E00061D10121204600F0BEF8FEF7B9FA444956
:1025F000454D464E48884FF47A78401C4880414803
:1026000000244188491C4180688B401C6883A88B4A
:10261000401CA883F088401C80B2F080404528D937
:10262000F480297A3078814206D00820FEF740FAFB
:102630000820FEF71CFA3070354F96F9011097F913
:102640000900884207D0797A0620FEF731FA062081
:10265000FEF70DFA707097F90A0096F90210884299
:1026600007D0B97A0720FEF723FA0720FEF7FFF913
:10267000B070B088401C80B2B080404500D3B480B8
:1026800095F83000D0B1234B9E1E5A1501280CD06E
:10269000022815D0032806D13280688E411C698635
:1026A000B0F5C87F07D8BDE8F0813280688E411C44
:1026B00069866428F7D91A8085F830406C86F2E77D
:1026C0003280698E481C80B26886642905D9411C15
:1026D0006986C82801D21A80E5E7698E4FF496779B
:1026E000481C80B26886C82905D9411C6986B84251
:1026F00001D23280D7E7688EB842DCD8D3E7000039
:10270000F00100202C0200204C0200204800002094
:10271000C80200201A0C024010B50A4C01212046C4
:1027200000F039F800280CD0074901204871014613
:10273000204600F018F82046BDE81040002100F0C7
:1027400015B810BD001400402C020020002901889B
:1027500002D041F0800101E021F08001018070474A
:10276000C94301827047C94301827047002901882B
:1027700002D041F0010101E021F001010180704728
:10278000002930F8441F02D041F4004101E0C1F3B8
:102790000E010180704702460020138A92890B4285
:1027A00002EA010202D0002A00D001207047002A6C
:1027B000828901D00A4300E08A4382817047000089
:1027C00070B5028C22F480720284028C8388848B20
:1027D0000D8824F0730425438E894FF6FF7422F48C
:1027E000007204EA062616434A8804EA02223243AB
:1027F000104EB04202D0104EB04215D122F4006605
:10280000CA8923F4405304EA0222324322F4806648
:102810008A8804EA022232430E8A04EA06161E431C
:102820004B8A04EA03133343838085838968C16339
:10283000028470BD0000014000040140828B22F040
:1028400008020A438283704770B5028C22F48052DA
:102850000284058C8288838B0C8823F4E6464FF62D
:10286000FF7303EA0424344325F400568D8903EAF8
:10287000053535434E8803EA06362E43084DA842F7
:1028800002D0084DA84205D122F480450A8A03EA05
:1028900082122A438280848389680164068470BD21
:1028A0000000014000040140828B4FF6FF7322F4C8
:1028B000006203EA0121114381837047416270473E
:1028C00030B50288164C174DA0420DD0A8420BD04F
:1028D000B0F1804F08D0144B984205D0134B98426A
:1028E00002D0134B984203D122F070034A881A4356
:1028F000104B984206D0104B984203D022F44073FC
:102900000A891A4302804A68C2620A880285A04284
:1029100001D0A84201D1897A01860121818230BD8E
:102920000000014000040140000400400008004095
:10293000000C00400010004000140040FEB50C46A2
:1029400015491E4615468C4202D014498C4203D1CB
:102950000121FFF75DFA02E00121FFF74DFA761E33
:102960000020ADF800606D1EADF80200ADF8080063
:10297000019569462046FFF7A3FF01212046FFF796
:10298000EFFE012211462046FFF711FF01212046EC
:10299000FFF7ECFEFEBD0000000001400004014016
:1029A000642001F0CFFBFBE770B5064686B001213D
:1029B0000420FFF715FA0121C804FFF71DFA1F4D87
:1029C00008220A212846FEF7D3FB08220B212846BD
:1029D000FEF7CEFB02218DF814104FF440608DF805
:1029E0001510049000248DF8164001208DF8170072
:1029F00004A92846FEF780FBADF80440ADF8064078
:102A0000ADF80840ADF80C400C200D4CADF80A00B4
:102A100000966946204600F0EBFA012240F225516B
:102A2000204600F0CCFA0121204600F098FA40211F
:102A3000204600F08BFA06B070BD0000000802408E
:102A4000004C004070B5144C40F2255529462046F4
:102A500000F096FA00281ED02946204600F079FAA8
:102A6000204600F01BFB0D49C0B248700C494A7962
:102A7000002A10D14B788A1D0A4C98544878401C83
:102A8000487000212046FFF719FF2046BDE870403E
:102A90000121FFF76BBE70BD004C004038000020E4
:102AA0002C020020001400402DE9F043814687B03D
:102AB00001210420FFF794F901210820FFF790F984
:102AC00001210805FFF798F9274F08220C21384605
:102AD000FEF74EFBDFF89480082202214046FEF705
:102AE00047FB02258DF80450B8148DF805500024DA
:102AF00000908DF8064001268DF80760694638463B
:102B0000FEF7FAFA8DF8045004208DF80550009075
:102B10008DF806408DF8076069464046FEF7ECFAEE
:102B2000ADF80C40ADF80E40ADF81040ADF81440D3
:102B30000C200F4CADF81200CDF8089002A92046E9
:102B400000F056FA012240F22551204600F037FAF3
:102B50000121204600F003FA4021204600F0F6F95A
:102B600007B0BDE8F083000000080240000C0240FE
:102B70000050004070B50646012186B00846FFF7B8
:102B80002FF901211020FFF743F91F4D07220921DA
:102B90002846FEF7EDFA07220A212846FEF7E8FA52
:102BA00002218DF814104FF4C0608DF815100490B8
:102BB00000248DF8164001208DF8170004A928463E
:102BC000FEF79AFAADF80440ADF80640ADF80840BB
:102BD000ADF80C400C200D4CADF80A00009669468B
:102BE000204600F005FA012240F22551204600F06F
:102BF000E6F90121204600F0B2F94021204600F01C
:102C0000A5F906B070BD00000000024000100140B0
:102C10002DE9F041294C40F225552946204600F087
:102C2000AFF900282BD02946204600F092F9204623
:102C300000F034FA224BC0B2597900291FD11C7818
:102C40000A46A5074FF0010603F106011DD4E4076B
:102C500004D0AA280AD0552802D012E055280ED157
:102C600050545E70187840F0010007E05A785054D4
:102C70005878401C5870187840F002001870BDE871
:102C8000F0815A701A705A71F9E75C7860545C7878
:102C9000641CE4B25C701D786F0708D4597A491E31
:102CA0008C42ECD10D28ECD145F00400E6E70A286F
:102CB000E7D160545A701A705E71E0E7001001406D
:102CC0000E020020F0B50746012187B00846FFF745
:102CD00087F801214804FFF78FF81E4E07220221D2
:102CE0003046FEF745FA072203213046FEF740FA48
:102CF00002208DF814008DF8150000248DF8164080
:102D000001200C258DF81700049504A93046FEF724
:102D1000F3F9ADF80440ADF80640ADF80840ADF861
:102D20000C400D4C0097ADF80A506946204600F063
:102D30005FF9012240F22551204600F040F90121BF
:102D4000204600F00CF94021204600F0FFF807B0C3
:102D5000F0BD0000000002400044004070B506468F
:102D600086B001210220FFF73BF801218804FFF71C
:102D700043F81F4D07220A212846FEF7F9F90722DA
:102D80000B212846FEF7F4F902218DF814104FF4B8
:102D900040608DF81510049000248DF81640012035
:102DA0008DF8170004A92846FEF7A6F9ADF80440EF
:102DB000ADF80640ADF80840ADF80C400C200D4CC5
:102DC000ADF80A0000966946204600F011F901228C
:102DD00040F22551204600F0F2F80121204600F093
:102DE000BEF84021204600F0B1F806B070BD0000EA
:102DF00000040240004800402DE9F0412A4C40F216
:102E000025552946204600F0BBF800282DD029463C
:102E1000204600F09EF8204600F040F92349244B5C
:102E2000C0B20870597900291FD11C780A46A5073D
:102E30004FF0010603F106011DD4E40704D0AA28CF
:102E40000AD0552802D012E055280ED150545E7099
:102E5000187840F0010007E05A7850545878401C28
:102E60005870187840F002001870BDE8F0815A7070
:102E70001A705A71F9E75C7860545C78641CE4B2AB
:102E80005C701D786F0708D4597A491E8C42ECD1CA
:102E90000D28ECD145F00400E6E70A28E7D160549C
:102EA0005A701A705E71E0E7004800403800002058
:102EB000F001002070B5064686B001211020FEF713
:102EC0008FFF0121C807FEF797FF1E4D0822002142
:102ED0002846FEF74DF9082201212846FEF748F959
:102EE00002218DF8141003208DF815100490002491
:102EF0008DF8164001208DF8170004A92846FEF72A
:102F0000FBF8ADF80440ADF80640ADF80840ADF868
:102F10000C400C200C4CADF80A0000966946204687
:102F200000F066F8012240F22551204600F047F8F3
:102F30000121204600F013F84021204600F006F859
:102F400006B070BD00100240007C0040C943018003
:102F500070470A0A01219140C94301807047002946
:102F6000818902D041F4005101E021F400518181B6
:102F700070470246002012880A4200D001207047A4
:102F800070B501F01F0501260024C1F3421306FAB3
:102F900005F2012B0FD0022B0FD0838A4FEA1121AB
:102FA0000088134206FA01F600EA060001D000B1DB
:102FB0000124204670BD8389F0E7038AEEE710B54F
:102FC000C1F3421301F01F040121A140012B07D0DE
:102FD000022B07D01430002A026805D00A4304E00F
:102FE0000C30F8E71030F6E78A43026010BD0000AD
:102FF0007FB50446008A0D46C98820F4405001433D
:103000002182A08941F20C618843A9882A89114351
:103010006A8902431143A181A08A20F44071A889E2
:103020000843A0826846FEF70BFF1A48844202D08C
:103030001948844201D1039800E00298A18909044B
:1030400000EBC00101EB0010296801D5490000E048
:103050008900B0FBF1F06422B0FBF2F109010B0929
:103060006FF018056B4300EB8300A3891D044FF03C
:10307000320306D503EBC000B0FBF2F000F007000E
:1030800005E003EB0010B0FBF2F000F00F00084386
:1030900020817FBD00100140001401408088C0F3F2
:1030A00008007047C1F3080181807047124A9042BE
:1030B00002D10846FFF75EBD104A904202D1084691
:1030C000FFF700BE0E4A904202D10846FFF746BE07
:1030D0000C4A904202D10846FFF766BC0A4A904269
:1030E00002D10846FFF7E0BC084A904202D10846E8
:1030F000FFF7E0BE704700000010014000440040B0
:1031000000480040004C004000500040007C00405F
:103110002DE9F04116460D460746002406E02978C1
:10312000384600F007F8641CE4B26D1CB442F6D3D4
:10313000BDE8F08170B50C4605464021FFF719FF48
:1031400021462846FFF7AEFF80212846FFF711FFF2
:103150000028F9D070BDFEE77047000010B50446A6
:103160000420FFF771F90A484FF47A71047014FBD8
:1031700001F1012242804FF0E020026942F0020298
:1031800002614161016941F00101016110BD00006E
:103190007400002070B5044601F05AFD01280CD0DF
:1031A000094D6888844203D3B4FBF0F000F0CAFFF5
:1031B0006888B4FBF0F100FB11444FF47A7060436F
:1031C000BDE8704000F002B87400002070B54FF008
:1031D000E02500216C69094AAB6912785043AA695D
:1031E0009A42FCD002D2A3EB020302E0A4EB020657
:1031F0003344194413468142F1D370BD740000205A
:10320000F0B50E4D00210E4A0E46A5F10C07002028
:1032100000EB400305EB8303146833F81130401CC6
:103220002344C0B213601028F2D3180927F8110004
:10323000491CC9B216600629E9D3F0BD300100204F
:103240000000002003490A885206FCD5C2B28A80D9
:1032500070470000001001401CB5FFF739F94FF42A
:103260004070FEF747FCFEF766FBC820FFF792FFB1
:1032700040210C48FDF795FF00F01EFE0AA0FDF767
:1032800059F810490120CDE90001002340220EA188
:10329000104801F0B1FC00F04BFE01F0B3F8002043
:1032A0001CBD00000010024020524F424F545F4DA1
:1032B000523920537973207374617274696E672177
:1032C000210D0A000400002053746172745F546180
:1032D000736B00004922000870B5134A131893F865
:1032E000203093B1114B53F820308B421AD90F4B39
:1032F00002EB80020C3B53F820305069B1FBF3F134
:1033000030F811400020034608E01168884701208A
:1033100070BD55690E18401C25F81630A042F8DB28
:10332000002070BD022070BD7C0000202C520008DF
:1033300070B504460B480C4E002150F8240006EBF3
:1033400084054200686900F08FF8064800211830B3
:1033500050F82420A86800F087F80120311981F87E
:10336000200070BD145200087C0000202DE9F041BF
:103370001F4E0546002470190F4690F8200010B922
:103380003168284688474FF0FF327FB3194B53F816
:103390002510B7FBF1F0B7FBF1FC01FB1C7101B18B
:1033A000401C14490C3951F82510491E1ED406EB57
:1033B0008506776937F811C0BCF1000F05D00024ED
:1033C000844211D1002284B207E0641CF8E77769D7
:1033D00001EB020C521C27F81C408242F7D353F831
:1033E00025004843BDE8F081491EE3D51046F9E7C2
:1033F0007C0000202052000810B50B4B0B4C002223
:1034000053F82030114604EB800005E0446934F89D
:10341000114004B1521C491C8B42F7D8642042432E
:10342000B2FBF3F0C0B210BD145200087C000020C3
:10343000002906D0034A02EB80029268891AFFF73E
:103440004BBF70477C00002010B50446FFF78EFF8D
:10345000411C05D0034901EB84018968084410BD73
:10346000002010BD7C00002001E000F8011B521E6E
:10347000FBD270472DE9F041184E0F460446F5681F
:103480003068001D00F0D4FC38B9306890F82C107A
:1034900001208840316981433161601C07D137B117
:1034A0003168BDE8F0410E48091D00F0F9BC3068F4
:1034B0002C44AC424460316805D2B06BBDE8F041A9
:1034C000091D00F0D5BC706B091D00F0D1FCB06A7D
:1034D000844200D2B462BDE8F0810000B000002058
:1034E000D0DA00202DE9F041054600F0E5FC2D4E34
:1034F000B068401CB06030682B4F10B1706930B3B9
:103500002BE03560B068012827D1002404EB84004B
:1035100007EB800000F09EFC641C202CF6D32348AF
:1035200000F098FC2148143000F094FC1F4828302B
:1035300000F090FC1D483C3000F08CFC1B485030E3
:1035400000F088FC194870631430B06305E03068FF
:10355000E96AC06A884200D83560706A0121401C5F
:1035600070626864E86A326981401143316100EB3E
:10357000800007EB8000291D00F092FC00F0D8FCD1
:10358000706900280CD03068E96AC06A884207D2A6
:1035900007494FF080500860BFF34F8FBFF36F8F24
:1035A000BDE8F081B000002000D8002080DA0020C3
:1035B00004ED00E010B500F07FFC0E4C2068A0B9CF
:1035C0000D4800F047FC0C48143000F043FC0A485A
:1035D000E0601430206100221021052001F042F843
:1035E000206010B105A100F079FDBDE8104000F0A9
:1035F0009FBC0000EC000020E4DA0020546D725102
:103600000000000070B5124E124D1CE000F044FFA7
:10361000306820B1002401F049FCA4B901E0012484
:10362000F9E700F049FCF068C468201D00F000FCD8
:10363000A868401EA8606868401E686000F078FCBA
:10364000204600F052F868680028DFD170BD000005
:10365000BCDA0020B000002030B4026C0B46002A17
:103660000BD0C1681144C1604468A14201D3016814
:10367000C16030BC1846FCF703BF30BC70472DE971
:10368000F041856B174604460026026C82B1C7B133
:10369000E068FCF7F5FEE168206C091AE160226839
:1036A000914202D26168081AE060022F16D017E03A
:1036B0002068A8B9606801F053FB064600206060EE
:1036C0000EE0A068FCF7DCFE216CA0680844A06056
:1036D0006168884204D32068A06001E005B16D1ED6
:1036E0006D1CA5633046BDE8F08110B50446006B43
:1036F00000F050FC2046BDE8104000F04BBC00003C
:1037000010484FF4A041420706D0C01D0D4920F0DB
:103710000700411AC1F5A0410B4A00230144C2E948
:1037200000030839103A21F0070111604B600B606B
:103730000B1AC0E9001393604FF000405360D06053
:10374000704700000CDB00201C010020074E4FF0EA
:103750008054074DFFF756FF30680128FAD92C60D6
:10376000BFF34F8FBFF36F8FF4E7000000D8002046
:1037700004ED00E02DE9F047DDE909840E46174627
:10378000824691009946089DA522206BFCF7BDFE5C
:103790006FF00301206B01EB8701084420F007075D
:1037A000780705D040F22B3219A11EA0FCF7C2FD0C
:1037B00000202218315C82F83410315C11B1401CB9
:1037C0001028F6D3002684F84360202D00D31F254F
:1037D000E562C4E91356201D00F047FB04F1180010
:1037E00000F043FB2461C5F120006462A0616665BE
:1037F00084F858604A465146384600F003FB206082
:10380000B8F1000F01D0C8F80040BDE8F087000013
:103810002E2E5C4672656552544F535C7461736B17
:10382000732E63004572726F723A25732C25640DF6
:103830000A00000030B5114900E011460A688242D2
:10384000FBD34B685C18844203D14068184448603D
:10385000084643681C18944209D1084C103C24685F
:10386000A24209D052681A4442600A681268026093
:10387000814200D0086030BD0460F9E71C010020DF
:1038800070B5002441600B4D0061914206D8D11AF9
:103890008269914206D2011D286907E09A4203D24B
:1038A000994201D3012403E0011DE86800F0E0FA29
:1038B000204670BDEC00002010B5044600F0FCFA74
:1038C000A06B20B1002400F033FB204610BD012482
:1038D000F9E700002DE9F34100980F460026846CBB
:1038E0002CB940F6CE1216A11AA0FCF723FDA06B4E
:1038F000E16B884205D340F6CF1211A115A0FCF769
:1039000019FDA06BE16B88420CD294F945503A4600
:1039100069462046FFF7B3FE0646681C05D06D1CBD
:1039200084F845503046BDE8FC81606A0028F9D033
:1039300004F1240001F06EFA0028F3D00126F1E72B
:103940002E2E5C4672656552544F535C71756575D9
:10395000652E63004572726F723A25732C25640DD3
:103960000A000000F8B5054614480E46C068C06855
:10397000C468201D00F05CFAE069012817D1A06935
:103980002B46411932462046FFF77AFF78B10020D6
:103990000346014600902A46204601F06DFB30B9EF
:1039A00007494FF4027201F11800FCF7C3FC616A89
:1039B00001B02046BDE8F04008470000EC000020C0
:1039C000DC4F000870B586B02F4E53E001980028F8
:1039D00006DADDE90301029A90470198002849DBE5
:1039E000039C606910B1201D00F022FA05A800F0C8
:1039F000A7F8054601980A283CD2DFE800F0050543
:103A0000053B273805053B270298A1690346014479
:103A10002A462046FFF734FF00282BD0616A204653
:103A20008847E069012825D1002000900298A1690B
:103A3000002342181946204601F01EFBD0B940F27F
:103A4000213212A117A0FCF775FC13E00298A061C7
:103A500028B94FF44E720DA112A0FCF76BFCA069BF
:103A60002B4641191A462046FFF70AFF02E020467E
:103A700000F090FA00231A4601A9306800F02EFEEB
:103A80000028A3D106B070BDEC0000202E2E5C46AD
:103A900072656552544F535C74696D6572732E6321
:103AA000000000004572726F723A25732C25640D78
:103AB0000A000000F8B50D46064600F0EDFC684629
:103AC00000F03EF80446009810B101F0EFF9F8BD9F
:103AD0001148ADB101690968D9B10025311B2A46E9
:103AE000006800F00DFB01F0E1F90028EFD10B496F
:103AF0004FF080500860BFF34F8FBFF36F8FF8BD5A
:103B0000A642EBD801F0D2F921463046FFF72AFF52
:103B1000F8BD0125E2E70000EC00002004ED00E024
:103B20000648416B096829B1416BC968C968496891
:103B3000816270474FF0FF31FAE70000B0000020CB
:103B400070B5054601F092F8064E0446B06884420E
:103B500003D200F009F8012000E000202860204690
:103B6000B46070BDEC000020F8B5184E26E0C068C7
:103B7000C4680568201D00F05BF9616A204688472B
:103B8000E06901281AD1A0692844A84206D9246115
:103B90006060211DF06800F06BF90FE00020034623
:103BA000014600902A46204601F066FA30B90849DD
:103BB00040F2923201F11800FCF7BCFBF06801689A
:103BC0000029D4D13169C6E90310F8BDEC0000200A
:103BD000DC4F000808484068401C05D040F20F1236
:103BE00006A111A0FCF7A6FB502080F31188BFF3BB
:103BF0004F8FBFF36F8FFEE7000100202E2E5C4633
:103C000072656552544F535C706F727461626C657B
:103C10005C525644535C41524D5F434D34465C7098
:103C20006F72742E630000004572726F723A2573D2
:103C30002C25640D0A000000084CE068016839B1C9
:103C4000002139B10020FFF735FFFFF7BBFEF4E795
:103C50000121F6E7C0680068F5E70000EC000020ED
:103C60002DE9F041044600F027F994F9455004F19C
:103C7000240610E0A06C20B100212046FFF72AFEA8
:103C800004E0606A48B1304601F0C4F808B100F0C1
:103C9000F5FA6D1E6DB2002DECDC4FF0FF3684F8A6
:103CA000456000F045F900F007F994F9445004F13B
:103CB000100709E0206948B1384601F0ABF808B1B7
:103CC00000F0DCFA6D1E6DB2002DF3DC84F8446068
:103CD000BDE8F04100F02CB92DE9F0410546002681
:103CE00000F0DAFB324F386808B9FFF709FDF868D1
:103CF00005424FD1002D4DD0083568070BD005F097
:103D00000700C0F108000544680704D0BF2229A1BC
:103D100032A0FCF70FFB002D3CD07868854239D8E3
:103D2000234910310846046801E0214604466068D2
:103D3000A84202D220680028F7D13868B8468442E9
:103D400028D00E682068086060680836401B10287C
:103D50000ED96719780704D0EC2216A11FA0FCF732
:103D6000E9FA6068401B786038466560FFF762FDDD
:103D70006168D8F804004246401AC8F80400D8F830
:103D80000830984200D29060D8F80C00014300201F
:103D9000C4E9000101F08AF8700705D04FF496726B
:103DA00004A10EA0FCF7C6FA3046BDE8F081000081
:103DB0000C0100202E2E5C4672656552544F535CF8
:103DC000706F727461626C655C4D656D4D616E679C
:103DD0005C686561705F342E630000004572726F2D
:103DE000723A25732C25640D0A0000000449086806
:103DF00018B10868026D521C02650868704700001F
:103E0000B000002010B5031F4FF080741C601B1F12
:103E100021F001011960191F044B0B6014390A606D
:103E2000091F6FF0020244380A6010BDD53B00083C
:103E3000D0E9013201699A60D0E901235A604A68E9
:103E4000824201D182684A60002202610868401EF5
:103E50000860704700F108014FF0FF32C0E901121D
:103E6000C16001610021016070470021016170475C
:103E700030B50C68621C02D000F1080202E0026951
:103E800004E01A4653681D68A542FAD953684B608E
:103E900099608A60516008610168491C016030BD09
:103EA00042684A6093688B609368596091600861CA
:103EB0000168491C01607047502080F31188BFF3EE
:103EC0004F8FBFF36F8F09494868401C4860012835
:103ED0000AD10748006810F0FF0F05D040F2B91270
:103EE00004A10FA0FCF726BA7047000000010020D3
:103EF00004ED00E02E2E5C4672656552544F535C13
:103F0000706F727461626C655C525644535C4152CE
:103F10004D5F434D34465C706F72742E6300000039
:103F20004572726F723A25732C25640D0A000000E9
:103F300010B5084C606828B94FF4E07206A111A0D2
:103F4000FCF7F8F96068401E606001D180F31188C9
:103F500010BD0000000100202E2E5C4672656552E7
:103F6000544F535C706F727461626C655C5256445E
:103F7000535C41524D5F434D34465C706F72742EFA
:103F8000630000004572726F723A25732C25640D30
:103F90000A00000070B500282AD0164DA0F10804D0
:103FA0006068E968084205D14FF4A07212A11CA014
:103FB000FCF7C0F9206828B140F241120EA118A008
:103FC000FCF7B8F96068E968084211D02268002A55
:103FD0000ED18843606000F05FFA60686968084449
:103FE00068602046FFF726FCBDE8704000F05EBF29
:103FF00070BD00000C0100202E2E5C4672656552DB
:10400000544F535C706F727461626C655C4D656D8A
:104010004D616E675C686561705F342E63000000FF
:104020004572726F723A25732C25640D0A000000E8
:1040300006484FF47A710068B0FBF1F14FF0E020D0
:10404000491E4161072101617047000060000020A6
:1040500010B5FCF749F9104C10280CD300F1E02002
:1040600090F8F0032178884205D24FF440720BA1FA
:1040700015A0FCF75FF918480068A16800F4E0603B
:10408000884207D9BDE810404FF4447203A10EA046
:10409000FCF750B910BD0000000100202E2E5C4638
:1040A00072656552544F535C706F727461626C65D7
:1040B0005C525644535C41524D5F434D34465C70F4
:1040C0006F72742E630000004572726F723A25732E
:1040D0002C25640D0A0000000CED00E010B5074B24
:1040E000002253F832401CB1521C082AF9D310BDEB
:1040F00043F8321003EBC201486010BDC0D7002066
:1041000070B515460E460446FFF7D6FE94F94410E6
:104110000020491C01D184F8440094F94510491C41
:1041200001D184F84500FFF703FFA06B28B92A46A8
:10413000314604F1240000F0D1F82046BDE870407B
:10414000FFF78EBD10B5040012D00E49096B29B1DE
:1041500040F2CF420CA111A0FCF7ECF800F09CF962
:1041600000212046FFF786F900F0A0FE002807D1C5
:104170000E494FF080500860BFF34F8FBFF36F8F31
:1041800010BD0000B00000202E2E5C467265655206
:10419000544F535C7461736B732E63004572726F7E
:1041A000723A25732C25640D0A00000004ED00E02E
:1041B00070B50446FFF780FE234D04B92C68201D1E
:1041C000FFF736FE58B9E06A204A00EB800152F84A
:1041D000211021B901218140286988432861A06A02
:1041E00018B104F11800FFF723FE686A401C6862EA
:1041F0002868844207D1211D1548FFF751FE6868E1
:10420000401C686007E0A868401EA8602046FFF7D1
:104210006CFAFFF785FCFFF78BFE6869002812D067
:10422000286884420FD1286B28B140F2654209A169
:104230000DA0FCF77FF810494FF080500860BFF3E5
:104240004F8FBFF36F8F70BDB000002000D80020EB
:10425000BCDA00202E2E5C4672656552544F535CCA
:104260007461736B732E63004572726F723A2573BB
:104270002C25640D0A00000004ED00E00149012036
:10428000C8617047B000002070B50D46040005D12C
:1042900040F6063207A10CA0FCF74CF80E48016866
:1042A00020461831FFF7E4FD2846BDE870400121A3
:1042B000FFF7E0B82E2E5C4672656552544F535C92
:1042C0007461736B732E63004572726F723A25735B
:1042D0002C25640D0A000000B000002070B51446C3
:1042E0000E46050005D140F6313209A10DA0FCF7BC
:1042F00021F81048016828461831FFF7D1FD0CB1AC
:104300004FF0FF3621463046BDE87040FFF7B2B8A7
:104310002E2E5C4672656552544F535C7461736B0C
:10432000732E63004572726F723A25732C25640DEB
:104330000A000000B000002070B5040039D01D4D07
:10434000E06A2968C96A884233D2A069002804DB80
:104350002868C06AC0F12000A061E06A164E00EB38
:104360008000616906EB800081421FD1201DFFF7AC
:104370005FFD012150B9E06A00EB800256F822206F
:1043800022B92A6901FA00F082432A612868C06ACA
:10439000E0622A6981401143296100EB800006EB4D
:1043A0008000211DBDE87040FFF77ABD2868C06A13
:1043B000E06270BDB000002000D8002010B50400FD
:1043C00005D140F6C13205A109A0FBF7B3FF0C48A7
:1043D000016A2160C068606010BD00002E2E5C463E
:1043E00072656552544F535C7461736B732E630036
:1043F0004572726F723A25732C25640D0A00000015
:10440000B00000201CB517480024CDE90040234629
:10441000822215A1164800F0EFFB012803D100F01D
:10442000F1FD01280AD0401C1BD102B040F2847279
:10443000BDE810400FA114A0FBF77CBF502080F313
:104440001188BFF34F8FBFF36F8F06484FF0FF31D6
:104450002C38816201214161C460BDE81C4000F03C
:1044600061B81CBDDC00002049444C450000000040
:104470004D3700082E2E5C4672656552544F535CD2
:104480007461736B732E63004572726F723A257399
:104490002C25640D0A0000000248016B491C0163D1
:1044A00070470000B000002070B5134D286B10B1AC
:1044B0000120E86170BD0020E86128690F4EB0FA64
:1044C00080F0C0F11F0000EB800456F8240028B9EA
:1044D00040F6F6220AA10FA0FBF72CFF06EB8400A2
:1044E00000F10802416849684160914201D1496880
:1044F0004160C868286070BDB000002000D800206E
:104500002E2E5C4672656552544F535C7461736B1A
:10451000732E63004572726F723A25732C25640DF9
:104520000A0000001CB5304C20683049884205D193
:1045300040F259122EA139A0FBF7FCFE20682B494E
:10454000491E884205D14FF4AD7229A133A0FBF773
:10455000F1FE364C20780190FF20207020788DF8F5
:1045600000009DF800009DF8001000F0F000884267
:1045700005D040F273121EA128A0FBF7DBFE9DF8C8
:1045800000002B4A00F0500010700720906007E0F8
:104590009068401E90609DF8000040008DF800007B
:1045A0009DF800000006F3D4107A000200F4E060E9
:1045B0009060019820700C482030016841F470012F
:1045C0000160016841F070410160FFF731FD00209A
:1045D0005060FBF751FE1748016841F0404101600F
:1045E000FBF73AFE00201CBD00ED00E071C20F4158
:1045F0002E2E5C4672656552544F535C706F727418
:1046000061626C655C525644535C41524D5F434D50
:1046100034465C706F72742E630000004572726FD6
:10462000723A25732C25640D0A00000000E400E0B6
:104630000001002034EF00E010B5502080F3118815
:10464000BFF34F8FBFF36F8F00F016FB18B1044913
:104650004FF080500860002080F3118810BD0000EA
:1046600004ED00E02DE9F04117460E46050005D1A6
:104670004FF4C47210A115A0FBF75CFEBEB105FBA0
:1046800006F05430FFF728FB04000ED004F154006C
:104690007EB12060C4E90F562046012100F0E0F809
:1046A00084F8507000212046A164BDE8F08100200C
:1046B000E7E72460EEE700002E2E5C467265655247
:1046C000544F535C71756575652E63004572726F4A
:1046D000723A25732C25640D0A0000002DE9FF4F66
:1046E00083B09B468A4604004FF0000605D140F295
:1046F000DC4251A155A0FBF71DFEBAF1000F07D116
:10470000206C28B140F2DD424BA150A0FBF712FE15
:1047100000F09EFA38B9059828B14FF49C6246A182
:104720004AA0FBF707FE4FF000094FF08057DFF873
:104730002C81FFF7C1FBA56B45B351462046E668C7
:10474000FEF78AFFBBF1000F13D0E660606A50B13C
:1047500004F1240000F05EFB28B1C8F80070BFF33C
:104760004F8FBFF36F8FFFF7E3FB012007B0BDE86A
:10477000F08F6D1EA563206810B9FFF737FB6060EE
:1047800020690028EFD004F11000E3E7059808B194
:104790001EB106E0FFF7CCFB27E06846FFF70EFEF0
:1047A0000126FFF7C5FBFFF777FEFFF785FB94F9BE
:1047B0004400401C01D184F8449094F94500401C09
:1047C00001D184F84590FFF7B3FB05A9684600F0D6
:1047D000CFF9002820460AD0FFF742FA00F066FB26
:1047E0002046FFF769F80028A3D00020BEE7FFF7B6
:1047F00063F8D8B1206830B9FFF75EFB6068FFF757
:104800009BFDFFF795FB04F124000599FFF73CFDA4
:104810002046FFF725FA00F049FB002889D1C8F8A7
:104820000070BFF34F8FBFF36F8F82E72046FFF713
:1048300017FA00F03BFB7CE72E2E5C467265655252
:10484000544F535C71756575652E63004572726FC8
:10485000723A25732C25640D0A00000004ED00E077
:1048600070B50D46040005D140F21B121CA121A019
:10487000FBF760FDFFF720FBD4E90F20216802FB66
:10488000001161600021A1632168A1600A46D4E99A
:104890000F01401E00FB0121E16021464FF0FF3077
:1048A00001F8440F487004F110004DB1FFF7D2FA3F
:1048B00004F12400FFF7CEFAFFF73AFB012070BDA8
:1048C00021690029F8D000F0A5FA0028F4D00D499C
:1048D0004FF080500860BFF34F8FBFF36F8FEBE74F
:1048E0002E2E5C4672656552544F535C717565752A
:1048F000652E63004572726F723A25732C25640D24
:104900000A00000004ED00E02DE9FF4F83B0994656
:104910008B4604004FF0000605D140F2D92252A187
:1049200056A0FBF707FDBBF1000F07D1206C28B1A3
:1049300040F2DA224CA151A0FBF7FCFCB9F1020FC6
:1049400008D1E06B012805D040F2DB2246A14BA044
:10495000FBF7F0FC00F07CF938B9059828B140F27B
:10496000DE2241A145A0FBF7E5FC4FF0000A4FF025
:104970008057DFF81881FFF79FFAA06BE16B884240
:1049800006D3B9F1020F03D0059800B316B325E0A2
:104990004A4659462046FEF772FEA16C21B14946AF
:1049A0002046FEF797FF05E0616A19B104F1240083
:1049B00000F030FA28B1C8F80070BFF34F8FBFF392
:1049C0006F8FFFF7B5FA012007B0BDE8F08FFFF752
:1049D000AFFA21E06846FFF7F1FC0126FFF7A8FADD
:1049E000FFF75AFDFFF768FA94F94400401C01D123
:1049F00084F844A094F94500401C01D184F845A0F6
:104A0000FFF796FA05A9684600F0B2F830B12046E3
:104A1000FFF726F900F04AFA0020D5E7FFF74CFA35
:104A2000A06BE16B884201D1012500E00025FFF772
:104A30007FFA95B104F110000599FFF725FC204697
:104A4000FFF70EF900F032FA002894D1C8F8007090
:104A5000BFF34F8FBFF36F8F8DE72046FFF700F94D
:104A600000F024FA87E700002E2E5C46726565523E
:104A7000544F535C71756575652E63004572726F96
:104A8000723A25732C25640D0A00000004ED00E045
:104A90002DE9F047984615468946040005D140F2B5
:104AA0009F322AA12EA0FBF745FCB9F1000F07D1D8
:104AB000206C28B14FF4687224A129A0FBF73AFCBE
:104AC000B8F1020F08D1E06B012805D040F2A13205
:104AD0001EA123A0FBF72EFCFFF7BAFA5020EFF33C
:104AE000118780F31188BFF34F8FBFF36F8FA06BD7
:104AF000E16B884207D3B8F1020F04D0002087F39E
:104B00001188BDE8F08794F9456042464946204641
:104B1000FEF7B5FD701C04D0761C84F845600120BA
:104B2000EDE7A06C012620B141462046FEF7D2FEFB
:104B300006E0606A0028F2D004F1240000F06AF96F
:104B40000028ECD0002DEAD02E60E8E72E2E5C463F
:104B500072656552544F535C71756575652E6300BF
:104B60004572726F723A25732C25640D0A0000009D
:104B700070B50D46040005D140F6CB3214A119A042
:104B8000FBF7D8FB2DB940F6CC3211A115A0FBF7ED
:104B9000D1FBFFF791F9174AD06829684B1C0FD059
:104BA0002368126A934202D0626882420AD962681C
:104BB000801A884206D2081A28602046FFF7FEFBBA
:104BC000002400E00124FFF7B3F9204670BD000087
:104BD0002E2E5C4672656552544F535C7461736B44
:104BE000732E63004572726F723A25732C25640D23
:104BF0000A000000B00000202DE9FF5F8346DDE9D8
:104C00000E87994616468A469000FFF765F805001C
:104C10001AD05C20FFF760F8040012D02563002151
:104C2000CDE90241CDE900874B4632465146584610
:104C3000FEF7A0FD2046FEF755FC012004B0BDE8BC
:104C4000F09F2846FFF7A6F94FF0FF30F6E7000087
:104C50000548416919B1006B18B100207047012067
:104C60007047022070470000B00000200148C06873
:104C700070470000B00000202DE9F0412D4F0026C4
:104C8000386B40B1B869401CB861F86900B10126C1
:104C90003046BDE8F081FD686D1CFD6011D1786B78
:104CA000006828B140F6D91223A128A0FBF742FBE7
:104CB000786BB96B7963B863386A401C3862FEF769
:104CC0002FFFB86ADFF89480854209D3786B0068BB
:104CD00080B1786BC068C468606885420DD2B862E4
:104CE0003868C06A00EB800158F821000128CCD94F
:104CF0000126CAE74FF0FF30F1E7201DFFF798F8D3
:104D0000A06A18B104F11800FFF792F8E06A0121D7
:104D10003A6981401143396100EB800108EB810061
:104D2000211DFFF7BDF8E06A3968C96A8842CDD312
:104D30000126CBE7B00000202E2E5C46726565523E
:104D4000544F535C7461736B732E63004572726FC2
:104D5000723A25732C25640D0A00000000D800204B
:104D600070B504004FF000063CD01F4D2868844207
:104D700005D040F6C7621DA121A0FBF7DBFA206D2C
:104D800028B940F6C96219A11DA0FBF7D3FA206D1E
:104D9000401E2065E26CE16A914223D010BB201DC9
:104DA000FFF746F81A49012250B9E06A00EB800388
:104DB00051F8233023B92B6902FA00F083432B61A9
:104DC000E06CE062C0F12000A061E06A2B698240E3
:104DD0001A432A6100EB800001EB8000211DFFF7E0
:104DE0005FF80126304670BDB00000202E2E5C46D4
:104DF00072656552544F535C7461736B732E63001C
:104E00004572726F723A25732C25640D0A000000FA
:104E100000D800202DE9F041C068C4682CB940F6E4
:104E2000613216A11AA0FBF785FA04F118000746B3
:104E3000FEF7FEFF1A4D286B012660B1394619486E
:104E4000FFF72EF8E06A2968C96A884213D9012061
:104E5000EE61BDE8F081201DFEF7EAFFE06A2A69F5
:104E600006FA00F1114329610F4900EB800001EBC4
:104E70008000211DE4E70020EBE700002E2E5C46B9
:104E800072656552544F535C7461736B732E63008B
:104E90004572726F723A25732C25640D0A0000006A
:104EA000B0000020A8DA002000D800202DE9F0474B
:104EB0002B4D00242746286B28B94FF4FD6229A109
:104EC0002DA0FBF737FAFEF7F7FF286B401E28638B
:104ED000286BE8BBA8682C490126C8B3A1F52A793C
:104EE0008846D8F80010E9B1D8F80C00C46804F17D
:104EF0001800FEF79DFF201DFEF79AFFE06A2A6961
:104F000006FA00F11143296100EB800109EB8100F1
:104F1000211DFEF7C5FFE06A2968C96A8842E0D30F
:104F2000EE61DEE70CB1FEF7FBFDAC693CB1FFF7CB
:104F3000A3FE00B1EE61641EF9D10020A861E8690A
:104F400030B11249012738070860BFF34F8F00E0E6
:104F500001E0BFF36F8FFEF7EBFF3846BDE8F08747
:104F6000B00000202E2E5C4672656552544F535C93
:104F70007461736B732E63004572726F723A25739E
:104F80002C25640D0A000000A8DA002004ED00E0E2
:104F90002DE9F0470746994616460D462C20DDF8C8
:104FA00020A0FEF799FE040014D0B8464F46D14623
:104FB0002DB94FF4C67209A10EA0FBF7BBF9FEF79D
:104FC000F9FA04F11801C4F8008081E8E002201D1C
:104FD000FEF74BFF2046BDE8F08700002E2E5C4612
:104FE00072656552544F535C74696D6572732E63BC
:104FF000000000004572726F723A25732C25640D13
:105000000A0000001CB50024FEF7D4FA0C48006822
:1050100068B10B491F20091DCDE9000100234FF4A1
:10502000827208A10948FFF7E7FD040005D140F2AC
:10503000331207A10CA0FBF77DF920461CBD000030
:10504000EC000020546D722053766300393C000858
:105050002E2E5C4672656552544F535C74696D65C3
:1050600072732E63000000004572726F723A2573EE
:105070002C25640D0A0000002DE9FF47DDF830A063
:10508000994690460D4606004FF0000705D14FF4B3
:10509000D37212A117A0FBF74DF91A4C206880B10A
:1050A000CDE900580296062D11DAFFF7D1FD02284E
:1050B0004FF0000309D0002269462068FFF724FC66
:1050C000074604B03846BDE8F0875246F4E70023AF
:1050D0004A466946FFF7DCFCF2E700002E2E5C46EC
:1050E00072656552544F535C74696D6572732E63BB
:1050F000000000004572726F723A25732C25640D12
:105100000A000000EC0000204FF04070E1EE100AB1
:105110007047005EBCE2613FDD83C29C7E20A3FD40
:105120001F419DC3217FFCA2401E5F01E3BD3E6085
:1051300082DC237D9FC1421CFEA0E1BF5D0380DEB7
:105140003C62BEE0025CDF81633D7C22C09E1D4369
:10515000A1FF4618FAA427799BC584DA3866E5BB17
:105160005907DB856739BAE406581947A5FB782645
:10517000C49A653BD987045AB8E6A7F91B45C69877
:105180007A24F8A6441A99C7257B3A6486D85B0529
:10519000E7B98CD2306EEDB3510F4E10F2AC2F71D7
:1051A00093CD114FADF3702ECC92D38D6F31B2EC05
:1051B0000E50AFF1134DCE90722C6D33D18F0C5237
:1051C000B0EE326C8ED0530DEFB1F0AE4C1291CFE9
:1051D0002D73CA947628ABF517490856B4EA693797
:1051E000D58B5709EBB536688AD495CB2977F4AAC5
:1051F0004816E9B7550B88D6346A2B7597C94A14F7
:10520000F6A8742AC896154BA9F7B6E80A54D789A8
:105210006B350000400600000078000080070000A9
:1052200020000000200000002000000000C8000056
:1052300000000F0000F0000058520008000000209D
:1052400024010000C40100087C5300082401002050
:105250004C300100E00100080000000000000000E8
:10526000000000000000000000000000000000003E
:10527000000000000000000000000000000000002E
:10528000000000000000000000000000000000001E
:10529000000000000000000000000000000000000E
:1052A00000000000000000000000000000000000FE
:1052B0000000000000000000007A030A0000000067
:1052C00000000000010203040607080900000000B6
:1052D0000000000031330008F933000840030020CB
:1052E000000000680000001040CB002000000F68A4
:1052F00000F00010000000000000000001020304A4
:105300000102030406070809000000000000000075
:10531000000000000000000000000000000000008D
:10532000000000000000000000000000000000007D
:10533000000000000000000000000000000000006D
:10534000000000000000000000000000000000005D
:10535000000000000000000000000000AAAAAAAAA5
:10536000000000000000000000000000000000003D
:0C53700000000000000000000000000031
:040000050800018965
:00000001FF
