:020000040800F2
:10000000205C0020F1020008150900080909000819
:1000100013090008BB070008350F000800000000A6
:10002000000000000000000000000000390200088D
:100030006D080008000000008D020008250D000872
:100040000B0300080B0300080B0300080B03000858
:100050000B0300080B0300080B0300080B03000848
:100060000B0300080B0300080B0300080B03000838
:100070000B0300080B0300080B0300080B03000828
:100080000B0300080B0300080B0300080B03000818
:100090000B0300080B0300080B0300080B03000808
:1000A0000B0300080B0300080B0300080B030008F8
:1000B0000B0300080B0300080B0300080B030008E8
:1000C0000B0300080B0300080B0300080B030008D8
:1000D0000B030008990D00080B0300080B03000830
:1000E0000B0300080B0300080B0300080B030008B8
:1000F0000B0300080B0300080B0300080B030008A8
:100100000B0300080B0300080B0300080B03000897
:100110000B0300080B0300080B0300080B03000887
:10012000C10700080B0300080B0300080B030008BD
:100130000B0300080B0300080B0300080B03000867
:100140000B0300080B0300080B0300080B03000857
:100150000B0300080B0300080B0300080B03000847
:100160000B0300080B0300080B0300080B03000837
:100170000B0300080B0300080B0300080B03000827
:100180000B0300080B03000800F002F800F044F82D
:100190000AA090E8000C82448344AAF10107DA45E2
:1001A00001D100F039F8AFF2090EBAE80F0013F0F0
:1001B000010F18BFFB1A43F0010318473C2B000046
:1001C0005C2B0000103A24BF78C878C1FAD85207D7
:1001D00024BF30C830C144BF04680C6070470000C1
:1001E0000023002400250026103A28BF78C1FBD840
:1001F000520728BF30C148BF0B607047642900F028
:100200000381732900F01082002070471FB502F0AF
:100210006DFD1FBD10B510BD00F09BFA1146FFF734
:10022000F5FF00F0D1FE00F0B9FA03B4FFF7F2FFDA
:1002300003BC00F080FE00002A4B19680868B0E893
:10024000F04F80F30988BFF36F8F4FF0000080F309
:10025000118870470000000006480068006880F3BD
:10026000088862B661B6BFF34F8FBFF36F8F00DFB0
:1002700000BF00BF08ED00E0DFF80C00016841F4AA
:1002800070010160704700BF88ED00E0EFF3098066
:10029000BFF36F8F134B1A681EF0100F08BF20EDCD
:1002A000108A20E9F04F106008B44FF0500080F33E
:1002B0001188BFF34F8FBFF36F8F01F0E7FE4FF050
:1002C000000080F3118808BC19680868B0E8F04F96
:1002D0001EF0100F08BFB0EC108A80F30988BFF33E
:1002E0006F8F704768000020EFF3058070470000B3
:1002F0000948804709480047FEE7FEE7FEE7FEE7BA
:10030000FEE7FEE7FEE7FEE7FEE7FEE704480549F5
:10031000054A064B70470000390D000889010008A6
:1003200020560020205C002020580020205800206B
:10033000704700000FB4044910B503AA029800F0FA
:1003400077F910BC5DF814FB400000202DE9F04166
:100350000E460446002020622046E168884730B3FC
:10036000252805D0D4E901219047206A401CF2E7F6
:10037000E168204600278847050018D0A5F1410014
:10038000192802D820354FF4006732462946204606
:100390002760FFF733FF40B1012804D0F61D26F097
:1003A00007060836D8E7361DD6E72846DAE7206A7A
:1003B000BDE8F08170B50C460546012A05D02878C5
:1003C000800600D5EA69002302E0012305E05B1CFA
:1003D000934202D2E05C0028F9D1A869E618C01A5D
:1003E000A861286A184428622846AFF3008004E018
:1003F000D5E9012114F8010B9047B442F8D32846FF
:10040000AFF3008070BD00002DE9F04106460024E6
:1004100010687529314616A510D0AFF3008000286A
:1004200002DA404213A507E031688A0701D512A518
:1004300002E0490704D511A5012401E0AFF30080D3
:1004400000210A2206F1240709E0B0FBF2FCB0FB10
:10045000F2F302FB1C00303078541846491C002887
:10046000F3D123462A463046BDE8F04100F059B8A2
:10047000000000002D0000002B0000002000000004
:10048000032A40F2308010F0030C00F0158011F8C0
:10049000013BBCF1020F624498BF11F801CB00F898
:1004A000013B38BF11F8013BA2F1040298BF00F8EC
:1004B00001CB38BF00F8013B11F0030300F0CA8004
:1004C000083AC0F0088051F8043B083A51F804CBD0
:1004D000A0E80810F5E7121D5CBF51F8043B40F896
:1004E000043BAFF30080D20724BF11F8013B11F8A1
:1004F00001CB48BF11F8012B24BF00F8013B00F8E5
:1005000001CB48BF00F8012B704702F0FF0343EA1C
:10051000032242EA024200F0D1B8704770477047A8
:1005200070472DE9F0470D4699469246044600F182
:1005300024080168880604D5E06921F010012160D3
:1005400000E00120A84201DD471B00E00027A1696F
:100550007A1902EB0900081AA0612078C00602D4BB
:100560002046AFF30080002608E0D4E901211AF804
:1005700006009047206A401C761C20624E45F4DB42
:100580002078C0060AD52046AFF3008006E0D4E903
:10059000012130209047206A401C2062381EA7F1BC
:1005A0000107F4DC07E0D4E9012118F805009047C1
:1005B000206A401C2062281EA5F10105F3DC2046BC
:1005C000AFF300802078000602D50220BDE8F08756
:1005D0000120FBE701694A1C02610878704700B5F9
:1005E0008FB0CDE901310021059105497944CDE96C
:1005F000031011466846FFF7A9FE0FB000BD0000CA
:10060000E5FFFFFF10B5436913B1AFF3008001E0D0
:10061000FFF7D0FE012010BD127800F124010A700E
:1006200000224A700122EDE711684FF0FF32E9E73E
:10063000074B70B50D467B44FFF7D1FF04462846B3
:1006400000F05CF810B14FF0FF3070BD204670BD77
:100650007B09000010B5203AC0F00B80B1E81850BB
:10066000203AA0E81850B1E81850A0E81850BFF49C
:10067000F5AF5FEA027C24BFB1E81850A0E818503B
:1006800044BF18C918C0BDE810405FEA827C24BF8F
:1006900051F8043B40F8043B08BF7047D20728BF1D
:1006A00031F8023B48BF11F8012B28BF20F8023B6C
:1006B00048BF00F8012B70474FF000020429C0F03A
:1006C000128010F0030C00F01F80CCF1040CBCF180
:1006D000020F18BF00F8012BA8BF20F8022BA1EBD6
:1006E0000C0100F011B85FEAC17C24BF00F8012BB7
:1006F00000F8012B48BF00F8012B7047007B00F089
:10070000800070474FF0000200B5134694469646AD
:10071000203922BFA0E80C50A0E80C50B1F1200114
:10072000BFF4F7AF090728BFA0E80C5048BF0CC0C2
:100730005DF804EB890028BF40F8042B08BF704720
:1007400048BF20F8022B11F0804F18BF00F8012B92
:100750007047754600F02CF8AE46050069465346D2
:1007600020F00700854618B020B5FFF7CFFDBDE8A3
:1007700020404FF000064FF000074FF000084FF008
:10078000000B21F00701AC46ACE8C009ACE8C00999
:10079000ACE8C009ACE8C0098D46704710B5044606
:1007A000AFF300802046BDE81040FFF73EBD0000DB
:1007B00000487047BC5500207047FEE770477047FF
:1007C00070B5084C084D2146284600F025F8002851
:1007D00007D02146284600F009F8BDE8704000F037
:1007E000C7BB70BD2080001010640240074A9042D1
:1007F00001D2074801E005481038064A8B0001EA9B
:10080000020101D5C16070478160704710640240E9
:10081000006002407D0F7D0F30B5104A00249042E9
:1008200001D20F4A01E00D4A103A0E4B194205D091
:100830001E2303EAD12503682B4002E0406900F043
:100840008003880001D5506800E01068064A104017
:10085000084201D003B10124204630BD106402409B
:10086000006002403C0F3C0F7D0F7D0F70477047CA
:10087000F0B5002201274FF0030C0B6807FA02F5D0
:100880002B40AB422CD1066853000CFA03F4A6436C
:1008900006600E79D0F800E09E4046EA0E0606603B
:1008A0000E79012E01D0022E12D18668A6438660F1
:1008B0004E79D0F808E09E4046EA0E06866046680B
:1008C000AE43466045688E799640B6B23543456082
:1008D000C568A543C560CC799C40C3681C43C4600F
:1008E000521C102AC9D3F0BD4B07DB0E9A40C90831
:1008F00010B500EB8100016A0F249C40A143016206
:10090000016A1143016210BDFEE7704770477047EE
:100910007047FEE77047000030B50F23C2780178BA
:100920000125FAB1144A126801F1E02102F4E062F3
:10093000C2F5E062C2F30722C2F10404D340427858
:10094000A24084781C401443220181F800240078DE
:1009500000F01F018D404009800000F1E020C0F848
:10096000005130BD01F01F0085404809800000F1B2
:10097000E020C0F8805130BD0CED00E00249084392
:1009800002490860704700000000FA050CED00E025
:1009900070477047044A0029116801D0014300E004
:1009A000814311607047000030380240044A00293A
:1009B000116801D0014300E08143116070470000DD
:1009C0004438024070B5204B1968204C11F00C01DE
:1009D00004D06610042903D0082903D004601BE06A
:1009E000066019E0184A121F1168C1F3805511689A
:1009F00001F03F0115B1B6FBF1F101E0B4FBF1F1FB
:100A000014681268C4F388146143C2F30142521C93
:100A10005200B1FBF2F1016019680F2202EA1111D4
:100A20000B4A545C0168E14041601C68072505EAF7
:100A30009424145D21FA04F484601B6805EA53339E
:100A4000D25CD140C16070BD083802400024F4007F
:100A500058000020704700000CB500222749009282
:100A60000192086840F4803008604FF4A0430868A1
:100A700000F4003001900098401C0090019810B9DB
:100A800000989842F3D10868800334D50120019082
:100A90001A484030026842F08052026018480268EA
:100AA00042F4404202601548083002680260026861
:100AB00042F400420260026842F4A0520260031F46
:100AC000104A1A600A6842F080720A600A6892014D
:100AD000FCD50D4940F205720A60016821F003015E
:100AE0000160016841F0020101600168C1F3810108
:100AF0000229FAD10CBD01920CBD00000038024061
:100B00000070004008544007003C02401CB500F053
:100B1000FBFF46490320CDE900010023802244A1C8
:100B2000464801F05BFE41490420091DCDE9000162
:100B30000023802242A1464801F050FE3B49052097
:100B40000831CDE900010023802242A1454801F08F
:100B500045FE364906200C31CDE9000100238022F4
:100B600041A1454801F03AFE304907201031CDE956
:100B700000010023802241A1434801F02FFE2B49B0
:100B800008201431CDE90001002380223FA1424812
:100B900001F024FE25490A201831CDE90001002387
:100BA00080223EA1414801F019FE20491120283140
:100BB000CDE90001002380223DA1414801F00EFE55
:100BC0001A490B201C31CDE90001002380223DA1F0
:100BD000404801F003FE15490D202031CDE9000108
:100BE000002380223CA1404801F0F8FD0F490E206F
:100BF0002431CDE90001002380223CA13E4801F0D0
:100C0000EDFD0A491E202C31CDE900010023802290
:100C10003AA13D4801F0E2FD0448001F006801F0E0
:100C2000B9F8BDE81C4000F0ABBF00000800002090
:100C3000506D755F5461736B0000000091090008EE
:100C400043616D6D616E645F5461736B0000000001
:100C5000BD0700084572725F48616E646C655F5441
:100C600061736B006F080008506F7765726F66667E
:100C70005F5461736B000000930900084368675F6D
:100C80005461736B00000000BF0700085465737463
:100C90005F5461736B000000950D00084865616446
:100CA0005F4374726C5F5461736B00000B09000842
:100CB0004C6966744D6F746F5F5461736B00000014
:100CC0000F0900084175746F4368617267655F546E
:100CD00061736B00B907000853656E645F4D647201
:100CE000765F5461736B0000550A00084D6472769C
:100CF0005F5461736B000000110900084C45445FAC
:100D00005461736B000000000D0900084FF0E021F2
:100D10000428086903D020F004000861704740F0FF
:100D20000400FAE710B501F085FD012803D0BDE805
:100D3000104001F073BA10BD124810B5016841F4BB
:100D4000700101601048016841F0010101600E4A24
:100D500000210832116002680C4B1A400260031D2A
:100D60000B4A1A60026822F48022026006480C30A6
:100D70000160FFF771FE03494FF0006080390860A1
:100D800010BD000088ED00E000380240FFFFF6FED5
:100D9000103000247047000070B5154C40F225510A
:100DA000204600F035F800280ED0204600F0BEF8AE
:100DB000104AC1B21088030406D444044FF0000363
:100DC00006D50A2901D0138070BD40F400400DE023
:100DD0000D2909D0C0F30D04074D401C80B22955E0
:100DE0001080C728EFD870BD40F48040108070BDDF
:100DF000001001403C000020A8010020002981894A
:100E000002D041F4005101E021F40051818170478A
:100E100070B501F01F0501260024C1F3421306FA44
:100E200005F2012B0FD0022B0FD0838A4FEA11213C
:100E30000088134206FA01F600EA060001D000B16C
:100E40000124204670BD8389F0E7038AEEE710B5E0
:100E5000C1F3421301F01F040121A140012B07D06F
:100E6000022B07D01430002A026805D00A4304E0A0
:100E70000C30F8E71030F6E78A43026010BD00003E
:100E80007FB50446008A0D46C98820F440500143CE
:100E90002182A08941F20C618843A9882A891143E3
:100EA0006A8902431143A181A08A20F44071A88974
:100EB0000843A0826846FFF785FD1A48844202D0A5
:100EC0001948844201D1039800E00298A1890904DD
:100ED00000EBC00101EB0010296801D5490000E0DA
:100EE0008900B0FBF1F06422B0FBF2F109010B09BB
:100EF0006FF018056B4300EB8300A3891D044FF0CE
:100F0000320306D503EBC000B0FBF2F000F007009F
:100F100005E003EB0010B0FBF2F000F00F00084317
:100F200020817FBD00100140001401408088C0F383
:100F300008007047FEE7704710B504460420FFF72D
:100F4000E5FE0A484FF47A71047014FB01F10122A6
:100F500042804FF0E020026942F0020202614161EA
:100F6000016941F00101016110BD0000380000205D
:100F7000F0B50E4D00210E4A0E46A5F10C070020DB
:100F800000EB400305EB8303146833F81130401C79
:100F90002344C0B213601028F2D3180927F81100B7
:100FA000491CC9B216600629E9D3F0BDE80000204B
:100FB0000000002003490A885206FCD5C2B28A808C
:100FC00070470000001001401CB54FF44070FFF75F
:100FD000D5FCA820FFF7B0FF4FF4E13000F0FAFC99
:100FE00000F092FD07490320CDE900010023802293
:100FF00005A1084801F0F2FB00F0C2FD00F0F4FF8B
:10100000FEE700000400002053746172745F5461B5
:10101000736B00000D0B00082DE9F041184E0F46D0
:101020000446F5683068001D00F02AFD38B93068C4
:1010300090F82C1001208840316981433161601C97
:1010400007D137B13168BDE8F0410E48091D00F005
:101050004FBD30682C44AC424460316805D2B06B5F
:10106000BDE8F041091D00F02BBD706B091D00F0BB
:1010700027FDB06A844200D2B462BDE8F08100006E
:1010800068000020800500202DE9F041054600F0B1
:101090003BFD2D4EB068401CB06030682B4F10B146
:1010A000706930B32BE03560B068012827D1002487
:1010B00004EB840007EB800000F0F4FC641C202C9F
:1010C000F6D3234800F0EEFC2148143000F0EAFC8F
:1010D0001F48283000F0E6FC1D483C3000F0E2FCE0
:1010E0001B48503000F0DEFC194870631430B063C8
:1010F00005E03068E96AC06A884200D83560706AE5
:101100000121401C70626864E86A326981401143C1
:10111000316100EB800007EB8000291D00F0E8FC46
:1011200000F02EFD706900280CD03068E96AC06AB2
:10113000884207D207494FF080500860BFF34F8FB5
:10114000BFF36F8FBDE8F08168000020B00200207F
:101150003005002004ED00E010B500F0D5FC0E4C89
:101160002068A0B90D4800F09DFC0C48143000F038
:1011700099FC0A48E060143020610022102105200B
:1011800001F062F8206010B105A100F0CFFDBDE8CC
:10119000104000F0F5BC0000A400002094050020E1
:1011A000546D72510000000070B5124E124D1CE0DB
:1011B00000F064FF306820B1002401F069FCA4B99C
:1011C00001E00124F9E700F09FFCF068C468201DED
:1011D00000F056FCA868401EA8606868401E686061
:1011E00000F0CEFC204600F052F868680028DFD1FD
:1011F00070BD00006C0500206800002030B4026C57
:101200000B46002A0BD0C1681144C1604468A1425A
:1012100001D30168C16030BC1846FFF731B930BC5A
:1012200070472DE9F041856B174604460026026C95
:1012300082B1C7B1E068FFF723F9E168206C091AB1
:10124000E1602268914202D26168081AE060022FD0
:1012500016D017E02068A8B9606801F073FB064655
:10126000002060600EE0A068FFF70AF9216CA0681A
:101270000844A0606168884204D32068A06001E04F
:1012800005B16D1E6D1CA5633046BDE8F08110B53B
:101290000446006B00F0A6FC2046BDE8104000F0BC
:1012A000A1BC000010484FF4A041420706D0C01D69
:1012B0000D4920F00700411AC1F5A0410B4A002357
:1012C0000144C2E900030839103A21F00701116016
:1012D0004B600B600B1AC0E9001393604FF00040A5
:1012E0005360D06070470000BC050020D40000208F
:1012F000074E4FF08054074DFFF756FF3068012826
:10130000FAD92C60BFF34F8FBFF36F8FF4E7000063
:10131000B002002004ED00E02DE9F047DDE909848A
:101320000E461746824691009946089DA522206BDD
:10133000FFF7EBF86FF00301206B01EB8701084426
:1013400020F00707780705D040F22B3219A11EA024
:10135000FEF7F0FF00202218315C82F83410315C77
:1013600011B1401C1028F6D3002684F84360202DCC
:1013700000D31F25E562C4E91356201D00F09DFB34
:1013800004F1180000F099FB2461C5F120006462AB
:10139000A061666584F858604A465146384600F0B8
:1013A00003FB2060B8F1000F01D0C8F80040BDE891
:1013B000F08700002E2E5C4672656552544F535CD8
:1013C0007461736B732E63004572726F723A25738A
:1013D0002C25640D0A00000030B5114900E01146CB
:1013E0000A688242FBD34B685C18844203D1406890
:1013F00018444860084643681C18944209D1084CB8
:10140000103C2468A24209D052681A4442600A681B
:1014100012680260814200D0086030BD0460F9E7C4
:10142000D400002070B5002441600B4D0061914252
:1014300006D8D11A8269914206D2011D286907E0B7
:101440009A4203D2994201D3012403E0011DE868C6
:1014500000F036FB204670BDA400002010B5044605
:1014600000F052FBA06B20B1002400F089FB204665
:1014700010BD0124F9E700002DE9F34100980F4663
:101480000026846C2CB940F6CE1216A11AA0FEF7E5
:1014900051FFA06BE16B884205D340F6CF1211A13A
:1014A00015A0FEF747FFA06BE16B88420CD294F9C0
:1014B00045503A4669462046FFF7B3FE0646681C8B
:1014C00005D06D1C84F845503046BDE8FC81606A4B
:1014D0000028F9D004F1240001F08EFA0028F3D09E
:1014E0000126F1E72E2E5C4672656552544F535C1F
:1014F00071756575652E63004572726F723A25735A
:101500002C25640D0A000000F8B5054614480E4667
:10151000C068C068C468201D00F0B2FAE069012804
:1015200017D1A0692B46411932462046FFF77AFFB2
:1015300078B100200346014600902A46204601F07B
:101540008DFB30B907494FF4027201F11800FEF724
:10155000F1FE616A01B02046BDE8F0400847000096
:10156000A4000020C02B000870B586B02F4E53E0B9
:101570000198002806DADDE90301029A90470198F4
:10158000002849DB039C606910B1201D00F078FA47
:1015900005A800F0A7F8054601980A283CD2DFE824
:1015A00000F00505053B273805053B270298A16992
:1015B000034601442A462046FFF734FF00282BD07B
:1015C000616A20468847E069012825D10020009003
:1015D0000298A169002342181946204601F03EFBFB
:1015E000D0B940F2213212A117A0FEF7A3FE13E0FA
:1015F0000298A06128B94FF44E720DA112A0FEF717
:1016000099FEA0692B4641191A462046FFF70AFFAA
:1016100002E0204600F0E6FA00231A4601A93068ED
:1016200000F04EFE0028A3D106B070BDA40000203B
:101630002E2E5C4672656552544F535C74696D651D
:1016400072732E63000000004572726F723A257348
:101650002C25640D0A000000F8B50D46064600F082
:101660000DFD684600F03EF80446009810B101F008
:101670000FFAF8BD1148ADB101690968D9B100256B
:10168000311B2A46006800F063FB01F001FA0028D4
:10169000EFD10B494FF080500860BFF34F8FBFF37D
:1016A0006F8FF8BDA642EBD801F0F2F92146304623
:1016B000FFF72AFFF8BD0125E2E70000A4000020A3
:1016C00004ED00E00648416B096829B1416BC96827
:1016D000C9684968816270474FF0FF31FAE700003E
:1016E0006800002070B5054601F0B2F8064E0446C9
:1016F000B068844203D200F009F8012000E0002025
:1017000028602046B46070BDA4000020F8B5184ED3
:1017100026E0C068C4680568201D00F0B1F9616A60
:1017200020468847E06901281AD1A0692844A842C8
:1017300006D924616060211DF06800F0C1F90FE056
:1017400000200346014600902A46204601F086FA12
:1017500030B9084940F2923201F11800FEF7EAFD73
:10176000F06801680029D4D13169C6E90310F8BDD9
:10177000A4000020C02B000808484068401C05D089
:1017800040F20F1206A111A0FEF7D4FD502080F305
:101790001188BFF34F8FBFF36F8FFEE7B8000020B3
:1017A0002E2E5C4672656552544F535C706F727496
:1017B00061626C655C525644535C41524D5F434DCF
:1017C00034465C706F72742E630000004572726F55
:1017D000723A25732C25640D0A000000084CE0685D
:1017E000016839B1002139B10020FFF735FFFFF75B
:1017F000BBFEF4E70121F6E7C0680068F5E70000EA
:10180000A40000202DE9F041044600F07DF994F990
:10181000455004F1240610E0A06C20B100212046C0
:10182000FFF72AFE04E0606A48B1304601F0E4F8B0
:1018300008B100F015FB6D1E6DB2002DECDC4FF011
:10184000FF3684F8456000F09BF900F05DF994F9EB
:10185000445004F1100709E0206948B1384601F00E
:10186000CBF808B100F0FCFA6D1E6DB2002DF3DC70
:1018700084F84460BDE8F04100F082B92DE9F04100
:101880000546002600F0FAFB324F386808B9FFF72A
:1018900009FDF86805424FD1002D4DD00835680785
:1018A0000BD005F00700C0F108000544680704D01C
:1018B000BF2229A132A0FEF73DFD002D3CD0786863
:1018C000854239D8234910310846046801E0214691
:1018D00004466068A84202D220680028F7D1386820
:1018E000B846844228D00E682068086060680836D0
:1018F000401B10280ED96719780704D0EC2216A1D6
:101900001FA0FEF717FD6068401B786038466560D1
:10191000FFF762FD6168D8F804004246401AC8F833
:101920000400D8F80830984200D29060D8F80C0033
:1019300001430020C4E9000101F0AAF8700705D0B6
:101940004FF4967204A10EA0FEF7F4FC3046BDE8F9
:10195000F0810000C40000202E2E5C4672656552A6
:10196000544F535C706F727461626C655C4D656D51
:101970004D616E675C686561705F342E63000000C6
:101980004572726F723A25732C25640D0A000000AF
:101990000449086818B10868026D521C026508689D
:1019A000704700006800002010B5031F4FF08074DE
:1019B0001C601B1F21F001011960191F044B0B60F3
:1019C00014390A60091F6FF0020244380A6010BD22
:1019D00079170008F0B50646012187B00846FEF7E2
:1019E000D9FF01211020FEF7E1FF234D0722092135
:1019F0002846FEF779FF07220A212846FEF774FFE2
:101A000002218DF814108DF815104FF4C0600024D9
:101A100004908DF8164001278DF8177004A9284608
:101A2000FEF726FFADF80440ADF80640ADF80840DB
:101A3000ADF80C400C20114CADF80A000096694638
:101A40002046FFF71DFA01212046FFF7D7F90122B2
:101A500040F225512046FFF7FAF925208DF81800AD
:101A600003208DF819008DF81A008DF81B7006A858
:101A7000FEF752FF07B0F0BD000002400010014029
:101A8000D0E9013201699A60D0E901235A604A68BD
:101A9000824201D182684A60002202610868401EC9
:101AA0000860704700F108014FF0FF32C0E90112F1
:101AB000C160016100210160704700210161704730
:101AC00030B50C68621C02D000F1080202E0026925
:101AD00004E01A4653681D68A542FAD953684B6062
:101AE00099608A60516008610168491C016030BDDD
:101AF00042684A6093688B6093685960916008619E
:101B00000168491C01607047502080F31188BFF3C1
:101B10004F8FBFF36F8F09494868401C4860012808
:101B20000AD10748006810F0FF0F05D040F2B91243
:101B300004A10FA0FEF7FEBB70470000B800002014
:101B400004ED00E02E2E5C4672656552544F535CE6
:101B5000706F727461626C655C525644535C4152A2
:101B60004D5F434D34465C706F72742E630000000D
:101B70004572726F723A25732C25640D0A000000BD
:101B800010B5084C606828B94FF4E07206A111A0A6
:101B9000FEF7D0FB6068401E606001D180F31188C1
:101BA00010BD0000B80000202E2E5C467265655204
:101BB000544F535C706F727461626C655C52564432
:101BC000535C41524D5F434D34465C706F72742ECE
:101BD000630000004572726F723A25732C25640D04
:101BE0000A00000070B500282AD0164DA0F10804A4
:101BF0006068E968084205D14FF4A07212A11CA0E8
:101C0000FEF798FB206828B140F241120EA118A0FF
:101C1000FEF790FB6068E968084211D02268002A4C
:101C20000ED18843606000F029FA60686968084452
:101C300068602046FFF7D0FBBDE8704000F028BF89
:101C400070BD0000C40000202E2E5C4672656552F7
:101C5000544F535C706F727461626C655C4D656D5E
:101C60004D616E675C686561705F342E63000000D3
:101C70004572726F723A25732C25640D0A000000BC
:101C800006484FF47A710068B0FBF1F14FF0E020A4
:101C9000491E416107210161704700004400002096
:101CA00010B5FEF721FB104C10280CD300F1E020FA
:101CB00090F8F0032178884205D24FF440720BA1CE
:101CC00015A0FEF737FB18480068A16800F4E06033
:101CD000884207D9BDE810404FF4447203A10EA01A
:101CE000FEF728BB10BD0000B80000202E2E5C4679
:101CF00072656552544F535C706F727461626C65AB
:101D00005C525644535C41524D5F434D34465C70C7
:101D10006F72742E630000004572726F723A257301
:101D20002C25640D0A0000000CED00E010B5074BF7
:101D3000002253F832401CB1521C082AF9D310BDBE
:101D400043F8321003EBC201486010BD700200205E
:101D500070B515460E460446FFF7D6FE94F94410BA
:101D60000020491C01D184F8440094F94510491C15
:101D700001D184F84500FFF703FFA06B28B92A467C
:101D8000314604F1240000F09BF82046BDE8704085
:101D9000FFF738BD70B50446FFF7B6FE234D04B912
:101DA0002C68201DFFF76CFE58B9E06A204A00EB52
:101DB000800152F8211021B901218140286988430E
:101DC0002861A06A18B104F11800FFF759FE686A8B
:101DD000401C68622868844207D1211D1548FFF71E
:101DE00087FE6868401C686007E0A868401EA8601D
:101DF0002046FFF74CFAFFF765FCFFF7C1FE686964
:101E0000002812D0286884420FD1286B28B140F2F4
:101E1000654209A10DA0FEF78DFA10494FF08050E0
:101E20000860BFF34F8FBFF36F8F70BD6800002055
:101E3000B00200206C0500202E2E5C4672656552B3
:101E4000544F535C7461736B732E63004572726FF1
:101E5000723A25732C25640D0A00000004ED00E0A1
:101E600001490120C86170476800002070B50D4627
:101E7000040005D140F6063207A10CA0FEF75AFA7D
:101E80000E48016820461831FFF71AFE2846BDE8C3
:101E900070400121FFF7C0B82E2E5C467265655276
:101EA000544F535C7461736B732E63004572726F91
:101EB000723A25732C25640D0A000000680000208A
:101EC00070B514460E46050005D140F6313209A121
:101ED0000DA0FEF72FFA1048016828461831FFF7C9
:101EE00007FE0CB14FF0FF3621463046BDE870408A
:101EF000FFF792B82E2E5C4672656552544F535CC4
:101F00007461736B732E63004572726F723A25733E
:101F10002C25640D0A0000006800002070B5040044
:101F200039D01D4DE06A2968C96A884233D2A06958
:101F3000002804DB2868C06AC0F12000A061E06AC4
:101F4000164E00EB8000616906EB800081421FD1D4
:101F5000201DFFF795FD012150B9E06A00EB8002DA
:101F600056F8222022B92A6901FA00F082432A6138
:101F70002868C06AE0622A6981401143296100EB48
:101F8000800006EB8000211DBDE87040FFF7B0BD6A
:101F90002868C06AE06270BD68000020B0020020BE
:101FA00010B5040005D140F6C13205A109A0FEF725
:101FB000C1F90C48016A2160C068606010BD000072
:101FC0002E2E5C4672656552544F535C7461736B80
:101FD000732E63004572726F723A25732C25640D5F
:101FE0000A000000680000201CB517480024CDE955
:101FF00000402346822215A1164800F0EFFB01287D
:1020000003D100F0F1FD01280AD0401C1BD102B021
:1020100040F28472BDE810400FA114A0FEF78AB907
:10202000502080F31188BFF34F8FBFF36F8F0648A6
:102030004FF0FF312C38816201214161C460BDE85D
:102040001C4000F061B81CBD9400002049444C4580
:1020500000000000F11200082E2E5C4672656552E9
:10206000544F535C7461736B732E63004572726FCF
:10207000723A25732C25640D0A0000000248016B9A
:10208000491C0163704700006800002070B5134DC3
:10209000286B10B10120E86170BD0020E86128695B
:1020A0000F4EB0FA80F0C0F11F0000EB800456F82C
:1020B000240028B940F6F6220AA10FA0FEF73AF94B
:1020C00006EB840000F108024168496841609142D2
:1020D00001D149684160C868286070BD680000206F
:1020E000B00200202E2E5C4672656552544F535C40
:1020F0007461736B732E63004572726F723A25734D
:102100002C25640D0A0000001CB5304C20683049B5
:10211000884205D140F259122EA139A0FEF70AF9E2
:1021200020682B49491E884205D14FF4AD7229A180
:1021300033A0FEF7FFF8364C20780190FF20207086
:1021400020788DF800009DF800009DF8001000F048
:10215000F000884205D040F273121EA128A0FEF7BD
:10216000E9F89DF800002B4A00F05000107007209D
:10217000906007E09068401E90609DF8000040006D
:102180008DF800009DF800000006F3D4107A0002DC
:1021900000F4E0609060019820700C4820300168E5
:1021A00041F470010160016841F070410160FFF786
:1021B00067FD00205060FEF75FF81748016841F0A6
:1021C00040410160FEF748F800201CBD00ED00E032
:1021D00071C20F412E2E5C4672656552544F535C9E
:1021E000706F727461626C655C525644535C41520C
:1021F0004D5F434D34465C706F72742E6300000077
:102200004572726F723A25732C25640D0A00000026
:1022100000E400E0B800002034EF00E010B55020EA
:1022200080F31188BFF34F8FBFF36F8F00F016FB61
:1022300018B104494FF080500860002080F31188E5
:1022400010BD000004ED00E02DE9F04117460E46F8
:10225000050005D14FF4C47210A115A0FEF76AF86D
:10226000BEB105FB06F05430FFF708FB04000ED0AA
:1022700004F154007EB12060C4E90F5620460121CC
:1022800000F0E0F884F8507000212046A164BDE819
:10229000F0810020E7E72460EEE700002E2E5C4688
:1022A00072656552544F535C71756575652E630098
:1022B0004572726F723A25732C25640D0A00000076
:1022C0002DE9FF4F83B09B468A4604004FF000067D
:1022D00005D140F2DC4251A155A0FEF72BF8BAF12E
:1022E000000F07D1206C28B140F2DD424BA150A075
:1022F000FEF720F800F09EFA38B9059828B14FF49F
:102300009C6246A14AA0FEF715F84FF000094FF075
:102310008057DFF82C81FFF7F7FBA56B45B35146DB
:102320002046E668FEF76AFFBBF1000F13D0E660B7
:10233000606A50B104F1240000F05EFB28B1C8F8D7
:102340000070BFF34F8FBFF36F8FFFF719FC0120B1
:1023500007B0BDE8F08F6D1EA563206810B9FFF7C8
:1023600017FB606020690028EFD004F11000E3E75C
:10237000059808B11EB106E0FFF702FC27E06846A9
:10238000FFF70EFE0126FFF7FBFBFFF777FEFFF7D7
:10239000BBFB94F94400401C01D184F8449094F9AB
:1023A0004500401C01D184F84590FFF7E9FB05A9E1
:1023B000684600F0CFF9002820460AD0FFF722FA3D
:1023C00000F066FB2046FFF749F80028A3D0002064
:1023D000BEE7FFF743F8D8B1206830B9FFF794FBA8
:1023E0006068FFF79BFDFFF7CBFB04F12400059924
:1023F000FFF73CFD2046FFF705FA00F049FB0028F7
:1024000089D1C8F80070BFF34F8FBFF36F8F82E799
:102410002046FFF7F7F900F03BFB7CE72E2E5C46E9
:1024200072656552544F535C71756575652E630016
:102430004572726F723A25732C25640D0A000000F4
:1024400004ED00E070B50D46040005D140F21B120A
:102450001CA121A0FDF76EFFFFF756FBD4E90F206A
:10246000216802FB001161600021A1632168A16065
:102470000A46D4E90F01401E00FB0121E16021461C
:102480004FF0FF3001F8440F487004F110004DB1D7
:10249000FFF708FB04F12400FFF704FBFFF770FBD4
:1024A000012070BD21690029F8D000F0A5FA0028AC
:1024B000F4D00D494FF080500860BFF34F8FBFF349
:1024C0006F8FEBE72E2E5C4672656552544F535C5E
:1024D00071756575652E63004572726F723A25736A
:1024E0002C25640D0A00000004ED00E02DE9FF4FEB
:1024F00083B099468B4604004FF0000605D140F2A8
:10250000D92252A156A0FDF715FFBBF1000F07D14C
:10251000206C28B140F2DA224CA151A0FDF70AFF4D
:10252000B9F1020F08D1E06B012805D040F2DB229F
:1025300046A14BA0FDF7FEFE00F07CF938B90598E6
:1025400028B140F2DE2241A145A0FDF7F3FE4FF095
:10255000000A4FF08057DFF81881FFF7D5FAA06B1B
:10256000E16B884206D3B9F1020F03D0059800B39E
:1025700016B325E04A4659462046FEF752FEA16CA6
:1025800021B149462046FEF777FF05E0616A19B19F
:1025900004F1240000F030FA28B1C8F80070BFF34D
:1025A0004F8FBFF36F8FFFF7EBFA012007B0BDE845
:1025B000F08FFFF7E5FA21E06846FFF7F1FC01260E
:1025C000FFF7DEFAFFF75AFDFFF79EFA94F9440091
:1025D000401C01D184F844A094F94500401C01D16D
:1025E00084F845A0FFF7CCFA05A9684600F0B2F8D8
:1025F00030B12046FFF706F900F04AFA0020D5E78F
:10260000FFF782FAA06BE16B884201D1012500E05F
:102610000025FFF7B5FA95B104F110000599FFF711
:1026200025FC2046FFF7EEF800F032FA002894D19E
:10263000C8F80070BFF34F8FBFF36F8F8DE7204650
:10264000FFF7E0F800F024FA87E700002E2E5C4642
:1026500072656552544F535C71756575652E6300E4
:102660004572726F723A25732C25640D0A000000C2
:1026700004ED00E02DE9F047984615468946040030
:1026800005D140F29F322AA12EA0FDF753FEB9F1E9
:10269000000F07D1206C28B14FF4687224A129A043
:1026A000FDF748FEB8F1020F08D1E06B012805D014
:1026B00040F2A1321EA123A0FDF73CFEFFF7F0FA85
:1026C0005020EFF3118780F31188BFF34F8FBFF3D2
:1026D0006F8FA06BE16B884207D3B8F1020F04D073
:1026E000002087F31188BDE8F08794F945604246E1
:1026F00049462046FEF795FD701C04D0761C84F8F0
:1027000045600120EDE7A06C012620B1414620463E
:10271000FEF7B2FE06E0606A0028F2D004F1240061
:1027200000F06AF90028ECD0002DEAD02E60E8E72E
:102730002E2E5C4672656552544F535C71756575FB
:10274000652E63004572726F723A25732C25640DF5
:102750000A00000070B50D46040005D140F6CB32EA
:1027600014A119A0FDF7E6FD2DB940F6CC3211A158
:1027700015A0FDF7DFFDFFF7C7F9174AD0682968F4
:102780004B1C0FD02368126A934202D062688242C7
:102790000AD96268801A884206D2081A2860204640
:1027A000FFF7FEFB002400E00124FFF7E9F92046D3
:1027B00070BD00002E2E5C4672656552544F535C0E
:1027C0007461736B732E63004572726F723A257376
:1027D0002C25640D0A000000680000202DE9FF5F31
:1027E0008346DDE90E87994616468A469000FFF734
:1027F00045F805001AD05C20FFF740F8040012D01D
:1028000025630021CDE90241CDE900874B463246E0
:1028100051465846FEF780FD2046FEF735FC012064
:1028200004B0BDE8F09F2846FFF7DCF94FF0FF3019
:10283000F6E700000548416919B1006B18B10020A6
:102840007047012070470220704700006800002098
:102850000148C06870470000680000202DE9F04181
:102860002D4F0026386B40B1B869401CB861F8693B
:1028700000B101263046BDE8F081FD686D1CFD60A9
:1028800011D1786B006828B140F6D91223A128A095
:10289000FDF750FD786BB96B7963B863386A401CFB
:1028A0003862FEF70FFFB86ADFF89480854209D3DB
:1028B000786B006880B1786BC068C46860688542D6
:1028C0000DD2B8623868C06A00EB800158F8210068
:1028D0000128CCD90126CAE74FF0FF30F1E7201DCF
:1028E000FFF7CEF8A06A18B104F11800FFF7C8F896
:1028F000E06A01213A6981401143396100EB8001AE
:1029000008EB8100211DFFF7F3F8E06A3968C96A16
:102910008842CDD30126CBE7680000202E2E5C46EE
:1029200072656552544F535C7461736B732E630010
:102930004572726F723A25732C25640D0A000000EF
:10294000B002002070B504004FF000063CD01F4DCF
:102950002868844205D040F6C7621DA121A0FDF77A
:10296000E9FC206D28B940F6C96219A11DA0FDF748
:10297000E1FC206D401E2065E26CE16A914223D0AB
:1029800010BB201DFFF77CF81A49012250B9E06AFC
:1029900000EB800351F8233023B92B6902FA00F0D1
:1029A00083432B61E06CE062C0F12000A061E06A2B
:1029B0002B6982401A432A6100EB800001EB800002
:1029C000211DFFF795F80126304670BD68000020F4
:1029D0002E2E5C4672656552544F535C7461736B66
:1029E000732E63004572726F723A25732C25640D45
:1029F0000A000000B00200202DE9F041C068C46860
:102A00002CB940F6613216A11AA0FDF793FC04F12F
:102A100018000746FFF734F81A4D286B012660B1FD
:102A200039461948FFF764F8E06A2968C96A88429C
:102A300013D90120EE61BDE8F081201DFFF720F8D9
:102A4000E06A2A6906FA00F1114329610F4900EB97
:102A5000800001EB8000211DE4E70020EBE700008F
:102A60002E2E5C4672656552544F535C7461736BD5
:102A7000732E63004572726F723A25732C25640DB4
:102A80000A0000006800002058050020B002002065
:102A90002DE9F0472B4D00242746286B28B94FF429
:102AA000FD6229A12DA0FDF745FCFFF72DF8286B4D
:102AB000401E2863286BE8BBA8682C490126C8B3D0
:102AC000A1F52A798846D8F80010E9B1D8F80C00A9
:102AD000C46804F11800FEF7D3FF201DFEF7D0FFF5
:102AE000E06A2A6906FA00F11143296100EB8001CE
:102AF00009EB8100211DFEF7FBFFE06A2968C96A26
:102B00008842E0D3EE61DEE70CB1FEF7DBFDAC6995
:102B10003CB1FFF7A3FE00B1EE61641EF9D10020C5
:102B2000A861E86930B11249012738070860BFF38E
:102B30004F8F00E001E0BFF36F8FFFF721F83846B9
:102B4000BDE8F087680000202E2E5C467265655255
:102B5000544F535C7461736B732E63004572726FD4
:102B6000723A25732C25640D0A00000058050020D8
:102B700004ED00E02DE9F0470746994616460D465C
:102B80002C20DDF820A0FEF779FE040014D0B84612
:102B90004F46D1462DB94FF4C67209A10EA0FDF7DC
:102BA000C9FBFEF7D9FA04F11801C4F8008081E8E6
:102BB000E002201DFEF781FF2046BDE8F0870000FF
:102BC0002E2E5C4672656552544F535C74696D6578
:102BD00072732E63000000004572726F723A2573A3
:102BE0002C25640D0A0000001CB50024FEF7B4FA81
:102BF0000C48006868B10B491F20091DCDE9000190
:102C000000234FF4827208A10948FFF7E7FD040092
:102C100005D140F2331207A10CA0FDF78BFB204633
:102C20001CBD0000A4000020546D72205376630088
:102C3000DD1700082E2E5C4672656552544F535CBA
:102C400074696D6572732E63000000004572726FC7
:102C5000723A25732C25640D0A0000002DE9FF4708
:102C6000DDF830A0994690460D4606004FF000076B
:102C700005D14FF4D37212A117A0FDF75BFB1A4CDC
:102C8000206880B1CDE900580296062D11DAFFF7D1
:102C9000D1FD02284FF0000309D0002269462068C8
:102CA000FFF724FC074604B03846BDE8F0875246DB
:102CB000F4E700234A466946FFF7DCFCF2E7000030
:102CC0002E2E5C4672656552544F535C74696D6577
:102CD00072732E63000000004572726F723A2573A2
:102CE0002C25640D0A000000A40000204FF0407065
:102CF000E1EE100A70470000182D000800000020C7
:102D0000DC000000C4010008F42D0008DC000020F5
:102D1000445B0000E001000800000000000000002B
:102D200000000000000000000000000000000000A3
:102D30000000000000000000000000000000000093
:102D40000000000000000000000000000000000083
:102D5000000000000000000000000000007A030AEC
:102D6000000000000000000001020304060708093B
:102D70000000000001020304010203040607080921
:102D80000000000000000000000000000000000043
:102D90000000000000000000000000000000000033
:102DA0000000000000000000000000000000000023
:102DB0000000000000000000000000000000000013
:102DC0000000000000000000000000000000000003
:102DD00000000000AAAAAAAA00000000000000004B
:102DE00000000000000000000000000000000000E3
:042DF00000000000DF
:040000050800018965
:00000001FF
