:020000040800F2
:10000000503901203103000801200008A51500081F
:10001000451D0008790C000841350008000000006B
:10002000000000000000000000000000790200084D
:100030009B0E000800000000CD020008B529000852
:100040004B0300084B0300084B0300084B03000858
:100050004B0300084B0300089D0F0008E110000847
:10006000011200084B030008191200084B03000896
:100070004B0300084B0300084B0300084B03000828
:100080004B0300084B0300084B0300084B03000818
:100090004B0300084B0300084B0300083112000813
:1000A0004B0300083D2B00084B0300084B030008DE
:1000B000652B00084B0300084B0300084B030008A6
:1000C0004B0300084B0300084B0300084B030008D8
:1000D0004B030008413000084B0300082932000898
:1000E000C51000084B0300084B0300084B03000831
:1000F0004B0300084B0300084B0300084B030008A8
:100100004B0300084B0300084B0300084B03000897
:10011000752E00084B0300084B0300086D2C0008E7
:100120001D0D00084B0300084B0300084B0300089B
:100130004B0300084B0300084B0300084B03000867
:100140004B0300084B0300084B0300084B03000857
:100150004B0300084B0300084B0300084B03000847
:100160004B0300084B0300084B0300084B03000837
:100170004B0300084B0300084B0300084B03000827
:100180004B0300084B03000800F002F800F064F88D
:100190000AA090E8000C82448344AAF10107DA45E2
:1001A00001D100F059F8AFF2090EBAE80F0013F0D0
:1001B000010F18BFFB1A43F00103184780710000BC
:1001C000A07100000A444FF0000C10F8013B13F03E
:1001D000070408BF10F8014B1D1108BF10F8015BA0
:1001E000641E05D010F8016B641E01F8016BF9D193
:1001F00013F0080F1EBF10F8014BAD1C0C1B09D1EA
:100200006D1E58BF01F801CBFAD505E014F8016B5B
:1002100001F8016B6D1EF9D59142D6D370470000ED
:100220000023002400250026103A28BF78C1FBD8FF
:10023000520728BF30C148BF0B607047642900F0E7
:100240000981732900F0A382002070471FB505F0D3
:1002500055F91FBD10B510BD00F02FFB1146FFF77B
:10026000F5FF03F0F5F900F04DFB03B4FFF7F2FFE3
:1002700003BC03F06EF900002A4B19680868B0E867
:10028000F04F80F30988BFF36F8F4FF0000080F3C9
:10029000118870470000000006480068006880F37D
:1002A000088862B661B6BFF34F8FBFF36F8F00DF70
:1002B00000BF00BF08ED00E0DFF80C00016841F46A
:1002C00070010160704700BF88ED00E0EFF3098026
:1002D000BFF36F8F134B1A681EF0100F08BF20ED8D
:1002E000108A20E9F04F106008B44FF0500080F3FE
:1002F0001188BFF34F8FBFF36F8F04F0CFFA4FF029
:10030000000080F3118808BC19680868B0E8F04F55
:100310001EF0100F08BFB0EC108A80F30988BFF3FD
:100320006F8F704738040020EFF30580704700009E
:100330000948804709480047FEE7FEE7FEE7FEE779
:10034000FEE7FEE7FEE7FEE7FEE7FEE704480549B5
:10035000054A064B70470000C929000889010008BA
:1003600050330120503901205035012050350120F3
:10037000704700000FB4044910B503AA029800F0BA
:100380000BFA10BC5DF814FB000400200FB41CB580
:10039000074B06AA7B4469460090059800F0CDF90A
:1003A0000020694600F0DCF91CBC5DF814FB00007D
:1003B000C903000070B5044685690068C10601D50F
:1003C000302600E02026C00707D070BDD4E9012107
:1003D00030469047206A401C20626D1EF6D570BDE5
:1003E00070B5044685690078C00707D170BDD4E9AF
:1003F000012120209047206A401C20626D1EF6D506
:1004000070BD70B50C460546012A05D028788006D7
:1004100000D5EA69002302E0012305E05B1C93425A
:1004200002D2E05C0028F9D1A869E618C01AA861D8
:10043000286A184428622846FFF7BCFF04E0D5E983
:10044000012114F8010B9047B442F8D32846FFF776
:10045000C7FF70BD2DE9F0410646002410687529DC
:10046000314616A510D0AFF30080002802DA4042D2
:1004700013A507E031688A0701D512A502E04907F4
:1004800004D511A5012401E0AFF3008000210A2268
:1004900006F1240709E0B0FBF2FCB0FBF2F302FB2B
:1004A0001C00303078541846491C0028F3D12346EC
:1004B0002A463046BDE8F04100F0E0B800000000F8
:1004C0002D0000002B000000200000002DE9F04767
:1004D0004FF0000A89460446C0F820A02046E16893
:1004E0008847002876D0252806D0D4E901219047F6
:1004F000206A401C2062F1E7E16820460025884719
:10050000C4F81CA006460027C4F818A02A2E09D05B
:10051000304603F017F838B304EB8708303EC8F8CC
:10052000186019E059F8041B204604EB870291611A
:10053000E1688847012F064618D1E069002820DAD3
:1005400025F020051DE0D8F8180000EB800006EB30
:1005500040003038C8F818002046E1688847064651
:1005600002F0F0FF0028EED1012F0AD02E2E08D184
:100570002046E16888477F1C0646022F45F020058B
:10058000C4DBA069002803DA404245F00105A06100
:10059000E80701D025F01005B6B1A6F141001928F1
:1005A00002D8203645F400654A463146204625608B
:1005B0004D46FFF743FE58B1012806D0ED1D25F04A
:1005C000070000F1080989E704E005F1040985E75F
:1005D00030468AE7206ABDE8F087032A40F230807F
:1005E00010F0030C00F0158011F8013BBCF1020F74
:1005F000624498BF11F801CB00F8013B38BF11F8F5
:10060000013BA2F1040298BF00F801CB38BF00F80B
:10061000013B11F0030300F0D180083AC0F00880DC
:1006200051F8043B083A51F804CBA0E80810F5E76C
:10063000121D5CBF51F8043B40F8043BAFF300804F
:10064000D20724BF11F8013B11F801CB48BF11F8C4
:10065000012B24BF00F8013B00F801CB48BF00F894
:10066000012B704702F0FF0343EA032242EA0242F1
:1006700000F0D8B870477047704770472DE9F047D1
:100680000D4699469246044600F124080168880602
:1006900004D5E06921F01001216000E00120A842AA
:1006A00001DD471B00E00027A1697A1902EB090070
:1006B000081AA0612078C00602D42046FFF77AFE0F
:1006C000002608E0D4E901211AF806009047206AC4
:1006D000401C761C20624E45F4DB2078C0060AD50B
:1006E0002046FFF767FE06E0D4E90121302090475D
:1006F000206A401C2062381EA7F10107F4DC07E0E5
:10070000D4E9012118F805009047206A401C2062B6
:10071000281EA5F10105F3DC2046FFF761FE2078D5
:10072000000602D50220BDE8F0870120FBE70000AB
:1007300001694A1C02610878704700B58FB0CDE9A5
:1007400001310021059105497944CDE90310114695
:100750006846FFF7BBFE0FB000BD0000E5FFFFFFDE
:100760000A6802F8010B0A60704710B5436913B1BB
:10077000AFF3008001E0FFF744FE012010BD1278C6
:1007800000F124010A7000224A700122EDE711688D
:100790004FF0FF32E9E70000074B70B50D467B4490
:1007A000FFF7CBFF0446284600F05CF810B14FF08D
:1007B000FF3070BD204670BD9B2E000010B5203A62
:1007C000C0F00B80B1E81850203AA0E81850B1E80A
:1007D0001850A0E81850BFF4F5AF5FEA027C24BFC0
:1007E000B1E81850A0E8185044BF18C918C0BDE8B7
:1007F00010405FEA827C24BF51F8043B40F8043B80
:1008000008BF7047D20728BF31F8023B48BF11F834
:10081000012B28BF20F8023B48BF00F8012B70478E
:100820004FF000020429C0F0128010F0030C00F019
:100830001F80CCF1040CBCF1020F18BF00F8012B93
:10084000A8BF20F8022BA1EB0C0100F011B85FEA61
:10085000C17C24BF00F8012B00F8012B48BF00F831
:10086000012B7047007B00F0800070474FF00002C2
:1008700000B5134694469646203922BFA0E80C5096
:10088000A0E80C50B1F12001BFF4F7AF090728BF71
:10089000A0E80C5048BF0CC05DF804EB890028BFED
:1008A00040F8042B08BF704748BF20F8022B11F016
:1008B000804F18BF00F8012B7047754600F02CF8E8
:1008C000AE4605006946534620F00700854618B03D
:1008D00020B5FFF73BFDBDE820404FF000064FF08C
:1008E00000074FF000084FF0000B21F00701AC4665
:1008F000ACE8C009ACE8C009ACE8C009ACE8C00984
:100900008D46704710B50446AFF300802046BDE821
:100910001040FFF7AABC000000487047EC320120ED
:1009200030B501210D028DB0284601F0FDFD0121F9
:10093000042001F0E1FD03200F218DF82C000A9125
:1009400000248DF82F400AA92C4800F0D5FC00F0B7
:100950008DF80121284601F0F3FD0021284601F021
:10096000EFFD2802CDE90640089406A8099400F09E
:1009700053F801208DF8040000948DF805000294CE
:10098000049406201E4C8DF814006946204600F0A1
:10099000ABF80121204600F035F8062301220B2197
:1009A000204600F0C7F8062302220A21204600F064
:1009B000C1F8062303220C21204600F0BBF80623D1
:1009C00004220121204600F0B5F80623052200216B
:1009D000204600F0AFF806231A460D21204600F00D
:1009E000A9F8204600F0E0F80121204600F034F894
:1009F0000121204600F026F80DB030BD000802406D
:100A0000002001400029816802D041F0010101E08D
:100A100021F0010181607047084B10B5D3F8042321
:100A200007490A40D0E900142143D0E902400443B9
:100A300021431143C3F8041310BD000000200140FE
:100A4000E030FCFF0029816802D041F4807101E0B0
:100A500021F48071816070470029816802D041F4DF
:100A6000007101E021F400718160704710B501212F
:100A700090B0880501F040FD184C204600F09AF92E
:100A80000028FAD11649CDE900011649CDE9021036
:100A90006021CDE904104FF480610691490007916F
:100AA0000891C91009914902CDE90A100121CDE947
:100AB0000C100E906946204600F0C4F90121204632
:100AC00000F06EF91021204600F03EF901221021BD
:100AD000204600F0A1F910B010BD000010640240E3
:100AE0004C200140B804002030B542680F4B0C790F
:100AF0001A400B6842EA04221343436082680C4B9D
:100B00004D791A40D1E9034323438C6844EA4504F4
:100B1000234313438360C26A097D22F47002491E95
:100B2000C9B242EA0151C16230BD0000FFFEFFFCC4
:100B3000FDF7FFC070B5072609290AD9C568A1F1DC
:100B40000A0404EB4404A640B543A3401D43C5601A
:100B500007E0056901EB4104A640B543A3401D43EE
:100B600005611F23072A09D2446B521E02EB820241
:100B700093409C4391400C43446370BD0D2A09D2BD
:100B8000046BD21F02EB820293409C4391400C43C2
:100B9000046370BDC46A0D3A02EB820293409C4329
:100BA00091400C43C46270BD816841F08041816016
:100BB000704710B5044600F065FE200AA02101EB45
:100BC0004000C0B200F02EFE00F09CFEE0B200F04B
:100BD00029FE00F097FE00F055FEA12000F022FE55
:100BE00000F090FE002000F0E9FD044600F06AFEEF
:100BF000204610BD70B50D46044600F043FE200AA5
:100C0000A02101EB4000C0B200F00CFE00F07AFE23
:100C1000E0B200F007FE00F075FE284600F002FE8C
:100C200000F070FE00F04EFEBDE87040322002F091
:100C3000ADBC642003F080FCFBE700001CB5012183
:100C4000082001F059FC01208DF8040000208DF8E7
:100C500006008DF8070003204FF400748DF805009E
:100C600000946946034800F047FB02481A300480AC
:100C70001CBD0000000C0240FEE7032003F05CFCFA
:100C8000FBE700000A48016A491C0162818B491C8C
:100C900081830849897F012903D10749097DC90753
:100CA00002D0002181847047818C491CFAE7000042
:100CB000540A0020D00A0020900A0020C82003F027
:100CC0003BFCFBE72DE9FC410121084601F014FC47
:100CD00000268DF8046001274FF480558DF80770C9
:100CE000022400958DF8054069460A4800F004FB8F
:100CF0000121102001F000FC8DF804608DF80770D0
:100D000000958DF805406946034800F0F5FABDE806
:100D1000FC810000000002400010024070B5084C49
:100D2000084D2146284600F04DF8002807D02146FE
:100D3000284600F01FF8BDE8704002F05DBC70BDB1
:100D40002080001010640240074A904201D20748F8
:100D500001E005481038064A8B0001EA020101D57E
:100D6000C1607047816070471064024000600240BB
:100D70007D0F7D0F074A904201D2074801E00548E8
:100D80001038064A8B0001EA020101D5C1607047A4
:100D90008160704710640240006002407D0F7D0F4B
:100DA0000029016802D041F0010101E021F00101B8
:100DB00001607047014600200968C90700D0012082
:100DC0007047000030B5104A0024904201D20F4A0B
:100DD00001E00D4A103A0E4B194205D01E2303EADA
:100DE000D12503682B4002E0406900F080038800B1
:100DF00001D5506800E01068064A1040084201D052
:100E000003B10124204630BD10640240006002405E
:100E10003C0F3C0F7D0F7D0F0B0607D5436912B1C8
:100E200043F0800301E023F080034361802908D070
:100E3000002A026801F01E0101D00A4300E08A4343
:100E40000260704730B50368124ACC6813400A68E4
:100E50002243D1E905452C432243CC6922430C6A45
:100E600022434C6A22438C6A22434C6B22438C6B94
:100E700022431A430260426922F00703D1E90B249E
:100E800022431A4342610A6942604A688260896863
:100E9000C16030BD3F801CF0704770472DE9F843BA
:100EA000DFF874900E460546D9E904100024174671
:100EB000814201D001F09AF917481830854204D1D7
:100EC00001F094F900F014FF20E030074FF0010822
:100ED000010E102311A20020CDF8008001F0C8FA05
:100EE0000EE0E01900EBC00005EB80022007010EC8
:100EF00010230A20121DCDF8008001F0B9FA641CFD
:100F0000286801784078081AA042EADC01F010FA5B
:100F100089F80560BDE8F883640000203E00000009
:100F2000F8B500241646054601270DE0A01900EB90
:100F3000C00005EB80022007010E10230A20121DBD
:100F4000009701F095FA641C286801784078081A27
:100F5000A042EBDCBDE8F84001F0EAB90B4C0C4DC7
:100F60000C4E0D4F2088401C20802888401C288073
:100F70003088401C30803888401C388000F0E4FE07
:100F800000F068FA0A2003F0D7FAEBE76A000020C5
:100F90006C0000206E0000207000002070B5012061
:100FA00000F062F900286ED0434C44484FF6FF76BB
:100FB00021784FF000054A064FEA81611CD40029D0
:100FC0001CDA012100F0E4F900286ED1A089E0804C
:100FD000217801F0DF022270A1888842A0EB010095
:100FE00000D2304480B2A0F5B970B4285DD242F08E
:100FF00040002070657058E000290BDB012100F0F3
:10100000C7F9012851D1A089A080207840F02000A4
:1010100020704AE0012100F0BBF998BBA089E08074
:10102000217801F0DF012170A1888842A0EB010046
:1010300000D2304480B2A0F11401462901D2607878
:1010400006E0A0F164016E2904D2607840F001004E
:10105000607007E0A0F1DC01322903D3B0F5967F80
:1010600000D32570207800F01F01062918D32570C1
:1010700060781349502807D00C2808D0022809D0DE
:101080000A280AD011E015E0502008700DE00C206D
:1010900048700AE00220887007E00A20C87004E067
:1010A000401C2070607840006070BDE870400120F6
:1010B00000F0D4B870BD00003E00002000040240E3
:1010C000540A002010B54FF40064204600F0CCF81C
:1010D000002804D02046BDE8104000F0BFB810BD85
:1010E00070B5022000F0C0F8002870D0414C424892
:1010F0004FF6FF76A1784FF000054A064FEA81616E
:101100001CD400291CDA022100F042F900286AD11F
:10111000A0896081A17801F0DF02A2702189884254
:10112000A0EB010000D2304480B2A0F5B970B42821
:1011300059D242F04000A070E57054E000290BDB6A
:10114000022100F025F901284DD1A0892081A07845
:1011500040F02000A07046E0022100F019F978BBB1
:10116000A0896081A17801F0DF01A1702189884206
:10117000A0EB010000D2304480B2A0F1140150294C
:1011800001D2E07806E0A0F16401782904D2E07889
:1011900040F00100E07003E0B0F5967F00D3A57049
:1011A000A07800F01F01062918D3A570E078134934
:1011B000502806D00C2807D0022809D00A280AD0C7
:1011C00011E0502008720EE00C2048720BE00FE096
:1011D0000220887207E00A20C87204E0401CA07058
:1011E000E0784000E070BDE87040022000F036B8C2
:1011F00070BD00003E00002000040240540A0020A0
:1012000010B5042000F030F8002804D0BDE81040EC
:10121000042000F023B810BD10B5102000F024F811
:10122000002804D0BDE81040102000F017B810BD11
:1012300010B5202000F018F810B1802000F00EF852
:101240004FF40074204600F00FF8002804D0204628
:10125000BDE8104000F002B810BD00000149086070
:1012600070470000143C0140034A01460020126808
:101270000A4200D001207047143C014030B51A4AA0
:101280008379016853B313688B431360111D0B6896
:101290000468A3430B60017911440B68046823437D
:1012A0000B60114B083319680468A14319601C1DB9
:1012B00021680568A94321604179102905D01144AE
:1012C0000A68006802430A6030BD19680268114369
:1012D0001960216800680143216030BD0079104425
:1012E00002688A43026030BD003C014000F08AFB86
:1012F000642003F021F9F9E7F0B5002201274FF04F
:10130000030C0B6807FA02F52B40AB422CD10668A0
:1013100053000CFA03F4A64306600E79D0F800E0FF
:101320009E4046EA0E0606600E79012E01D0022E7E
:1013300012D18668A64386604E79D0F808E09E40B8
:1013400046EA0E0686604668AE43466045688E797A
:101350009640B6B235434560C568A543C560CC79B3
:101360009C40C3681C43C460521C102AC9D3F0BD02
:101370004B07DB0E9A40C90810B500EB8100016AEB
:101380000F249C40A1430162016A1143016210BD18
:101390000246002012690A4200D0012070474183B2
:1013A00070470183704700002DE9F043DFF89CC0CF
:1013B00041F268074FF4AF59BCF90440C9F1000885
:1013C0004FF4AF66B84203DDB44201DA4D4606E0A1
:1013D000B04203DABC4201DD454600E000252C4462
:1013E000241A24B2E51704EB9574A510174CACF839
:1013F0000C50B942B4F9064001DDB44207DBB142FA
:1014000003DABC4201DDC84601E04FF0000808EBFA
:101410000106341B24B2E61704EB96740C4FA4109B
:10142000ACF80E403E7A012E0BD015801C80ACF833
:101430000850ACF80A40ACF80400ACF80610BDE85F
:10144000F083002616801E803E72F0E752000020D6
:10145000040B002010B52D4C04F1CC01206988420A
:101460001CD1E2882AA104F1F400FEF78FFF228943
:101470002BA104F58C70FEF789FF62892CA104F57D
:101480009E70FEF783FFA2892DA104F5B070FEF7D0
:101490007DFFE2892EA104F5C2701BE0304988422D
:1014A0001ED12F4894F902202EA12830FEF76EFF9E
:1014B0002B4894F903202FA14C30FEF767FF2848F2
:1014C00094F904202FA17030FEF760FF2448002219
:1014D00030A19430FEF75AFF62782178206905E048
:1014E0001F49B431884205D162782178BDE81040A7
:1014F000FFF716BD05491831884205D100F0F8FB09
:10150000BDE8104000F014BF10BD000064000020D2
:1015100062756C6C20202533642020202020000080
:10152000626972642020253364202020202000007E
:10153000646F6720202025336420202020200000B5
:10154000626F772020202533642020202020000097
:101550006669736820202533642020202020000045
:10156000080200204B50202020253364202020201A
:10157000202000004B4920202025336420202020FB
:10158000202000004B4420202025336420202020F0
:101590002020000050574D2020253364202020209B
:1015A00020200000FEE770471CB50121022000F05A
:1015B000A3FF4FF44060012400908DF80440002008
:1015C0008DF8060003208DF805008DF80740694668
:1015D0000448FFF791FE0448C0F8A842C0F8AC42A6
:1015E0001CBD000000040240008040422DE9F04193
:1015F00005461448016821F440010160016841F486
:10160000800101600024104EA0460127E809C6F8B9
:10161000AC026806050E022001F0D4FFC6F8A872DD
:10162000022001F0CFFFC6F8A882022001F0CAFF15
:10163000072C01D1C6F8AC72641CE4B2082CE5D3C7
:10164000BDE8F081000402400080404270B50D48C2
:10165000016821F440010160016841F480010160EA
:10166000094C0120C4F8AC02C4F8A802042004F517
:101670002A7401F0A7FF00256560042001F0A2FF95
:10168000256070BD000402400080404270B50D48E6
:10169000016821F440010160016841F480010160AA
:1016A000094C0125C4F8A8520020C4F8AC0204205B
:1016B00004F52A7401F086FF6560BDE870400420DF
:1016C00001F080BF000402400080404270B5134822
:1016D0000024016821F44001016001680160104D9F
:1016E0000126C5F8AC62304601F06CFFC5F8A8626F
:1016F000012001F067FF0AE0641CE4B2FA2C06D96D
:1017000008A0FEF737FEFFF7C1FF012070BDD5F836
:101710002C020028F0D1C5F8A80270BD00040240D8
:10172000008040426969632074696D656F75740D4E
:101730000A00000070B50E48016821F440410160C4
:10174000016841F4804101600A4C0026C4F89C62A3
:10175000022004F5267401F035FF012525600220E2
:1017600001F030FF2660022001F02CFF656070BDA3
:10177000000402400080404270B50E48016821F428
:1017800040410160016841F4804101600A4C01253B
:10179000C4F89C52022004F5267401F013FF256062
:1017A000022001F00FFF00202060BDE87040022001
:1017B00001F008BF00040240008040422DE9F047DC
:1017C000814616480024016821F440410160016807
:1017D0000160134E25460127A0466006040EC6F898
:1017E0009872022001F0EEFED6F81C0208B1641CCB
:1017F000E4B2C6F89882012001F0E4FE6D1CEDB25F
:10180000082DEAD3B9F1000F04D0FFF793FF20466B
:10181000BDE8F087FFF7B0FFF9E7000000040240E1
:10182000008040422DE9F04105461448016821F44A
:1018300040410160016841F4804101600024104E84
:10184000A0460127E809C6F89C026806050E02209A
:1018500001F0B8FEC6F89872022001F0B3FEC6F897
:101860009882022001F0AEFE072C01D1C6F89C72CE
:10187000641CE4B2082CE5D3BDE8F081000402400A
:101880000080404270B50D48016821F4404101607C
:10189000016841F480410160094C0120C4F89C02B8
:1018A000C4F89802042004F5267401F08BFE00258C
:1018B0006560042001F086FE256070BD00040240D2
:1018C0000080404270B50D48016821F4404101603C
:1018D000016841F480410160094C0125C4F8985227
:1018E0000020C4F89C02042004F5267401F06AFE6E
:1018F0006560BDE87040042001F064BE0004024051
:101900000080404270B513480024016821F4404132
:10191000016001680160104D0126C5F89C623046E7
:1019200001F050FEC5F89862012001F04BFE0AE07C
:10193000641CE4B2FA2C06D908A0FEF71BFDFFF7E1
:10194000C1FF012070BDD5F81C020028F0D1C5F8F8
:10195000980270BD00040240008040426969632023
:1019600074696D656F75740D0A00000005494FF6C6
:10197000FF728889401C80B28881904201D3002088
:10198000888170473E0000207FB50121022000F0D1
:10199000B3FD0121880300F0C7FD0320002502905C
:1019A0008DF80C5001248DF80F4002A91048FFF764
:1019B000A3FC0121084600F053FE02208DF80450DC
:1019C000102600908DF805608DF806406846FFF7F8
:1019D00055FC0021012000F043FE8DF804508DF8E5
:1019E000056000948DF806406846FFF747FC7FBD10
:1019F0000004024002494CF6CC40086070470000E9
:101A00000030004000F014B870B504460D4645F2B1
:101A1000555000F021F8204600F012F8284600F05A
:101A200015F800F005F8BDE87040FFF7E3BF0000CF
:101A300002494AF6AA2008607047000000300040C2
:101A4000014948607047000000300040014988604B
:101A500070470000003000400149086070470000F6
:101A6000003000402DE9F041254C264F264D01263F
:101A700008B1267001E0207878B108212846FFF7E8
:101A800087FC88B110212846FFF782FC60B1012154
:101A90003846FFF77DFC012806D008212846FFF7CD
:101AA00077FC01281DD028E00A2001F06FFD0020FE
:101AB000207008212846FFF76BFC58B110212846FA
:101AC000FFF766FC48B101213846FFF761FC0128A9
:101AD00005D012E00120BDE8F0810220FBE70320E1
:101AE000F9E710212846FFF753FC012805D1012111
:101AF0003846FFF74DFC00B926700020EBE70000E8
:101B000062000020000002400010024002480179FB
:101B1000491C017170470000640000201CB50121C0
:101B2000112000F0E9FC1820009000208DF804003E
:101B300003208DF8050001248DF80740694606480A
:101B4000FFF7DAFB02208DF807000094694603488E
:101B5000FFF7D2FB1CBD0000001002400000024055
:101B6000DFF85080144F4FF48064012508F102061D
:101B70000020FFF777FFA8F80040012804D00228D2
:101B800008D0032811D10BE00CA0FEF7F3FB348042
:101B90003D700AE00DA0FEF7EDFB34807D7004E09F
:101BA0000FA0FEF7E7FB3480BD70642002F0C4FC98
:101BB000DEE7000018140240040000204B45595F86
:101BC00055505F5052455321210D0A004B45595F36
:101BD000444F574E5F5052455321210D0A000000DB
:101BE0004B45595F454E5445525F50524553212154
:101BF0000D0A00000248C178491CC17070470000FE
:101C00006400002002488178491C81707047000000
:101C10006400002002488178491E817070470000EE
:101C2000640000202DE9FC470121242000F064FC21
:101C300001248DF8044000258DF80650234F4FF005
:101C400020098DF80740CDF800908DF805506946C1
:101C50003846FFF751FB8DF804408DF806501026EA
:101C60008DF8074000968DF8055069463846FFF715
:101C700043FB8DF804408DF80650DFF854A04FF474
:101C800000788DF80740CDF800808DF80550694642
:101C90005046FFF731FB8DF804408DF80650A7023F
:101CA0008DF8074000978DF8055069465046FFF7BC
:101CB00023FB06481A300680A0F80090044818302C
:101CC000A0F800800780BDE8FC8700000008024003
:101CD00000140240054C4FF4FA75206880F400713E
:101CE0002160284602F028FCF7E7000014140240A7
:101CF000F8B501242646E500083DE8B208230BA20A
:101D00000121009600F0B4FBE8B2082307A2BC2131
:101D1000009600F0ADFB641C102CECDB102304A239
:101D20005A212820009600F0A3FBF8BD2D000000EA
:101D3000595A424F5400000000F0B4F8052002F058
:101D4000FBFBF9E7FEE700002DE9F041384D374B8A
:101D5000002495F900201E7895F901102869012EBC
:101D600008D0344B1E78012E19D0334E3378012B16
:101D70002CD056E0521E52B21C702A70002A0BDA88
:101D800011B12C70491E06E001680A784B78D21A0E
:101D9000521E2A70497869706A7829783FE0521C8F
:101DA0001C7052B22A7003681F785E78BB1B5B1EE2
:101DB000934204DA8E4202D02B70491CEBE7934227
:101DC000EADA8E42E8D12C706C70E5E752EA010342
:101DD00007D102EBC20300EB8303DB690BB12B617C
:101DE00019E0114401EBC10100EB8100016A806937
:101DF00079B100B1804795F9000095F901100844C8
:101E0000296900EBC00001EB8000006A28612C709A
:101E100001E000B1804734706A7829782869FFF7BB
:101E20003DF8BDE8F041FFF715BB000004000020BD
:101E30006400002005000020060000200849A1F1F0
:101E4000240000F1B40201624A64D8328A66B432D6
:101E5000C1F88C203C3908614A780978FFF71EB830
:101E6000A00000207047F0B54FF6FF7200254AF23F
:101E700001060FE0445D002384EA0207FF0702D059
:101E800086EA520200E052085B1C6408DBB2082BB1
:101E9000F2D36D1C8D42EDDB100240EA122080B2BD
:101EA000F0BD704770B5534C607901287DD10A2090
:101EB00001F088FB0025657165802571A0790128F6
:101EC0001ED16178C80701D0491E6170C9B2A01D3A
:101ED000891EFFF7C8FFE179474E4848432912D0D1
:101EE0000123442941D0452962D0EA2908D121891A
:101EF00009B28181628912B2C28101B90AB1457702
:101F000076E0437774E02189628949BA52BAB1F523
:101F1000A04F20D0A1F5A043023B03D1A2F5A243DC
:101F2000023B65D0A1F5A043043B61D1A2F5A241DB
:101F300004395DD1A189B31C49BAC182E1892E4A15
:101F400049BA8182B0F91610B0F91400FFF72CFAE3
:101F5000358075804CE0B2F5A24F49D1A18949BACC
:101F60000182E18949BA418242E02189628949BA04
:101F7000A1F50C5652BA183E03D1A2F54C56183EA4
:101F800036D0B1F5045F33D1B2F5445F30D1627B16
:101F9000E17B012A0AD0012908D00577B0F90210A7
:101FA000B0F9000000F07AFB22E022E00377F5E7C9
:101FB000218949BAA1F51852103A03D0A1F5185257
:101FC000203A15D1A18949BA8181E18949BAC181F3
:101FD000218A33884ABA618A1A443280728849BA9F
:101FE00011447180A18A49BA0183E18A49BA4183C7
:101FF000657070BD340A0020040B0020A80A002080
:1020000070472DE9F8434FF4407000F0E5F82520C3
:102010008DF8000001248DF8014007268DF802603C
:102020008DF80340684600F0A5F826208DF80000E2
:102030008DF8014006278DF802708DF80340684640
:1020400000F098F827208DF8000000258DF8015049
:102050004FF004098DF802908DF80340684600F0B7
:1020600089F834208DF800008DF801504FF00508F4
:102070008DF802808DF80340684600F07BF835202B
:102080008DF800008DF801408DF802508DF8034066
:10209000684600F06FF819208DF800008DF80150A7
:1020A0008DF802708DF80340684600F063F82E202A
:1020B0008DF800008DF801508DF802608DF8034016
:1020C000684600F057F81C208DF800008DF801409C
:1020D0008DF802608DF80340684600F04BF8372019
:1020E0008DF800008DF801408DF802708DF80340E6
:1020F000684600F03FF838208DF800008DF8014068
:102100008DF802808DF80340684600F033F88DF8B2
:1021100000708DF8015002208DF802008DF8034008
:10212000684600F027F88DF800608DF8015003250F
:102130008DF802508DF80340684600F01BF8172018
:102140008DF800008DF801408DF802508DF80340A5
:10215000684600F00FF828208DF800008DF8014047
:102160008DF802908DF80340684600F003F8BDE852
:10217000F883000030B50F23C27801780125FAB149
:10218000144A126801F1E02102F4E062C2F5E06253
:10219000C2F30722C2F10404D3404278A2408478FB
:1021A0001C401443220181F80024007800F01F0134
:1021B0008D404009800000F1E020C0F8005130BDA2
:1021C00001F01F0085404809800000F1E020C0F8C0
:1021D000805130BD0CED00E002490843024908601F
:1021E000704700000000FA050CED00E030B400215B
:1021F000084B0A46002003EBC004401CC0B26254E6
:102200008028F8D3491CC9B20829F3D330BC00F0A8
:102210008FB800007805002030B5CC0801F0070326
:1022200001259D40EBB2064D05EBC005C808285CB2
:102230000AB1184302E063EA0000C043285530BDEC
:102240007805002010B50021AE2000F02FF9002104
:10225000084600F02BF90021102000F027F900219A
:10226000402000F023F90021812000F01FF9002117
:10227000CF2000F01BF90021A12000F017F9002168
:10228000C82000F013F90021A62000F00FF900216A
:10229000A82000F00BF900213F2000F007F90021F1
:1022A000D32000F003F90021084600F0FFF80021D8
:1022B000D52000F0FBF80021802000F0F7F8002185
:1022C000D92000F0F3F80021F12000F0EFF8002110
:1022D000DA2000F0EBF80021122000F0E7F80021EE
:1022E000DB2000F0E3F80021402000F0DFF80021BF
:1022F000202000F0DBF80021022000F0D7F80021B8
:102300008D2000F0D3F80021142000F0CFF8002138
:10231000A42000F0CBF80021A62000F0C7F8FFF7BA
:1023200065FF0021BDE81040AF2000F0BFB80000FD
:1023300070B5174E002505F1B000C0B2002100F0C5
:10234000B5F80021084600F0B1F80021102000F097
:10235000ADF8FFF77BF97820FFF748F9FFF7B6F9FA
:102360004020FFF743F9FFF7B1F9002406EBC40062
:10237000405DFFF73BF9FFF7A9F9641CE4B2802C3C
:10238000F4D3FFF783F96D1CEDB2082DD3D370BDE4
:10239000780500202DE9FC4F1D46884681468B4676
:1023A0000090082B0ED0680700D0012000EBD5006C
:1023B000690810FB01F0C0B2203A02F0FF0A0026C3
:1023C000019046E00620F7E7082D10D00C2D14D020
:1023D000102D16D0182D3FD121490AEBCA0001EB70
:1023E00080000027845DE0070FD00B9A10E01D49A4
:1023F0000AEB4A0001EB4000F3E70AEB4A001A49F6
:10240000EDE71A4901EB0A10EBE70B9830B3002215
:1024100041464846FFF700FF7F1C640808F10100B1
:10242000FFB200F0FF08082FDDD309F1010000F032
:10243000FF09082D0AD00099A9EB0100B0EB550F58
:1024400004D10BF10800894600F0FF0B761CD8463A
:10245000F6B201988642B7D3BDE8FC8F0122D7E7D8
:1024600092610008065500082E570008A25B00087C
:102470002DE9F8411E46154688460446079F0BE0A5
:102480003346414620460097FFF784FF082E0AD0C6
:1024900004EB5600C4B26D1C2A78A2F120005E281D
:1024A000EED9BDE8F881A41DE4B2F4E770B50C469E
:1024B0000546FFF7CBF87820FFF798F8FFF706F905
:1024C0000CB1402000E00020FFF790F8FFF7FEF885
:1024D0002846FFF78BF8FFF7F9F8BDE87040FFF7E3
:1024E000D5B84FF47A74204602F026F8FBE7C820EE
:1024F00002F022F8FBE70000044A0029116801D02D
:10250000014300E081431160704700003038024011
:10251000044A0029116801D0014300E081431160A1
:102520007047000040380240044A0029116801D079
:10253000014300E0814311607047000044380240CD
:10254000044A0029116801D0014300E08143116071
:10255000704700002438024070B5204B1968204CA9
:1025600011F00C0104D06610042903D0082903D00F
:1025700004601BE0066019E0184A121F1168C1F3DD
:102580008055116801F03F0115B1B6FBF1F101E092
:10259000B4FBF1F114681268C4F388146143C2F308
:1025A0000142521C5200B1FBF2F1016019680F2286
:1025B00002EA11110B4A545C0168E14041601C6859
:1025C000072505EA9424145D21FA04F484601B684D
:1025D00005EA5333D25CD140C16070BD0838024077
:1025E0000024F400280400202DE9F041124F0E468B
:1025F0008046154608213846FEF7D1FE012000F03E
:10260000C5FF4021404600F0B9FE002405E0315DE1
:10261000404600F013F8641CA4B2AC42F7D340214A
:10262000404600F0BEFE0028F9D03846BDE8F04133
:102630000821FEF7B6BE0000000C024070B50C4643
:102640000546402100F0ADFE2146284600F042FF3D
:102650008021284600F0A5FE0028F9D070BD0000BA
:1026600010B58A0721F003040849120F21440F23F3
:10267000D1F8084893409C43C1F80848D1F808387D
:1026800090400343C1F8083810BD000000300140FD
:102690007047192001F050FFFBE700002DE9F041E1
:1026A0000D46074600260A21304601F0C7F80446C9
:1026B00001202070EA206070A770380AE070257150
:1026C000280A607106212046FFF7CDFB010AA1719F
:1026D000E071082221460448FFF786FF2146304674
:1026E000BDE8F04101F09EB8004C00400CB500225E
:1026F000274900920192086840F4803008604FF446
:10270000A043086800F4003001900098401C00903D
:10271000019810B900989842F3D10868800334D525
:10272000012001901A484030026842F08052026055
:102730001848026842F440420260154808300268B6
:102740000260026842F400420260026842F4A05251
:102750000260031F104A1A600A6842F080720A6021
:102760000A689201FCD50D4940F205720A600168C1
:1027700021F003010160016841F00201016001687C
:10278000C1F381010229FAD10CBD01920CBD0000F8
:10279000003802400070004008544007003C0240EE
:1027A0001CB501F083FD46490320CDE9000100235B
:1027B000802244A1464802F019FC41490420091D29
:1027C000CDE900010023802242A1464802F00EFC20
:1027D0003B4905200831CDE900010023802242A1B8
:1027E000454802F003FC364906200C31CDE90001D2
:1027F0000023802241A1454802F0F8FB3049072020
:102800001031CDE900010023802241A1434802F0AC
:10281000EDFB2B4908201431CDE900010023802273
:102820003FA1424802F0E2FB254902202C31CDE9CC
:102830000001002380223EA1414802F0D7FB20493D
:1028400009201831CDE90001002380223DA1414833
:1028500002F0CCFB1A490A201C31CDE9000100230B
:1028600080223DA1404802F0C1FB15490B202031D8
:10287000CDE90001002380223CA13F4802F0B6FBD5
:102880000F490D202431CDE90001002380223BA116
:102890003D4802F0ABFB0A490E202831CDE900018A
:1028A0000023802239A13C4802F0A0FB04480838EC
:1028B000406801F077FEBDE81C4001F033BD000028
:1028C0000C000020506D755F5461736B00000000B8
:1028D000E324000843616D6D616E645F5461736B46
:1028E000000000007B0C00084572725F48616E6456
:1028F0006C655F5461736B00ED120008506F776573
:10290000726F66665F5461736B000000EF2400080D
:102910004368675F5461736B00000000BD0C0008E2
:10292000546573745F5461736B000000CD2D000813
:10293000446973706C61795F5461736B00000000CF
:102940005D0F00084175746F4368617267655F547D
:1029500061736B00330C000853656E645F4D6472E5
:10296000765F5461736B0000932600084D647276A5
:102970005F5461736B000000391D00084C45445FD3
:102980005461736B00000000D51C00084B65795F33
:102990005461736B00000000611B00084FF0E021E0
:1029A0000428086903D020F004000861704740F053
:1029B0000400FAE710B502F045FB012803D0BDE89A
:1029C000104002F033B810BD124810B5016841F450
:1029D000700101601048016841F0010101600E4A78
:1029E00000210832116002680C4B1A400260031D7E
:1029F0000B4A1A60026822F48022026006480C30FA
:102A00000160FFF773FE03494FF0006080390860F2
:102A100010BD000088ED00E000380240FFFFF6FE28
:102A20001030002410B5A82000F094FDFFF7FAF84C
:102A3000FEF704F9FEF7A8FFFEF744F9FDF770FF73
:102A4000FFF76CF8FEF7B0FDFFF7FCFBA8230A22A6
:102A50001049012000F088F94FF47A725423D1060E
:102A6000012000F081F94FF4527364220A492020BA
:102A700000F07AF94FF4E131084800F02FFD002012
:102A800000F050FE022000F04DFEBDE8104004A012
:102A9000FDF770BC00000140001400400010014030
:102AA00042737020696E6974204F4B210D0A00003B
:102AB0002DE9F05F1E4E202535801E4F2C013C80F5
:102AC000DFF87480A8F80040642000F05FFD06F194
:102AD0000209A9F80050A7F1020AAAF8004008F17B
:102AE000020BABF80040C82000F050FD35803C8060
:102AF000A8F80040642000F049FDA9F80050AAF8A9
:102B00000040ABF80040C82000F040FD35803C801C
:102B1000A8F80040642000F039FDA9F80050AAF898
:102B20000040ABF80040BDE8F05FC82000F02EBDCB
:102B3000180802401A140240180C024010B5084C44
:102B40000121204600F0BCF8012807D101212046D0
:102B500000F0A9F8BDE81040FEF708BF10BD000066
:102B6000000001402DE9F04101218C07204600F0D2
:102B7000A7F8012844D10121204600F094F8FEF77F
:102B800081F83548364D374E41884FF47A77491CE5
:102B90004180324900244888401C4880688B401C92
:102BA0006883A88B401CA883B088401C80B2B0808A
:102BB000B8420BD9B480297A3078814206D00820F7
:102BC000FEF718F80820FDF7F4FF30707088401CFD
:102BD00080B27080B84200D3748095F83000D0B1D4
:102BE000214B9E1E5A1501280CD0022815D003280F
:102BF00006D13280688E411C6986B0F5C87F07D83F
:102C0000BDE8F0813280688E411C69866428F7D95E
:102C10001A8085F830406C86F2E73280698E481C55
:102C200080B26886642905D9411C6986C82801D20A
:102C30001A80E5E7698E4FF49677481C80B2688663
:102C4000C82905D9411C6986B84201D23280D7E72C
:102C5000688EB842DCD8D3E7F8090020340A002097
:102C6000D00A00204C0000201A0C024010B50A4C7B
:102C70000121204600F024F800280CD0074901204B
:102C800048710146204600F00EF82046BDE810408D
:102C9000002100F00BB810BD00140040340A0020E1
:102CA000C94301827047C9430182704700290188E6
:102CB00002D041F0010101E021F0010101807047E3
:102CC00002460020138A92890B4202EA010202D0D6
:102CD000002A00D001207047002A828901D00A43CF
:102CE00000E08A43828170474162704730B50288B4
:102CF000164C174DA0420DD0A8420BD0B0F1804F1A
:102D000008D0144B984205D0134B984202D0134B75
:102D1000984203D122F070034A881A43104B98421C
:102D200006D0104B984203D022F440730A891A430C
:102D300002804A68C2620A880285A04201D0A84285
:102D400001D1897A01860121818230BD00000140D4
:102D5000000401400004004000080040000C004056
:102D60000010004000140040FEB50C4615491E46F8
:102D700015468C4202D014498C4203D10121FFF741
:102D8000D3FB02E00121FFF7C3FB761E0020ADF864
:102D900000606D1EADF80200ADF8080001956946AF
:102DA0002046FFF7A3FF01212046FFF779FF01220C
:102DB00011462046FFF790FF01212046FFF776FFDE
:102DC000FEBD00000000014000040140642001F04D
:102DD000B3FBFBE77047704770B5064686B001212C
:102DE0000420FFF789FB0121C804FFF791FB1F4D69
:102DF00008220A212846FEF7BBFA08220B212846A2
:102E0000FEF7B6FA02218DF814104FF440608DF8E9
:102E10001510049000248DF8164001208DF817003D
:102E200004A92846FEF768FAADF80440ADF806405C
:102E3000ADF80840ADF80C400C200D4CADF80A0080
:102E400000966946204600F0EBFA012240F2255137
:102E5000204600F0CCFA0121204600F098FA4021EB
:102E6000204600F08BFA06B070BD0000000802405A
:102E7000004C004070B5144C40F2255529462046C0
:102E800000F096FA00281ED02946204600F079FA74
:102E9000204600F01BFB0D49C0B248700C494A792E
:102EA000002A10D14B788A1D0A4C98544878401C4F
:102EB000487000212046FFF717FF2046BDE870400C
:102EC0000121FFF7F3BE70BD004C00403C00002024
:102ED000340A0020001400402DE9F043814687B0F9
:102EE00001210420FFF708FB01210820FFF704FB64
:102EF00001210805FFF70CFB274F08220C2138465B
:102F0000FEF736FADFF89480082202214046FEF7E9
:102F10002FFA02258DF80450B8148DF805500024BE
:102F200000908DF8064001268DF807606946384606
:102F3000FEF7E2F98DF8045004208DF8055000905A
:102F40008DF806408DF8076069464046FEF7D4F9D3
:102F5000ADF80C40ADF80E40ADF81040ADF814409F
:102F60000C200F4CADF81200CDF8089002A92046B5
:102F700000F056FA012240F22551204600F037FABF
:102F80000121204600F003FA4021204600F0F6F926
:102F900007B0BDE8F083000000080240000C0240CA
:102FA0000050004070B50646012186B00846FFF784
:102FB000A3FA01211020FFF7B7FA1F4D07220921BC
:102FC0002846FEF7D5F907220A212846FEF7D0F950
:102FD00002218DF814104FF4C0608DF81510049084
:102FE00000248DF8164001208DF8170004A928460A
:102FF000FEF782F9ADF80440ADF80640ADF80840A0
:10300000ADF80C400C200D4CADF80A000096694656
:10301000204600F005FA012240F22551204600F03A
:10302000E6F90121204600F0B2F94021204600F0E7
:10303000A5F906B070BD000000000240001001407C
:103040002DE9F041294C40F225552946204600F053
:10305000AFF900282BD02946204600F092F92046EF
:1030600000F034FA224BC0B2597900291FD11C78E4
:103070000A46A5074FF0010603F106011DD4E40737
:1030800004D0AA280AD0552802D012E055280ED123
:1030900050545E70187840F0010007E05A785054A0
:1030A0005878401C5870187840F002001870BDE83D
:1030B000F0815A701A705A71F9E75C7860545C7844
:1030C000641CE4B25C701D786F0708D4597A491EFD
:1030D0008C42ECD10D28ECD145F00400E6E70A283B
:1030E000E7D160545A701A705E71E0E70010014039
:1030F000160A0020F0B50746012187B00846FFF701
:10310000FBF901214804FFF703FA1E4E07220221B2
:103110003046FEF72DF9072203213046FEF728F945
:1031200002208DF814008DF8150000248DF816404B
:1031300001200C258DF81700049504A93046FEF7F0
:10314000DBF8ADF80440ADF80640ADF80840ADF846
:103150000C400D4C0097ADF80A506946204600F02F
:103160005FF9012240F22551204600F040F901218B
:10317000204600F00CF94021204600F0FFF807B08F
:10318000F0BD0000000002400044004070B506465B
:1031900086B001210220FFF7AFF901218804FFF773
:1031A000B7F91F4D07220A212846FEF7E1F807224A
:1031B0000B212846FEF7DCF802218DF814104FF49D
:1031C00040608DF81510049000248DF81640012001
:1031D0008DF8170004A92846FEF78EF8ADF80440D4
:1031E000ADF80640ADF80840ADF80C400C200D4C91
:1031F000ADF80A0000966946204600F011F9012258
:1032000040F22551204600F0F2F80121204600F05E
:10321000BEF84021204600F0B1F806B070BD0000B5
:1032200000040240004800402DE9F0412A4C40F2E1
:1032300025552946204600F0BBF800282DD0294608
:10324000204600F09EF8204600F040F92349244B28
:10325000C0B20870597900291FD11C780A46A50709
:103260004FF0010603F106011DD4E40704D0AA289B
:103270000AD0552802D012E055280ED150545E7065
:10328000187840F0010007E05A7850545878401CF4
:103290005870187840F002001870BDE8F0815A703C
:1032A0001A705A71F9E75C7860545C78641CE4B277
:1032B0005C701D786F0708D4597A491E8C42ECD196
:1032C0000D28ECD145F00400E6E70A28E7D1605468
:1032D0005A701A705E71E0E7004800403C00002020
:1032E000F809002070B5064686B001211020FFF7CE
:1032F00003F90121C807FFF70BF91E4D0822002131
:103300002846FEF735F8082201212846FEF730F856
:1033100002218DF8141003208DF81510049000245C
:103320008DF8164001208DF8170004A92846FDF7F6
:10333000E3FFADF80440ADF80640ADF80840ADF845
:103340000C400C200C4CADF80A0000966946204653
:1033500000F066F8012240F22551204600F047F8BF
:103360000121204600F013F84021204600F006F825
:1033700006B070BD00100240007C0040C9430180CF
:1033800070470A0A01219140C94301807047002912
:10339000818902D041F4005101E021F40051818182
:1033A00070470246002012880A4200D00120704770
:1033B00070B501F01F0501260024C1F3421306FA7F
:1033C00005F2012B0FD0022B0FD0838A4FEA112177
:1033D0000088134206FA01F600EA060001D000B1A7
:1033E0000124204670BD8389F0E7038AEEE710B51B
:1033F000C1F3421301F01F040121A140012B07D0AA
:10340000022B07D01430002A026805D00A4304E0DA
:103410000C30F8E71030F6E78A43026010BD000078
:103420007FB50446008A0D46C98820F44050014308
:103430002182A08941F20C618843A9882A8911431D
:103440006A8902431143A181A08A20F44071A889AE
:103450000843A0826846FFF77FF81A48844202D0EA
:103460001948844201D1039800E00298A189090417
:1034700000EBC00101EB0010296801D5490000E014
:103480008900B0FBF1F06422B0FBF2F109010B09F5
:103490006FF018056B4300EB8300A3891D044FF008
:1034A000320306D503EBC000B0FBF2F000F00700DA
:1034B00005E003EB0010B0FBF2F000F00F00084352
:1034C00020817FBD00100140001401408088C0F3BE
:1034D00008007047C1F3080181807047124A90428A
:1034E00002D10846FFF75EBD104A904202D108465D
:1034F000FFF700BE0E4A904202D10846FFF746BED3
:103500000C4A904202D10846FFF766BC0A4A904234
:1035100002D10846FFF7E0BC084A904202D10846B3
:10352000FFF7E0BE7047000000100140004400407B
:1035300000480040004C004000500040007C00402B
:10354000FEE7704730380A2801D20120704700207A
:103550007047704710B504460420FFF71FFA0A4869
:103560004FF47A71047014FB01F1012242804FF094
:10357000E020026942F0020202614161016941F00A
:103580000101016110BD0000FC03002070B504467C
:1035900001F058FD01280CD0094D6888844203D3FE
:1035A000B4FBF0F000F0C8FF6888B4FBF0F100FB5A
:1035B00011444FF47A706043BDE8704000F002B8E7
:1035C000FC03002070B54FF0E02500216C69094A2A
:1035D000AB6912785043AA699A42FCD002D2A3EB9D
:1035E000020302E0A4EB020633441944134681426D
:1035F000F1D370BDFC030020F0B50E4D00210E4A42
:103600000E46A5F10C07002000EB400305EB8303F9
:10361000146833F81130401C2344C0B213601028E2
:10362000F2D3180927F81100491CC9B216600629FF
:10363000E9D3F0BDB80400200000002003490A8847
:103640005206FCD5C2B28A807047000000100140CB
:103650001CB500F02BFEFFF7E5F9FEF7D2FC40F2B7
:1036600071210420FEF7D0F9C820FFF78FFFFFF784
:103670001FFAFEF7E3FB09A0FCF77CFE0E490120D0
:10368000CDE90001002340220CA10F4801F0AEFC5F
:1036900000F048FE01F0B0F800201CBD524F424F30
:1036A000542053797374656D207374617274696EFC
:1036B0006721210D0A000000080000205374617288
:1036C000745F5461736B0000A127000870B5134A42
:1036D000131893F8203093B1114B53F820308B42DC
:1036E0001AD90F4B02EB80020C3B53F82030506983
:1036F000B1FBF3F130F811400020034608E01168F7
:103700008847012070BD55690E18401C25F81630F9
:10371000A042F8DB002070BD022070BD0404002030
:103720003073000870B504460B480C4E002150F869
:10373000240006EB84054200686900F08FF8064813
:103740000021183050F82420A86800F087F80120E4
:10375000311981F8200070BD18730008040400209E
:103760002DE9F0411F4E0546002470190F4690F8D0
:10377000200010B93168284688474FF0FF327FB3E8
:10378000194B53F82510B7FBF1F0B7FBF1FC01FB27
:103790001C7101B1401C14490C3951F82510491E07
:1037A0001ED406EB8506776937F811C0BCF1000F0F
:1037B00005D00024844211D1002284B207E0641CA9
:1037C000F8E7776901EB020C521C27F81C40824293
:1037D000F7D353F825004843BDE8F081491EE3D5EF
:1037E0001046F9E7040400202473000810B50B4BC1
:1037F0000B4C002253F82030114604EB800005E00A
:10380000446934F8114004B1521C491C8B42F7D86A
:1038100064204243B2FBF3F0C0B210BD187300083D
:1038200004040020002906D0034A02EB80029268BB
:10383000891AFFF74BBF70470404002010B50446F7
:10384000FFF78EFF411C05D0034901EB8401896815
:10385000084410BD002010BD0404002001E000F861
:10386000011B521EFBD270472DE9F041184E0F4646
:103870000446F5683068001D00F0D4FC38B93068A3
:1038800090F82C1001208840316981433161601C1F
:1038900007D137B13168BDE8F0410E48091D00F08D
:1038A000F9BC30682C44AC424460316805D2B06B3E
:1038B000BDE8F041091D00F0D5BC706B091D00F09A
:1038C000D1FCB06A844200D2B462BDE8F08100004D
:1038D00038040020B0E200202DE9F041054600F058
:1038E000E5FC2D4EB068401CB06030682B4F10B125
:1038F000706930B32BE03560B068012827D100240F
:1039000004EB840007EB800000F09EFC641C202C7C
:10391000F6D3234800F098FC2148143000F094FCC2
:103920001F48283000F090FC1D483C3000F08CFC13
:103930001B48503000F088FC194870631430B063A5
:1039400005E03068E96AC06A884200D83560706A6C
:103950000121401C70626864E86A32698140114349
:10396000316100EB800007EB8000291D00F092FC24
:1039700000F0D8FC706900280CD03068E96AC06A91
:10398000884207D207494FF080500860BFF34F8F3D
:10399000BFF36F8FBDE8F08138040020E0DF002026
:1039A00060E2002004ED00E010B500F07FFC0E4C5A
:1039B0002068A0B90D4800F047FC0C48143000F016
:1039C00043FC0A48E06014302061002210210520E9
:1039D00001F042F8206010B105A100F079FDBDE8CA
:1039E000104000F09FBC000074040020C4E20020DE
:1039F000546D72510000000070B5124E124D1CE063
:103A000000F044FF306820B1002401F049FCA4B963
:103A100001E00124F9E700F049FCF068C468201DCA
:103A200000F000FCA868401EA8606868401E68603E
:103A300000F078FC204600F052F868680028DFD1DA
:103A400070BD00009CE200203804002030B4026CFD
:103A50000B46002A0BD0C1681144C1604468A142E2
:103A600001D30168C16030BC1846FCF7B6BD30BC5C
:103A700070472DE9F041856B174604460026026C1D
:103A800082B1C7B1E068FCF7A8FDE168206C091AB3
:103A9000E1602268914202D26168081AE060022F58
:103AA00016D017E02068A8B9606801F053FB0646FD
:103AB000002060600EE0A068FCF78FFD216CA0681C
:103AC0000844A0606168884204D32068A06001E0D7
:103AD00005B16D1E6D1CA5633046BDE8F08110B5C3
:103AE0000446006B00F050FC2046BDE8104000F09A
:103AF0004BBC000010484FF4A041420706D0C01D47
:103B00000D4920F00700411AC1F5A0410B4A0023DE
:103B10000144C2E900030839103A21F0070111609D
:103B20004B600B600B1AC0E9001393604FF000402C
:103B30005360D06070470000ECE20020A404002035
:103B4000074E4FF08054074DFFF756FF30680128AD
:103B5000FAD92C60BFF34F8FBFF36F8FF4E70000EB
:103B6000E0DF002004ED00E02DE9F047DDE9098405
:103B70000E461746824691009946089DA522206B65
:103B8000FCF770FD6FF00301206B01EB8701084427
:103B900020F00707780705D040F22B3219A11EA0AC
:103BA000FCF7E8FB00202218315C82F83410315C0D
:103BB00011B1401C1028F6D3002684F84360202D54
:103BC00000D31F25E562C4E91356201D00F047FB12
:103BD00004F1180000F043FB2461C5F12000646289
:103BE000A061666584F858604A465146384600F040
:103BF00003FB2060B8F1000F01D0C8F80040BDE819
:103C0000F08700002E2E5C4672656552544F535C5F
:103C10007461736B732E63004572726F723A257311
:103C20002C25640D0A00000030B5114900E0114652
:103C30000A688242FBD34B685C18844203D1406817
:103C400018444860084643681C18944209D1084C3F
:103C5000103C2468A24209D052681A4442600A68A3
:103C600012680260814200D0086030BD0460F9E74C
:103C7000A404002070B5002441600B4D0061914206
:103C800006D8D11A8269914206D2011D286907E03F
:103C90009A4203D2994201D3012403E0011DE8684E
:103CA00000F0E0FA204670BD7404002010B5044610
:103CB00000F0FCFAA06B20B1002400F033FB20469A
:103CC00010BD0124F9E700002DE9F34100980F46EB
:103CD0000026846C2CB940F6CE1216A11AA0FCF76F
:103CE00049FBA06BE16B884205D340F6CF1211A1CE
:103CF00015A0FCF73FFBA06BE16B88420CD294F956
:103D000045503A4669462046FFF7B3FE0646681C12
:103D100005D06D1C84F845503046BDE8FC81606AD2
:103D20000028F9D004F1240001F06EFA0028F3D045
:103D30000126F1E72E2E5C4672656552544F535CA6
:103D400071756575652E63004572726F723A2573E1
:103D50002C25640D0A000000F8B5054614480E46EF
:103D6000C068C068C468201D00F05CFAE0690128E2
:103D700017D1A0692B46411932462046FFF77AFF3A
:103D800078B100200346014600902A46204601F003
:103D90006DFB30B907494FF4027201F11800FCF7CE
:103DA000E9FA616A01B02046BDE8F040084700002A
:103DB00074040020D053000870B586B02F4E53E035
:103DC0000198002806DADDE90301029A904701987C
:103DD000002849DB039C606910B1201D00F022FA25
:103DE00005A800F0A7F8054601980A283CD2DFE8AC
:103DF00000F00505053B273805053B270298A1691A
:103E0000034601442A462046FFF734FF00282BD002
:103E1000616A20468847E069012825D1002000908A
:103E20000298A169002342181946204601F01EFBA2
:103E3000D0B940F2213212A117A0FCF79BFA13E08F
:103E40000298A06128B94FF44E720DA112A0FCF7A0
:103E500091FAA0692B4641191A462046FFF70AFF3E
:103E600002E0204600F090FA00231A4601A93068CB
:103E700000F02EFE0028A3D106B070BD740400200F
:103E80002E2E5C4672656552544F535C74696D65A5
:103E900072732E63000000004572726F723A2573D0
:103EA0002C25640D0A000000F8B50D46064600F00A
:103EB000EDFC684600F03EF80446009810B101F0B1
:103EC000EFF9F8BD1148ADB101690968D9B1002514
:103ED000311B2A46006800F00DFB01F0E1F90028D3
:103EE000EFD10B494FF080500860BFF34F8FBFF305
:103EF0006F8FF8BDA642EBD801F0D2F921463046CB
:103F0000FFF72AFFF8BD0125E2E700007404002056
:103F100004ED00E00648416B096829B1416BC968AE
:103F2000C9684968816270474FF0FF31FAE70000C5
:103F30003804002070B5054601F092F8064E04469C
:103F4000B068844203D200F009F8012000E00020AC
:103F500028602046B46070BD74040020F8B5184E87
:103F600026E0C068C4680568201D00F05BF9616A3E
:103F700020468847E06901281AD1A0692844A84250
:103F800006D924616060211DF06800F06BF90FE034
:103F900000200346014600902A46204601F066FABA
:103FA00030B9084940F2923201F11800FCF7E2F909
:103FB000F06801680029D4D13169C6E90310F8BD61
:103FC00074040020D053000808484068401C05D005
:103FD00040F20F1206A111A0FCF7CCF9502080F39B
:103FE0001188BFF34F8FBFF36F8FFEE78804002067
:103FF0002E2E5C4672656552544F535C706F72741E
:1040000061626C655C525644535C41524D5F434D56
:1040100034465C706F72742E630000004572726FDC
:10402000723A25732C25640D0A000000084CE068E4
:10403000016839B1002139B10020FFF735FFFFF7E2
:10404000BBFEF4E70121F6E7C0680068F5E7000071
:10405000740400202DE9F041044600F027F994F99A
:10406000455004F1240610E0A06C20B10021204648
:10407000FFF72AFE04E0606A48B1304601F0C4F858
:1040800008B100F0F5FA6D1E6DB2002DECDC4FF0BA
:10409000FF3684F8456000F045F900F007F994F91F
:1040A000445004F1100709E0206948B1384601F096
:1040B000ABF808B100F0DCFA6D1E6DB2002DF3DC38
:1040C00084F84460BDE8F04100F02CB92DE9F041DE
:1040D0000546002600F0DAFB324F386808B9FFF7D2
:1040E00009FDF86805424FD1002D4DD0083568070D
:1040F0000BD005F00700C0F108000544680704D0A4
:10410000BF2229A132A0FCF735F9002D3CD07868F8
:10411000854239D8234910310846046801E0214618
:1041200004466068A84202D220680028F7D13868A7
:10413000B846844228D00E68206808606068083657
:10414000401B10280ED96719780704D0EC2216A15D
:104150001FA0FCF70FF96068401B78603846656067
:10416000FFF762FD6168D8F804004246401AC8F8BB
:104170000400D8F80830984200D29060D8F80C00BB
:1041800001430020C4E9000101F08AF8700705D05E
:104190004FF4967204A10EA0FCF7ECF83046BDE88F
:1041A000F0810000940400202E2E5C46726565525A
:1041B000544F535C706F727461626C655C4D656DD9
:1041C0004D616E675C686561705F342E630000004E
:1041D0004572726F723A25732C25640D0A00000037
:1041E0000449086818B10868026D521C0265086825
:1041F000704700003804002010B5031F4FF0807492
:104200001C601B1F21F001011960191F044B0B607A
:1042100014390A60091F6FF0020244380A6010BDA9
:10422000C93F0008D0E9013201699A60D0E9012351
:104230005A604A68824201D182684A600022026163
:104240000868401E0860704700F108014FF0FF3217
:10425000C0E90112C16001610021016070470021C5
:104260000161704730B50C68621C02D000F1080291
:1042700002E0026904E01A4653681D68A542FAD9B3
:1042800053684B6099608A60516008610168491CFD
:10429000016030BD42684A6093688B6093685960E2
:1042A000916008610168491C01607047502080F3EB
:1042B0001188BFF34F8FBFF36F8F09494868401CC7
:1042C000486001280AD10748006810F0FF0F05D0A8
:1042D00040F2B91204A10FA0FCF74CB870470000DF
:1042E0008804002004ED00E02E2E5C4672656552C5
:1042F000544F535C706F727461626C655C525644CB
:10430000535C41524D5F434D34465C706F72742E66
:10431000630000004572726F723A25732C25640D9C
:104320000A00000010B5084C606828B94FF4E0722C
:1043300006A111A0FCF71EF86068401E606001D164
:1043400080F3118810BD0000880400202E2E5C46EA
:1043500072656552544F535C706F727461626C6524
:104360005C525644535C41524D5F434D34465C7041
:104370006F72742E630000004572726F723A25737B
:104380002C25640D0A00000070B500282AD0164DB7
:10439000A0F108046068E968084205D14FF4A072F2
:1043A00012A11CA0FBF7E6FF206828B140F24112E1
:1043B0000EA118A0FBF7DEFF6068E968084211D083
:1043C0002268002A0ED18843606000F05FFA6068BE
:1043D0006968084468602046FFF726FCBDE8704025
:1043E00000F05EBF70BD0000940400202E2E5C46DD
:1043F00072656552544F535C706F727461626C6584
:104400005C4D656D4D616E675C686561705F342EF3
:10441000630000004572726F723A25732C25640D9B
:104420000A00000006484FF47A710068B0FBF1F111
:104430004FF0E020491E41610721016170470000F3
:10444000E803002010B5FBF76FFF104C10280CD3C9
:1044500000F1E02090F8F0032178884205D24FF473
:1044600040720BA115A0FBF785FF18480068A168F2
:1044700000F4E060884207D9BDE810404FF4447270
:1044800003A10EA0FBF776BF10BD0000880400203A
:104490002E2E5C4672656552544F535C706F727479
:1044A00061626C655C525644535C41524D5F434DB2
:1044B00034465C706F72742E630000004572726F38
:1044C000723A25732C25640D0A0000000CED00E003
:1044D00010B5074B002253F832401CB1521C082A79
:1044E000F9D310BD43F8321003EBC201486010BD90
:1044F000A0DF002070B515460E460446FFF7D6FE35
:1045000094F944100020491C01D184F8440094F926
:104510004510491C01D184F84500FFF703FFA06B4B
:1045200028B92A46314604F1240000F0D1F820468B
:10453000BDE87040FFF78EBD10B5040012D00E49E3
:10454000096B29B140F2CF420CA111A0FBF712FF79
:1045500000F09CF900212046FFF786F900F0A0FE4C
:10456000002807D10E494FF080500860BFF34F8FED
:10457000BFF36F8F10BD0000380400202E2E5C4664
:1045800072656552544F535C7461736B732E630094
:104590004572726F723A25732C25640D0A00000073
:1045A00004ED00E070B50446FFF780FE234D04B92A
:1045B0002C68201DFFF736FE58B9E06A204A00EB50
:1045C000800152F8211021B90121814028698843D6
:1045D0002861A06A18B104F11800FFF723FE686A89
:1045E000401C68622868844207D1211D1548FFF7E6
:1045F00051FE6868401C686007E0A868401EA8601B
:104600002046FFF76CFAFFF785FCFFF78BFE686921
:10461000002812D0286884420FD1286B28B140F2BC
:10462000654209A10DA0FBF7A5FE10494FF080508F
:104630000860BFF34F8FBFF36F8F70BD3804002049
:10464000E0DF00209CE200202E2E5C467265655261
:10465000544F535C7461736B732E63004572726FB9
:10466000723A25732C25640D0A00000004ED00E069
:1046700001490120C86170473804002070B50D461B
:10468000040005D140F6063207A10CA0FBF772FE2C
:104690000E48016820461831FFF7E4FD2846BDE8C2
:1046A00070400121FFF7E0B82E2E5C46726565521E
:1046B000544F535C7461736B732E63004572726F59
:1046C000723A25732C25640D0A000000380400207E
:1046D00070B514460E46050005D140F6313209A1E9
:1046E0000DA0FBF747FE1048016828461831FFF778
:1046F000D1FD0CB14FF0FF3621463046BDE8704089
:10470000FFF7B2B82E2E5C4672656552544F535C6B
:104710007461736B732E63004572726F723A257306
:104720002C25640D0A0000003804002070B5040038
:1047300039D01D4DE06A2968C96A884233D2A06920
:10474000002804DB2868C06AC0F12000A061E06A8C
:10475000164E00EB8000616906EB800081421FD19C
:10476000201DFFF75FFD012150B9E06A00EB8002D8
:1047700056F8222022B92A6901FA00F082432A6100
:104780002868C06AE0622A6981401143296100EB10
:10479000800006EB8000211DBDE87040FFF77ABD68
:1047A0002868C06AE06270BD38040020E0DF0020A5
:1047B00010B5040005D140F6C13205A109A0FBF7F0
:1047C000D9FD0C48016A2160C068606010BD00001E
:1047D0002E2E5C4672656552544F535C7461736B48
:1047E000732E63004572726F723A25732C25640D27
:1047F0000A000000380400201CB517480024CDE949
:1048000000402346822215A1164800F0EFFB012844
:1048100003D100F0F1FD01280AD0401C1BD102B0E9
:1048200040F28472BDE810400FA114A0FBF7A2BDB6
:10483000502080F31188BFF34F8FBFF36F8F06486E
:104840004FF0FF312C38816201214161C460BDE825
:104850001C4000F061B81CBD6404002049444C4574
:1048600000000000413B00082E2E5C467265655238
:10487000544F535C7461736B732E63004572726F97
:10488000723A25732C25640D0A0000000248016B62
:10489000491C0163704700003804002070B5134DB7
:1048A000286B10B10120E86170BD0020E861286923
:1048B0000F4EB0FA80F0C0F11F0000EB800456F8F4
:1048C000240028B940F6F6220AA10FA0FBF752FDFA
:1048D00006EB840000F1080241684968416091429A
:1048E00001D149684160C868286070BD3804002063
:1048F000E0DF00202E2E5C4672656552544F535CFB
:104900007461736B732E63004572726F723A257314
:104910002C25640D0A0000001CB5304C206830497D
:10492000884205D140F259122EA139A0FBF722FD91
:1049300020682B49491E884205D14FF4AD7229A148
:1049400033A0FBF717FD364C20780190FF20207034
:1049500020788DF800009DF800009DF8001000F010
:10496000F000884205D040F273121EA128A0FBF788
:1049700001FD9DF800002B4A00F050001070072048
:10498000906007E09068401E90609DF80000400035
:104990008DF800009DF800000006F3D4107A0002A4
:1049A00000F4E0609060019820700C4820300168AD
:1049B00041F470010160016841F070410160FFF74E
:1049C00031FD00205060FBF777FC1748016841F08B
:1049D00040410160FBF760FC00201CBD00ED00E0E1
:1049E00071C20F412E2E5C4672656552544F535C66
:1049F000706F727461626C655C525644535C4152D4
:104A00004D5F434D34465C706F72742E630000003E
:104A10004572726F723A25732C25640D0A000000EE
:104A200000E400E08804002034EF00E010B55020DE
:104A300080F31188BFF34F8FBFF36F8F00F016FB29
:104A400018B104494FF080500860002080F31188AD
:104A500010BD000004ED00E02DE9F04117460E46C0
:104A6000050005D14FF4C47210A115A0FBF782FC1C
:104A7000BEB105FB06F05430FFF728FB04000ED052
:104A800004F154007EB12060C4E90F562046012194
:104A900000F0E0F884F8507000212046A164BDE8E1
:104AA000F0810020E7E72460EEE700002E2E5C4650
:104AB00072656552544F535C71756575652E630060
:104AC0004572726F723A25732C25640D0A0000003E
:104AD0002DE9FF4F83B09B468A4604004FF0000645
:104AE00005D140F2DC4251A155A0FBF743FCBAF1DD
:104AF000000F07D1206C28B140F2DD424BA150A03D
:104B0000FBF738FC00F09EFA38B9059828B14FF44D
:104B10009C6246A14AA0FBF72DFC4FF000094FF024
:104B20008057DFF82C81FFF7C1FBA56B45B35146D9
:104B30002046E668FEF78AFFBBF1000F13D0E6605F
:104B4000606A50B104F1240000F05EFB28B1C8F89F
:104B50000070BFF34F8FBFF36F8FFFF7E3FB0120B0
:104B600007B0BDE8F08F6D1EA563206810B9FFF790
:104B700037FB606020690028EFD004F11000E3E704
:104B8000059808B11EB106E0FFF7CCFB27E06846A8
:104B9000FFF70EFE0126FFF7C5FBFFF777FEFFF7D5
:104BA00085FB94F94400401C01D184F8449094F9A9
:104BB0004500401C01D184F84590FFF7B3FB05A9DF
:104BC000684600F0CFF9002820460AD0FFF742FAE5
:104BD00000F066FB2046FFF769F80028A3D000200C
:104BE000BEE7FFF763F8D8B1206830B9FFF75EFB86
:104BF0006068FFF79BFDFFF795FB04F12400059922
:104C0000FFF73CFD2046FFF725FA00F049FB00289E
:104C100089D1C8F80070BFF34F8FBFF36F8F82E761
:104C20002046FFF717FA00F03BFB7CE72E2E5C4690
:104C300072656552544F535C71756575652E6300DE
:104C40004572726F723A25732C25640D0A000000BC
:104C500004ED00E070B50D46040005D140F21B12D2
:104C60001CA121A0FBF786FBFFF720FBD4E90F2056
:104C7000216802FB001161600021A1632168A1602D
:104C80000A46D4E90F01401E00FB0121E1602146E4
:104C90004FF0FF3001F8440F487004F110004DB19F
:104CA000FFF7D2FA04F12400FFF7CEFAFFF73AFB40
:104CB000012070BD21690029F8D000F0A5FA002874
:104CC000F4D00D494FF080500860BFF34F8FBFF311
:104CD0006F8FEBE72E2E5C4672656552544F535C26
:104CE00071756575652E63004572726F723A257332
:104CF0002C25640D0A00000004ED00E02DE9FF4FB3
:104D000083B099468B4604004FF0000605D140F26F
:104D1000D92252A156A0FBF72DFBBBF1000F07D102
:104D2000206C28B140F2DA224CA151A0FBF722FB03
:104D3000B9F1020F08D1E06B012805D040F2DB2267
:104D400046A14BA0FBF716FB00F07CF938B905989B
:104D500028B140F2DE2241A145A0FBF70BFB4FF04A
:104D6000000A4FF08057DFF81881FFF79FFAA06B19
:104D7000E16B884206D3B9F1020F03D0059800B366
:104D800016B325E04A4659462046FEF772FEA16C4E
:104D900021B149462046FEF797FF05E0616A19B147
:104DA00004F1240000F030FA28B1C8F80070BFF315
:104DB0004F8FBFF36F8FFFF7B5FA012007B0BDE843
:104DC000F08FFFF7AFFA21E06846FFF7F1FC01260C
:104DD000FFF7A8FAFFF75AFDFFF768FA94F94400C5
:104DE000401C01D184F844A094F94500401C01D135
:104DF00084F845A0FFF796FA05A9684600F0B2F8D6
:104E000030B12046FFF726F900F04AFA0020D5E736
:104E1000FFF74CFAA06BE16B884201D1012500E05D
:104E20000025FFF77FFA95B104F110000599FFF70F
:104E300025FC2046FFF70EF900F032FA002894D145
:104E4000C8F80070BFF34F8FBFF36F8F8DE7204618
:104E5000FFF700F900F024FA87E700002E2E5C46E9
:104E600072656552544F535C71756575652E6300AC
:104E70004572726F723A25732C25640D0A0000008A
:104E800004ED00E02DE9F0479846154689460400F8
:104E900005D140F29F322AA12EA0FBF76BFAB9F19F
:104EA000000F07D1206C28B14FF4687224A129A00B
:104EB000FBF760FAB8F1020F08D1E06B012805D0CA
:104EC00040F2A1321EA123A0FBF754FAFFF7BAFA71
:104ED0005020EFF3118780F31188BFF34F8FBFF39A
:104EE0006F8FA06BE16B884207D3B8F1020F04D03B
:104EF000002087F31188BDE8F08794F945604246A9
:104F000049462046FEF7B5FD701C04D0761C84F897
:104F100045600120EDE7A06C012620B14146204606
:104F2000FEF7D2FE06E0606A0028F2D004F1240009
:104F300000F06AF90028ECD0002DEAD02E60E8E7F6
:104F40002E2E5C4672656552544F535C71756575C3
:104F5000652E63004572726F723A25732C25640DBD
:104F60000A00000070B50D46040005D140F6CB32B2
:104F700014A119A0FBF7FEF92DB940F6CC3211A10E
:104F800015A0FBF7F7F9FFF791F9174AD0682968E0
:104F90004B1C0FD02368126A934202D0626882428F
:104FA0000AD96268801A884206D2081A2860204608
:104FB000FFF7FEFB002400E00124FFF7B3F92046D1
:104FC00070BD00002E2E5C4672656552544F535CD6
:104FD0007461736B732E63004572726F723A25733E
:104FE0002C25640D0A000000380400202DE9FF5F25
:104FF0008346DDE90E87994616468A469000FFF7FC
:1050000065F805001AD05C20FFF760F8040012D0A4
:1050100025630021CDE90241CDE900874B463246A8
:1050200051465846FEF7A0FD2046FEF755FC0120EC
:1050300004B0BDE8F09F2846FFF7A6F94FF0FF3017
:10504000F6E700000548416919B1006B18B100206E
:10505000704701207047022070470000380400208C
:105060000148C06870470000380400202DE9F04175
:105070002D4F0026386B40B1B869401CB861F86903
:1050800000B101263046BDE8F081FD686D1CFD6071
:1050900011D1786B006828B140F6D91223A128A05D
:1050A000FBF768F9786BB96B7963B863386A401CB1
:1050B0003862FEF72FFFB86ADFF89480854209D383
:1050C000786B006880B1786BC068C468606885429E
:1050D0000DD2B8623868C06A00EB800158F8210030
:1050E0000128CCD90126CAE74FF0FF30F1E7201D97
:1050F000FFF798F8A06A18B104F11800FFF792F8CA
:10510000E06A01213A6981401143396100EB800175
:1051100008EB8100211DFFF7BDF8E06A3968C96A14
:105120008842CDD30126CBE7380400202E2E5C46E2
:1051300072656552544F535C7461736B732E6300D8
:105140004572726F723A25732C25640D0A000000B7
:10515000E0DF002070B504004FF000063CD01F4D8A
:105160002868844205D040F6C7621DA121A0FBF744
:1051700001F9206D28B940F6C96219A11DA0FBF7FD
:10518000F9F8206D401E2065E26CE16A914223D05F
:1051900010BB201DFFF746F81A49012250B9E06AFA
:1051A00000EB800351F8233023B92B6902FA00F099
:1051B00083432B61E06CE062C0F12000A061E06AF3
:1051C0002B6982401A432A6100EB800001EB8000CA
:1051D000211DFFF75FF80126304670BD380400201E
:1051E0002E2E5C4672656552544F535C7461736B2E
:1051F000732E63004572726F723A25732C25640D0D
:105200000A000000E0DF00202DE9F041C068C4681A
:105210002CB940F6613216A11AA0FBF7ABF804F1E5
:1052200018000746FEF7FEFF1A4D286B012660B1F5
:1052300039461948FFF72EF8E06A2968C96A88429A
:1052400013D90120EE61BDE8F081201DFEF7EAFFD1
:10525000E06A2A6906FA00F1114329610F4900EB5F
:10526000800001EB8000211DE4E70020EBE7000057
:105270002E2E5C4672656552544F535C7461736B9D
:10528000732E63004572726F723A25732C25640D7C
:105290000A0000003804002088E20020E0DF00203F
:1052A0002DE9F0472B4D00242746286B28B94FF4F1
:1052B000FD6229A12DA0FBF75DF8FEF7F7FF286B33
:1052C000401E2863286BE8BBA8682C490126C8B398
:1052D000A1F52A798846D8F80010E9B1D8F80C0071
:1052E000C46804F11800FEF79DFF201DFEF79AFF29
:1052F000E06A2A6906FA00F11143296100EB800196
:1053000009EB8100211DFEF7C5FFE06A2968C96A23
:105310008842E0D3EE61DEE70CB1FEF7FBFDAC693D
:105320003CB1FFF7A3FE00B1EE61641EF9D100208D
:10533000A861E86930B11249012738070860BFF356
:105340004F8F00E001E0BFF36F8FFEF7EBFF3846B1
:10535000BDE8F087380400202E2E5C467265655249
:10536000544F535C7461736B732E63004572726F9C
:10537000723A25732C25640D0A00000088E2002093
:1053800004ED00E02DE9F0470746994616460D4624
:105390002C20DDF820A0FEF799FE040014D0B846BA
:1053A0004F46D1462DB94FF4C67209A10EA0FAF7A7
:1053B000E1FFFEF7F9FA04F11801C4F8008081E872
:1053C000E002201DFEF74BFF2046BDE8F0870000FD
:1053D0002E2E5C4672656552544F535C74696D6540
:1053E00072732E63000000004572726F723A25736B
:1053F0002C25640D0A0000001CB50024FEF7D4FA29
:105400000C48006868B10B491F20091DCDE9000157
:1054100000234FF4827208A10948FFF7E7FD04005A
:1054200005D140F2331207A10CA0FAF7A3FF2046E2
:105430001CBD000074040020546D7220537663007C
:105440002D4000082E2E5C4672656552544F535C09
:1054500074696D6572732E63000000004572726F8F
:10546000723A25732C25640D0A0000002DE9FF47D0
:10547000DDF830A0994690460D4606004FF0000733
:1054800005D14FF4D37212A117A0FAF773FF1A4C8B
:10549000206880B1CDE900580296062D11DAFFF799
:1054A000D1FD02284FF0000309D000226946206890
:1054B000FFF724FC074604B03846BDE8F0875246A3
:1054C000F4E700234A466946FFF7DCFCF2E70000F8
:1054D0002E2E5C4672656552544F535C74696D653F
:1054E00072732E63000000004572726F723A25736A
:1054F0002C25640D0A000000740400204FF0407059
:10550000E1EE100A70470000000000000000002FCC
:10551000000000000700070000147F147F1400241F
:105520002A7F2A120062640813230036495522504C
:1055300000000503000000001C2241000000412281
:105540001C000014083E08140008083E080800006B
:1055500000A0600000080808080800006060000063
:10556000002010080402003E5149453E0000427FE1
:105570004000004261514946002141454B3100182D
:1055800014127F10002745454539003C4A494930EF
:1055900000017109050300364949493600064949A9
:1055A000291E0000363600000000563600000008B4
:1055B0001422410000141414141400004122140891
:1055C00000020151090600324959513E007C121176
:1055D000127C007F49494936003E41414122007F0B
:1055E0004141221C007F49494941007F09090901C5
:1055F000003E4149497A007F0808087F0000417F4A
:105600004100002040413F01007F08142241007FFB
:1056100040404040007F020C027F007F0408107F62
:10562000003E4141413E007F09090906003E4151CB
:10563000215E007F09192946004649494931000188
:10564000017F0101003F4040403F001F2040201FDC
:10565000003F4038403F006314081463000708709F
:10566000080700615149454300007F414100005552
:105670002A552A55000041417F000004020102041E
:10568000004040404040000001020400002054540B
:105690005478007F4844443800384444442000385B
:1056A0004444487F00385454541800087E090102CD
:1056B0000018A4A4A47C007F080404780000447DA2
:1056C0004000004080847D00007F102844000000DE
:1056D000417F4000007C04180478007C08040478B2
:1056E00000384444443800FC24242418001824249E
:1056F00018FC007C0804040800485454542000049A
:105700003F444020003C4040207C001C2040201CA6
:10571000003C4030403C004428102844001CA0A01D
:10572000A07C004464544C44141414141414000059
:10573000000000000000000000000000FC0000006D
:10574000000002000000000C020C0200000000003B
:10575000000090D0BCD0BC900003000300001824CF
:10576000FE448C000302070201001824D8B04C80CC
:10577000000300010201C038E438E0000102020128
:105780000202080600000000000000000000000007
:1057900000F80402000000010204000204F8000006
:1057A0000004020100009060F86090000000010019
:1057B00000002020FC20200000000100000000006C
:1057C000000000000806000000002020202020002B
:1057D00000000000000000000000000000020000C7
:1057E00000000080601C0200040300000000F804B8
:1057F0000404F8000102020201000008FC0000009D
:10580000000203020000188444241800030202026C
:10581000020008042424D80001020202010040B062
:1058200088FC80000000000302003C242424C40003
:10583000010202020100F824242CC000010202022D
:1058400001000C04E41C0400000003000000D82444
:105850002424D80001020202010038444444F80024
:10586000000302020100000010000000000002001E
:1058700000000000200000000000060000000020E2
:105880005088040200000000010290909090900067
:105890000000000000000002048850200002010007
:1058A00000001804C4241800000002000000F804DE
:1058B000E494F80001020202020000E09CF0800083
:1058C00002030000030204FC2424D80002030202A5
:1058D0000100F80404040C0001020202010004FCAF
:1058E0000404F80002030202010004FC24740C000A
:1058F00002030202030004FC24740C0002030200F1
:105900000000F0080444CC4000010202010004FC45
:105910002020FC040203000003020404FC04040031
:10592000020203020200000404FC0404060404034F
:10593000000004FC24D00C0402030200030204FC57
:1059400004000000020302020203FC3CC03CFC0015
:1059500003000300030004FC30C4FC040203020043
:105960000300F8040404F80001020202010004FC30
:1059700024241800020302000000F8848404F800C4
:1059800001020207050004FC2464980002030200DF
:105990000302182424448C000302020201000C04B8
:1059A000FC040C0000020302000004FC0000FC04E4
:1059B000000102020100047C80E01C0400000300DE
:1059C00000001CE03CE01C00000300030000049CFD
:1059D000609C0400020300030200041CE01C04009D
:1059E0000002030200000C84641C04000203020293
:1059F00003000000FE020200000007040400000E85
:105A000030C00000000000010200000202FE0000A1
:105A1000000404070000000402040000000000006D
:105A20000000000000000000080808080808000046
:105A3000020000000000000000000040A0A0C00024
:105A400000010202030204FC2020C0000003020245
:105A5000010000C02020600000010202020000C01E
:105A60002024FC0000010202030200C0A0A0C0002C
:105A70000001020202000020F824240400020302B4
:105A800002000040A0A0602000070A0A0A0404FCEB
:105A90002020C0000203020003020020E4000000F6
:105AA000000203020000000020E4000008080807CC
:105AB000000004FC80E02020020302000302040432
:105AC000FC000000020203020200E020E020C0000F
:105AD00003000300030020E02020C00002030200B6
