:020000040800F2
:1000000030310120F1020008AB1600088B11000806
:10001000A9160008390B0008DD2B000800000000BD
:10002000000000000000000000000000390200088D
:10003000590D0008000000008D020008411F000853
:100040000B0300080B0300080B0300080B03000858
:100050000B0300080B0300085D0D0008A10E00084B
:10006000C10F00080B030008D90F00080B0300089C
:100070000B0300080B0300080B0300080B03000828
:100080000B0300080B0300080B0300080B03000818
:100090000B0300080B0300080B030008F10F000816
:1000A0000B0300088D2000080B0300080B03000859
:1000B000B52000080B0300080B0300080B03000821
:1000C0000B0300080B0300080B0300080B030008D8
:1000D0000B030008F52600080B030008DD280008C4
:1000E000850E00080B0300080B0300080B03000833
:1000F0000B0300080B0300080B0300080B030008A8
:100100000B0300080B0300080B0300080B03000897
:10011000292500080B0300080B030008FD21000837
:10012000DD0B00080B0300080B0300080B0300089D
:100130000B0300080B0300080B0300080B03000867
:100140000B0300080B0300080B0300080B03000857
:100150000B0300080B0300080B0300080B03000847
:100160000B0300080B0300080B0300080B03000837
:100170000B0300080B0300080B0300080B03000827
:100180000B0300080B03000800F002F800F044F82D
:100190000AA090E8000C82448344AAF10107DA45E2
:1001A00001D100F039F8AFF2090EBAE80F0013F0F0
:1001B000010F18BFFB1A43F001031847E448000081
:1001C00004490000103A24BF78C878C1FAD8520711
:1001D00024BF30C830C144BF04680C6070470000C1
:1001E0000023002400250026103A28BF78C1FBD840
:1001F000520728BF30C148BF0B607047642900F028
:100200000381732900F01082002070471FB504F0AD
:100210002FFC1FBD10B510BD00F09BFA1146FFF773
:10022000F5FF02F05BFD00F0B9FA03B4FFF7F2FF4F
:1002300003BC02F0D4FC00002A4B19680868B0E83F
:10024000F04F80F30988BFF36F8F4FF0000080F309
:10025000118870470000000006480068006880F3BD
:10026000088862B661B6BFF34F8FBFF36F8F00DFB0
:1002700000BF00BF08ED00E0DFF80C00016841F4AA
:1002800070010160704700BF88ED00E0EFF3098066
:10029000BFF36F8F134B1A681EF0100F08BF20EDCD
:1002A000108A20E9F04F106008B44FF0500080F33E
:1002B0001188BFF34F8FBFF36F8F03F0A9FD4FF08D
:1002C000000080F3118808BC19680868B0E8F04F96
:1002D0001EF0100F08BFB0EC108A80F30988BFF33E
:1002E0006F8F7047A0000020EFF30580704700007B
:1002F0000948804709480047FEE7FEE7FEE7FEE7BA
:10030000FEE7FEE7FEE7FEE7FEE7FEE704480549F5
:10031000054A064B70470000551F00088901000878
:10032000302B012030310120302D0120302D0120D3
:10033000704700000FB4044910B503AA029800F0FA
:1003400077F910BC5DF814FB680000202DE9F0413E
:100350000E460446002020622046E168884730B3FC
:10036000252805D0D4E901219047206A401CF2E7F6
:10037000E168204600278847050018D0A5F1410014
:10038000192802D820354FF4006732462946204606
:100390002760FFF733FF40B1012804D0F61D26F097
:1003A00007060836D8E7361DD6E72846DAE7206A7A
:1003B000BDE8F08170B50C460546012A05D02878C5
:1003C000800600D5EA69002302E0012305E05B1CFA
:1003D000934202D2E05C0028F9D1A869E618C01A5D
:1003E000A861286A184428622846AFF3008004E018
:1003F000D5E9012114F8010B9047B442F8D32846FF
:10040000AFF3008070BD00002DE9F04106460024E6
:1004100010687529314616A510D0AFF3008000286A
:1004200002DA404213A507E031688A0701D512A518
:1004300002E0490704D511A5012401E0AFF30080D3
:1004400000210A2206F1240709E0B0FBF2FCB0FB10
:10045000F2F302FB1C00303078541846491C002887
:10046000F3D123462A463046BDE8F04100F059B8A2
:10047000000000002D0000002B0000002000000004
:10048000032A40F2308010F0030C00F0158011F8C0
:10049000013BBCF1020F624498BF11F801CB00F898
:1004A000013B38BF11F8013BA2F1040298BF00F8EC
:1004B00001CB38BF00F8013B11F0030300F0CA8004
:1004C000083AC0F0088051F8043B083A51F804CBD0
:1004D000A0E80810F5E7121D5CBF51F8043B40F896
:1004E000043BAFF30080D20724BF11F8013B11F8A1
:1004F00001CB48BF11F8012B24BF00F8013B00F8E5
:1005000001CB48BF00F8012B704702F0FF0343EA1C
:10051000032242EA024200F0D1B8704770477047A8
:1005200070472DE9F0470D4699469246044600F182
:1005300024080168880604D5E06921F010012160D3
:1005400000E00120A84201DD471B00E00027A1696F
:100550007A1902EB0900081AA0612078C00602D4BB
:100560002046AFF30080002608E0D4E901211AF804
:1005700006009047206A401C761C20624E45F4DB42
:100580002078C0060AD52046AFF3008006E0D4E903
:10059000012130209047206A401C2062381EA7F1BC
:1005A0000107F4DC07E0D4E9012118F805009047C1
:1005B000206A401C2062281EA5F10105F3DC2046BC
:1005C000AFF300802078000602D50220BDE8F08756
:1005D0000120FBE701694A1C02610878704700B5F9
:1005E0008FB0CDE901310021059105497944CDE96C
:1005F000031011466846FFF7A9FE0FB000BD0000CA
:10060000E5FFFFFF10B5436913B1AFF3008001E0D0
:10061000FFF7D0FE012010BD127800F124010A700E
:1006200000224A700122EDE711684FF0FF32E9E73E
:10063000074B70B50D467B44FFF7D1FF04462846B3
:1006400000F05CF810B14FF0FF3070BD204670BD77
:100650008F26000010B5203AC0F00B80B1E818508A
:10066000203AA0E81850B1E81850A0E81850BFF49C
:10067000F5AF5FEA027C24BFB1E81850A0E818503B
:1006800044BF18C918C0BDE810405FEA827C24BF8F
:1006900051F8043B40F8043B08BF7047D20728BF1D
:1006A00031F8023B48BF11F8012B28BF20F8023B6C
:1006B00048BF00F8012B70474FF000020429C0F03A
:1006C000128010F0030C00F01F80CCF1040CBCF180
:1006D000020F18BF00F8012BA8BF20F8022BA1EBD6
:1006E0000C0100F011B85FEAC17C24BF00F8012BB7
:1006F00000F8012B48BF00F8012B7047007B00F089
:10070000800070474FF0000200B5134694469646AD
:10071000203922BFA0E80C50A0E80C50B1F1200114
:10072000BFF4F7AF090728BFA0E80C5048BF0CC0C2
:100730005DF804EB890028BF40F8042B08BF704720
:1007400048BF20F8022B11F0804F18BF00F8012B92
:100750007047754600F02CF8AE46050069465346D2
:1007600020F00700854618B020B5FFF7CFFDBDE8A3
:1007700020404FF000064FF000074FF000084FF008
:10078000000B21F00701AC46ACE8C009ACE8C00999
:10079000ACE8C009ACE8C0098D46704710B5044606
:1007A000AFF300802046BDE81040FFF73EBD0000DB
:1007B00000487047CC2A012070B501210E028CB090
:1007C000304601F073F90121042001F057F90F20A0
:1007D000032506908DF81C5000248DF81F4006A9B3
:1007E000334800F07BFC0121084601F047F98DF801
:1007F0001C5006958DF81F4006A92E4800F06EFC8F
:1008000000F090F80121304601F05CF900213046FB
:1008100001F058F93002CDE908400A9408A80B9479
:1008200000F056F801208DF8040000948DF80500C2
:10083000029404940620204C8DF81400694620464A
:1008400000F0AEF80121204600F038F8062301221E
:100850000B21204600F0CAF8062302220A21204676
:1008600000F0C4F8062303220C21204600F0BEF855
:10087000062304220121204600F0B8F806230522B1
:100880000021204600F0B2F806231A460D2120462A
:1008900000F0ACF8204600F0E3F80121204600F01B
:1008A00037F80121204600F029F80CB070BD000097
:1008B0000008024000000240002001400029816839
:1008C00002D041F0010101E021F001018160704797
:1008D000084B10B5D3F8042307490A40D0E90014A7
:1008E0002143D0E90240044321431143C3F80413D8
:1008F00010BD000000200140E030FCFF00298168AD
:1009000002D041F4807101E021F480718160704770
:100910000029816802D041F4007101E021F40071E6
:100920008160704710B5012190B0880501F0A6F8EC
:10093000184C204600F09EF90028FAD11649CDE95E
:1009400000011649CDE902106021CDE904104FF4F1
:1009500080610691490007910891C91009914902E7
:10096000CDE90A100121CDE90C100E906946204610
:1009700000F0C8F90121204600F072F9102120464C
:1009800000F042F901221021204600F0A5F910B034
:1009900010BD0000106402404C20014020010020E6
:1009A00030B542680F4B0C791A400B6842EA0422BA
:1009B0001343436082680C4B4D791A40D1E90343DD
:1009C00023438C6844EA4504234313438360C26A8B
:1009D000097D22F47002491EC9B242EA0151C16286
:1009E00030BD0000FFFEFFFCFDF7FFC070B507261D
:1009F00009290AD9C568A1F10A0404EB4404A640F8
:100A0000B543A3401D43C56007E0056901EB410400
:100A1000A640B543A3401D4305611F23072A09D201
:100A2000446B521E02EB820293409C4391400C4364
:100A3000446370BD0D2A09D2046BD21F02EB8202FF
:100A400093409C4391400C43046370BDC46A0D3ACB
:100A500002EB820293409C4391400C43C46270BD00
:100A6000816841F080418160704700F0B5BB10B5EE
:100A7000044600F057FC200AA02101EB4000C0B260
:100A800000F020FC00F08EFCE0B200F01BFC00F057
:100A900089FC00F047FCA12000F014FC00F082FC6F
:100AA000002000F0DBFB044600F05CFC204610BD9B
:100AB00070B50D46044600F035FC200AA02101EB7C
:100AC0004000C0B200F0FEFB00F06CFCE0B200F0B1
:100AD000F9FB00F067FC284600F0F4FB00F062FC34
:100AE00000F040FCBDE87040322002F095B8642070
:100AF00002F0DCFFFBE700007CB50121082000F0DC
:100B0000BDFF01208DF8040000208DF806008DF84F
:100B100007000320074D4FF400748DF80500009482
:100B20006946284600F0DAFA2146284600F029FBFB
:100B30007CBD0000000C0240FEE7032002F0B6FF7F
:100B4000FBE700000A48016A491C0162818B491CCD
:100B500081830849897F012903D10749097DC90794
:100B600002D0002181847047818C491CFAE7000083
:100B7000700200203C020020E0020020C82002F0A9
:100B800095FFFBE72DE9FC410121084600F076FFC7
:100B900000268DF8046001274FF480558DF807700A
:100BA000022400958DF8054069460A4800F096FA3F
:100BB0000121102000F062FF8DF804608DF80770AD
:100BC00000958DF805406946034800F087FABDE8B6
:100BD000FC810000000002400010024070B5084C8B
:100BE000084D2146284600F04DF8002807D0214640
:100BF000284600F01FF8BDE8704002F043B870BD11
:100C00002080001010640240074A904201D2074839
:100C100001E005481038064A8B0001EA020101D5BF
:100C2000C1607047816070471064024000600240FC
:100C30007D0F7D0F074A904201D2074801E0054829
:100C40001038064A8B0001EA020101D5C1607047E5
:100C50008160704710640240006002407D0F7D0F8C
:100C60000029016802D041F0010101E021F00101F9
:100C700001607047014600200968C90700D00120C3
:100C80007047000030B5104A0024904201D20F4A4C
:100C900001E00D4A103A0E4B194205D01E2303EA1B
:100CA000D12503682B4002E0406900F080038800F2
:100CB00001D5506800E01068064A1040084201D093
:100CC00003B10124204630BD1064024000600240A0
:100CD0003C0F3C0F7D0F7D0F0B0607D5436912B10A
:100CE00043F0800301E023F080034361802908D0B2
:100CF000002A026801F01E0101D00A4300E08A4385
:100D00000260704730B50368124ACC6813400A6825
:100D10002243D1E905452C432243CC6922430C6A86
:100D200022434C6A22438C6A22434C6B22438C6BD5
:100D300022431A430260426922F00703D1E90B24DF
:100D400022431A4342610A6942604A6882608968A4
:100D5000C16030BD3F801CF07047000070B50120BD
:100D600000F062F900286ED0434C44484FF6FF76FD
:100D700021784FF000054A064FEA81611CD4002912
:100D80001CDA012100F0F6F900286ED1A089E0807C
:100D9000217801F0DF022270A1888842A0EB0100D7
:100DA00000D2304480B2A0F5B970B4285DD242F0D0
:100DB00040002070657058E000290BDB012100F035
:100DC000D9F9012851D1A089A080207840F02000D5
:100DD00020704AE0012100F0CDF998BBA089E080A5
:100DE000217801F0DF012170A1888842A0EB010089
:100DF00000D2304480B2A0F11401462901D26078BB
:100E000006E0A0F164016E2904D2607840F0010090
:100E1000607007E0A0F1DC01322903D3B0F5967FC2
:100E200000D32570207800F01F01062918D3257003
:100E300060781349502807D00C2808D0022809D020
:100E40000A280AD011E015E0502008700DE00C20AF
:100E500048700AE00220887007E00A20C87004E0A9
:100E6000401C2070607840006070BDE87040012038
:100E700000F0D4B870BD00003A0000200004024029
:100E80007002002010B54FF40064204600F0CCF84A
:100E9000002804D02046BDE8104000F0BFB810BDC7
:100EA00070B5022000F0C0F8002870D0414C4248D4
:100EB0004FF6FF76A1784FF000054A064FEA8161B0
:100EC0001CD400291CDA022100F054F900286AD150
:100ED000A0896081A17801F0DF02A2702189884297
:100EE000A0EB010000D2304480B2A0F5B970B42864
:100EF00059D242F04000A070E57054E000290BDBAD
:100F0000022100F037F901284DD1A0892081A07875
:100F100040F02000A07046E0022100F02BF978BBE1
:100F2000A0896081A17801F0DF01A1702189884248
:100F3000A0EB010000D2304480B2A0F1140150298E
:100F400001D2E07806E0A0F16401782904D2E078CB
:100F500040F00100E07003E0B0F5967F00D3A5708B
:100F6000A07800F01F01062918D3A570E078134976
:100F7000502806D00C2807D0022809D00A280AD009
:100F800011E0502008720EE00C2048720BE00FE0D8
:100F90000220887207E00A20C87204E0401CA0709A
:100FA000E0784000E070BDE87040022000F036B804
:100FB00070BD00003A0000200004024070020020D2
:100FC00010B5042000F030F8002804D0BDE810402F
:100FD000042000F023B810BD10B5102000F024F854
:100FE000002804D0BDE81040102000F017B810BD54
:100FF00010B5202000F018F810B1802000F00EF895
:101000004FF40074204600F00FF8002804D020466A
:10101000BDE8104000F002B810BD000001490860B2
:1010200070470000143C0140034A0146002012684A
:101030000A4200D001207047143C014030B51A4AE2
:101040008379016853B313688B431360111D0B68D8
:101050000468A3430B60017911440B6804682343BF
:101060000B60114B083319680468A14319601C1DFB
:1010700021680568A94321604179102905D01144F0
:101080000A68006802430A6030BD196802681143AB
:101090001960216800680143216030BD0079104467
:1010A00002688A43026030BD003C014000F0F2F962
:1010B00003A0FFF73FF9642002F0F8FCF6E7000018
:1010C000202A2A2A2A2A2A2A2A2A2A2A2A2A2A2A8A
:1010D0002A2A2A2A2A21210D0A000000F0B500221E
:1010E00001274FF0030C0B6807FA02F52B40AB42C7
:1010F0002CD1066853000CFA03F4A64306600E795F
:10110000D0F800E09E4046EA0E0606600E79012EF9
:1011100001D0022E12D18668A64386604E79D0F89F
:1011200008E09E4046EA0E0686604668AE4346608A
:1011300045688E799640B6B235434560C568A5438B
:10114000C560CC799C40C3681C43C460521C102A03
:10115000C9D3F0BD4B07DB0E9A40C90810B500EBB0
:101160008100016A0F249C40A1430162016A11437E
:10117000016210BD0246002012690A4200D001201F
:1011800070474183704701837047FEE7142002F0E7
:101190008DFCFBE770B50E48016821F44041016009
:1011A000016841F4804101600A4C0026C4F89C6249
:1011B000022004F5267401F04BFD01252560022074
:1011C00001F046FD2660022001F042FD656070BD21
:1011D00000040240008040421CB50121022000F0C2
:1011E0004DFCC020012400908DF8044000208DF8B3
:1011F000060003208DF805008DF807406946044875
:10120000FFF76CFF0348C0F89842C0F89C421CBD31
:10121000000402400080404270B50E48016821F48D
:1012200040410160016841F4804101600A4C0125A0
:10123000C4F89C52022004F5267401F009FD2560D3
:10124000022001F005FD00202060BDE87040022072
:1012500001F0FEBC00040240008040422DE9F0474E
:10126000814616480024016821F44041016001686C
:101270000160134E25460127A0466006040EC6F8FD
:101280009872022001F0E4FCD6F81C0208B1641C3C
:10129000E4B2C6F89882012001F0DAFC6D1CEDB2D0
:1012A000082DEAD3B9F1000F04D0FFF773FF2046F1
:1012B000BDE8F087FFF7B0FFF9E700000004024047
:1012C000008040422DE9F04105461448016821F4B0
:1012D00040410160016841F4804101600024104EEA
:1012E000A0460127E809C6F89C026806050E022000
:1012F00001F0AEFCC6F89872022001F0A9FCC6F815
:101300009882022001F0A4FC072C01D1C6F89C723F
:10131000641CE4B2082CE5D3BDE8F081000402406F
:101320000080404270B50D48016821F440410160E1
:10133000016841F480410160094C0120C4F89C021D
:10134000C4F89802042004F5267401F081FC0025FD
:101350006560042001F07CFC256070BD0004024043
:101360000080404270B50D48016821F440410160A1
:10137000016841F480410160094C0125C4F898528C
:101380000020C4F89C02042004F5267401F060FCDF
:101390006560BDE87040042001F05ABC00040240C2
:1013A0000080404270B513480024016821F4404198
:1013B000016001680160104D0126C5F89C6230464D
:1013C00001F046FCC5F89862012001F041FC0AE0FA
:1013D000641CE4B2FA2C06D908A0FEF7ABFFFFF7B5
:1013E000C1FF012070BDD5F81C020028F0D1C5F85E
:1013F000980270BD00040240008040426969632089
:1014000074696D656F75740D0A00000005494FF62B
:10141000FF728889401C80B28881904201D30020ED
:10142000888170473A0000207FB50121022000F03A
:1014300025FB0121880300F039FB032000250290E1
:101440008DF80C5001248DF80F4002A91048FFF7C9
:1014500045FE0121084600F0F1FB02208DF8045002
:10146000102600908DF805608DF806406846FFF75D
:10147000E5FD0021012000F0E1FB8DF804508DF81E
:10148000056000948DF806406846FFF7D7FD7FBDE4
:1014900000040240AFF3008002494AF6AA20086027
:1014A00070470000003000402DE9FC41012104207C
:1014B00000F0E4FA01248DF8044000258DF8065070
:1014C0001E4F4FF020088DF80740CDF800808DF8B2
:1014D000055069463846FFF701FE0121042000F05F
:1014E000CDFA8DF804408DF8065010268DF807408F
:1014F00000968DF8055069463846FFF7EFFD01214B
:10150000202000F0BBFA8DF804408DF80650A702A9
:101510008DF807400A4C00978DF805506946204623
:10152000FFF7DCFD05491A310E80A1F8008039462D
:101530002046FFF726FEBDE8FC81000000080240BF
:1015400000140240054C4FF4FA75206880F4806165
:101550002160284602F0AAFAF7E7000014140240BE
:101560001CB50121082000F089FA4FF470500121C8
:1015700000908DF8041000208DF806008DF80710FB
:101580000E4C8DF8050069462046FFF7A7FD0121A6
:10159000042000F073FA21152046FFF7F2FDE11454
:1015A0002046FFF7EEFDA1142046FFF7EAFD4FF4B9
:1015B00000512046FFF7E5FD1CBD0000000C024075
:1015C0002DE9FC410121042000F058FA01268DF894
:1015D000046000244FF440708DF80640DFF8588016
:1015E00000908DF8074002278DF805706946404647
:1015F000FFF774FD0121084600F040FA8DF8046001
:101600008DF806408DF807400C4C350200958DF89A
:10161000057069462046FFF761FD29464046FFF701
:10162000B0FD61154046FFF7AEFD29462046FFF7A5
:10163000A8FDBDE8FC810000000802400000024057
:101640000A2002F033FAFBE72DE9FC4101211020CA
:1016500000F014FA00244FF400508DF804400125E6
:101660000E4F00908DF8075003268DF805606946EF
:101670003846FFF733FD0121102000F0FFF9A803E1
:101680008DF8044000908DF807508DF8056069468C
:101690003846FFF723FDBDE8FC8100000010024042
:1016A000052002F003FAFBE7FEE7704738B5252076
:1016B0008DF8000001248DF8014000258DF80250BE
:1016C0008DF80340684600F031F826208DF80000C0
:1016D0008DF801408DF802508DF80340684600F007
:1016E00025F827208DF800008DF801508DF8025064
:1016F0008DF80340684600F019F834208DF800009A
:101700008DF801508DF802508DF80340684600F0C6
:101710000DF835208DF800008DF801408DF802504D
:101720008DF80340684600F001F838BD30B50F234E
:10173000C27801780125FAB1144A126801F1E0215A
:1017400002F4E062C2F5E062C2F30722C2F10404CF
:10175000D3404278A24084781C401443220181F88F
:101760000024007800F01F018D404009800000F146
:10177000E020C0F8005130BD01F01F00854048094D
:10178000800000F1E020C0F8805130BD0CED00E099
:101790000249084302490860704700000000FA054A
:1017A0000CED00E01CB504460121102000F066F9A4
:1017B00000200121124B042274B1012C0BD18DF8B1
:1017C00004008DF8071003208DF80500009269468B
:1017D0001846FFF783FC1CBD8DF804108DF8060039
:1017E0008DF807108DF80500009269461C461846D2
:1017F000FFF774FC04212046FFF7C3FC1CBD00006A
:10180000001002402DE9F041884605468AB00121CA
:10181000022000F033F94FF44070059002208DF85B
:10182000180000248DF81A4001268DF81B60032053
:10183000294F8DF8190005A93846FFF74FFC022201
:1018400008213846FFF786FC022209213846FFF7B7
:1018500081FC0121042000F01DF96D1EA8F101009A
:101860000895ADF81C001D4DADF81E40ADF82440A4
:1018700007A9284600F096FD6020ADF80000ADF8FD
:101880000260ADF80440ADF80C4069462846029469
:1018900000F008FD0821284600F042FD6946284670
:1018A000029400F043FD0821284600F06FFD01215D
:1018B000284600F0BDFC01221146284600F0E9FC54
:1018C0000121284600F0C4FC0121284600F0CAFC92
:1018D0000AB0BDE8F08100000004024000080040AA
:1018E0004FF47A74204602F0E1F8FBE72DE9FC475B
:1018F0000121084600F0C2F801258DF804500024AB
:101900008DF80640DFF864A140268DF80750009658
:101910008DF8054069465046FFF7E0FB0121102095
:1019200000F0ACF800968DF804508DF806400226C1
:10193000DFF83C918DF807608DF805406946484610
:10194000FFF7CCFB0121102000F098F88DF804502F
:101950008DF8064020278DF8076000978DF8054028
:1019600069464846FFF7BAFB0121084600F086F8B1
:101970008DF804508DF806408DF8076000978DF8BB
:10198000054069465046FFF7A9FB0121084600F0D3
:1019900075F88DF804404FF010088DF807600327A4
:1019A000CDF800808DF8057069465046FFF796FB2C
:1019B0000121102000F062F88DF804508DF80640E7
:1019C0008DF80760CDF800808DF8054069464846DF
:1019D000FFF784FB0121102000F050F88DF804502F
:1019E00008208DF8064000908DF807608DF80540BE
:1019F00069464846FFF772FB0121102000F03EF8CF
:101A00008DF804408DF8075000968DF805706946F2
:101A10004846FFF763FB0121084600F02FF88020BD
:101A20008DF8044000908DF807508DF805706946D8
:101A30005046FFF753FB40215046FFF7A4FB4021DF
:101A40004846FFF79EFB20215046FFF79AFB2021D6
:101A50004846FFF796FB10214846FFF794FB082104
:101A60004846FFF790FBBDE8FC87000000000240FD
:101A700000100240C82002F019F8FBE7044A0029D0
:101A8000116801D0014300E08143116070470000FC
:101A900030380240044A0029116801D0014300E0B7
:101AA000814311607047000040380240044A002919
:101AB000116801D0014300E08143116070470000CC
:101AC00044380240044A0029116801D0014300E073
:101AD00081431160704700002438024070B5204BEC
:101AE0001968204C11F00C0104D06610042903D0B1
:101AF000082903D004601BE0066019E0184A121F91
:101B00001168C1F38055116801F03F0115B1B6FBB2
:101B1000F1F101E0B4FBF1F114681268C4F3881428
:101B20006143C2F30142521C5200B1FBF2F1016069
:101B300019680F2202EA11110B4A545C0168E14056
:101B400041601C68072505EA9424145D21FA04F419
:101B500084601B6805EA5333D25CD140C16070BD1C
:101B6000083802400024F40090000020F0B506463A
:101B700087B001210820FFF781FF012508208DF89B
:101B80000450002400908DF806408DF80740032093
:101B9000274F8DF8050069463846FFF79FFA082160
:101BA0003846FFF7F0FA01210420FFF767FF012113
:101BB000C804FFF76FFF02218DF804108DF805109F
:101BC0008DF806408DF807504FF44060194D009095
:101BD00069462846FFF782FA08220A212846FFF7BD
:101BE000B9FA08220B212846FFF7B4FAADF80C40E9
:101BF000ADF80E40ADF81040ADF814400C200E4C7E
:101C0000ADF81200029602A9204600F05BFF012207
:101C100040F22551204600F03DFF0121204600F012
:101C200010FF4021204600F003FF07B0F0BD000088
:101C3000000C024000080240004C004010B58A072A
:101C400021F003040849120F21440F23D1F808485A
:101C500093409C43C1F80848D1F8083890400343AA
:101C6000C1F8083810BD000000300140192001F013
:101C70001DFFFBE70CB5002227490092019208687E
:101C800040F4803008604FF4A043086800F400304E
:101C900001900098401C0090019810B9009898425B
:101CA000F3D10868800334D5012001901A484030F0
:101CB000026842F0805202601848026842F44042D2
:101CC00002601548083002680260026842F400426F
:101CD0000260026842F4A0520260031F104A1A60B8
:101CE0000A6842F080720A600A689201FCD50D49C8
:101CF00040F205720A60016821F003010160016889
:101D000041F0020101600168C1F381010229FAD1A9
:101D10000CBD01920CBD0000003802400070004074
:101D200008544007003C02401CB501F079FD4649CB
:101D30000220CDE900010023802244A1464802F0A0
:101D40000FFC41490320091DCDE900010023802239
:101D500042A1464802F004FC3B4904200831CDE989
:101D600000010023802242A1454802F0F9FB3649D8
:101D700005200C31CDE900010023802241A1454816
:101D800002F0EEFB304906201031CDE900010023BE
:101D9000802241A1434802F0E3FB2B490720143184
:101DA000CDE90001002380223FA1424802F0D8FB88
:101DB000254908201831CDE90001002380223EA1E9
:101DC000414802F0CDFB20490C202831CDE900012B
:101DD000002380223DA1414802F0C2FB1A4909209C
:101DE0001C31CDE90001002380223DA1404802F0D2
:101DF000B7FB15490A202031CDE9000100238022DC
:101E00003CA1404802F0ACFB0F490B202431CDE946
:101E10000001002380223CA13E4802F0A1FB0A49B8
:101E20000D202C31CDE90001002380223AA13D484C
:101E300002F096FB0448001F006801F06DFEBDE84B
:101E40001C4001F029BD000008000020506D755FA6
:101E50005461736B00000000E118000843616D6D70
:101E6000616E645F5461736B000000003B0B0008FF
:101E70004572725F48616E646C655F5461736B009C
:101E8000AD100008506F7765726F66665F546173BE
:101E90006B000000751A00084368675F5461736B3C
:101EA000000000007D0B0008546573745F5461737B
:101EB0006B00000085240008486561645F4374720C
:101EC0006C5F5461736B00008D1100084C6966747F
:101ED0004D6F746F5F5461736B0000004116000812
:101EE0004175746F4368617267655F5461736B001D
:101EF000EF0A000853656E645F4D6472765F54614B
:101F0000736B00006D1C00084D6472765F54617342
:101F10006B000000A11600084C45445F5461736BD0
:101F200000000000451500084FF0E0210428086972
:101F300003D020F004000861704740F00400FAE785
:101F400010B502F039FB012803D0BDE8104002F0C3
:101F500027B810BD124810B5016841F47001016046
:101F60001048016841F0010101600E4A0021083269
:101F7000116002680C4B1A400260031D0B4A1A6084
:101F8000026822F48022026006480C300160FFF7EC
:101F900071FE03494FF000608039086010BD0000F9
:101FA00088ED00E000380240FFFFF6FE103000240C
:101FB00070B501F035FCA82000F012FEFFF774FAAE
:101FC000FEF79AFDFFF7CCFAFFF790FC0120FFF730
:101FD000E9FBFFF729FAFEF7D5FDFFF7F1FAFFF766
:101FE00033FBFEF7E9FBFEF740FDA8230A221D495B
:101FF000012000F015FA4FF47A725423D106012023
:1020000000F00EFA4FF4527364221749202000F0BA
:1020100007FA542144F62060FFF7F4FB4FF4E13453
:102020002146124800F0A8FD4FF4165529461048E5
:1020300000F0A2FD29460F4800F09EFD29460E48FB
:1020400000F09AFD2046FFF791FD002000F086FE8B
:10205000022000F083FE01F01FFCBDE8704007A0E5
:10206000FEF768B900000140001400400010014074
:10207000004400400048004000500040427370207F
:10208000696E6974204F4B210D0A000010B5084C91
:102090000121204600F0F1F8012807D10121204656
:1020A00000F0D3F8BDE81040FFF7B0B910BD000054
:1020B000000001402DE9F04101218C07204600F08D
:1020C000DCF8012861D10121204600F0BEF8FEF7BE
:1020D00039FD4449454D464E48884FF47A78401CB6
:1020E0004880414800244188491C4180688B401C3D
:1020F0006883A88B401CA883F088401C80B2F080C5
:10210000404528D9F480297A3078814206D00820C9
:10211000FEF7CEFC0820FEF7AAFC3070354F96F98A
:10212000011097F90900884207D0797A0620FEF756
:10213000BFFC0620FEF79BFC707097F90A0096F929
:102140000210884207D0B97A0720FEF7B1FC0720B9
:10215000FEF78DFCB070B088401C80B2B080404566
:1021600000D3B48095F83000D0B1234B9E1E5A1591
:1021700001280CD0022815D0032806D13280688EA1
:10218000411C6986B0F5C87F07D8BDE8F081328070
:10219000688E411C69866428F7D91A8085F830401A
:1021A0006C86F2E73280698E481C80B268866429AA
:1021B00005D9411C6986C82801D21A80E5E7698ED5
:1021C0004FF49677481C80B26886C82905D9411C0F
:1021D0006986B84201D23280D7E7688EB842DCD82F
:1021E000D3E70000E00100201C0200203C02002098
:1021F00048000020AC0200201A0C024010B50A4C26
:102200000121204600F039F800280CD007490120B0
:1022100048710146204600F018F82046BDE81040FD
:10222000002100F015B810BD001400401C02002071
:102230000029018802D041F0800101E021F08001F5
:1022400001807047C94301827047C94301827047CA
:102250000029018802D041F0010101E021F00101D3
:1022600001807047002930F8441F02D041F400413A
:1022700001E0C1F30E010180704702460020138A7D
:1022800092890B4202EA010202D0002A00D001200A
:102290007047002A828901D00A4300E08A43828184
:1022A0007047000070B5028C22F480720284028CA8
:1022B0008388848B0D8824F0730425438E894FF620
:1022C000FF7422F4007204EA062616434A8804EAE0
:1022D00002223243104EB04202D0104EB04215D10D
:1022E00022F40066CA8923F4405304EA02223243EE
:1022F00022F480668A8804EA022232430E8A04EAC3
:1023000006161E434B8A04EA0313334383808583F6
:102310008968C163028470BD00000140000401406F
:10232000828B22F008020A438283704770B5028CC8
:1023300022F480520284058C8288838B0C8823F4DB
:10234000E6464FF6FF7303EA0424344325F40056AF
:102350008D8903EA053535434E8803EA06362E4358
:10236000084DA84202D0084DA84205D122F480456C
:102370000A8A03EA82122A4382808483896801647C
:10238000068470BD0000014000040140828B4FF6BE
:10239000FF7322F4006203EA012111438183704735
:1023A0004162704730B50288164C174DA0420DD0DF
:1023B000A8420BD0B0F1804F08D0144B984205D002
:1023C000134B984202D0134B984203D122F0700372
:1023D0004A881A43104B984206D0104B984203D0BB
:1023E00022F440730A891A4302804A68C2620A884A
:1023F0000285A04201D0A84201D1897A018601213B
:10240000818230BD00000140000401400004004012
:1024100000080040000C0040001000400014004084
:10242000FEB50C4615491E4615468C4202D014498D
:102430008C4203D10121FFF739FB02E00121FFF7B4
:1024400029FB761E0020ADF800606D1EADF802007D
:10245000ADF80800019569462046FFF7A3FF01216A
:102460002046FFF7EFFE012211462046FFF711FF3D
:1024700001212046FFF7ECFEFEBD000000000140F8
:1024800000040140642001F011FBFBE770B5064633
:1024900086B001210420FFF7F1FA0121C804FFF7FB
:1024A000F9FA1F4D08220A212846FEF753FE08229A
:1024B0000B212846FEF74EFE02218DF814104FF432
:1024C00040608DF81510049000248DF8164001200E
:1024D0008DF8170004A92846FEF700FEADF8044069
:1024E000ADF80640ADF80840ADF80C400C200D4C9E
:1024F000ADF80A0000966946204600F0E3FA012292
:1025000040F22551204600F0C5FA0121204600F096
:1025100098FA4021204600F08BFA06B070BD00000A
:1025200000080240004C004070B5144C40F22555A4
:102530002946204600F08FFA00281ED02946204662
:1025400000F079FA204600F013FB0D49C0B2487044
:102550000C494A79002A10D14B788A1D0A4C9854AC
:102560004878401C487000212046FFF719FF20469C
:10257000BDE870400121FFF76BBE70BD004C00400C
:10258000380000201C020020001400402DE9F04318
:10259000814687B001210420FFF770FA012108204D
:1025A000FFF76CFA01210805FFF774FA274F08229C
:1025B0000C213846FEF7CEFDDFF894800822022178
:1025C0004046FEF7C7FD02258DF80450B8148DF87B
:1025D0000550002400908DF8064001268DF8076014
:1025E00069463846FEF77AFD8DF8045004208DF8D0
:1025F000055000908DF806408DF80760694640460A
:10260000FEF76CFDADF80C40ADF80E40ADF8104093
:10261000ADF814400C200F4CADF81200CDF8089026
:1026200002A9204600F04EFA012240F22551204630
:1026300000F030FA0121204600F003FA4021204644
:1026400000F0F6F907B0BDE8F08300000008024092
:10265000000C02400050004070B50646012186B0D3
:102660000846FFF70BFA01211020FFF71FFA1F4D54
:10267000072209212846FEF76DFD07220A21284678
:10268000FEF768FD02218DF814104FF4C0608DF83C
:102690001510049000248DF8164001208DF81700C5
:1026A00004A92846FEF71AFDADF80440ADF806402F
:1026B000ADF80840ADF80C400C200D4CADF80A0008
:1026C00000966946204600F0FDF9012240F22551AE
:1026D000204600F0DFF90121204600F0B2F9402148
:1026E000204600F0A5F906B070BD000000000240D1
:1026F000001001402DE9F041294C40F225552946B2
:10270000204600F0A8F900282BD02946204600F0EA
:1027100092F9204600F02CFA224BC0B259790029D8
:102720001FD11C780A46A5074FF0010603F10601E8
:102730001DD4E40704D0AA280AD0552802D012E0FC
:1027400055280ED150545E70187840F0010007E013
:102750005A7850545878401C5870187840F002004D
:102760001870BDE8F0815A701A705A71F9E75C78F8
:1027700060545C78641CE4B25C701D786F0708D408
:10278000597A491E8C42ECD10D28ECD145F0040059
:10279000E6E70A28E7D160545A701A705E71E0E7E4
:1027A00000100140FE010020F0B50746012187B06E
:1027B0000846FFF763F901214804FFF76BF91E4E45
:1027C000072202213046FEF7C5FC072203213046CE
:1027D000FEF7C0FC02208DF814008DF815000024CF
:1027E0008DF8164001200C258DF81700049504A9DA
:1027F0003046FEF773FCADF80440ADF80640ADF886
:102800000840ADF80C400D4C0097ADF80A506946F1
:10281000204600F057F9012240F22551204600F0F1
:1028200039F90121204600F00CF94021204600F042
:10283000FFF807B0F0BD0000000002400044004077
:1028400070B5064686B001210220FFF717F9012175
:102850008804FFF71FF91F4D07220A212846FEF7BB
:1028600079FC07220B212846FEF774FC02218DF823
:1028700014104FF440608DF81510049000248DF86A
:10288000164001208DF8170004A92846FEF726FC03
:10289000ADF80440ADF80640ADF80840ADF80C4086
:1028A0000C200D4CADF80A0000966946204600F059
:1028B00009F9012240F22551204600F0EBF80121F0
:1028C000204600F0BEF84021204600F0B1F806B0E6
:1028D00070BD000000040240004800402DE9F041B6
:1028E0002A4C40F225552946204600F0B4F800282D
:1028F0002DD02946204600F09EF8204600F038F9F9
:102900002349244BC0B20870597900291FD11C7883
:102910000A46A5074FF0010603F106011DD4E4079E
:1029200004D0AA280AD0552802D012E055280ED18A
:1029300050545E70187840F0010007E05A78505407
:102940005878401C5870187840F002001870BDE8A4
:10295000F0815A701A705A71F9E75C7860545C78AB
:10296000641CE4B25C701D786F0708D4597A491E64
:102970008C42ECD10D28ECD145F00400E6E70A28A2
:10298000E7D160545A701A705E71E0E70048004069
:1029900038000020E001002070B5064686B0012115
:1029A0001020FFF76BF80121C807FFF773F81E4DE1
:1029B000082200212846FEF7CDFB082201212846E7
:1029C000FEF7C8FB02218DF8141003208DF81510B6
:1029D000049000248DF8164001208DF8170004A9FA
:1029E0002846FEF77BFBADF80440ADF80640ADF895
:1029F0000840ADF80C400C200C4CADF80A000096D5
:102A00006946204600F05EF8012240F2255120463A
:102A100000F040F80121204600F013F84021204644
:102A200000F006F806B070BD00100240007C0040C7
:102A3000C943018070470A0A01219140C9430180BE
:102A400070470029818902D041F4005101E021F44E
:102A500000518181704770B501F01F0501260024E7
:102A6000C1F3421306FA05F2012B0FD0022B0FD04F
:102A7000838A4FEA11210088134206FA01F600EA20
:102A8000060001D000B10124204670BD8389F0E723
:102A9000038AEEE710B5C1F3421301F01F040121D0
:102AA000A140012B07D0022B07D01430002A026866
:102AB00005D00A4304E00C30F8E71030F6E78A430B
:102AC000026010BD7FB50446008A0D46C98820F417
:102AD000405001432182A08941F20C618843A988BA
:102AE0002A8911436A8902431143A181A08A20F4F3
:102AF0004071A8890843A0826846FEF7EFFF1A4894
:102B0000844202D01948844201D1039800E002981F
:102B1000A189090400EBC00101EB0010296801D56F
:102B2000490000E08900B0FBF1F06422B0FBF2F153
:102B300009010B096FF018056B4300EB8300A389B3
:102B40001D044FF0320306D503EBC000B0FBF2F0DA
:102B500000F0070005E003EB0010B0FBF2F000F01E
:102B60000F00084320817FBD001001400014014088
:102B70008088C0F308007047124A904202D108468C
:102B8000FFF76ABD104A904202D10846FFF70CBE1B
:102B90000E4A904202D10846FFF752BE0C4A9042BC
:102BA00002D10846FFF772BC0A4A904202D1084699
:102BB000FFF7ECBC084A904202D10846FFF7ECBE92
:102BC00070470000001001400044004000480040F1
:102BD000004C004000500040007C0040FEE7704781
:102BE00010B504460420FFF79FF90A484FF47A71A4
:102BF000047014FB01F1012242804FF0E0200269D1
:102C000042F0020202614161016941F0010101618A
:102C100010BD00006400002070B5044601F0CCFC3B
:102C200001280CD0094D6888844203D3B4FBF0F02E
:102C300000F03CFF6888B4FBF0F100FB11444FF456
:102C40007A706043BDE8704000F002B86400002074
:102C500070B54FF0E02500216C69094AAB69127824
:102C60005043AA699A42FCD002D2A3EB020302E0CD
:102C7000A4EB02063344194413468142F1D370BDDC
:102C800064000020F0B50E4D00210E4A0E46A5F15D
:102C90000C07002000EB400305EB8303146833F8B6
:102CA0001130401C2344C0B213601028F2D318091D
:102CB00027F81100491CC9B216600629E9D3F0BDF6
:102CC000200100200000002003490A885206FCD59C
:102CD000C2B28A8070470000001001401CB5FFF7A7
:102CE00067F94FF44070FEF753FDFEF7DFFCC82094
:102CF000FFF792FF40210C48FEF745FA00F090FDE7
:102D00000AA0FDF717FB10490120CDE900010023BF
:102D100040220EA1104801F023FC00F0BDFD01F09F
:102D200025F800201CBD00000010024020524F4238
:102D30004F545F4D5239205379732073746172740C
:102D4000696E6721210D0A0004000020537461722E
:102D5000745F5461736B0000291D000870B5044650
:102D60000B480C4E002150F8240006EB840542006D
:102D7000686900F02DF806480021183050F824202A
:102D8000A86800F025F80120311981F8200070BDF5
:102D90007C4A00086C00002010B50B4B0B4C002245
:102DA00053F82030114604EB800005E0446934F804
:102DB000114004B1521C491C8B42F7D86420424395
:102DC000B2FBF3F0C0B210BD7C4A00086C000020DA
:102DD00001E000F8011B521EFBD270472DE9F041C3
:102DE000184E0F460446F5683068001D00F0D4FC0C
:102DF00038B9306890F82C1001208840316981433F
:102E00003161601C07D137B13168BDE8F0410E482F
:102E1000091D00F0F9BC30682C44AC4244603168B4
:102E200005D2B06BBDE8F041091D00F0D5BC706B58
:102E3000091D00F0D1FCB06A844200D2B462BDE842
:102E4000F0810000A000002090DA00202DE9F04180
:102E5000054600F0E5FC2D4EB068401CB0603068BF
:102E60002B4F10B1706930B32BE03560B06801288A
:102E700027D1002404EB840007EB800000F09EFCC7
:102E8000641C202CF6D3234800F098FC2148143011
:102E900000F094FC1F48283000F090FC1D483C30A6
:102EA00000F08CFC1B48503000F088FC194870631F
:102EB0001430B06305E03068E96AC06A884200D81F
:102EC0003560706A0121401C70626864E86A32698A
:102ED00081401143316100EB800007EB8000291D28
:102EE00000F092FC00F0D8FC706900280CD030682B
:102EF000E96AC06A884207D207494FF080500860EB
:102F0000BFF34F8FBFF36F8FBDE8F081A0000020AB
:102F1000C0D7002040DA002004ED00E010B500F03A
:102F20007FFC0E4C2068A0B90D4800F047FC0C480F
:102F3000143000F043FC0A48E060143020610022A5
:102F40001021052001F042F8206010B105A100F029
:102F500079FDBDE8104000F09FBC0000DC000020BF
:102F6000A4DA0020546D72510000000070B5124EBA
:102F7000124D1CE000F044FF306820B1002401F045
:102F800049FCA4B901E00124F9E700F049FCF0682C
:102F9000C468201D00F000FCA868401EA860686896
:102FA000401E686000F078FC204600F052F8686827
:102FB0000028DFD170BD00007CDA0020A0000020D6
:102FC00030B4026C0B46002A0BD0C1681144C160BA
:102FD0004468A14201D30168C16030BC1846FDF7C6
:102FE0004FBA30BC70472DE9F041856B1746044657
:102FF0000026026C82B1C7B1E068FDF741FAE168D2
:10300000206C091AE1602268914202D26168081AB4
:10301000E060022F16D017E02068A8B9606801F0C0
:1030200053FB0646002060600EE0A068FDF728FA1A
:10303000216CA0680844A0606168884204D32068BD
:10304000A06001E005B16D1E6D1CA5633046BDE8B2
:10305000F08110B50446006B00F050FC2046BDE83E
:10306000104000F04BBC000010484FF4A041420754
:1030700006D0C01D0D4920F00700411AC1F5A0413E
:103080000B4A00230144C2E900030839103A21F039
:10309000070111604B600B600B1AC0E900139360CD
:1030A0004FF000405360D06070470000CCDA002041
:1030B0000C010020074E4FF08054074DFFF756FFDC
:1030C00030680128FAD92C60BFF34F8FBFF36F8FA0
:1030D000F4E70000C0D7002004ED00E02DE9F04740
:1030E000DDE909840E461746824691009946089DFF
:1030F000A522206BFDF709FA6FF00301206B01EBAD
:103100008701084420F00707780705D040F22B32EA
:1031100019A11EA0FDF70EF900202218315C82F8DB
:103120003410315C11B1401C1028F6D3002684F80D
:103130004360202D00D31F25E562C4E91356201DEE
:1031400000F047FB04F1180000F043FB2461C5F1D7
:1031500020006462A061666584F858604A46514662
:10316000384600F003FB2060B8F1000F01D0C8F82A
:103170000040BDE8F08700002E2E5C467265655267
:10318000544F535C7461736B732E63004572726F9E
:10319000723A25732C25640D0A00000030B51149E0
:1031A00000E011460A688242FBD34B685C188442F7
:1031B00003D1406818444860084643681C1894428C
:1031C00009D1084C103C2468A24209D052681A4424
:1031D00042600A6812680260814200D0086030BD17
:1031E0000460F9E70C01002070B5002441600B4D2C
:1031F0000061914206D8D11A8269914206D2011D1E
:10320000286907E09A4203D2994201D3012403E0DE
:10321000011DE86800F0E0FA204670BDDC000020E7
:1032200010B5044600F0FCFAA06B20B1002400F0B9
:1032300033FB204610BD0124F9E700002DE9F341DE
:1032400000980F460026846C2CB940F6CE1216A1C9
:103250001AA0FDF76FF8A06BE16B884205D340F62A
:10326000CF1211A115A0FDF765F8A06BE16B8842A4
:103270000CD294F945503A4669462046FFF7B3FE12
:103280000646681C05D06D1C84F845503046BDE8E4
:10329000FC81606A0028F9D004F1240001F06EFA84
:1032A0000028F3D00126F1E72E2E5C4672656552A8
:1032B000544F535C71756575652E63004572726F6E
:1032C000723A25732C25640D0A000000F8B50546F6
:1032D00014480E46C068C068C468201D00F05CFA3F
:1032E000E069012817D1A0692B46411932462046D2
:1032F000FFF77AFF78B100200346014600902A4686
:10330000204601F06DFB30B907494FF4027201F11C
:103310001800FDF70FF8616A01B02046BDE8F040E3
:1033200008470000DC0000204449000870B586B062
:103330002F4E53E00198002806DADDE90301029AD6
:1033400090470198002849DB039C606910B1201D5B
:1033500000F022FA05A800F0A7F8054601980A280F
:103360003CD2DFE800F00505053B273805053B2783
:103370000298A169034601442A462046FFF734FF1C
:1033800000282BD0616A20468847E069012825D1B2
:10339000002000900298A169002342181946204697
:1033A00001F01EFBD0B940F2213212A117A0FCF7A8
:1033B000C1FF13E00298A06128B94FF44E720DA12D
:1033C00012A0FCF7B7FFA0692B4641191A46204608
:1033D000FFF70AFF02E0204600F090FA00231A46A9
:1033E00001A9306800F02EFE0028A3D106B070BD00
:1033F000DC0000202E2E5C4672656552544F535CF3
:1034000074696D6572732E63000000004572726FFF
:10341000723A25732C25640D0A000000F8B50D469C
:10342000064600F0EDFC684600F03EF804460098C1
:1034300010B101F0EFF9F8BD1148ADB101690968AB
:10344000D9B10025311B2A46006800F00DFB01F0C0
:10345000E1F90028EFD10B494FF080500860BFF32D
:103460004F8FBFF36F8FF8BDA642EBD801F0D2F9B2
:1034700021463046FFF72AFFF8BD0125E2E70000AC
:10348000DC00002004ED00E00648416B096829B12A
:10349000416BC968C9684968816270474FF0FF3164
:1034A000FAE70000A000002070B5054601F092F890
:1034B000064E0446B068844203D200F009F80120A9
:1034C00000E0002028602046B46070BDDC000020D1
:1034D000F8B5184E26E0C068C4680568201D00F0E5
:1034E0005BF9616A20468847E06901281AD1A06922
:1034F0002844A84206D924616060211DF06800F0CC
:103500006BF90FE000200346014600902A46204652
:1035100001F066FA30B9084940F2923201F1180020
:10352000FCF708FFF06801680029D4D13169C6E9C9
:103530000310F8BDDC00002044490008084840683A
:10354000401C05D040F20F1206A111A0FCF7F2FEBC
:10355000502080F31188BFF34F8FBFF36F8FFEE7CA
:10356000F00000202E2E5C4672656552544F535C6D
:10357000706F727461626C655C525644535C415268
:103580004D5F434D34465C706F72742E63000000D3
:103590004572726F723A25732C25640D0A00000083
:1035A000084CE068016839B1002139B10020FFF70B
:1035B00035FFFFF7BBFEF4E70121F6E7C0680068BE
:1035C000F5E70000DC0000202DE9F041044600F0A2
:1035D00027F994F9455004F1240610E0A06C20B1BD
:1035E00000212046FFF72AFE04E0606A48B1304619
:1035F00001F0C4F808B100F0F5FA6D1E6DB2002DAF
:10360000ECDC4FF0FF3684F8456000F045F900F03F
:1036100007F994F9445004F1100709E0206948B112
:10362000384601F0ABF808B100F0DCFA6D1E6DB25F
:10363000002DF3DC84F84460BDE8F04100F02CB9C3
:103640002DE9F0410546002600F0DAFB324F3868DC
:1036500008B9FFF709FDF86805424FD1002D4DD09C
:10366000083568070BD005F00700C0F108000544D5
:10367000680704D0BF2229A132A0FCF75BFE002D11
:103680003CD07868854239D823491031084604680F
:1036900001E0214604466068A84202D22068002862
:1036A000F7D13868B846844228D00E682068086090
:1036B00060680836401B10280ED96719780704D0B7
:1036C000EC2216A11FA0FCF735FE6068401B786055
:1036D00038466560FFF762FD6168D8F8040042462D
:1036E000401AC8F80400D8F80830984200D2906018
:1036F000D8F80C0001430020C4E9000101F08AF869
:10370000700705D04FF4967204A10EA0FCF712FECC
:103710003046BDE8F0810000FC0000202E2E5C4603
:1037200072656552544F535C706F727461626C6560
:103730005C4D656D4D616E675C686561705F342ED0
:10374000630000004572726F723A25732C25640D78
:103750000A0000000449086818B10868026D521C8C
:103760000265086870470000A000002010B5031F24
:103770004FF080741C601B1F21F001011960191F9C
:10378000044B0B6014390A60091F6FF002024438C1
:103790000A6010BD3D350008D0E9013201699A6028
:1037A000D0E901235A604A68824201D182684A60A6
:1037B000002202610868401E0860704700F108019D
:1037C0004FF0FF32C0E90112C160016100210160C8
:1037D000704700210161704730B50C68621C02D04F
:1037E00000F1080202E0026904E01A4653681D680D
:1037F000A542FAD953684B6099608A6051600861AC
:103800000168491C016030BD42684A6093688B6062
:1038100093685960916008610168491C01607047B4
:10382000502080F31188BFF34F8FBFF36F8F09498A
:103830004868401C486001280AD10748006810F019
:10384000FF0F05D040F2B91204A10FA0FCF772BD22
:1038500070470000F000002004ED00E02E2E5C46D2
:1038600072656552544F535C706F727461626C651F
:103870005C525644535C41524D5F434D34465C703C
:103880006F72742E630000004572726F723A257376
:103890002C25640D0A00000010B5084C606828B99A
:1038A0004FF4E07206A111A0FCF744FD6068401ED1
:1038B000606001D180F3118810BD0000F00000208D
:1038C0002E2E5C4672656552544F535C706F727455
:1038D00061626C655C525644535C41524D5F434D8E
:1038E00034465C706F72742E630000004572726F14
:1038F000723A25732C25640D0A00000070B500286B
:103900002AD0164DA0F108046068E968084205D184
:103910004FF4A07212A11CA0FCF70CFD206828B186
:1039200040F241120EA118A0FCF704FD6068E9689E
:10393000084211D02268002A0ED18843606000F04E
:103940005FFA60686968084468602046FFF726FCF3
:10395000BDE8704000F05EBF70BD0000FC000020BC
:103960002E2E5C4672656552544F535C706F7274B4
:1039700061626C655C4D656D4D616E675C6865612B
:10398000705F342E630000004572726F723A2573C7
:103990002C25640D0A00000006484FF47A71006877
:1039A000B0FBF1F14FF0E020491E416107210161B8
:1039B000704700005000002010B5FCF795FC104C3B
:1039C00010280CD300F1E02090F8F0032178884211
:1039D00005D24FF440720BA115A0FCF7ABFC1848C0
:1039E0000068A16800F4E060884207D9BDE8104093
:1039F0004FF4447203A10EA0FCF79CBC10BD000064
:103A0000F00000202E2E5C4672656552544F535CC8
:103A1000706F727461626C655C525644535C4152C3
:103A20004D5F434D34465C706F72742E630000002E
:103A30004572726F723A25732C25640D0A000000DE
:103A40000CED00E010B5074B002253F832401CB1DA
:103A5000521C082AF9D310BD43F8321003EBC201FF
:103A6000486010BD80D7002070B515460E4604464C
:103A7000FFF7D6FE94F944100020491C01D184F8C8
:103A8000440094F94510491C01D184F84500FFF722
:103A900003FFA06B28B92A46314604F1240000F048
:103AA000D1F82046BDE87040FFF78EBD10B5040088
:103AB00012D00E49096B29B140F2CF420CA111A0DE
:103AC000FCF738FC00F09CF900212046FFF786F94E
:103AD00000F0A0FE002807D10E494FF0805008608A
:103AE000BFF34F8FBFF36F8F10BD0000A000002009
:103AF0002E2E5C4672656552544F535C7461736B35
:103B0000732E63004572726F723A25732C25640D13
:103B10000A00000004ED00E070B50446FFF780FEE7
:103B2000234D04B92C68201DFFF736FE58B9E06A12
:103B3000204A00EB800152F8211021B90121814077
:103B4000286988432861A06A18B104F11800FFF7BA
:103B500023FE686A401C68622868844207D1211DE0
:103B60001548FFF751FE6868401C686007E0A868C8
:103B7000401EA8602046FFF76CFAFFF785FCFFF7B0
:103B80008BFE6869002812D0286884420FD1286B08
:103B900028B140F2654209A10DA0FCF7CBFB10490A
:103BA0004FF080500860BFF34F8FBFF36F8F70BD31
:103BB000A0000020C0D700207CDA00202E2E5C461A
:103BC00072656552544F535C7461736B732E63005E
:103BD0004572726F723A25732C25640D0A0000003D
:103BE00004ED00E001490120C8617047A0000020F9
:103BF00070B50D46040005D140F6063207A10CA0B1
:103C0000FCF798FB0E48016820461831FFF7E4FDE9
:103C10002846BDE870400121FFF7E0B82E2E5C4633
:103C200072656552544F535C7461736B732E6300FD
:103C30004572726F723A25732C25640D0A000000DC
:103C4000A000002070B514460E46050005D140F6D0
:103C5000313209A10DA0FCF76DFB10480168284620
:103C60001831FFF7D1FD0CB14FF0FF362146304639
:103C7000BDE87040FFF7B2B82E2E5C467265655203
:103C8000544F535C7461736B732E63004572726F93
:103C9000723A25732C25640D0A000000A000002054
:103CA00070B5040039D01D4DE06A2968C96A8842A0
:103CB00033D2A069002804DB2868C06AC0F1200064
:103CC000A061E06A164E00EB8000616906EB80009F
:103CD00081421FD1201DFFF75FFD012150B9E06A2D
:103CE00000EB800256F8222022B92A6901FA00F07E
:103CF00082432A612868C06AE0622A6981401143D0
:103D0000296100EB800006EB8000211DBDE87040BA
:103D1000FFF77ABD2868C06AE06270BDA00000208D
:103D2000C0D7002010B5040005D140F6C13205A16E
:103D300009A0FCF7FFFA0C48016A2160C0686060C6
:103D400010BD00002E2E5C4672656552544F535CC8
:103D50007461736B732E63004572726F723A2573D0
:103D60002C25640D0A000000A00000201CB5174897
:103D70000024CDE900402346822215A1164800F018
:103D8000EFFB012803D100F0F1FD01280AD0401C0F
:103D90001BD102B040F28472BDE810400FA114A004
:103DA000FCF7C8BA502080F31188BFF34F8FBFF3E0
:103DB0006F8F06484FF0FF312C388162012141613D
:103DC000C460BDE81C4000F061B81CBDCC00002000
:103DD00049444C4500000000B53000082E2E5C46DA
:103DE00072656552544F535C7461736B732E63003C
:103DF0004572726F723A25732C25640D0A0000001B
:103E00000248016B491C016370470000A0000020BC
:103E100070B5134D286B10B10120E86170BD002012
:103E2000E86128690F4EB0FA80F0C0F11F0000EB86
:103E3000800456F8240028B940F6F6220AA10FA003
:103E4000FCF778FA06EB840000F108024168496843
:103E50004160914201D149684160C868286070BDE5
:103E6000A0000020C0D700202E2E5C46726565524F
:103E7000544F535C7461736B732E63004572726FA1
:103E8000723A25732C25640D0A0000001CB5304CD5
:103E900020683049884205D140F259122EA139A03C
:103EA000FCF748FA20682B49491E884205D14FF497
:103EB000AD7229A133A0FCF73DFA364C2078019071
:103EC000FF20207020788DF800009DF800009DF8FC
:103ED000001000F0F000884205D040F273121EA1DD
:103EE00028A0FCF727FA9DF800002B4A00F05000AC
:103EF00010700720906007E09068401E90609DF869
:103F0000000040008DF800009DF800000006F3D48A
:103F1000107A000200F4E0609060019820700C4874
:103F20002030016841F470010160016841F0704186
:103F30000160FFF731FD00205060FCF79DF9174844
:103F4000016841F040410160FCF786F900201CBD8A
:103F500000ED00E071C20F412E2E5C467265655285
:103F6000544F535C706F727461626C655C5256445E
:103F7000535C41524D5F434D34465C706F72742EFA
:103F8000630000004572726F723A25732C25640D30
:103F90000A00000000E400E0F000002034EF00E040
:103FA00010B5502080F31188BFF34F8FBFF36F8F90
:103FB00000F016FB18B104494FF080500860002053
:103FC00080F3118810BD000004ED00E02DE9F04100
:103FD00017460E46050005D14FF4C47210A115A076
:103FE000FCF7A8F9BEB105FB06F05430FFF728FB3B
:103FF00004000ED004F154007EB12060C4E90F56D5
:104000002046012100F0E0F884F85070002120469D
:10401000A164BDE8F0810020E7E72460EEE700003E
:104020002E2E5C4672656552544F535C71756575F2
:10403000652E63004572726F723A25732C25640DEC
:104040000A0000002DE9FF4F83B09B468A4604001A
:104050004FF0000605D140F2DC4251A155A0FCF71B
:1040600069F9BAF1000F07D1206C28B140F2DD42A6
:104070004BA150A0FCF75EF900F09EFA38B9059804
:1040800028B14FF49C6246A14AA0FCF753F94FF0C7
:1040900000094FF08057DFF82C81FFF7C1FBA56BBB
:1040A00045B351462046E668FEF78AFFBBF1000F94
:1040B00013D0E660606A50B104F1240000F05EFBAA
:1040C00028B1C8F80070BFF34F8FBFF36F8FFFF7B1
:1040D000E3FB012007B0BDE8F08F6D1EA5632068EB
:1040E00010B9FFF737FB606020690028EFD004F1BA
:1040F0001000E3E7059808B11EB106E0FFF7CCFB1E
:1041000027E06846FFF70EFE0126FFF7C5FBFFF725
:1041100077FEFFF785FB94F94400401C01D184F839
:10412000449094F94500401C01D184F84590FFF774
:10413000B3FB05A9684600F0CFF9002820460AD055
:10414000FFF742FA00F066FB2046FFF769F8002807
:10415000A3D00020BEE7FFF763F8D8B1206830B9DC
:10416000FFF75EFB6068FFF79BFDFFF795FB04F12F
:1041700024000599FFF73CFD2046FFF725FA00F0E3
:1041800049FB002889D1C8F80070BFF34F8FBFF3F7
:104190006F8F82E72046FFF717FA00F03BFB7CE7C2
:1041A0002E2E5C4672656552544F535C7175657571
:1041B000652E63004572726F723A25732C25640D6B
:1041C0000A00000004ED00E070B50D46040005D1C2
:1041D00040F21B121CA121A0FCF7ACF8FFF720FB5A
:1041E000D4E90F20216802FB001161600021A16366
:1041F0002168A1600A46D4E90F01401E00FB01219D
:10420000E16021464FF0FF3001F8440F487004F19F
:1042100010004DB1FFF7D2FA04F12400FFF7CEFAF7
:10422000FFF73AFB012070BD21690029F8D000F0AA
:10423000A5FA0028F4D00D494FF080500860BFF374
:104240004F8FBFF36F8FEBE72E2E5C467265655282
:10425000544F535C71756575652E63004572726FBE
:10426000723A25732C25640D0A00000004ED00E06D
:104270002DE9FF4F83B099468B4604004FF00006AE
:1042800005D140F2D92252A156A0FCF753F8BBF158
:10429000000F07D1206C28B140F2DA224CA151A0C6
:1042A000FCF748F8B9F1020F08D1E06B012805D0FE
:1042B00040F2DB2246A14BA0FCF73CF800F07CF971
:1042C00038B9059828B140F2DE2241A145A0FCF79B
:1042D00031F84FF0000A4FF08057DFF81881FFF7F0
:1042E0009FFAA06BE16B884206D3B9F1020F03D0AD
:1042F000059800B316B325E04A4659462046FEF716
:1043000072FEA16C21B149462046FEF797FF05E0F9
:10431000616A19B104F1240000F030FA28B1C8F83C
:104320000070BFF34F8FBFF36F8FFFF7B5FA012017
:1043300007B0BDE8F08FFFF7AFFA21E06846FFF75E
:10434000F1FC0126FFF7A8FAFFF75AFDFFF768FA1C
:1043500094F94400401C01D184F844A094F945002C
:10436000401C01D184F845A0FFF796FA05A96846DC
:1043700000F0B2F830B12046FFF726F900F04AFA13
:104380000020D5E7FFF74CFAA06BE16B884201D122
:10439000012500E00025FFF77FFA95B104F1100038
:1043A0000599FFF725FC2046FFF70EF900F032FAD9
:1043B000002894D1C8F80070BFF34F8FBFF36F8F00
:1043C0008DE72046FFF700F900F024FA87E70000A8
:1043D0002E2E5C4672656552544F535C717565753F
:1043E000652E63004572726F723A25732C25640D39
:1043F0000A00000004ED00E02DE9F047984615465C
:104400008946040005D140F29F322AA12EA0FBF775
:1044100091FFB9F1000F07D1206C28B14FF46872F9
:1044200024A129A0FBF786FFB8F1020F08D1E06BA9
:10443000012805D040F2A1321EA123A0FBF77AFF8C
:10444000FFF7BAFA5020EFF3118780F31188BFF31A
:104450004F8FBFF36F8FA06BE16B884207D3B8F12A
:10446000020F04D0002087F31188BDE8F08794F98B
:104470004560424649462046FEF7B5FD701C04D013
:10448000761C84F845600120EDE7A06C012620B180
:1044900041462046FEF7D2FE06E0606A0028F2D0D0
:1044A00004F1240000F06AF90028ECD0002DEAD0D5
:1044B0002E60E8E72E2E5C4672656552544F535CC1
:1044C00071756575652E63004572726F723A25735A
:1044D0002C25640D0A00000070B50D46040005D1BE
:1044E00040F6CB3214A119A0FBF724FF2DB940F6FA
:1044F000CC3211A115A0FBF71DFFFFF791F9174A68
:10450000D06829684B1C0FD02368126A934202D0EE
:10451000626882420AD96268801A884206D2081A02
:1045200028602046FFF7FEFB002400E00124FFF78F
:10453000B3F9204670BD00002E2E5C4672656552B0
:10454000544F535C7461736B732E63004572726FCA
:10455000723A25732C25640D0A000000A00000208B
:104560002DE9FF5F8346DDE90E87994616468A46A8
:104570009000FFF765F805001AD05C20FFF760F89F
:10458000040012D025630021CDE90241CDE9008766
:104590004B46324651465846FEF7A0FD2046FEF7F0
:1045A00055FC012004B0BDE8F09F2846FFF7A6F9AE
:1045B0004FF0FF30F6E700000548416919B1006B84
:1045C00018B100207047012070470220704700009A
:1045D000A00000200148C06870470000A000002033
:1045E0002DE9F0412D4F0026386B40B1B869401CD1
:1045F000B861F86900B101263046BDE8F081FD6878
:104600006D1CFD6011D1786B006828B140F6D9129D
:1046100023A128A0FBF78EFE786BB96B7963B86392
:10462000386A401C3862FEF72FFFB86ADFF89480C2
:10463000854209D3786B006880B1786BC068C46824
:10464000606885420DD2B8623868C06A00EB8001AC
:1046500058F821000128CCD90126CAE74FF0FF30D5
:10466000F1E7201DFFF798F8A06A18B104F11800CF
:10467000FFF792F8E06A01213A69814011433961FC
:1046800000EB800108EB8100211DFFF7BDF8E06A17
:104690003968C96A8842CDD30126CBE7A000002043
:1046A0002E2E5C4672656552544F535C7461736B79
:1046B000732E63004572726F723A25732C25640D58
:1046C0000A000000C0D7002070B504004FF00006BB
:1046D0003CD01F4D2868844205D040F6C7621DA11A
:1046E00021A0FBF727FE206D28B940F6C96219A169
:1046F0001DA0FBF71FFE206D401E2065E26CE16AE5
:10470000914223D010BB201DFFF746F81A49012221
:1047100050B9E06A00EB800351F8233023B92B69CC
:1047200002FA00F083432B61E06CE062C0F12000EC
:10473000A061E06A2B6982401A432A6100EB800085
:1047400001EB8000211DFFF75FF80126304670BDA8
:10475000A00000202E2E5C4672656552544F535CBB
:104760007461736B732E63004572726F723A2573B6
:104770002C25640D0A000000C0D700202DE9F0416F
:10478000C068C4682CB940F6613216A11AA0FBF7C4
:10479000D1FD04F118000746FEF7FEFF1A4D286B05
:1047A000012660B139461948FFF72EF8E06A2968FA
:1047B000C96A884213D90120EE61BDE8F081201D4D
:1047C000FEF7EAFFE06A2A6906FA00F1114329615F
:1047D0000F4900EB800001EB8000211DE4E7002081
:1047E000EBE700002E2E5C4672656552544F535C19
:1047F0007461736B732E63004572726F723A257326
:104800002C25640D0A000000A000002068DA0020BA
:10481000C0D700202DE9F0472B4D00242746286BF8
:1048200028B94FF4FD6229A12DA0FBF783FDFEF707
:10483000F7FF286B401E2863286BE8BBA8682C494B
:104840000126C8B3A1F52A798846D8F80010E9B145
:10485000D8F80C00C46804F11800FEF79DFF201D75
:10486000FEF79AFFE06A2A6906FA00F1114329610E
:1048700000EB800109EB8100211DFEF7C5FFE06A16
:104880002968C96A8842E0D3EE61DEE70CB1FEF721
:10489000FBFDAC693CB1FFF7A3FE00B1EE61641E05
:1048A000F9D10020A861E86930B112490127380721
:1048B0000860BFF34F8F00E001E0BFF36F8FFEF79A
:1048C000EBFF3846BDE8F087A00000202E2E5C46A6
:1048D00072656552544F535C7461736B732E630041
:1048E0004572726F723A25732C25640D0A00000020
:1048F00068DA002004ED00E02DE9F047074699460C
:1049000016460D462C20DDF820A0FEF799FE040087
:1049100014D0B8464F46D1462DB94FF4C67209A1FE
:104920000EA0FBF707FDFEF7F9FA04F11801C4F831
:10493000008081E8E002201DFEF74BFF2046BDE825
:10494000F08700002E2E5C4672656552544F535C12
:1049500074696D6572732E63000000004572726F9A
:10496000723A25732C25640D0A0000001CB5002442
:10497000FEF7D4FA0C48006868B10B491F20091DE6
:10498000CDE9000100234FF4827208A10948FFF726
:10499000E7FD040005D140F2331207A10CA0FBF79C
:1049A000C9FC20461CBD0000DC000020546D7220B4
:1049B00053766300A13500082E2E5C467265655261
:1049C000544F535C74696D6572732E630000000070
:1049D0004572726F723A25732C25640D0A0000002F
:1049E0002DE9FF47DDF830A0994690460D460600B8
:1049F0004FF0000705D14FF4D37212A117A0FBF7B7
:104A000099FC1A4C206880B1CDE900580296062D19
:104A100011DAFFF7D1FD02284FF0000309D0002280
:104A200069462068FFF724FC074604B03846BDE815
:104A3000F0875246F4E700234A466946FFF7DCFC5C
:104A4000F2E700002E2E5C4672656552544F535CAF
:104A500074696D6572732E63000000004572726F99
:104A6000723A25732C25640D0A000000DC0000203A
:104A70004FF04070E1EE100A704700004006000061
:104A800000780000800700002000000020000000E7
:104A90002000000000C8000000000F0000F000002F
:104AA000C04A00080000002014010000C4010008F2
:104AB000D44B0008140100201C300100E001000864
:104AC00000000000000000000000000000000000E6
:104AD00000000000000000000000000000000000D6
:104AE00000000000000000000000000000000000C6
:104AF00000000000000000000000000000000000B6
:104B000000000000000000000000000000000000A5
:104B1000007A030A00000000000000000102030404
:104B20000607080900000000000000005D2D0008D5
:104B3000992D00080003002000000068000000100C
:104B400000CB002000000F6800F000100000000003
:104B50000000000001020304010203040607080923
:104B60000000000000000000000000000000000045
:104B70000000000000000000000000000000000035
:104B80000000000000000000000000000000000025
:104B90000000000000000000000000000000000015
:104BA0000000000000000000000000000000000005
:104BB00000000000AAAAAAAA00000000000000004D
:104BC00000000000000000000000000000000000E5
:044BD00000000000E1
:040000050800018965
:00000001FF
