:020000040800F2
:10000000D03B012045030008B92D0008DD2500087C
:10001000F92A0008311A00085744000800000000BF
:100020000000000000000000000000008D02000839
:10003000531C000800000000E10200086D370008B2
:100040005F0300085F0300085F0300085F03000808
:100050005F0300085F030008711D0008B51E00085B
:10006000D51F00085F030008ED1F00085F030008AC
:100070005F0300085F0300085F0300085F030008D8
:100080005F0300085F0300085F0300085F030008C8
:100090005F0300085F0300085F03000805200008F5
:1000A0005F030008053900085F0300085F030008CC
:1000B0002D3900085F0300085F0300085F03000894
:1000C0005F0300085F0300085F0300085F03000888
:1000D0005F030008113F00085F030008F9400008B3
:1000E000991E00085F0300085F0300085F03000813
:1000F0005F0300085F0300085F0300085F03000858
:100100005F0300085F0300085F0300085F03000847
:10011000553C0008853D00085F030008213A0008AF
:10012000D51A00085F0300085F0300085F0300089A
:100130005F0300085F0300085F0300085F03000817
:100140005F0300085F0300085F0300085F03000807
:100150005F0300085F0300085F0300085F030008F7
:100160005F0300085F0300085F0300085F030008E7
:100170005F0300085F0300085F0300085F030008D7
:100180005F0300085F03000800F002F800F06FF85A
:100190000AA090E8000C82448344AAF10107DA45E2
:1001A00001D100F064F8AFF2090EBAE80F0013F0C5
:1001B000010F18BFFB1A43F001031847D482000057
:1001C000F48200000A444FF0000C10F8013B13F0D9
:1001D000070408BF10F8014B1D1108BF10F8015BA0
:1001E000641E05D010F8016B641E01F8016BF9D193
:1001F00013F0080F1EBF10F8014BAD1C0C1B09D1EA
:100200006D1E58BF01F801CBFAD505E014F8016B5B
:1002100001F8016B6D1EF9D59142D6D370470000ED
:100220000023002400250026103A28BF78C1FBD8FF
:10023000520728BF30C148BF0B607047662906F0DF
:10024000C181642900F01081732900F0B884002076
:1002500070471FB506F0B1F900F01CFD0400002046
:10026000002106F01DF9E0601FBD10B510BD00F0C3
:100270003DFE1146FFF7EDFF04F0BCF900F05BFE18
:1002800003B4FFF7F2FF03BC04F006F92A4B196828
:100290000868B0E8F04F80F30988BFF36F8F4FF024
:1002A000000080F3118870470000000006480068D5
:1002B000006880F3088862B661B6BFF34F8FBFF362
:1002C0006F8F00DF00BF00BF08ED00E0DFF80C001B
:1002D000016841F470010160704700BF88ED00E0E3
:1002E000EFF30980BFF36F8F134B1A681EF0100FE6
:1002F00008BF20ED108A20E9F04F106008B44FF0DD
:10030000500080F31188BFF34F8FBFF36F8F05F05C
:1003100097FA4FF0000080F3118808BC196808684C
:10032000B0E8F04F1EF0100F08BFB0EC108A80F359
:100330000988BFF36F8F7047AC050020EFF305808D
:10034000704700000948804709480047FEE7FEE77C
:10035000FEE7FEE7FEE7FEE7FEE7FEE7FEE7FEE775
:1003600004480549054A064B7047000081370008DC
:1003700089010008D0350120D03B0120D037012071
:10038000D0370120704700000FB4044910B503AA0C
:10039000029800F019FC10BC5DF814FB74050020F5
:1003A0000FB41CB5074B06AA7B446946009005981C
:1003B00000F0DBFB0020694600F0EAFB1CBC5DF8A6
:1003C00014FB0000E507000070B50446856900686D
:1003D000C10601D5302600E02026C00707D070BD39
:1003E000D4E9012130469047206A401C20626D1EEE
:1003F000F6D570BD70B5044685690078C00707D191
:1004000070BDD4E9012120209047206A401C206261
:100410006D1EF6D570BD70B50C460546012A05D097
:100420002878800600D5EA69002302E0012305E070
:100430005B1C934202D2E05C0028F9D1A869E6185F
:10044000C01AA861286A184428622846FFF7BCFF32
:1004500004E0D5E9012114F8010B9047B442F8D328
:100460002846FFF7C7FF70BD2DE9F041064600247E
:1004700010687529314616A510D0AFF3008000280A
:1004800002DA404213A507E031688A0701D512A5B8
:1004900002E0490704D511A5012401E0AFF3008073
:1004A00000210A2206F1240709E0B0FBF2FCB0FBB0
:1004B000F2F302FB1C00303078541846491C002827
:1004C000F3D123462A463046BDE8F04100F0E0B8BB
:1004D000000000002D0000002B00000020000000A4
:1004E0002DE9F0474FF0000A89460446C0F820A0E5
:1004F0002046E1688847002876D0252806D0D4E930
:1005000001219047206A401C2062F1E7E168204603
:1005100000258847C4F81CA006460027C4F818A088
:100520002A2E09D0304603F0B0FF38B304EB870819
:10053000303EC8F8186019E059F8041B204604EB57
:1005400087029161E1688847012F064618D1E0696A
:10055000002820DA25F020051DE0D8F8180000EB6F
:10056000800006EB40003038C8F818002046E168EB
:100570008847064603F089FF0028EED1012F0AD0F4
:100580002E2E08D12046E16888477F1C0646022FA0
:1005900045F02005C4DBA069002803DA404245F09D
:1005A0000105A061E80701D025F01005B6B1A6F15C
:1005B0004100192802D8203645F400654A463146E4
:1005C000204625604D46FFF739FE58B1012806D078
:1005D000ED1D25F0070000F1080989E704E005F1A9
:1005E000040985E730468AE7206ABDE8F087032AD8
:1005F00040F2308010F0030C00F0158011F8013B40
:10060000BCF1020F624498BF11F801CB00F8013B26
:1006100038BF11F8013BA2F1040298BF00F801CBEA
:1006200038BF00F8013B11F0030300F0DF82083A05
:10063000C0F0088051F8043B083A51F804CBA0E818
:100640000810F5E7121D5CBF51F8043B40F8043B6D
:10065000AFF30080D20724BF11F8013B11F801CBA2
:1006600048BF11F8012B24BF00F8013B00F801CB73
:1006700048BF00F8012B704702F0FF0343EA032252
:1006800042EA024200F0E6BA70477047704770478E
:100690002DE9F0470D4699469246044600F124089C
:1006A0000168880604D5E06921F01001216000E0AE
:1006B0000120A84201DD471B00E00027A1697A194B
:1006C00002EB0900081AA0612078C00602D4204677
:1006D000FFF77AFE002608E0D4E901211AF80600A7
:1006E0009047206A401C761C20624E45F4DB20783F
:1006F000C0060AD52046FFF767FE06E0D4E90121CF
:1007000030209047206A401C2062381EA7F1010764
:10071000F4DC07E0D4E9012118F805009047206ACD
:10072000401C2062281EA5F10105F3DC2046FFF7DE
:1007300061FE2078000602D50220BDE8F087012086
:10074000FBE770472DE9FF4F0C461E464FF0FF3781
:100750008BB0D2E90001DDF860800A908A46C1F3CF
:100760000A5505B93D46002108464FF00000BAF190
:10077000000F00F4400005DA00EB80004FF4400168
:1007800001EA50004FEA9059B9F1010F00DDB94676
:100790000A9850EA4A000ED044F61050A5F2FF35F0
:1007A00045432F14B8F1000F1ED07542291E1EDDDF
:1007B000C9F100021CE0B8F1010F4FF0000001D0B8
:1007C000302103E0F24305E02154401CB042FBDB42
:1007D00030460022002121540B99C1F80880C1E95C
:1007E00000200FB0BDE8F08FBD1B6D1CDEE74A4650
:1007F00000DA694206A800F0D7FA06AB93E80700D2
:1008000003AB83E8070050460A9900F0DDFB8DE852
:100810000700A0F500501F3800900398002D0ADD56
:1008200042F21F014A460844002303A90390684688
:1008300000F046FE09E0A0F500504A461F380023AC
:1008400003A90390684600F050FE8DE807000004FD
:10085000000C03D04FF0FF30410800E01046B8F123
:10086000000F03D00022009215461EE0751E05D42D
:1008700000F014FA303262556D1EF9D5B3460122EC
:10088000084302D000227F1C04E02078302801D1E8
:1008900000227F1E002A099784D01DE0112D07DA5F
:1008A00000F0FCF9303262556D1C50EA0102F5D1BE
:1008B000084302D00098C8B10EE00021681E05E090
:1008C000235C625C63542254401E491C8142F7DB66
:1008D000AB46A81B401E0990002004F80B000B98A3
:1008E000099AC0F80880C0E9002B7AE711264FF07A
:1008F000000857E72DE9F04F88460446D21D22F044
:10090000070191B0D1E90001CDE90A0103F0A5FD8D
:1009100002460B98C00F01D02D2007E02068810708
:1009200001D52B2002E0202101EAC000032A099012
:1009300001D0072A05DB03464146204600F0F4F9C2
:100940000BE12078800601D5E06900E00620B8F1CF
:10095000650F814606D0B8F1660F18D0B8F1670F61
:1009600070D131E00020B9F1110F009001DB1123AB
:1009700001E009F101030AAA01A90CA8FFF7E2FEB0
:10098000DDE90C70002609F10105834647E00120EE
:100990004B4600904FF000470AAA01A90CA8FFF7A8
:1009A000D1FEDDE90DB00C995D46002610B909F1C4
:1009B00001000D18B9EB050003D4C0F1FF3609F1B1
:1009C0000105A5EB09002BE0B9F1010F01DA4FF0A9
:1009D00001090020B9F1110F0090484601DD1123F3
:1009E00000E003460AAA01A90CA8FFF7ABFEDDE967
:1009F0000C704D4600268346207800070AD4AB458C
:100A000000DA5D4601A8012D04DD411911F8011C31
:100A1000302907D04F4502DA17F1040F04DA01201C
:100A200082460FE06D1EEEE7002F02DCED1B3E4418
:100A300003E0781CA84200DD7D1CB81B00F1010A10
:100A40004FF000472078000703D4AA4501DB4FF0A0
:100A5000FF3A0021B7F1004F0DF143088DF8431024
:100A600024D002202B23002F01DA7F422D230A21DC
:100A7000021EA0F1010000DC5FB197FBF1FC97FBC7
:100A8000F1F201FB1C7C17460CF1300C08F801CD8B
:100A9000EEE7A8F1010003702188090501D5452181
:100AA00000E06521A0F1010800F8011C09980FA9D8
:100AB000A1EB0807FF1D00B10120411901EBEA700D
:100AC000A1693844081A401EA0612078C00602D4EB
:100AD0002046FFF779FC099828B1D4E90121904715
:100AE000206A401C20622078C00622D52046FFF7ED
:100AF0006BFC1EE0002E04DBB34502DD01A8805D27
:100B000000E03020D4E901219047206A401C206297
:100B1000761CAAF101005FEA000A0AD100F0BAF8D7
:100B2000C0680168405CD4E901219047206A401CFC
:100B30002062281EA5F10105DCDC07E0D4E90121D3
:100B400018F8010B9047206A401C2062381EA7F15C
:100B50000107F3DC2046FFF74DFC032011B041E60E
:100B600001694A1C02610878704700B58FB0CDE971
:100B700001310021059105497944CDE90310114661
:100B80006846FFF7ADFC0FB000BD0000E5FFFFFFBA
:100B90000A6802F8010B0A60704710B5436913B187
:100BA000AFF3008001E0FFF736FC012010BD1278A2
:100BB00000F124010A7000224A700122EDE7116859
:100BC0004FF0FF32E9E70000074B70B50D467B445C
:100BD000FFF7CBFF0446284600F058F910B14FF05C
:100BE000FF3070BD204670BDB339000010B5203A0B
:100BF000C0F00B80B1E81850203AA0E81850B1E8D6
:100C00001850A0E81850BFF4F5AF5FEA027C24BF8B
:100C1000B1E81850A0E8185044BF18C918C0BDE882
:100C200010405FEA827C24BF51F8043B40F8043B4B
:100C300008BF7047D20728BF31F8023B48BF11F800
:100C4000012B28BF20F8023B48BF00F8012B70475A
:100C50004FF000020429C0F0128010F0030C00F0E5
:100C60001B81CCF1040CBCF1020F18BF00F8012B62
:100C7000A8BF20F8022BA1EB0C0100F00DB95FEA30
:100C8000C17C24BF00F8012B00F8012B48BF00F8FD
:100C9000012B7047004870478C35012030B5B0F10A
:100CA0000A024FEA900E71F100034EEA817EB0EB2A
:100CB0000E0061EB91014FEA101E4EEA017E10EB2F
:100CC0000E0041EB11114FEA102E4EEA016E10EBAF
:100CD0000E0041EB11214FEA104E4EEA014E10EB8F
:100CE0000E0041EB1141401841F100014FEAD000E4
:100CF00040EA41704FEAD10110EB80054FEA8104D0
:100D000044EA907444EB01046D1944EB0404521B53
:100D1000A3414FF0000348BF0A3200D530BD401C4C
:100D200041F1000130BD00002DE9F0411F460446AD
:100D300003260168072A01F4006004DB08B116A548
:100D400005E016A503E008B115A500E015A521F002
:100D500010002060A069C01EA0610FB1401EA061FC
:100D60002046FFF731FB4FB1D4E9012138469047C7
:100D7000206A401C2062C01C206206E0206AFAE75C
:100D8000D4E9012115F8010B9047761EF8D22046D0
:100D9000FFF730FBBDE8F0814E414E006E616E0002
:100DA000494E4600696E66002DE9F04781461646B9
:100DB0008AB0354878440DC88DE80D003248784433
:100DC000801C03AC0DC884E80D0041F69B3008443C
:100DD000372190FBF1F290FBF1F5A5F1800501FBC5
:100DE00012041B3C02D56442012000E00020DFF821
:100DF00098A080460027FA44AAF1BE0A0EE0E00758
:100E00000AD03246684607EB470101230AEB81010D
:100E100000F06BFB8DE8070064107F1C002CEED106
:100E2000194F7F44AE3F19E0E80715D007EB0410D7
:100E30000DF1180A90E80E008AE80E00C068F04232
:100E400001D1981908903246012306A903A800F0A1
:100E50004CFB03AB83E807006D10641C002DE3D14D
:100E60004FF0010332466946B8F1000F03A802D0E3
:100E700000F026FB01E000F038FBC9E90001C9F8E9
:100E800008200AB0BDE8F087C0760000007B00F0C3
:100E9000800070474FF0000200B513469446964616
:100EA000203922BFA0E80C50A0E80C50B1F120017D
:100EB000BFF4F7AF090728BFA0E80C5048BF0CC02B
:100EC0005DF804EB890028BF40F8042B08BF704789
:100ED00048BF20F8022B11F0804F18BF00F8012BFB
:100EE00070470000004870476C3501207546FFF7D9
:100EF000F9FFAE4605006946534620F007008546D7
:100F000018B020B5FFF72CFABDE820404FF00006DE
:100F10004FF000074FF000084FF0000B21F00701E1
:100F2000AC46ACE8C009ACE8C009ACE8C009ACE824
:100F3000C0098D46704710B50446AFF300802046C7
:100F4000BDE81040FFF79CB94FF0013C50F8042B6E
:100F500051F8043B9A4221D1A2EB0C03934313EACC
:100F6000CC1317D150F8042B51F8043B9A4215D1F9
:100F7000A2EB0C03934313EACC130BD150F8042BD0
:100F800051F8043B9A4209D1A2EB0C03934313EAB4
:100F9000CC13DBD04FF00000704700BFD01A01BA6D
:100FA000B1FA81F101F0180122FA01F0CB40C1F150
:100FB0002001DBB2C0B2C01A2CFA01F3D11A91435E
:100FC00011EAC311E6D170475FEA400C08BF91F007
:100FD000000F4FEA8C234FEAC12243EA51514FEAF6
:100FE0001C5018BF00F5F0404FEA300018BF41F028
:100FF00000415FEA6C5C00F02980BCF1FF3F08BF54
:1010000040F080407047130C06BF12044FF0100CE4
:101010004FF0000C130E04BF12020CF1080C130F5A
:1010200004BF12010CF1040C930F04BF92000CF1E9
:10103000020CD30F04BF52000CF1010C11464FF00B
:101040000002A0F11F00A0EB0C00704711F0004F50
:1010500008BF704731F000413FF4D5AF0B0C06BF1D
:1010600009044FF0100C4FF0000C0B0E04BF0902E6
:101070000CF1080C0B0F04BF09010CF1040C8B0FD1
:1010800004BF89000CF1020CCB0F04BF49000CF126
:10109000010CCCF12003A0EB0C0022FA03F302FABE
:1010A0000CF241EA030100F10100704720F07F4C8F
:1010B00080EA030023F07F47ACEB070303F57C5382
:1010C00000F0004003F1FF032DE980494FEA154B82
:1010D00009B44FEA144325EA0B4E24EA03480FF201
:1010E000042606EB132749083E785FEA320203FB29
:1010F0000667C7F5000707FB06F64FEA54374FEAC5
:10110000D64606F1020607FB066CCCF1005C4FEAFE
:101110001C472CEA074C07FB06F40CFB06F504EB16
:1011200015464FEA961634BF00204FF000404FEAB4
:10113000D13706FB07FC4FEA1C4C0CFB0BF7D21B0C
:1011400003FB0CF761EB07010CFB0EF7B0EB07405C
:1011500072EB17420CFB08F734BFA2EB0742B2EB6D
:10116000074261EB17414FEA0C444FEA910706FB37
:1011700007FC4FEA1C4C0CFB0BF7B0EBC74072EBC3
:10118000573203FB0CF734BFA2EBC742B2EBC742A6
:1011900061EB57310CFB0EF7B0EBC70072EB5772E7
:1011A0000CFB08F734BFA2EBC702B2EBC70261EB3E
:1011B0005771039F4FEA816141EA921104EBCC041D
:1011C0004FEAD1374FEA826206FB07FC42EA9012EF
:1011D0004FEA80604FEA1C4C0CFB0BF7D21B03FB61
:1011E0000CF761EB07010CFB0EF7B0EB074072EB5D
:1011F00017420CFB08F734BFA2EB0742B2EB0742E1
:1012000061EB17414FEA8C554FEA910704EB9C24A0
:1012100006FB07FC4FEA1C4C0CFB0BF7B0EBC7407E
:1012200072EB573203FB0CF734BFA2EBC742B2EBB1
:10123000C74261EB57310CFB0EF7B0EBC70072EB06
:1012400057720CFB08F734BFA2EBC702B2EBC70220
:1012500061EB577115EB4C254FEA816141EA921120
:101260004FEA82624FEAD13742EA901206FB07FC4E
:1012700044F100044FEA80604FEA1C4C0CFB0BF772
:10128000D21B03FB0CF761EB07010CFB0EF7B0EB75
:10129000074072EB17420CFB08F734BFA2EB074282
:1012A000B2EB074261EB174115EB1C154FEA813198
:1012B00041EA92414FEA823242EA90424FEA80305C
:1012C0004FEA0C7644F1000448EA03434EEA0B4827
:1012D0004FF0000EB2EB080C71EB030724BF62461F
:1012E00039464EEB0E0E4FF0000B001852414941AB
:1012F0004BEB0B0BB2EB080C71EB03077BF1000B14
:1013000024BF624639464EEB0E0E4FF0000B00181C
:10131000524149414BEB0B0BB2EB080C71EB03074D
:101320007BF1000B24BF624639464EEB0E0E51EAAC
:10133000020718BF46F0010616EB0E7655F10002C3
:1013400054F1000103D5BDE88901BDE80088BDE87E
:101350008901BDE80048B619524141EB0101A3F1F2
:101360000103704780807F7E7D7C7B7A79787776F9
:1013700076757473727171706F6E6E6D6C6C6B6A72
:101380006A69686867666665646463636261616010
:10139000605F5F5E5E5D5D5C5C5B5B5A5A5959588D
:1013A00058575756565555555454535352525251F7
:1013B000515050504F4F4F4E4E4D4D4D4C4C4C4B4D
:1013C0004B4B4A4A4A494949484848474747474694
:1013D00046464545454444444443434343424242D0
:1013E00042414141002B9C4630D477002BD01CB5A4
:1013F0004FEA370703B44FF010004FF01001BAF175
:10140000000F06D0BCF1000FDCBF40F0080040F038
:1014100008014FF000000FBCBDE810400BF1010BBC
:10142000BBF1010F08BF5FEA170722BF12F10102EB
:1014300011F101014FF0004143F1000300F00040C1
:1014400043EA00007047F9D35708D0E746EA06465A
:1014500013F1400F4FEA16461FDD13F1200FDFBFD7
:1014600016430A46002120335B42BED0C3F1200759
:1014700046EA064602FA07F74FEA164646EA070624
:10148000C3F1200722FA03F201FA07F721FA03F168
:101490004FF0000342EA0702A7E746EA020646EADF
:1014A00006464FEA164646EA0106BCBF46EA06462D
:1014B000360C4FF000034FF000024FF0000194E7AC
:1014C0002DE9804C9A46934670B491E8380007C8DD
:1014D00031EA400C48BF34EA430C03D5FFF7E6FD80
:1014E000FFF780FFF0BCBDE8008C2DE9804C9A46E8
:1014F000934670B491E8380007C810F0804F08BFD9
:1015000013F0804F03D100F005F8FFF76BFFF0BC3C
:10151000BDE8008C20F07F4780EA030023F07F4C79
:1015200007EB0C03A3F57C5300F00040A3F1FE038E
:1015300092F0000F00F0B38095F0000F00F077807C
:101540002DE901494FEA11404FEA144621EA0048CB
:1015500000FB06FC24EA064708FB06F607FB08F832
:1015600000FB07F718EB06484CEB164C4FEA124B02
:1015700018EB07484FEA15464CEB174022EA0B4E92
:101580000BFB06FC25EA06470EFB06F607FB0EFEE4
:101590000BFB07F71EEB064E4CEB164C4FF000060C
:1015A0001EEB074E4CEB174B18EB0B0840F10000FD
:1015B00018EB0E0B58EB000840F100008F1A4FF0AB
:1015C00000013CBFC943661B14BFB5EB040C0021EE
:1015D0003CBFC943F61B4FEA17444EEA8E0E27EA7A
:1015E00004454FEA1C4704FB07622CEA074C05FB45
:1015F00007F70CFB05F604FB0CFC16EB074642EB69
:10160000174216EB0C4642EB1C421BEB060658EB4E
:101610000202414146EA9E0601D5BDE80189B6199C
:10162000524141EB0101A3F10103BDE801894FEAF9
:1016300014454FEA114724EA054621EA074C05FB09
:1016400007F406FB07F70CFB06F105FB0CFC11EB9E
:10165000074144EB17444FEA124711EB0C4144EBAE
:101660001C4422EA074C05FB07F206FB07F70CFBBC
:1016700006F605FB0CFC16EB074642EB174216EB91
:101680000C4642EB1C456A1854F1000148BF7047F4
:10169000B619524141EB0101A3F10103704795F0E6
:1016A000000F37D04FEA11424FEA144721EA0246B1
:1016B00024EA074C02FB07F106FB07F70CFB06F4D4
:1016C00002FB0CFC14EB074441EB17414FEA1547B2
:1016D00014EB0C4441EB1C4125EA074C02FB07F5D7
:1016E00006FB07F70CFB06F602FB0CFC16EB0746A5
:1016F00045EB174516EB0C4645EB1C42121951F110
:10170000000148BF7047B619524141EB0101A3F1F6
:10171000010370474FEA14454FEA114724EA054692
:1017200021EA074C05FB07F106FB07F70CFB06F265
:101730004FF0000605FB0CFC12EB074241EB174192
:1017400012EB0C4251EB1C4148BF7047921841EB21
:101750000101A3F10103704730B501210D028DB0E5
:10176000284601F0BDFD0121042001F0A1FD032068
:101770000F218DF82C000A9100248DF82F400AA922
:101780002C4800F0A3FC00F08DF80121284601F060
:10179000B3FD0021284601F0AFFD2802CDE9064047
:1017A000089406A8099400F053F801208DF804006D
:1017B00000948DF805000294049406201E4C8DF8C8
:1017C00014006946204600F0ABF80121204600F0E5
:1017D00035F8062301220B21204600F0C7F8062326
:1017E00002220A21204600F0C1F8062303220C2120
:1017F000204600F0BBF8062304220121204600F019
:10180000B5F8062305220021204600F0AFF8062394
:101810001A460D21204600F0A9F8204600F0E0F815
:101820000121204600F034F80121204600F026F87E
:101830000DB030BD00080240002001400029816841
:1018400002D041F0010101E021F001018160704707
:10185000084B10B5D3F8042307490A40D0E9001417
:101860002143D0E90240044321431143C3F8041348
:1018700010BD000000200140E030FCFF002981681D
:1018800002D041F4807101E021F4807181607047E1
:101890000029816802D041F4007101E021F4007157
:1018A0008160704710B5012190B0880501F000FDFE
:1018B000184C204600F05AF90028FAD11649CDE913
:1018C00000011649CDE902106021CDE904104FF462
:1018D00080610691490007910891C9100991490258
:1018E000CDE90A100121CDE90C100E906946204681
:1018F00000F084F90121204600F02EF91021204645
:1019000000F0FEF801221021204600F061F910B02D
:1019100010BD0000106402404C2001402C06002045
:1019200030B542680F4B0C791A400B6842EA04222A
:101930001343436082680C4B4D791A40D1E903434D
:1019400023438C6844EA4504234313438360C26AFB
:10195000097D22F47002491EC9B242EA0151C162F6
:1019600030BD0000FFFEFFFCFDF7FFC070B507268D
:1019700009290AD9C568A1F10A0404EB4404A64068
:10198000B543A3401D43C56007E0056901EB410471
:10199000A640B543A3401D4305611F23072A09D272
:1019A000446B521E02EB820293409C4391400C43D5
:1019B000446370BD0D2A09D2046BD21F02EB820270
:1019C00093409C4391400C43046370BDC46A0D3A3C
:1019D00002EB820293409C4391400C43C46270BD71
:1019E000816841F0804181607047642003F076FD9A
:1019F000FBE700001CB50121082001F059FC012083
:101A00008DF8040000208DF806008DF807000320F3
:101A10004FF400748DF8050000946946034800F007
:101A200055FB02481A3004801CBD0000000C024027
:101A3000FEE70A2003F052FDFBE700000A48016AB6
:101A4000491C0162818B491C81830849897F0129D6
:101A500003D10749097DC90702D00021818470475D
:101A6000818C491CFAE70000E40B0020580D00208F
:101A7000200C0020C82003F031FDFBE72DE9FC41DC
:101A80000121084601F014FC00268DF804600127AE
:101A90004FF480558DF80770022400958DF80540AD
:101AA00069460A4800F012FB0121102001F000FCF9
:101AB0008DF804608DF8077000958DF80540694633
:101AC000034800F003FBBDE8FC8100000000024079
:101AD0000010024070B5084C084D2146284600F021
:101AE0004DF8002807D02146284600F01FF8BDE831
:101AF000704002F025BD70BD2080001010640240CF
:101B0000074A904201D2074801E005481038064ACA
:101B10008B0001EA020101D5C16070478160704706
:101B200010640240006002407D0F7D0F074A904222
:101B300001D2074801E005481038064A8B0001EA47
:101B4000020101D5C1607047816070471064024096
:101B5000006002407D0F7D0F0029016802D041F036
:101B6000010101E021F00101016070470146002000
:101B70000968C90700D001207047000030B5104A3D
:101B80000024904201D20F4A01E00D4A103A0E4B58
:101B9000194205D01E2303EAD12503682B4002E039
:101BA000406900F08003880001D5506800E01068AB
:101BB000064A1040084201D003B10124204630BD3E
:101BC00010640240006002403C0F3C0F7D0F7D0F0F
:101BD0000B0607D5436912B143F0800301E023F0FF
:101BE00080034361802908D0002A026801F01E01A9
:101BF00001D00A4300E08A430260704730B50368B1
:101C0000124ACC6813400A682243D1E905452C43A7
:101C10002243CC6922430C6A22434C6A22438C6AD9
:101C200022434C6B22438C6B22431A43026042696D
:101C300022F00703D1E90B2422431A4342610A69C7
:101C400042604A6882608968C16030BD3F801CF094
:101C5000704770472DE9F843234E0F460546D6E9F5
:101C6000020100249046884201D001F09BF91E48F1
:101C70001030854204D101F095F900F013FF2BE0FC
:101C80004FF00109CDF80090707910230007010E84
:101C900016A2002001F0C8FA3807010E102314A282
:101CA0000020CDF8009001F0BFFA0FE004EB08002F
:101CB00000EBC00005EB80022007010E10230A2074
:101CC000121DCDF8009001F0AFFA641C286801786D
:101CD0004078081AA042E9DC01F006FA7771B06892
:101CE000F060BDE8F8830000B8000020200000008C
:101CF0003E000000F8B500241646054601270DE019
:101D0000A01900EBC00005EB80022007010E102394
:101D10000A20121D009701F087FA641C28680178D8
:101D20004078081AA042EBDCBDE8F84001F0DCB9CD
:101D30000B4C0C4D0C4E0D4F2088401C20802888E9
:101D4000401C28803088401C30803888401C3880F7
:101D500000F0D4FE00F068FA642003F0BFFBEBE76C
:101D6000480500204A0500204C0500204E050020B3
:101D700070B5012000F062F900286ED0434C444851
:101D80004FF6FF7621784FF000054A064FEA816151
:101D90001CD400291CDA012100F0E4F900286ED1DE
:101DA000A089E080217801F0DF022270A1888842BA
:101DB000A0EB010000D2304480B2A0F5B970B42885
:101DC0005DD242F040002070657058E000290BDBC6
:101DD000012100F0C7F9012851D1A089A080207805
:101DE00040F0200020704AE0012100F0BBF998BBD0
:101DF000A089E080217801F0DF012170A18888426C
:101E0000A0EB010000D2304480B2A0F114014629B9
:101E100001D2607806E0A0F164016E2904D26078F6
:101E200040F00100607007E0A0F1DC01322903D32B
:101E3000B0F5967F00D32570207800F01F010629A9
:101E400018D3257060781349502807D00C2808D083
:101E5000022809D00A280AD011E015E050200870A5
:101E60000DE00C2048700AE00220887007E00A208C
:101E7000C87004E0401C2070607840006070BDE8CD
:101E80007040012000F0D4B870BD00003E0000207A
:101E900000040240E40B002010B54FF4006420461B
:101EA00000F0CCF8002804D02046BDE8104000F037
:101EB000BFB810BD70B5022000F0C0F8002870D087
:101EC000414C42484FF6FF76A1784FF000054A0694
:101ED0004FEA81611CD400291CDA022100F042F98A
:101EE00000286AD1A0896081A17801F0DF02A27088
:101EF00021898842A0EB010000D2304480B2A0F5D5
:101F0000B970B42859D242F04000A070E57054E096
:101F100000290BDB022100F025F901284DD1A08911
:101F20002081A07840F02000A07046E0022100F05F
:101F300019F978BBA0896081A17801F0DF01A17057
:101F400021898842A0EB010000D2304480B2A0F188
:101F50001401502901D2E07806E0A0F1640178294B
:101F600004D2E07840F00100E07003E0B0F5967F25
:101F700000D3A570A07800F01F01062918D3A57022
:101F8000E0781349502806D00C2807D0022809D041
:101F90000A280AD011E0502008720EE00C20487286
:101FA0000BE00FE00220887207E00A20C87204E00C
:101FB000401CA070E0784000E070BDE87040022056
:101FC00000F036B870BD00003E0000200004024062
:101FD000E40B002010B5042000F030F8002804D0F5
:101FE000BDE81040042000F023B810BD10B510204B
:101FF00000F024F8002804D0BDE81040102000F0C4
:1020000017B810BD10B5202000F018F810B18020CE
:1020100000F00EF84FF40074204600F00FF800288E
:1020200004D02046BDE8104000F002B810BD00000A
:102030000149086070470000143C0140034A014612
:10204000002012680A4200D001207047143C014071
:1020500030B51A4A8379016853B313688B43136010
:10206000111D0B680468A3430B60017911440B68D0
:10207000046823430B60114B083319680468A143BB
:1020800019601C1D21680568A94321604179102948
:1020900005D011440A68006802430A6030BD19681F
:1020A000026811431960216800680143216030BD56
:1020B0000079104402688A43026030BD003C014050
:1020C00000F0A0FB642003F009FAF9E7F0B5002264
:1020D00001274FF0030C0B6807FA02F52B40AB42C7
:1020E0002CD1066853000CFA03F4A64306600E795F
:1020F000D0F800E09E4046EA0E0606600E79012EFA
:1021000001D0022E12D18668A64386604E79D0F89F
:1021100008E09E4046EA0E0686604668AE4346608A
:1021200045688E799640B6B235434560C568A5438B
:10213000C560CC799C40C3681C43C460521C102A03
:10214000C9D3F0BD4B07DB0E9A40C90810B500EBB0
:102150008100016A0F249C40A1430162016A11437E
:10216000016210BD0246002012690A4200D001201F
:102170007047418370470183704700002DE9F043A9
:10218000DFF89CC041F268074FF4AF59BCF9044036
:10219000C9F100084FF4AF66B84203DDB44201DA7A
:1021A0004D4606E0B04203DABC4201DD454600E0A0
:1021B00000252C44241A24B2E51704EB9574A510CD
:1021C000174CACF80C50B942B4F9064001DDB442EA
:1021D00007DBB14203DABC4201DDC84601E04FF043
:1021E000000808EB0106341B24B2E61704EB9674D2
:1021F0000C4FA410ACF80E403E7A012E0BD0158087
:102200001C80ACF80850ACF80A40ACF80400ACF8FC
:102210000610BDE8F083002616801E803E72F0E7AF
:10222000500000208C0D002070B5BB4C2DED028BB2
:1022300004F1C401A06888427DD1B84DB5F9000011
:1022400000EE100AB8EEC00A9FEDB58AF3EE008AE0
:1022500020EE080A20EE280A10EE100A04F03CF9DD
:1022600041EC100BAFA153EC102B04F1EC00FEF786
:1022700097F8B5F9020000EE100AB8EEC00A20EE99
:10228000080A20EE280A10EE100A04F025F941ECA5
:10229000100BA8A153EC102B04F58870FEF780F802
:1022A000B5F9040000EE100AB8EEC00A20EE080AE4
:1022B00020EE280A10EE100A04F00EF941EC100B83
:1022C0009CA153EC102B04F59A70FEF769F89D4D14
:1022D000B5F9000000EE100AB8EEC00A20EE080AB8
:1022E000DFED998A20EE280A10EE100A04F0F4F8C7
:1022F00041EC100B95A153EC102B04F5AC70FEF7DC
:102300004FF8B5F9020000EE100AB8EEC00A20EE50
:10231000080A20EE280A10EE100A04F0DDF841EC5D
:10232000100B84A153EC102B04F5BE70FEF738F8A7
:10233000B5F9040000E0B2E000EE100AB8EEC00A01
:1023400020EE080A20EE280A10EE100A04F0C4F865
:1023500041EC100B77A153EC102B04F5D070FEF775
:102360001FF87E4DB5F9000000EE100AB8EEC00A65
:1023700020EE080ADFED7A8A20EE280A10EE100A15
:1023800004F0AAF841EC100B76A153EC102B04F5E5
:10239000E270FEF705F8B5F9020000EE100AB8EE9B
:1023A000C00A20EE080A20EE280A10EE100A04F0F7
:1023B00093F841EC100B5FA153EC102B04F5F47073
:1023C000FDF7EEFFB5F9040000EE100AB8EEC00A02
:1023D00020EE080A20EE280A10EE100A04F07CF81D
:1023E00041EC100B53A153EC102B04F50370FDF7D7
:1023F000D7FF604DB5F9000000EE100AB8EEC00A34
:1024000020EE080A10EE100A04F066F841EC100BFA
:1024100059A153EC102B04F50C70FDF7C1FFB5F971
:10242000020000EE100AB8EEC00A20EE080A10EE14
:10243000100A04F051F841EC100B53A153EC102B8F
:1024400004F51570FDF7ACFFB5F9040000EE100AB5
:10245000B8EEC00A20EE080A10EE100A04F03CF8AC
:1024600041EC100B48A153EC102B04F51E70FDF746
:1024700097FFB5F9060000EE100AB8EEC00A20EE8C
:10248000080A10EE100A04F027F841EC100B3EA1E8
:1024900053EC102B04F52770FDF782FF1DE03E4939
:1024A00088421ED13C4894F902203CA12830FDF717
:1024B00077FF394894F903203CA14C30FDF770FFB9
:1024C000354894F904203DA17030FDF769FF32488A
:1024D00000223EA19430FDF763FF62782178A06866
:1024E00005E02D49B431884207D162782178BDECEE
:1024F000028BBDE87040FFF7FDBB074910318842F1
:1025000007D100F0CFFABDEC028BBDE8704000F0BF
:10251000EBBDBDEC028B70BDB80000206E0000204A
:1025200000000038416363202020252E33662020E0
:1025300020202000202020202020252E336620204F
:1025400020202000760000200000FA444779726FB6
:102550002020252E33662020202020007E00002011
:1025600000003443416E676C6520252E33662020C1
:1025700020202000B0000020517561742020252EFD
:102580003566202020202000202020202020252EFD
:102590003566202020202000740300204B5020208E
:1025A0002025336420202020202000004B492020BB
:1025B0002025336420202020202000004B442020B0
:1025C00020253364202020202020000050574D205B
:1025D000202533642020202020200000FEE77047C3
:1025E0001CB50121022000F063FE4FF4406001247D
:1025F00000908DF8044000208DF8060003208DF82F
:1026000005008DF8074069460448FFF75FFD044860
:10261000C0F8A842C0F8AC421CBD00000004024053
:10262000008040422DE9F04105461448016821F43C
:1026300040010160016841F4800101600024104EF6
:10264000A0460127E809C6F8AC026806050E02207C
:1026500001F05CFFC6F8A872022001F057FFC6F82F
:10266000A882022001F052FF072C01D1C6F8AC72FB
:10267000641CE4B2082CE5D3BDE8F08100040240FC
:102680000080404270B50D48016821F440010160AE
:10269000016841F480010160094C0120C4F8AC02DA
:1026A000C4F8A802042004F52A7401F02FFF0025C5
:1026B0006560042001F02AFF256070BD000402401F
:1026C0000080404270B50D48016821F4400101606E
:1026D000016841F480010160094C0125C4F8A85249
:1026E0000020C4F8AC02042004F52A7401F00EFFA7
:1026F0006560BDE87040042001F008BF000402409E
:102700000080404270B513480024016821F4400164
:10271000016001680160104D0126C5F8AC623046C9
:1027200001F0F4FEC5F8A862012001F0EFFE0AE016
:10273000641CE4B2FA2C06D908A0FDF725FEFFF7C9
:10274000C1FF012070BDD5F82C020028F0D1C5F8DA
:10275000A80270BD000402400080404269696332F3
:102760002074696D656F75740D0A000005494FF698
:10277000FF728889401C80B28881904201D300207A
:10278000888170473E0000207FB50121022000F0C3
:102790008FFD0121880300F0A3FD03200025029096
:1027A0008DF80C5001248DF80F4002A91048FFF756
:1027B0008DFC0121084600F02FFE02208DF8045008
:1027C000102600908DF805608DF806406846FFF7EA
:1027D0003FFC0021012000F01FFE8DF804508DF811
:1027E000056000948DF806406846FFF731FC7FBD18
:1027F0000004024002494CF6CC40086070470000DB
:102800000030004000F014B870B504460D4645F2A3
:10281000555000F021F8204600F012F8284600F04C
:1028200015F800F005F8BDE87040FFF7E3BF0000C1
:1028300002494AF6AA2008607047000000300040B4
:10284000014948607047000000300040014988603D
:1028500070470000003000400149086070470000E8
:10286000003000402DE9F041254C264F264D012631
:1028700008B1267001E0207878B108212846FFF7DA
:1028800071FC88B110212846FFF76CFC60B1012172
:102890003846FFF767FC012806D008212846FFF7D5
:1028A00061FC01281DD028E00A2001F013FE002061
:1028B000207008212846FFF755FC58B11021284602
:1028C000FFF750FC48B101213846FFF74BFC0128C7
:1028D00005D012E00120BDE8F0810220FBE70320D3
:1028E000F9E710212846FFF73DFC012805D1012119
:1028F0003846FFF737FC00B926700020EBE70000F0
:1029000060000020000002400010024002480179EF
:10291000491C017170470000B80000201CB501215E
:10292000112000F0C5FC1820009000208DF8040054
:1029300003208DF8050001248DF8074069460648FC
:10294000FFF7C4FB02208DF8070000946946034896
:10295000FFF7BCFB1CBD000000100240000002405D
:10296000DFF83C800F4E4FF48067012408F1020528
:102970000020FFF777FFA8F80070012804D0022894
:1029800005D0032808D105E02F80347004E02F80A3
:10299000747001E02F80B470642002F09FFDE7E7BF
:1029A00018140240040000200248C178491CC1707C
:1029B00070470000B800002002488178491C8170EF
:1029C00070470000B800002002488178491E8170DD
:1029D00070470000B80000202DE9FC4701212420A9
:1029E00000F066FC01248DF8044000258DF80650A7
:1029F000234F4FF020098DF80740CDF800908DF857
:102A0000055069463846FFF761FB8DF804408DF8A4
:102A1000065010268DF8074000968DF8055069463F
:102A20003846FFF753FB8DF804408DF80650DFF869
:102A300054A04FF400788DF80740CDF800808DF851
:102A4000055069465046FFF741FB8DF804408DF86C
:102A50000650A7028DF8074000978DF8055069468B
:102A60005046FFF733FB06481A300680A0F8009066
:102A700004481830A0F800800780BDE8FC870000FB
:102A80000008024000140240054C4FF4FA7520681B
:102A900080F400712160284602F020FDF7E7000075
:102AA00014140240F8B501242646E500E8B20823D4
:102AB0000BA20121009600F0B7FBE8B2082308A2A0
:102AC000BC21009600F0B0FB641C0F2CEDDB102342
:102AD00004A25A212820009600F0A6FBF8BD0000B1
:102AE0002D000000595A424F5400000000F0B6F883
:102AF000052002F0F3FCF9E7FEE700002DE9F041C4
:102B0000384D374B002495F900201E7895F90110B7
:102B1000A868012E08D0344B1E78012E19D0334EF0
:102B20003378012B2CD056E0521E52B21C702A7002
:102B3000002A0BDA11B12C70491E06E001680A78F0
:102B40004B78D21A521E2A70497869706A782978AF
:102B50003FE0521C1C7052B22A7003681F785E78E6
:102B6000BB1B5B1E934204DA8E4202D02B70491CC1
:102B7000EBE79342EADA8E42E8D12C706C70E5E71D
:102B800052EA010307D102EBC20300EB8303DB69C6
:102B90000BB1AB6019E0114401EBC10100EB810006
:102BA000016A806979B100B1804795F9000095F913
:102BB00001100844A96800EBC00001EB8000006A26
:102BC000A8602C7001E000B1804734706A782978E1
:102BD000A868FFF73FF8BDE8F041FFF725BB00000C
:102BE00004000020B800002005000020060000209E
:102BF0000949A1F1240000F1B40201624A6400F520
:102C00002B728A66B432C1F88C20343988604A78D5
:102C10000978FFF71FB80000EC0000207047F0B5FE
:102C20004FF6FF7200254AF201060FE0445D0023D3
:102C300084EA0207FF0702D086EA520200E0520847
:102C40005B1C6408DBB2082BF2D36D1C8D42EDDBFC
:102C5000100240EA122080B2F0BD704770B5534CAC
:102C6000607901287DD10A2001F050FC00256571B2
:102C700065802571A07901281ED16178C80701D02F
:102C8000491E6170C9B2A01D891EFFF7C8FFE17916
:102C9000474E4848432912D00123442941D04529B1
:102CA00062D0EA2908D1218909B28181628912B2F0
:102CB000C28101B90AB1457776E0437774E0218992
:102CC000628949BA52BAB1F5A04F20D0A1F5A0430C
:102CD000023B03D1A2F5A243023B65D0A1F5A0437C
:102CE000043B61D1A2F5A24104395DD1A189B31C95
:102CF00049BAC182E1892E4A49BA8182B0F91610D7
:102D0000B0F91400FFF73AFA358075804CE0B2F55F
:102D1000A24F49D1A18949BA0182E18949BA4182C8
:102D200042E02189628949BAA1F50C5652BA183E8F
:102D300003D1A2F54C56183E36D0B1F5045F33D11D
:102D4000B2F5445F30D1627BE17B012A0AD00129D0
:102D500008D00577B0F90210B0F9000000F07AFB56
:102D600022E022E00377F5E7218949BAA1F518525C
:102D7000103A03D0A1F51852203A15D1A18949BAC9
:102D80008181E18949BAC181218A33884ABA618A3D
:102D90001A443280728849BA11447180A18A49BAB2
:102DA0000183E18A49BA4183657070BDA80B002098
:102DB0008C0D0020380C002070472DE9F8434FF4AB
:102DC000407000F0E5F825208DF8000001248DF812
:102DD000014007278DF802708DF80340684600F027
:102DE000A5F826208DF800008DF8014006268DF804
:102DF00002608DF80340684600F098F827208DF8AF
:102E0000000000258DF801504FF004098DF8029064
:102E10008DF80340684600F089F834208DF80000F2
:102E20008DF801504FF005088DF802808DF80340B1
:102E3000684600F07BF835208DF800008DF80160C1
:102E40008DF802508DF80340684600F06FF81920A5
:102E50008DF800008DF801508DF802608DF8034068
:102E6000684600F063F82E208DF800008DF80150C0
:102E70008DF802708DF80340684600F057F81C206A
:102E80008DF800008DF801408DF802708DF8034038
:102E9000684600F04BF837208DF800008DF80140AF
:102EA0008DF802608DF80340684600F03FF8382046
:102EB0008DF800008DF801408DF802808DF80340F8
:102EC000684600F033F88DF800608DF8015002205C
:102ED0008DF802008DF80340684600F027F88DF861
:102EE00000708DF8015003258DF802508DF80340D5
:102EF000684600F01BF817208DF800008DF801409F
:102F00008DF802508DF80340684600F00FF8282035
:102F10008DF800008DF801408DF802908DF8034087
:102F2000684600F003F8BDE8F883000030B50F23D1
:102F3000C27801780125FAB1144A126801F1E02142
:102F400002F4E062C2F5E062C2F30722C2F10404B7
:102F5000D3404278A24084781C401443220181F877
:102F60000024007800F01F018D404009800000F12E
:102F7000E020C0F8005130BD01F01F008540480935
:102F8000800000F1E020C0F8805130BD0CED00E081
:102F90000249084302490860704700000000FA0532
:102FA0000CED00E030B40021084B0A46002003EB92
:102FB000C004401CC0B262548028F8D3491CC9B276
:102FC0000829F3D330BC00F08FB80000EC060020D5
:102FD00030B5CC0801F0070301259D40EBB2064D4A
:102FE00005EBC005C808285C0AB1184302E063EA93
:102FF0000000C043285530BDEC06002010B500216C
:10300000AE2000F02FF90021084600F02BF9002136
:10301000102000F027F90021402000F023F90021C2
:10302000812000F01FF90021CF2000F01BF90021C2
:10303000A12000F017F90021C82000F013F90021A9
:10304000A62000F00FF90021A82000F00BF90021C4
:103050003F2000F007F90021D32000F003F9002100
:10306000084600F0FFF80021D52000F0FBF8002111
:10307000802000F0F7F80021D92000F0F3F80021BB
:10308000F12000F0EFF80021DA2000F0EBF8002149
:10309000122000F0E7F80021DB2000F0E3F8002127
:1030A000402000F0DFF80021202000F0DBF80021B4
:1030B000022000F0D7F800218D2000F0D3F8002185
:1030C000142000F0CFF80021A42000F0CBF800215C
:1030D000A62000F0C7F8FFF765FF0021BDE810400B
:1030E000AF2000F0BFB8000070B5174E002505F105
:1030F000B000C0B2002100F0B5F80021084600F091
:10310000B1F80021102000F0ADF8FFF7BBFA7820ED
:10311000FFF788FAFFF7F6FA4020FFF783FAFFF788
:10312000F1FA002406EBC400405DFFF77BFAFFF7DD
:10313000E9FA641CE4B2802CF4D3FFF7C3FA6D1CE7
:10314000EDB2082DD3D370BDEC0600202DE9FC4F65
:103150001D46884681468B460090082B0ED0680796
:1031600000D0012000EBD500690810FB01F0C0B2CF
:10317000203A02F0FF0A0026019046E00620F7E719
:10318000082D10D00C2D14D0102D16D0182D3FD195
:1031900021490AEBCA0001EB80000027845DE007AB
:1031A0000FD00B9A10E01D490AEB4A0001EB4000DA
:1031B000F3E70AEB4A001A49EDE71A4901EB0A1056
:1031C000EBE70B9830B3002241464846FFF700FF7B
:1031D0007F1C640808F10100FFB200F0FF08082F0F
:1031E000DDD309F1010000F0FF09082D0AD0009994
:1031F000A9EB0100B0EB550F04D10BF10800894693
:1032000000F0FF0B761CD846F6B201988642B7D381
:10321000BDE8FC8F0122D7E754720008C86500089A
:10322000F0670008646C00082DE9F8411E46154659
:1032300088460446079F0BE03346414620460097E8
:10324000FFF784FF082E0AD004EB5600C4B26D1CB1
:103250002A78A2F120005E28EED9BDE8F881A41DED
:10326000E4B2F4E770B50C460546FFF70BFA782098
:10327000FFF7D8F9FFF746FA0CB1402000E0002034
:10328000FFF7D0F9FFF73EFA2846FFF7CBF9FFF733
:1032900039FABDE87040FFF715BA4FF47A7420464A
:1032A00002F01CF9FBE7C82002F018F9FBE7000068
:1032B000044A0029116801D0014300E081431160F4
:1032C0007047000030380240044A0029116801D0DC
:1032D000014300E081431160704700004038024024
:1032E000044A0029116801D0014300E081431160C4
:1032F0007047000044380240044A0029116801D098
:10330000014300E08143116070470000243802400F
:1033100070B5204B1968204C11F00C0104D06610D8
:10332000042903D0082903D004601BE0066019E0DB
:10333000184A121F1168C1F38055116801F03F014E
:1033400015B1B6FBF1F101E0B4FBF1F114681268BC
:10335000C4F388146143C2F30142521C5200B1FB12
:10336000F2F1016019680F2202EA11110B4A545C54
:103370000168E14041601C68072505EA9424145D5A
:1033800021FA04F484601B6805EA5333D25CD1400F
:10339000C16070BD083802400024F4009C05002084
:1033A0002DE9F041124F0E46804615460821384659
:1033B000FEF7DFFE012001F08DF84021404600F0CD
:1033C00045FF002405E0315D404600F013F8641C21
:1033D000A4B2AC42F7D34021404600F04AFF002897
:1033E000F9D03846BDE8F0410821FEF7C4BE000020
:1033F000000C024070B50C460546402100F039FF34
:103400002146284600F0CEFF8021284600F031FFFB
:103410000028F9D070BD000010B58A0721F0030420
:103420000849120F21440F23D1F8084893409C43C8
:10343000C1F80848D1F8083890400343C1F808386B
:1034400010BD0000003001407047192002F046F81E
:10345000FBE700002DE9F0410D46074600260A2152
:10346000304601F0BDF9044601202070EA2060706A
:10347000A770380AE0702571280A6071062120467D
:10348000FFF7CDFB010AA171E07108222146044833
:10349000FFF786FF21463046BDE8F04101F094B9C0
:1034A000004C00400CB500222749009201920868A8
:1034B00040F4803008604FF4A043086800F4003006
:1034C00001900098401C0090019810B90098984213
:1034D000F3D10868800334D5012001901A484030A8
:1034E000026842F0805202601848026842F440428A
:1034F00002601548083002680260026842F4004227
:103500000260026842F4A0520260031F104A1A606F
:103510000A6842F080720A600A689201FCD50D497F
:1035200040F205720A60016821F003010160016840
:1035300041F0020101600168C1F381010229FAD161
:103540000CBD01920CBD000000380240007000402C
:1035500008544007003C02401CB501F079FE464982
:103560000320CDE900010023802244A1464802F057
:103570000FFD41490420091DCDE9000100238022EF
:1035800042A1464802F004FD3B4905200831CDE93F
:1035900000010023802242A1454802F0F9FC36498F
:1035A00006200C31CDE900010023802241A14548CD
:1035B00002F0EEFC304907201031CDE90001002374
:1035C000802241A1434802F0E3FC2B49082014313A
:1035D000CDE90001002380223FA1424802F0D8FC3F
:1035E000254902202C31CDE90001002380223EA193
:1035F000414802F0CDFC204909201831CDE90001F5
:10360000002380223DA1414802F0C2FC1A490A2051
:103610001C31CDE90001002380223DA1404802F089
:10362000B7FC15490B202031CDE900010023802291
:103630003CA13F4802F0ACFC0F490D202431CDE9FC
:103640000001002380223BA13D4802F0A1FC0A4971
:103650000E202831CDE900010023802239A13C4809
:1036600002F096FC04480838406801F06DFFBDE8A0
:103670001C4001F029BE00000C000020506D755F59
:103680005461736B000000009B32000843616D6D54
:10369000616E645F5461736B00000000331A0008B0
:1036A0004572725F48616E646C655F5461736B0054
:1036B000C1200008506F7765726F66665F54617352
:1036C0006B000000A73200084368675F5461736BAA
:1036D00000000000751A0008546573745F5461732C
:1036E0006B000000893B0008446973706C61795F6E
:1036F0005461736B00000000311D00084175746F48
:103700004368617267655F5461736B00EB19000871
:1037100053656E645F4D6472765F5461736B000035
:103720004B3400084D6472765F5461736B00000087
:10373000ED2A00084C45445F5461736B00000000A3
:10374000892A00084B65795F5461736B00000000A3
:10375000612900084FF0E0210428086903D020F017
:1037600004000861704740F00400FAE710B502F069
:103770003BFC012803D0BDE8104002F029B910BD80
:10378000124810B5016841F47001016010480168E9
:1037900041F0010101600E4A002108321160026807
:1037A0000C4B1A400260031D0B4A1A60026822F497
:1037B0008022026006480C300160FFF773FE034967
:1037C0004FF000608039086010BD000088ED00E017
:1037D00000380240FFFFF6FE1030002410B5A8208C
:1037E00000F05CFEFFF7F8F8FEF704F9FEF7CCFFF7
:1037F000FEF744F9FDF7B0FFFFF790F8FEF7F0FE93
:10380000FFF7FCFBA8230A221349012000F08AF9E4
:103810004FF47A725423D106012000F083F94FF45B
:10382000527364220D49202000F07CF94FF4E131FD
:103830000B4800F0BBFD4FF416510A4800F0B6FDEE
:10384000002000F041FF022000F03EFFBDE81040E4
:1038500005A0FCF799BD00000000014000140040E5
:10386000001001400050004042737020696E69747E
:10387000204F4B210D0A00002DE9F05F1E4E202540
:1038800035801E4F2C013C80DFF87480A8F8004082
:10389000642000F01FFE06F10209A9F80050A7F10C
:1038A000020AAAF8004008F1020BABF80040C82059
:1038B00000F010FE35803C80A8F80040642000F045
:1038C00009FEA9F80050AAF80040ABF80040C82053
:1038D00000F000FE35803C80A8F80040642000F035
:1038E000F9FDA9F80050AAF80040ABF80040BDE887
:1038F000F05FC82000F0EEBD180802401A14024024
:10390000180C024010B5084C0121204600F0B6F812
:10391000012807D10121204600F0A3F8BDE810409E
:10392000FEF724BF10BD0000000001402DE9F0416A
:1039300001218C07204600F0A1F8012839D101218E
:10394000204600F08EF8FEF779F83049314D324AC2
:1039500048884FF47A73401C48802D494888401CA1
:103960004880688B0021401C6883A88B401CA8837A
:103970005088401C80B25080984200D951801088F5
:10398000401C80B21080984200D3118095F830001E
:10399000D0B1224CA61E631501280CD0022815D0E8
:1039A000032806D13380688E421C6A86B0F5C87F32
:1039B00007D8BDE8F0813380688E421C6A8664288F
:1039C000F7D9238085F830106986F2E733806A8E54
:1039D000501C80B26886642A05D9421C6A86C828B1
:1039E00001D22380E5E76A8E4FF49677501C80B2AF
:1039F0006886C82A05D9421C6A86B84201D233803B
:103A0000D7E7688EB842DCD8D3E700006C0B002003
:103A1000A80B0020580D00204C0000201A0C02407A
:103A200010B50B4C0121204600F028F800280ED0DC
:103A3000084901204871084948710146204600F0B4
:103A400010F82046BDE81040002100F00DB810BD70
:103A500000140040A80B0020C60B0020C9430182BF
:103A60007047C943018270470029018802D041F0A4
:103A7000010101E021F001010180704702460020B0
:103A8000138A92890B4202EA010202D0002A00D076
:103A900001207047002A828901D00A4300E08A434E
:103AA000828170474162704730B50288164C174DCD
:103AB000A0420DD0A8420BD0B0F1804F08D0144BDB
:103AC000984205D0134B984202D0134B984203D131
:103AD00022F070034A881A43104B984206D0104BCC
:103AE000984203D022F440730A891A4302804A683C
:103AF000C2620A880285A04201D0A84201D1897A17
:103B000001860121818230BD000001400004014096
:103B10000004004000080040000C0040001000407D
:103B200000140040FEB50C4615491E4615468C4251
:103B300002D014498C4203D10121FFF7D1FB02E0EE
:103B40000121FFF7C1FB761E0020ADF800606D1E5D
:103B5000ADF80200ADF80800019569462046FFF770
:103B6000A3FF01212046FFF779FF012211462046DD
:103B7000FFF790FF01212046FFF776FFFEBD000012
:103B8000000001400004014000244FF47A75641CD9
:103B9000E4B2142C0AD9002400F0FEFC642000F0EA
:103BA00099FC00F011FD642000F094FC284601F01F
:103BB00095FCECE77047704770B5064686B001216A
:103BC0000420FFF775FB0121C804FFF77DFB1F4DA3
:103BD00008220A212846FEF7B5FA08220B212846BA
:103BE000FEF7B0FA02218DF814104FF440608DF802
:103BF0001510049000248DF8164001208DF8170050
:103C000004A92846FEF762FAADF80440ADF8064074
:103C1000ADF80840ADF80C400C200D4CADF80A0092
:103C200000966946204600F063FB012240F22551D0
:103C3000204600F044FB0121204600F010FB40210B
:103C4000204600F003FB06B070BD000000080240F3
:103C5000004C004070B5144C40F2255529462046D2
:103C600000F00EFB00281ED02946204600F0F1FA95
:103C7000204600F093FB0D49C0B248700C494A79C8
:103C8000002A10D14B788A1D0A4C98544878401C61
:103C9000487000212046FFF705FF2046BDE8704030
:103CA0000121FFF7E1BE70BD004C00403C00002048
:103CB000A80B0020001400402DE9F043814687B096
:103CC00001210420FFF7F4FA01210820FFF7F0FAA0
:103CD00001210805FFF7F8FA274F08220C21384682
:103CE000FEF730FADFF89480082202214046FEF702
:103CF00029FA02258DF80450B8148DF805500024D7
:103D000000908DF8064001268DF807606946384618
:103D1000FEF7DCF98DF8045004208DF80550009072
:103D20008DF806408DF8076069464046FEF7CEF9EB
:103D3000ADF80C40ADF80E40ADF81040ADF81440B1
:103D40000C200F4CADF81200CDF8089002A92046C7
:103D500000F0CEFA012240F22551204600F0AFFAE1
:103D60000121204600F07BFA4021204600F06EFA47
:103D700007B0BDE8F083000000080240000C0240DC
:103D80000050004070B5384C40F225552946204679
:103D900000F076FA002866D02946204600F059FA4D
:103DA000204600F0FBFA3249304A0B78D0545B1CB5
:103DB000D8B2087014780023552C53D10B2852D355
:103DC000507850380A284DD2DFE800F0050D151D57
:103DD000252D353B414752F8020FC1F802005068CB
:103DE000C1F806003EE052F8020FC1F80A00506820
:103DF000C1F80E0036E052F8020FC1F81200506808
:103E0000C1F816002EE052F8020FC1F81A005068EF
:103E1000C1F81E0026E052F8020FC1F822005068D7
:103E2000C1F826001EE052F8020FC1F82A005068BF
:103E3000C1F82E0016E052F8020F486350688863FC
:103E400010E052F8020FC863506808640AE052F8A4
:103E5000020F48645068886404E052F8020FC86496
:103E6000506808650B7070BD005000405E0C00206B
:103E70006400002070B50646012186B00846FFF7B1
:103E800017FA01211020FFF72BFA1F4D07220921F5
:103E90002846FEF757F907220A212846FEF752F96D
:103EA00002218DF814104FF4C0608DF815100490A5
:103EB00000248DF8164001208DF8170004A928462B
:103EC000FEF704F9ADF80440ADF80640ADF808403F
:103ED000ADF80C400C200D4CADF80A000096694678
:103EE000204600F005FA012240F22551204600F05C
:103EF000E6F90121204600F0B2F94021204600F009
:103F0000A5F906B070BD000000000240001001409D
:103F10002DE9F041294C40F225552946204600F074
:103F2000AFF900282BD02946204600F092F9204610
:103F300000F034FA224BC0B2597900291FD11C7805
:103F40000A46A5074FF0010603F106011DD4E40758
:103F500004D0AA280AD0552802D012E055280ED144
:103F600050545E70187840F0010007E05A785054C1
:103F70005878401C5870187840F002001870BDE85E
:103F8000F0815A701A705A71F9E75C7860545C7865
:103F9000641CE4B25C701D786F0708D4597A491E1E
:103FA0008C42ECD10D28ECD145F00400E6E70A285C
:103FB000E7D160545A701A705E71E0E7001001405A
:103FC0008A0B0020F0B50746012187B00846FFF7AD
:103FD0006FF901214804FFF777F91E4E07220221ED
:103FE0003046FEF7AFF8072203213046FEF7AAF865
:103FF00002208DF814008DF8150000248DF816406D
:1040000001200C258DF81700049504A93046FEF711
:104010005DF8ADF80440ADF80640ADF80840ADF8E5
:104020000C400D4C0097ADF80A506946204600F050
:104030005FF9012240F22551204600F040F90121AC
:10404000204600F00CF94021204600F0FFF807B0B0
:10405000F0BD0000000002400044004070B506467C
:1040600086B001210220FFF723F901218804FFF720
:104070002BF91F4D07220A212846FEF763F8072275
:104080000B212846FEF75EF802218DF814104FF43C
:1040900040608DF81510049000248DF81640012022
:1040A0008DF8170004A92846FEF710F8ADF8044073
:1040B000ADF80640ADF80840ADF80C400C200D4CB2
:1040C000ADF80A0000966946204600F011F9012279
:1040D00040F22551204600F0F2F80121204600F080
:1040E000BEF84021204600F0B1F806B070BD0000D7
:1040F00000040240004800402DE9F0412A4C40F203
:1041000025552946204600F0BBF800282DD0294629
:10411000204600F09EF8204600F040F92349244B49
:10412000C0B20870597900291FD11C780A46A5072A
:104130004FF0010603F106011DD4E40704D0AA28BC
:104140000AD0552802D012E055280ED150545E7086
:10415000187840F0010007E05A7850545878401C15
:104160005870187840F002001870BDE8F0815A705D
:104170001A705A71F9E75C7860545C78641CE4B298
:104180005C701D786F0708D4597A491E8C42ECD1B7
:104190000D28ECD145F00400E6E70A28E7D1605489
:1041A0005A701A705E71E0E7004800403C00002041
:1041B0006C0B002070B5064686B001211020FFF779
:1041C00077F80121C807FFF77FF81E4D082200216C
:1041D0002846FDF7B7FF082201212846FDF7B2FF68
:1041E00002218DF8141003208DF81510049000247E
:1041F0008DF8164001208DF8170004A92846FDF718
:1042000065FFADF80440ADF80640ADF80840ADF8E4
:104210000C400C200C4CADF80A0000966946204674
:1042200000F066F8012240F22551204600F047F8E0
:104230000121204600F013F84021204600F006F846
:1042400006B070BD00100240007C0040C9430180F0
:1042500070470A0A01219140C94301807047002933
:10426000818902D041F4005101E021F400518181A3
:1042700070470246002012880A4200D00120704791
:1042800070B501F01F0501260024C1F3421306FAA0
:1042900005F2012B0FD0022B0FD0838A4FEA112198
:1042A0000088134206FA01F600EA060001D000B1C8
:1042B0000124204670BD8389F0E7038AEEE710B53C
:1042C000C1F3421301F01F040121A140012B07D0CB
:1042D000022B07D01430002A026805D00A4304E0FC
:1042E0000C30F8E71030F6E78A43026010BD00009A
:1042F0007FB50446008A0D46C98820F4405001432A
:104300002182A08941F20C618843A9882A8911433E
:104310006A8902431143A181A08A20F44071A889CF
:104320000843A0826846FEF7F3FF1A48844202D091
:104330001948844201D1039800E00298A189090438
:1043400000EBC00101EB0010296801D5490000E035
:104350008900B0FBF1F06422B0FBF2F109010B0916
:104360006FF018056B4300EB8300A3891D044FF029
:10437000320306D503EBC000B0FBF2F000F00700FB
:1043800005E003EB0010B0FBF2F000F00F00084373
:1043900020817FBD00100140001401408088C0F3DF
:1043A00008007047C1F3080181807047124A9042AB
:1043B00002D10846FFF75EBD104A904202D108467E
:1043C000FFF700BE0E4A904202D10846FFF746BEF4
:1043D0000C4A904202D10846FFF7EEBB0A4A9042CF
:1043E00002D10846FFF768BC084A904202D108464D
:1043F000FFF7E0BE7047000000100140004400409D
:1044000000480040004C004000500040007C00404C
:104410002DE9F04116460D460746002406E02978AE
:10442000384600F007F8641CE4B26D1CB442F6D3C1
:10443000BDE8F08170B50C4605464021FFF719FF35
:1044400021462846FFF7AEFF80212846FFF711FFDF
:104450000028F9D070BDFEE7704703B40198410011
:10446000009850EAC12018BF04204A0D18BF40F040
:10447000010040F2FF72B2EB515F08BF40F0020052
:10448000012808BF052002B0704730380A2801D241
:1044900001207047002070477047000010B50446A7
:1044A0000420FFF757F90A484FF47A71047014FB9F
:1044B00001F1012242804FF0E020026942F0020245
:1044C00002614161016941F00101016110BD00001B
:1044D0007005002070B5044601F086FD01280CD05F
:1044E000094D6888844203D3B4FBF0F000F0F6FF76
:1044F0006888B4FBF0F100FB11444FF47A7060431C
:10450000BDE8704000F002B87005002070B54FF0B3
:10451000E02500216C69094AAB6912785043AA6909
:104520009A42FCD002D2A3EB020302E0A4EB020603
:104530003344194413468142F1D370BD7005002005
:10454000F0B50E4D00210E4A0E46A5F10C070020D5
:1045500000EB400305EB8303146833F81130401C73
:104560002344C0B213601028F2D3180927F81100B1
:10457000491CC9B216600629E9D3F0BD2C060020FB
:104580000000002003490A885206FCD5C2B28A8086
:10459000704700000010014010B500200A2100F013
:1045A0001FF90146FF200870AA20487001228A7076
:1045B000CA7000200871BDE8104005220148FFF7CD
:1045C00027BF00000050004010B500200A2100F075
:1045D00007F90146FF200870AA20487000228A705F
:1045E000CA700A71BDE8104005220148FFF710BFEC
:1045F000005000401CB500F02BFEFFF7EFF8FEF76F
:10460000DCFB40F271210420FEF7FEF8C820FFF722
:1046100061FFFFF731F9FEF7EBFA09A0FBF7B4FEF3
:104620000E490120CDE90001002340220CA10F48D2
:1046300001F0AEFC00F048FE01F0B0F800201CBD17
:10464000524F424F542053797374656D20737461D7
:104650007274696E6721210D0A00000008000020B5
:1046600053746172745F5461736B000059350008B4
:1046700070B5134A131893F8203093B1114B53F8C7
:1046800020308B421AD90F4B02EB80020C3B53F8BF
:1046900020305069B1FBF3F130F81140002003469F
:1046A00008E011688847012070BD55690E18401C4C
:1046B00025F81630A042F8DB002070BD022070BD46
:1046C00078050020F083000870B504460B480C4EB6
:1046D000002150F8240006EB84054200686900F0D0
:1046E0008FF806480021183050F82420A86800F000
:1046F00087F80120311981F8200070BDD8830008A7
:10470000780500202DE9F0411F4E05460024701960
:104710000F4690F8200010B93168284688474FF0BE
:10472000FF327FB3194B53F82510B7FBF1F0B7FBFD
:10473000F1FC01FB1C7101B1401C14490C3951F80A
:104740002510491E1ED406EB8506776937F811C07F
:10475000BCF1000F05D00024844211D1002284B2A4
:1047600007E0641CF8E7776901EB020C521C27F89C
:104770001C408242F7D353F825004843BDE8F0813E
:10478000491EE3D51046F9E778050020E4830008C8
:1047900010B50B4B0B4C002253F82030114604EBA4
:1047A000800005E0446934F8114004B1521C491CF2
:1047B0008B42F7D864204243B2FBF3F0C0B210BD85
:1047C000D883000878050020002906D0034A02EBB0
:1047D00080029268891AFFF74BBF70477805002066
:1047E00010B50446FFF78EFF411C05D0034901EBCD
:1047F00084018968084410BD002010BD78050020A0
:1048000001E000F8011B521EFBD270472DE9F04178
:10481000184E0F460446F5683068001D00F0D4FCC1
:1048200038B9306890F82C100120884031698143F4
:104830003161601C07D137B13168BDE8F0410E48E5
:10484000091D00F0F9BC30682C44AC42446031686A
:1048500005D2B06BBDE8F041091D00F0D5BC706B0E
:10486000091D00F0D1FCB06A844200D2B462BDE8F8
:10487000F0810000AC05002030E500202DE9F0417A
:10488000054600F0E5FC2D4EB068401CB060306875
:104890002B4F10B1706930B32BE03560B068012840
:1048A00027D1002404EB840007EB800000F09EFC7D
:1048B000641C202CF6D3234800F098FC21481430C7
:1048C00000F094FC1F48283000F090FC1D483C305C
:1048D00000F08CFC1B48503000F088FC19487063D5
:1048E0001430B06305E03068E96AC06A884200D8D5
:1048F0003560706A0121401C70626864E86A326940
:1049000081401143316100EB800007EB8000291DDD
:1049100000F092FC00F0D8FC706900280CD03068E0
:10492000E96AC06A884207D207494FF080500860A0
:10493000BFF34F8FBFF36F8FBDE8F081AC05002050
:1049400060E20020E0E4002004ED00E010B500F09B
:104950007FFC0E4C2068A0B90D4800F047FC0C48C5
:10496000143000F043FC0A48E0601430206100225B
:104970001021052001F042F8206010B105A100F0DF
:1049800079FDBDE8104000F09FBC0000E805002064
:1049900044E50020546D72510000000070B5124EC5
:1049A000124D1CE000F044FF306820B1002401F0FB
:1049B00049FCA4B901E00124F9E700F049FCF068E2
:1049C000C468201D00F000FCA868401EA86068684C
:1049D000401E686000F078FC204600F052F86868DD
:1049E0000028DFD170BD00001CE50020AC050020D0
:1049F00030B4026C0B46002A0BD0C1681144C16070
:104A00004468A14201D30168C16030BC1846FBF77D
:104A1000EEBD30BC70472DE9F041856B174604466A
:104A20000026026C82B1C7B1E068FBF7E0FDE168E7
:104A3000206C091AE1602268914202D26168081A6A
:104A4000E060022F16D017E02068A8B9606801F076
:104A500053FB0646002060600EE0A068FBF7C7FD30
:104A6000216CA0680844A0606168884204D3206873
:104A7000A06001E005B16D1E6D1CA5633046BDE868
:104A8000F08110B50446006B00F050FC2046BDE8F4
:104A9000104000F04BBC000010484FF4A04142070A
:104AA00006D0C01D0D4920F00700411AC1F5A041F4
:104AB0000B4A00230144C2E900030839103A21F0EF
:104AC000070111604B600B600B1AC0E90013936083
:104AD0004FF000405360D060704700006CE500204C
:104AE00018060020074E4FF08054074DFFF756FF81
:104AF00030680128FAD92C60BFF34F8FBFF36F8F56
:104B0000F4E7000060E2002004ED00E02DE9F0474A
:104B1000DDE909840E461746824691009946089DB4
:104B2000A522206BFBF7A8FD6FF00301206B01EBC2
:104B30008701084420F00707780705D040F22B32A0
:104B400019A11EA0FBF720FC00202218315C82F87E
:104B50003410315C11B1401C1028F6D3002684F8C3
:104B60004360202D00D31F25E562C4E91356201DA4
:104B700000F047FB04F1180000F043FB2461C5F18D
:104B800020006462A061666584F858604A46514618
:104B9000384600F003FB2060B8F1000F01D0C8F8E0
:104BA0000040BDE8F08700002E2E5C46726565521D
:104BB000544F535C7461736B732E63004572726F54
:104BC000723A25732C25640D0A00000030B5114996
:104BD00000E011460A688242FBD34B685C188442AD
:104BE00003D1406818444860084643681C18944242
:104BF00009D1084C103C2468A24209D052681A44DA
:104C000042600A6812680260814200D0086030BDCC
:104C10000460F9E71806002070B5002441600B4DD0
:104C20000061914206D8D11A8269914206D2011DD3
:104C3000286907E09A4203D2994201D3012403E094
:104C4000011DE86800F0E0FA204670BDE80500208C
:104C500010B5044600F0FCFAA06B20B1002400F06F
:104C600033FB204610BD0124F9E700002DE9F34194
:104C700000980F460026846C2CB940F6CE1216A17F
:104C80001AA0FBF781FBA06BE16B884205D340F6CD
:104C9000CF1211A115A0FBF777FBA06BE16B884247
:104CA0000CD294F945503A4669462046FFF7B3FEC8
:104CB0000646681C05D06D1C84F845503046BDE89A
:104CC000FC81606A0028F9D004F1240001F06EFA3A
:104CD0000028F3D00126F1E72E2E5C46726565525E
:104CE000544F535C71756575652E63004572726F24
:104CF000723A25732C25640D0A000000F8B50546AC
:104D000014480E46C068C068C468201D00F05CFAF4
:104D1000E069012817D1A0692B4641193246204687
:104D2000FFF77AFF78B100200346014600902A463B
:104D3000204601F06DFB30B907494FF4027201F1D2
:104D40001800FBF721FB616A01B02046BDE8F04086
:104D500008470000E80500207463000870B586B0BD
:104D60002F4E53E00198002806DADDE90301029A8C
:104D700090470198002849DB039C606910B1201D11
:104D800000F022FA05A800F0A7F8054601980A28C5
:104D90003CD2DFE800F00505053B273805053B2739
:104DA0000298A169034601442A462046FFF734FFD2
:104DB00000282BD0616A20468847E069012825D168
:104DC000002000900298A16900234218194620464D
:104DD00001F01EFBD0B940F2213212A117A0FBF75F
:104DE000D3FA13E00298A06128B94FF44E720DA1D6
:104DF00012A0FBF7C9FAA0692B4641191A462046B2
:104E0000FFF70AFF02E0204600F090FA00231A465E
:104E100001A9306800F02EFE0028A3D106B070BDB5
:104E2000E80500202E2E5C4672656552544F535C97
:104E300074696D6572732E63000000004572726FB5
:104E4000723A25732C25640D0A000000F8B50D4652
:104E5000064600F0EDFC684600F03EF80446009877
:104E600010B101F0EFF9F8BD1148ADB10169096861
:104E7000D9B10025311B2A46006800F00DFB01F076
:104E8000E1F90028EFD10B494FF080500860BFF3E3
:104E90004F8FBFF36F8FF8BDA642EBD801F0D2F968
:104EA00021463046FFF72AFFF8BD0125E2E7000062
:104EB000E805002004ED00E00648416B096829B1CF
:104EC000416BC968C9684968816270474FF0FF311A
:104ED000FAE70000AC05002070B5054601F092F835
:104EE000064E0446B068844203D200F009F801205F
:104EF00000E0002028602046B46070BDE805002076
:104F0000F8B5184E26E0C068C4680568201D00F09A
:104F10005BF9616A20468847E06901281AD1A069D7
:104F20002844A84206D924616060211DF06800F081
:104F30006BF90FE000200346014600902A46204608
:104F400001F066FA30B9084940F2923201F11800D6
:104F5000FBF71AFAF06801680029D4D13169C6E973
:104F60000310F8BDE8050020746300080848406895
:104F7000401C05D040F20F1206A111A0FBF704FA65
:104F8000502080F31188BFF34F8FBFF36F8FFEE780
:104F9000FC0500202E2E5C4672656552544F535C12
:104FA000706F727461626C655C525644535C41521E
:104FB0004D5F434D34465C706F72742E6300000089
:104FC0004572726F723A25732C25640D0A00000039
:104FD000084CE068016839B1002139B10020FFF7C1
:104FE00035FFFFF7BBFEF4E70121F6E7C068006874
:104FF000F5E70000E80500202DE9F041044600F047
:1050000027F994F9455004F1240610E0A06C20B172
:1050100000212046FFF72AFE04E0606A48B13046CE
:1050200001F0C4F808B100F0F5FA6D1E6DB2002D64
:10503000ECDC4FF0FF3684F8456000F045F900F0F5
:1050400007F994F9445004F1100709E0206948B1C8
:10505000384601F0ABF808B100F0DCFA6D1E6DB215
:10506000002DF3DC84F84460BDE8F04100F02CB979
:105070002DE9F0410546002600F0DAFB324F386892
:1050800008B9FFF709FDF86805424FD1002D4DD052
:10509000083568070BD005F00700C0F1080005448B
:1050A000680704D0BF2229A132A0FBF76DF9002DBB
:1050B0003CD07868854239D82349103108460468C5
:1050C00001E0214604466068A84202D22068002818
:1050D000F7D13868B846844228D00E682068086046
:1050E00060680836401B10280ED96719780704D06D
:1050F000EC2216A11FA0FBF747F96068401B7860FF
:1051000038466560FFF762FD6168D8F804004246E2
:10511000401AC8F80400D8F80830984200D29060CD
:10512000D8F80C0001430020C4E9000101F08AF81E
:10513000700705D04FF4967204A10EA0FBF724F976
:105140003046BDE8F0810000080600202E2E5C46A7
:1051500072656552544F535C706F727461626C6516
:105160005C4D656D4D616E675C686561705F342E86
:10517000630000004572726F723A25732C25640D2E
:105180000A0000000449086818B10868026D521C42
:105190000265086870470000AC05002010B5031FC9
:1051A0004FF080741C601B1F21F001011960191F52
:1051B000044B0B6014390A60091F6FF00202443877
:1051C0000A6010BD6D4F0008D0E9013201699A6094
:1051D000D0E901235A604A68824201D182684A605C
:1051E000002202610868401E0860704700F1080153
:1051F0004FF0FF32C0E90112C1600161002101607E
:10520000704700210161704730B50C68621C02D004
:1052100000F1080202E0026904E01A4653681D68C2
:10522000A542FAD953684B6099608A605160086161
:105230000168491C016030BD42684A6093688B6018
:1052400093685960916008610168491C016070476A
:10525000502080F31188BFF34F8FBFF36F8F094940
:105260004868401C486001280AD10748006810F0CF
:10527000FF0F05D040F2B91204A10FA0FBF784B8CC
:1052800070470000FC05002004ED00E02E2E5C4677
:1052900072656552544F535C706F727461626C65D5
:1052A0005C525644535C41524D5F434D34465C70F2
:1052B0006F72742E630000004572726F723A25732C
:1052C0002C25640D0A00000010B5084C606828B950
:1052D0004FF4E07206A111A0FBF756F86068401E7B
:1052E000606001D180F3118810BD0000FC05002032
:1052F0002E2E5C4672656552544F535C706F72740B
:1053000061626C655C525644535C41524D5F434D43
:1053100034465C706F72742E630000004572726FC9
:10532000723A25732C25640D0A00000070B5002820
:105330002AD0164DA0F108046068E968084205D13A
:105340004FF4A07212A11CA0FBF71EF8206828B130
:1053500040F241120EA118A0FBF716F86068E96848
:10536000084211D02268002A0ED18843606000F004
:105370005FFA60686968084468602046FFF726FCA9
:10538000BDE8704000F05EBF70BD00000806002060
:105390002E2E5C4672656552544F535C706F72746A
:1053A00061626C655C4D656D4D616E675C686561E1
:1053B000705F342E630000004572726F723A25737D
:1053C0002C25640D0A00000006484FF47A7100682D
:1053D000B0FBF1F14FF0E020491E4161072101616E
:1053E000704700005C05002010B5FAF7A7FF104CCD
:1053F00010280CD300F1E02090F8F00321788842C7
:1054000005D24FF440720BA115A0FAF7BDFF184862
:105410000068A16800F4E060884207D9BDE8104048
:105420004FF4447203A10EA0FAF7AEBF10BD000006
:10543000FC0500202E2E5C4672656552544F535C6D
:10544000706F727461626C655C525644535C415279
:105450004D5F434D34465C706F72742E63000000E4
:105460004572726F723A25732C25640D0A00000094
:105470000CED00E010B5074B002253F832401CB190
:10548000521C082AF9D310BD43F8321003EBC201B5
:10549000486010BD20E2002070B515460E46044657
:1054A000FFF7D6FE94F944100020491C01D184F87E
:1054B000440094F94510491C01D184F84500FFF7D8
:1054C00003FFA06B28B92A46314604F1240000F0FE
:1054D000D1F82046BDE87040FFF78EBD10B504003E
:1054E00012D00E49096B29B140F2CF420CA111A094
:1054F000FAF74AFF00F09CF900212046FFF786F9F1
:1055000000F0A0FE002807D10E494FF0805008603F
:10551000BFF34F8FBFF36F8F10BD0000AC050020AD
:105520002E2E5C4672656552544F535C7461736BEA
:10553000732E63004572726F723A25732C25640DC9
:105540000A00000004ED00E070B50446FFF780FE9D
:10555000234D04B92C68201DFFF736FE58B9E06AC8
:10556000204A00EB800152F8211021B9012181402D
:10557000286988432861A06A18B104F11800FFF770
:1055800023FE686A401C68622868844207D1211D96
:105590001548FFF751FE6868401C686007E0A8687E
:1055A000401EA8602046FFF76CFAFFF785FCFFF766
:1055B0008BFE6869002812D0286884420FD1286BBE
:1055C00028B140F2654209A10DA0FAF7DDFE1049AD
:1055D0004FF080500860BFF34F8FBFF36F8F70BDE7
:1055E000AC05002060E200201CE500202E2E5C4669
:1055F00072656552544F535C7461736B732E630014
:105600004572726F723A25732C25640D0A000000F2
:1056100004ED00E001490120C8617047AC0500209D
:1056200070B50D46040005D140F6063207A10CA066
:10563000FAF7AAFE0E48016820461831FFF7E4FD8C
:105640002846BDE870400121FFF7E0B82E2E5C46E9
:1056500072656552544F535C7461736B732E6300B3
:105660004572726F723A25732C25640D0A00000092
:10567000AC05002070B514460E46050005D140F675
:10568000313209A10DA0FAF77FFE104801682846C3
:105690001831FFF7D1FD0CB14FF0FF3621463046EF
:1056A000BDE87040FFF7B2B82E2E5C4672656552B9
:1056B000544F535C7461736B732E63004572726F49
:1056C000723A25732C25640D0A000000AC050020F9
:1056D00070B5040039D01D4DE06A2968C96A884256
:1056E00033D2A069002804DB2868C06AC0F120001A
:1056F000A061E06A164E00EB8000616906EB800055
:1057000081421FD1201DFFF75FFD012150B9E06AE2
:1057100000EB800256F8222022B92A6901FA00F033
:1057200082432A612868C06AE0622A698140114385
:10573000296100EB800006EB8000211DBDE8704070
:10574000FFF77ABD2868C06AE06270BDAC05002032
:1057500060E2002010B5040005D140F6C13205A179
:1057600009A0FAF711FE0C48016A2160C068606068
:1057700010BD00002E2E5C4672656552544F535C7E
:105780007461736B732E63004572726F723A257386
:105790002C25640D0A000000AC0500201CB517483C
:1057A0000024CDE900402346822215A1164800F0CE
:1057B000EFFB012803D100F0F1FD01280AD0401CC5
:1057C0001BD102B040F28472BDE810400FA114A0BA
:1057D000FAF7DABD502080F31188BFF34F8FBFF383
:1057E0006F8F06484FF0FF312C38816201214161F3
:1057F000C460BDE81C4000F061B81CBDD8050020A5
:1058000049444C4500000000E54A00082E2E5C4645
:1058100072656552544F535C7461736B732E6300F1
:105820004572726F723A25732C25640D0A000000D0
:105830000248016B491C016370470000AC05002061
:1058400070B5134D286B10B10120E86170BD0020C8
:10585000E86128690F4EB0FA80F0C0F11F0000EB3C
:10586000800456F8240028B940F6F6220AA10FA0B9
:10587000FAF78AFD06EB840000F1080241684968E6
:105880004160914201D149684160C868286070BD9B
:10589000AC05002060E200202E2E5C467265655249
:1058A000544F535C7461736B732E63004572726F57
:1058B000723A25732C25640D0A0000001CB5304C8B
:1058C00020683049884205D140F259122EA139A0F2
:1058D000FAF75AFD20682B49491E884205D14FF43A
:1058E000AD7229A133A0FAF74FFD364C2078019014
:1058F000FF20207020788DF800009DF800009DF8B2
:10590000001000F0F000884205D040F273121EA192
:1059100028A0FAF739FD9DF800002B4A00F050004E
:1059200010700720906007E09068401E90609DF81E
:10593000000040008DF800009DF800000006F3D440
:10594000107A000200F4E0609060019820700C482A
:105950002030016841F470010160016841F070413C
:105960000160FFF731FD00205060FAF7AFFC1748E7
:10597000016841F040410160FAF798FC00201CBD2D
:1059800000ED00E071C20F412E2E5C46726565523B
:10599000544F535C706F727461626C655C52564414
:1059A000535C41524D5F434D34465C706F72742EB0
:1059B000630000004572726F723A25732C25640DE6
:1059C0000A00000000E400E0FC05002034EF00E0E5
:1059D00010B5502080F31188BFF34F8FBFF36F8F46
:1059E00000F016FB18B104494FF080500860002009
:1059F00080F3118810BD000004ED00E02DE9F041B6
:105A000017460E46050005D14FF4C47210A115A02B
:105A1000FAF7BAFCBEB105FB06F05430FFF728FBDD
:105A200004000ED004F154007EB12060C4E90F568A
:105A30002046012100F0E0F884F850700021204653
:105A4000A164BDE8F0810020E7E72460EEE70000F4
:105A50002E2E5C4672656552544F535C71756575A8
:105A6000652E63004572726F723A25732C25640DA2
:105A70000A0000002DE9FF4F83B09B468A460400D0
:105A80004FF0000605D140F2DC4251A155A0FAF7D3
:105A90007BFCBAF1000F07D1206C28B140F2DD4247
:105AA0004BA150A0FAF770FC00F09EFA38B90598A7
:105AB00028B14FF49C6246A14AA0FAF765FC4FF06A
:105AC00000094FF08057DFF82C81FFF7C1FBA56B71
:105AD00045B351462046E668FEF78AFFBBF1000F4A
